:100000000C9415060C943D060C943D060C943D068C
:100010000C943D060C943D060C943D060C943D0654
:100020000C943D060C943D060C94D6200C94681F4D
:100030000C943D060C943D060C943D060C943D0634
:100040000C943D060C9482140C943D060C943D06D1
:100050000C943D060C943D060C943D060C94A81897
:100060000C943D060C943D060C943D060C943D0604
:100070000C943D060C943D060C943D060C943D06F4
:100080000C94F5140C943D060C943D060C943D061E
:100090000C943D060C943D060C943D060C943D06D4
:1000A0000C943D060C943D060C943D06D719DC19C2
:1000B000E119EB19F5193F1A3F1A3F1AFF19091AEE
:1000C000131A1D1A2A1A3F1A321A601A631A521A80
:1000D000561A5C1A841A841A841A671A6B1A6F1AD1
:1000E000751A791A841A7F1AF0F89C8E8783878E86
:1000F0009CF8F00000FEFF0303030303070EFCF867
:100100000000FEFF0303030303070EFCF80000FFDB
:10011000FF00000000000000FFFF0000FEFF8383DF
:10012000838383C7EE7C380000F8FC0E07030303CB
:10013000070EFCF800003F7FE0C08080C0E07F3FFA
:10014000FFFF01010101010101FFFF0000FFFF0CA2
:100150000C0C0C1C3E77E3C100007FFFC0C0C0C088
:10016000C0E0703F1F00001F3F70E0C0C0C0E070E3
:100170003F1F00007FFFC1C1C1C1C1E3773E1C002A
:10018000001F3F70E0C0C0C0E0703F1F00000000D3
:100190000001FFFF0100000000000000003E5B4F77
:1001A0005B3E3E6B4F6B3E1C3E7C3E1C183C7E3CD7
:1001B000181C577D571C1C5E7F5E1C00183C1800E5
:1001C000FFE7C3E7FF0018241800FFE7DBE7FF3075
:1001D000483A060E2629792926407F050507407FE3
:1001E00005253F5A3CE73C5A7F3E1C1C08081C1C56
:1001F0003E7F14227F22145F5F005F5F06097F014C
:100200007F006689956A606060606094A2FFA29436
:1002100008047E040810207E201008082A1C080804
:100220001C2A08081E101010100C1E0C1E0C303852
:100230003E3830060E3E0E06000000000000005F53
:1002400000000007000700147F147F14242A7F2A6F
:100250001223130864623649562050000807030031
:10026000001C2241000041221C002A1C7F1C2A087D
:10027000083E0808008070300008080808080000E0
:1002800060600020100804023E5149453E00427F54
:10029000400072494949462141494D331814127FA3
:1002A0001027454545393C4A494931412111090743
:1002B0003649494936464949291E000014000000C4
:1002C0004034000000081422411414141414004196
:1002D00022140802015909063E415D594E7C121153
:1002E000127C7F494949363E414141227F4141418B
:1002F0003E7F494949417F090909013E4141517306
:100300007F0808087F00417F41002040413F017F76
:10031000081422417F404040407F021C027F7F043E
:1003200008107F3E4141413E7F090909063E415187
:10033000215E7F09192946264949493203017F0177
:10034000033F4040403F1F2040201F3F4038403F78
:10035000631408146303047804036159494D43008E
:100360007F4141410204081020004141417F0402C5
:10037000010204404040404000030708002054545C
:1003800078407F284444383844444428384444283A
:100390007F385454541800087E090218A4A49C788D
:1003A0007F0804047800447D40002040403D007FE9
:1003B0001028440000417F40007C047804787C08C9
:1003C0000404783844444438FC182424181824249D
:1003D00018FC7C08040408485454542404043F4482
:1003E000243C4040207C1C2040201C3C4030403CB1
:1003F00044281028444C9090907C4464544C440011
:100400000836410000007700000041360800020174
:100410000204023C2623263C1EA1A161123A404060
:10042000207A3854545559215555794121545478DE
:1004300041215554784020545579400C1E52721277
:1004400039555555593954545459395554545800FF
:1004500000457C410002457D420001457C40F02979
:100460002429F0F0282528F07C54554500205454C8
:100470007C547C0A097F493249494932324848480C
:1004800032324A4848303A4141217A3A4240207853
:10049000009DA0A07D39444444393D4040403D3C4E
:1004A00024FF2424487E4943662B2FFC2F2BFF0971
:1004B00029F620C0887E0903205454794100004465
:1004C0007D413048484A32384040227A007A0A0A50
:1004D000727D0D19317D2629292F282629292926C3
:1004E00030484D4020380808080808080808382F08
:1004F00010C8ACBA2F102834FA00007B0000081492
:100500002A142222142A14089500220095AA0055C4
:1005100000AAAA55AA55AA000000FF00101010FF5B
:1005200000141414FF001010FF00FF1010F010F062
:10053000141414FC001414F700FF0000FF00FF1453
:1005400014F404FC141417101F10101F101F14149F
:10055000141F00101010F0000000001F10101010E9
:100560001F10101010F010000000FF1010101010DD
:1005700010101010FF10000000FF140000FF00FF1B
:1005800000001F10170000FC04F4141417101714B7
:1005900014F404F40000FF00F714141414141414D9
:1005A000F700F7141414171410101F101F1414144C
:1005B000F4141010F010F000001F101F0000001FB6
:1005C00014000000FC140000F010F01010FF10FFE9
:1005D000141414FF141010101F00000000F010FF7E
:1005E000FFFFFFFFF0F0F0F0F0FFFFFF0000000062
:1005F00000FFFF0F0F0F0F0F38444438447C2A2AA6
:100600003E147E02020606027E027E0263554941C6
:10061000633844443C04407E201E2006027E0202D1
:1006200099A5E7A5991C2A492A1C4C7201724C30E5
:100630004A4D4D303048784830BC625A463D3E49BC
:100640004949007E0101017E2A2A2A2A2A44445F60
:10065000444440514A444040444A51400000FF0154
:1006600003E080FF000008086B6B08361236243662
:10067000060F090F060000181800000010100030C7
:1006800040FF0101001F01011E00191D1712003C4F
:100690003C3C3C000000000006011501260137012A
:1006A0004A015D01720188019F01B801D201EE018A
:1006B0000B022A024B026E029302BA02E4021003FA
:1006C0003F037003A403DC03170455049704DD04FF
:1006D00027057505C80520067D06E0064907B80709
:1006E0002D08A9082D09B9094D0AEA0A900B400CFA
:1006F000FA0CC00D910E6F0F5A1053115B1272134A
:100700009A14D41520178018F519801B231DDE1E9E
:10071000B420A622B524E4263429A72B402E00318C
:10072000EA330037453ABC3D68414C456B49C84DFA
:1007300068524F57805C006210111213151617187B
:100740001A1C1D1F21232527292C2E3134373A3E10
:100750004145494E52575C62686E757B838B939C12
:10076000A5AFB9C4D0DCE9F70301D5F08D14A1C859
:1007700081CFD9F1AF200014021302120215020733
:1007800002080204010C0106010080C0E030B0B094
:1007900030E0C08078FCFE036B6B87FEFC78070FAF
:1007A0001F303D3D301F0F0700000103030303010D
:1007B0000000FFFFFFFF01FDFDFDFDFF01FDFDFD51
:1007C00001FF01FDFDFD01FF01EDEDEDEDFFFFFF7F
:1007D000FFFFFFFFFFFCFDFDFDFDFFFCFDFDFDFC40
:1007E000FFFCFFFFFFFCFFFCFFFFFFFFFFFFFFFF22
:1007F000FFFFFFFF01EDEDEDE1FF01FFFFFFFFFF59
:1008000003DDDDDD03FFF1CF3FCFF1FFFFFFFFFF92
:10081000FFFFFFFCFFFFFFFFFFFCFDFDFDFDFFFCF9
:10082000FFFFFFFCFFFFFFFCFFFFFFFFFFFF0000DC
:100830000404040404040408080808080808080854
:1008400008081818E80808080808080808088808A8
:1008500010101010101010101010000000000000F8
:100860000000000000000000000000000000000088
:1008700000E04040408080808000000000000000D8
:100880000000000000000000000000000000000068
:100890000000000000000000000000000000000058
:1008A0000000000000000000000000000000000048
:1008B0000000000000000000000000000000000038
:1008C00000000000009FE0000000000000001FE0AA
:1008D0000000000000000000000000000000000018
:1008E0000000000000000000000000000000000008
:1008F00000001FE0000000103051890A0A040000C7
:1009000000000000000000000000000000000000E7
:1009100000000000000000000000000000000000D7
:1009200000000000000000000000000000000000C7
:1009300000000000000000000000000000000000B7
:10094000000000C0300F000000000000000080FF29
:10095000202020202040C0000000000080402020F7
:100960002020202020408000000000000000000027
:1009700000000007F80000000000010638C0000079
:100980000080404040404080000000C00000000067
:1009900000000000C0000000000000000000008017
:1009A0004040408080000000000000000000000087
:1009B0000000000000000000000000000000000037
:1009C000E0180700000000000000000000FFE01F2A
:1009D00000000000000000FF000000FE09081010E9
:1009E0001010101010180D02000000000000000090
:1009F0000000000007F8000000008040300F0000F9
:100A00003EC1000080E01F0000003FC080804040E9
:100A1000300C0280F01F040202FE00003CC2010004
:100A20001E614188880909060000000000000000DE
:100A30000000000000000000000000000000007E38
:100A4000410000000000000000000000000F030053
:100A50000000000000000403000000000302040482
:100A60000000000000000000000000000000000086
:100A70000000000000010006060100000000000068
:100A80000000010101000000000000000000000063
:100A90000000000301000000000100000000010050
:100AA0000000000000010100000000000000000044
:100AB0000000000000000000000000000000000036
:100AC0000000000000000000000000000000000026
:100AD0000000000000000000000000000000000016
:100AE0000000000000000000000000000000000006
:100AF00000000000000000000000000000000000F6
:100B000000000000000000000000000000000000E5
:100B100000000000000000000000000000000000D5
:100B200000000000000000000000000000000000C5
:100B3000000200090F0000030401000C0000000087
:100B40000000000000000000000000000004080297
:100B50000110408040102040804080080204018045
:100B600040201002011080102040402004040404A2
:100B70000403040502020202040302020202060642
:100B80000606060604040202020404000000002512
:100B90000028002B002E0031000000000024002758
:100BA000002A002D003000080B000202020100099B
:100BB00004000001020200000524001001052401C8
:100BC0000101042402060524060001070581031023
:100BD000004009040100020A00000007050202406B
:100BE00000000705830240000012010002EF02012D
:100BF000404123368000010102030112010002007E
:100C0000000040412336800001010203014172646B
:100C100075696E6F204C4C430041726475626F7948
:100C2000000403090400EC0BFA1B11241FBECFEFD4
:100C3000DAE0DEBFCDBF12E0A0E0B1E0E8E1FAE427
:100C400002C005900D92A83AB107D9F727E0A8EAAB
:100C5000B2E001C01D92AE3AB207E1F71CE0CAE271
:100C6000DCE004C02297FE010E947A24C632D1073C
:100C7000C9F70E94181C0C940A250C94000040ED42
:100C800057E060E070E081EF96E00E94B01620E04F
:100C900032EC41E050E066E477E081EF96E00E94BC
:100CA000691681EF96E00E9466166AE072E0809114
:100CB0002207909123070E94691C6AE070E080E09F
:100CC00090E00E94211941E060E081EF96E00E94EF
:100CD00022178DEA92E00E944E116EE18DEA92E0B9
:100CE0000E94500C4091EE015091EF016091F00193
:100CF0007091F10188E297E00C947B182F923F925B
:100D00004F925F926F927F928F929F92AF92BF921B
:100D1000CF92DF92EF92FF920F931F93CF93DF93C7
:100D2000CDB7DEB760970FB6F894DEBF0FBECDBF6C
:100D30000E94F218672B682B692B41F40E94F2186D
:100D4000623071058105910508F477C00E94F218A0
:100D50006093C7067093C8068093C9069093CA062D
:100D6000C090CB06D090CC06E090CD06F090CE0699
:100D70006C157D058E059F0540F46093CB0670933E
:100D8000CC068093CD069093CE06C090CB06D09033
:100D9000CC06E090CD06F090CE069B01AC012C195C
:100DA0003D094E095F0969017A013AEFC316D10482
:100DB000E104F10408F441C06093CB067093CC06C3
:100DC0008093CD069093CE0681EF96E00E94661642
:100DD0006CE172E080912207909123070E94691CC8
:100DE00064E272E080912207909123070E94691CBF
:100DF0000E94F218AB01BC012AE030E0809122078A
:100E0000909123070E94131D66E272E080912207F1
:100E1000909123070E94691C62E070E080E090E0FE
:100E20000E9421196AE070E080E090E00E942119A0
:100E300061E081EF96E00E94E4168DEA92E00E9464
:100E4000650C882309F4AFC48DEA92E00E94650F17
:100E50008091F4019091F5018130910509F062C013
:100E6000CC24C394BAE2EB2E00E82EE238E040E056
:100E700050E060E070E08DEA92E00E94B00F809157
:100E8000F601882391F0A0E1EA2E0FE120EF37E090
:100E900040E350E06CE070E08DEA92E00E94B00F19
:100EA00022EB37E044E350E013C0CC24C394F0E1DC
:100EB000EF2E0FE120EF37E044E350E06CE070E00C
:100EC0008DEA92E00E94B00F22EB37E040E350E061
:100ED00065E570E08DEA92E00E94B00F68E08DEA6F
:100EE00092E00E949912882371F08091F601882384
:100EF00051F082E090E09093F5018093F4018DEA47
:100F000092E00E94D70C60E28DEA92E00E94991272
:100F1000811134C460E48DEA92E00E94991281113B
:100F20002DC439C48230910509F082C260E88DEA8F
:100F300092E00E949912882331F081E090E0909332
:100F4000F5018093F4016DEA72E088E297E00E9477
:100F50003D1720E030E046E953E460913507709199
:100F6000360780913707909138070E94A8231816FA
:100F700064F44091EE015091EF016091F0017091A5
:100F8000F10188E297E00E947B181A8619861C827C
:100F90001B828091EC019091ED01EB81FC81E817BF
:100FA000F9070CF0E4C1409031075090320760908F
:100FB00033077090340740910401509105018985F1
:100FC0009A85480F591F588B4F87FA01A080B1802E
:100FD000B50165507109882777FD8095982F0E948B
:100FE000F8229B01AC01C301B2010E94A82387FD36
:100FF000B1C1EF85F8890480F581E02DEA0DFB1D74
:10100000FA83E983CF010596BC01882777FD809597
:10101000982F0E94F8229B01AC01C301B2010E94EB
:10102000C12218160CF496C1C0903507D09036072F
:10103000E0903707F0903807EF85F8890281138137
:10104000C8010597BC01882777FD8095982F0E94DD
:10105000F8229B01AC01C701B6010E94A82387FDBD
:1010600079C1EF85F88926803780200E311EC101B5
:101070000596BC01882777FD8095982F0E94F8225D
:101080009B01AC01C701B6010E94C12218160CF4E5
:1010900061C1B501882777FD8095982F0E94F822BD
:1010A0006D837E838F8398879B01AC01C301B2015E
:1010B0000E94A82387FD96C029813A814901AA246C
:1010C00097FCA094BA2CC501B4010E94F8229B01A0
:1010D000AC01C301B2010E94C12218160CF445C034
:1010E00020E030E040E850E4C701B6010E945D22F4
:1010F0006B877C878D879E87B801882777FD8095D1
:10110000982F0E94F8229B01AC016B857C858D8510
:101110009E850E94A82387FD28C0B101882777FDFE
:101120008095982F0E94F8229B01AC016B857C85ED
:101130008D859E850E94C1221816BCF0EF85F88926
:1011400080859185029721F0F1E0F0933C074AC039
:1011500023E030E03093F5012093F40142E050E0C9
:101160005093EF014093EE013DC0C501B4010E94D0
:10117000F8229B01AC01C301B2010E94C1221816E2
:101180008CF120E030E040E450E4C701B6010E9459
:101190005C224B015C01B801882777FD8095982F70
:1011A0000E94F8229B01AC01C501B4010E94A82352
:1011B00087FD18C0B101882777FD8095982F0E9480
:1011C000F8229B01AC01C501B4010E94C12218168E
:1011D0004CF0EF85F88980859185029719F0F1E050
:1011E000F0933B0720E030E040E450E4C301B2015B
:1011F0000E945D224B015C012D813E814F8158850B
:101200000E94A82387FD3AC029813A81B901882725
:1012100077FD8095982F0E94F8229B01AC01C501B3
:10122000B4010E94C12218164CF1B801882777FD3D
:101230008095982F0E94F8229B01AC01C701B6014E
:101240000E94A82387FD1AC0B101882777FD8095E9
:10125000982F0E94F8229B01AC01C701B6010E94A1
:10126000C12218165CF0EF85F88980859185029778
:1012700009F44EC0F1E0F0933A074AC020E030E0B4
:1012800040E450E4C301B2010E945C224B015C01C6
:101290002D813E814F8158850E94A82387FD38C04B
:1012A00029813A81B901882777FD8095982F0E947E
:1012B000F8229B01AC01C501B4010E94C12218169D
:1012C0003CF1B801882777FD8095982F0E94F8227D
:1012D0009B01AC01C701B6010E94A82387FD18C07D
:1012E000B101882777FD8095982F0E94F8229B01F5
:1012F000AC01C701B6010E94C12218164CF0EF855F
:10130000F88980859185029719F0F1E0F09339070B
:1013100080913B0781110CC080913C07811108C06E
:1013200080913907811104C080913A07882391F098
:10133000EF85F88980859185019761F44091EE01F0
:101340005091EF016091F0017091F10188E297E016
:101350000E947B182B813C812F5F3F4F3C832B8366
:1013600049855A85465F5F4F5A87498712CE6091FB
:10137000AA027091AB02882777FD8095982F0E9472
:10138000F8226B017C0120E030E040E852E46091FB
:1013900031077091320780913307909134070E9492
:1013A0005C22A70196010E945C2229E23CE54FE8FD
:1013B0005DE30E94AC239B01AC01C701B6010E9412
:1013C0005D220E94C5227093AB026093AA026091D5
:1013D000A8027091A902882777FD8095982F0E9416
:1013E000F8226B017C0120E030E040E052E46091A3
:1013F00035077091360780913707909138070E9422
:101400005C22A70196010E945C2229E23CE54FE89C
:101410005DE30E94AC239B01AC01C701B6010E94B1
:101420005D220E94C5227093A9026093A8025BC04E
:10143000039709F058C062E08DEA92E00E94590CCF
:101440008823F9F020E030E040E85FE36091350761
:101450007091360780913707909138070E945C227F
:10146000609335077093360780933707909338075A
:101470008091EE019091EF0102969093EF0180939D
:10148000EE018091EE019091EF01813891055CF1C0
:1014900022E030E03093F5012093F40180E290E007
:1014A0009093EF018093EE018091F2019091F3010E
:1014B00081309105C1F43093F3012093F2019093B0
:1014C000ED018093EC0186E091E09093050180931B
:1014D00004016091F0017091F10140E250E088E276
:1014E00097E00E947B188091F4019091F50102979A
:1014F000029708F027C140E050E060E070E08DEA1C
:1015000092E00E948D128DEA92E00E94B00C4AE0B7
:1015100050E0BC018DEA92E00E940B1D612C712C01
:10152000812C912C2091EC013091ED018091AA0247
:101530009091AB02A091A802B091A90282169306E5
:101540000CF07BC0E0910401F0910501E60DF71D60
:1015500020853185028113816081718121303105BF
:1015600089F0A8014A1B5B0B681B790BEE24E394FE
:1015700006812230310549F124818DEA92E00E94F2
:10158000F70E54C02481358146815781400F511F89
:101590004A1B5B0B7B01E20EF31EE81AF90A0A1BD9
:1015A0001B0B37FF02C02F5F3F4F35952795260F46
:1015B000371F281B390B681B790BAA24A3946A01D7
:1015C0008DEA92E00E94680F31C024818DEA92E09A
:1015D0000E94F70EE0910401F0910501E60DF71D60
:1015E0001681E280F3808091A8029091A902E81A06
:1015F000F90A608171818091AA029091AB02681B07
:10160000790B24813581260F371F442737FD4095FC
:10161000542F882777FD8095982F0E94A22101E002
:10162000212FA7018DEA92E00E94C80DFFEF8F1ACB
:101630009F0A2AE0620E711C75CF2091F201309151
:10164000F3012130310559F545E350E04A1B5B0BAE
:1016500061E371E0681B790BCC24C3948EE0E82E23
:1016600004E12AE837E08DEA92E00E94B00F47E3F8
:1016700050E08091A8029091A902481B590B6EE39B
:1016800071E08091AA029091AB02681B790BEE2465
:10169000E39406E024E08DEA92E00E942E0F809110
:1016A000F4019091F5010091AA021091AB02E09033
:1016B000A802F090A902029711F560913507709188
:1016C000360780913707909138070E94C522AB01F9
:1016D0004E195F097A01609131077091320780914C
:1016E0003307909134070E94C522601B710B01E003
:1016F00021E0A7018DEA92E00E949C0E23C0609138
:1017000035077091360780913707909138070E940E
:10171000C5226B01CE18DF08609131077091320746
:1017200080913307909134070E94C522601B710B92
:10173000EE24E3940091EE0122E0A6018DEA92E00E
:101740000E94F70E8DEA92E060960FB6F894DEBF25
:101750000FBECDBFDF91CF911F910F91FF90EF9002
:10176000DF90CF90BF90AF909F908F907F906F90C1
:101770005F904F903F902F900C9496128091AC0206
:101780008111B1CE8091F60191E089278093F60115
:101790009093AC02A8CE8091AC02882309F4A3CE2A
:1017A0001092AC02A0CE60960FB6F894DEBF0FBECA
:1017B000CDBFDF91CF911F910F91FF90EF90DF9000
:1017C000CF90BF90AF909F908F907F906F905F90E1
:1017D0004F903F902F9008958DEA92E00C94260C44
:1017E000CF93CFB7F8948091CF06811127C0EDE752
:1017F000FBE08491EEE5FBE09491E82FF0E0EE0F42
:10180000FF1FE756F44FA591B4918C91892321F4E1
:1018100061E081E10E94BE1A61E081E10E94851AC7
:101820008CB580618CBD8CB580648CBD61E08FE02F
:101830000E94851A61E080E10E94851A8091CF069E
:101840008F5F8093CF06CFBFCF910895CF93DF9363
:10185000EC0183EA92E0998388831B821A82CE018D
:101860000E94201583E392E0998388838CE38E8322
:1018700080E1898718861F821E861F86188A198A2A
:101880001A8AFE01EC5EFB4F1182108232961182A1
:101890001082C85EDB4F81E08883DF91CF9108958D
:1018A000FC01668370E088EE93E00E942324618748
:1018B000089570E0FC01878190850E940F2421E04B
:1018C000892B09F020E0822F08950F931F93CF9367
:1018D000DF93EC010E94F218E62F462F572FBC0130
:1018E0008A89882351F08A859E2F981B9B8B8F8134
:1018F0009885019698878F831A8A0E851F85288977
:101900003989401751076207730734F40E1B023000
:1019100008F10E94D6151EC089850A851B852C8575
:101920003D85080F111D211D311D041715072607C0
:1019300037072CF00E871F87288B398B04C04E8702
:101940005F87688B798B4A875B876C877D8781E0AF
:101950008A8B01C080E0DF91CF911F910F91089594
:10196000FC01838924E6829FC0011124618570E017
:101970000E942324CB01089560937C00673C19F4F6
:1019800080E280937B0062E070E080E090E00E9463
:10199000211980917A00806480937A0080917A0086
:1019A00086FDFCCF80917800909179000895CF92C8
:1019B000DF92EF92FF92CF93DF937C01C4E6D0E0F9
:1019C00088818E7F888367ECC7010E94BC0C6C0104
:1019D0006EE5C7010E94BC0C7C010E94FE189B01B1
:1019E000AC01E094F094C094D094EC9CD001ED9CB8
:1019F000B00DFC9CB00D112420953095409550956C
:101A00000E948D246B017C010E94FE186C0D7D1DCF
:101A10008E1D9F1D0E947621888181608883DF91C1
:101A2000CF91FF90EF90DF90CF90089560387105CF
:101A300018F54034510500F5E42FE695E695E69556
:101A4000F0E047705527F695FE2FEE27F795E795BE
:101A5000E60FF71FE80FF91F81E090E0042E01C0A8
:101A6000880F0A94EAF7222319F09489982B03C06F
:101A7000809594899823948B08952F923F924F924A
:101A80005F926F927F928F929F92AF92BF92CF920E
:101A9000DF92EF92FF920F931F93CF93DF932C016E
:101AA000EB016A0159019801241B350B37FF03C074
:101AB000319521953109C5018C1B9D0B97FF03C002
:101AC000919581959109FF24F3948217930714F05F
:101AD000F12C0AC09A2D8B2D5801092F182F9C2FFD
:101AE0008D2FE601C92ED82EAC16BD0654F49C2DC0
:101AF0008D2D6801092F182F9C2F8D2FE501A92E00
:101B0000B82E15012C1A3D0A38016C187D0877FE95
:101B100003C0719461947108410137FE03C08FEFD7
:101B2000881A980A95948794C016D10614F401E097
:101B300001C00FEF112707FD1095AC16BD06ACF0E4
:101B40002E2DFF2019F0AE01B60102C0A601BE0184
:101B5000C2010E94160D8618970897FE04C0C00E99
:101B6000D11E820C931C2196E8CFDF91CF911F915B
:101B70000F91FF90EF90DF90CF90BF90AF909F902C
:101B80008F907F906F905F904F903F902F9008952F
:101B9000AF92BF92CF92DF92EF92FF920F93CF93CB
:101BA000DF936C015B017A01E20EF11CEA0157FF41
:101BB0000DC0C0E0D0E00AC0C417D5077CF4202FC8
:101BC000AE01B501C6010E94160D2196A70181E460
:101BD000E816F1048CF340E450E0EECFDF91CF91B2
:101BE0000F91FF90EF90DF90CF90BF90AF9008954E
:101BF0002F923F924F925F926F927F928F929F921D
:101C0000AF92BF92CF92DF92EF92FF920F931F930A
:101C1000CF93DF9300D01F92CDB7DEB74C013B01CD
:101C20002A011E2D822F90E09B838A8322242394F5
:101C3000312C281A390A7C01F194E194F108EE0C58
:101C4000FF1CAA24A394B12C302F317039831F5F5D
:101C50000270D02EC5010197EA81FB818E179F0784
:101C60000CF054C037FC0AC08A819B8101979B838A
:101C70008A8392E0E90EF11C2E0C3F1CC501880FEF
:101C8000991F0196280E391E39813323E1F02A81EC
:101C9000220F210F0C2DA2018A819B81481B590B19
:101CA000B501660D771DC4010E94C80D2A2D220FB3
:101CB000210FA2014A195B096A817B81660D771D9C
:101CC000C4010E94C80DDD20E9F02A81220F210FF6
:101CD0000C2DA201EA81FB814E1B5F0BB3016A1937
:101CE0007B09C4010E94C80D2A2D220F210FA201D9
:101CF0004A195B09B3018A819B81681B790BC40176
:101D00000E94C80D9FEFA91AB90AA4CF0F900F9097
:101D10000F90DF91CF911F910F91FF90EF90DF9087
:101D2000CF90BF90AF909F908F907F906F905F907B
:101D30004F903F902F9008958F929F92AF92BF92B5
:101D4000CF92EF92FF920F931F93CF93DF93EC010B
:101D50005B014A01122FC02E220F2F5F411B510938
:101D60000E94C80DE12CF12C03E0212FA401B50144
:101D7000CE010E94F80DDF91CF911F910F91FF903E
:101D8000EF90CF90BF90AF909F908F900895AF92BB
:101D9000BF92CF92DF92EF92FF920F93CF93DF9398
:101DA0006C015A017B01E20EF11CEB0177FF0DC0C3
:101DB000C0E0D0E00AC0C617D7077CF4202FA501E9
:101DC000BE01C6010E94160D2196B70181E8E816F2
:101DD000F1048CF360E870E0EECFDF91CF910F91CA
:101DE000FF90EF90DF90CF90BF90AF900895AF92AB
:101DF000BF92CF92DF92EF92FF920F931F93CF93F8
:101E0000DF93EC015B016A01F22E102F0E2D0E9470
:101E1000C70EA601410F511D415051092F2DB5018B
:101E2000CE010E94C70E212FA601B501CE010E944E
:101E3000C80DB5016F0D711D61507109212FA601EB
:101E4000CE010E94C80DDF91CF911F910F91FF909D
:101E5000EF90DF90CF90BF90AF9008958F929F92B8
:101E6000AF92BF92CF92DF92EF920F931F93CF93D7
:101E7000DF936C015A01102FEB014B01820E911C74
:101E8000C815D9054CF40E2D212FA501BE01C601A0
:101E90000E94C80D2196F4CFDF91CF911F910F9131
:101EA000EF90DF90CF90BF90AF909F908F9008956C
:101EB0004496B62FB111BFEFFC010024B193B1934A
:101EC000B193B1930394D1F7089560E00C94580F47
:101ED0002F923F924F925F926F927F928F929F923A
:101EE000AF92CF92DF92EF92FF920F931F93CF9317
:101EF000DF9300D000D0CDB7DEB79C838B831B016E
:101F00004A0139012801FA82E982EA2C0E943D0D3A
:101F1000860129813A81A201B3018B819C810E94B3
:101F20003D0D84019101A60169817A818B819C819B
:101F30000E943D0D0F900F900F900F90DF91CF9169
:101F40001F910F91FF90EF90DF90CF90AF909F90F7
:101F50008F907F906F905F904F903F902F9008955B
:101F60002F923F924F925F926F927F928F929F92A9
:101F7000AF92BF92CF92DF92EF92FF920F931F9397
:101F8000CF93DF9300D000D01F92CDB7DEB7C982C8
:101F9000202E312CFB01E20DF31DF7FD13C160383B
:101FA00071050CF00FC1FA01EE0DF11DF7FD0AC12C
:101FB000403451050CF006C1DA0157FF04C0AA27CE
:101FC000BB27A41BB50BFD01E770FF27FB83EA834A
:101FD000FA0157FD3796DF0113E0B595A7951A95DD
:101FE000E1F7BD83AC8357FF0CC01197BD83AC8371
:101FF00048E050E0DA01EA81FB81AE1BBF0BBB83F6
:10200000AA834E2D469546954695C42ED12C4E2D2D
:10201000477019F0FFEFCF1ADF0A49014C815D814B
:102020005695542F442757954795480F591F2C8193
:102030003D81F8E06F2E712C8A819B81681A790AA4
:10204000C901AC81BD818A1B9B0B8C159D050CF0D1
:10205000B9C02830310509F4B5C02F3F9FEF3907CB
:102060000CF4A3C0CB0100E010E0DA01A058BF4F90
:102070002D01021513050CF098C08038910509F464
:1020800094C097FD8EC02F3FBFEF3B0709F494C06B
:10209000D801A80DB91D7A01E80EF91EE981E130D9
:1020A00071F4FD01A491B0E00A8002C0AA0FBB1F29
:1020B0000A94E2F7F701B488AB29A48B28C0F98110
:1020C000F11114C0FD01A491EA2FF0E00A8002C0D2
:1020D000EE0FFF1F0A94E2F7E095F095D7015496B2
:1020E000AC905497B12CEA21FB210FC0FD01A491C3
:1020F000EA2FF0E00A8002C0EE0FFF1F0A94E2F719
:10210000D7015496BC905497EB255496EC93AA8132
:10211000BB81AB2B09F445C02730310509F441C020
:10212000F801E80DF91DB981B13089F4E491F0E0CE
:10213000062C02C0F595E7950A94E2F77201E80EC5
:10214000F91ED7015496BC905497EB2928C0B98149
:10215000B11115C0E491F0E0062C02C0F595E795A9
:102160000A94E2F7E095F0957201E80EF91ED701A6
:102170005496AC905497B12CEA21FB2110C0E49105
:10218000F0E0062C02C0F595E7950A94E2F772019B
:10219000E80EF91ED7015496BC905497EB2554963F
:1021A000EC930F5F1F4F019664CF2F5F3F4F820C60
:1021B000931C40585F4F44CFAA81BB81AB2B09F0E1
:1021C000AFCFEFCF0F900F900F900F900F90DF9148
:1021D000CF911F910F91FF90EF90DF90CF90BF9024
:1021E000AF909F908F907F906F905F904F903F90B7
:1021F0002F9008958F929F92AF92BF92CF92EF92BD
:102200000F931F93CF93DF935C01CEEEDFEF18E1C6
:102210004C0184E1880E911C20E040E0612F6C1B92
:10222000C5010E94FD15C5010E94650FCC24C39411
:1022300000E1E02E08E528EE30E0AE0164E170E058
:10224000C5010E94B00FC4010E94E1156BE170E06E
:1022500080E090E00E942119C03F31F46AEF70E005
:1022600080E090E00E9421192196C931D105A1F6A4
:102270006EEE72E080E090E00E94211920E040E0E4
:1022800060E0C501DF91CF911F910F91EF90CF904A
:10229000BF90AF909F908F900C94FD15CF93DF93DC
:1022A000EC010E9453150E9423168078803849F46F
:1022B0000E94F1152FEF4FEF6FEFCE010E94FD1539
:1022C000FFCFCE010E94FA10249665E0CE010E9455
:1022D00063136DE0CE010E946313DF91CF910C94E4
:1022E000B9122F923F924F925F926F927F928F928C
:1022F0009F92AF92BF92CF92DF92EF92FF920F9395
:102300001F93CF93DF93CDB7DEB728970FB6F8941E
:10231000DEBF0FBECDBF9E838D832A01603871055D
:102320000CF06DC0403451050CF069C0CB01A5E044
:10233000CA9E800D911D1124181619060CF05FC05D
:10234000EC2DF0E0FC83EB83CA01F8E0CF9E800D1A
:10235000911D1124181619060CF051C0A5E02A9FF2
:10236000C00111245B0118861F8288569E4F9A83F4
:102370008983BF81B53041F0E981FA818F819885E9
:10238000E80FF91F149101C010E0320128E0D22EAD
:1023900010FF02C0F02E01C0FE2CF1100BC0E012A5
:1023A00009C01695DA94AB81BC816A0E7B1ED110F0
:1023B000EFCF19C01501822D8A198C1590F74301B2
:1023C000882D86198C1558F42F2DA401B1018D810B
:1023D0009E810E94160DBFEF8B1A9B0AF1CFEFEF83
:1023E0002E1A3E0AE8CF8F819885019698878F83B1
:1023F000AB81BC81AA0EBB1E069709F0BACF289606
:102400000FB6F894DEBF0FBECDBFDF91CF911F9105
:102410000F91FF90EF90DF90CF90BF90AF909F9083
:102420008F907F906F905F904F903F902F90089586
:102430008F929F92AF92BF92CF92EF920F93CF93D2
:10244000DF93EC01262F6A3099F4FC01E85EFB4F24
:10245000208132978081918138E0239F800D911DEA
:10246000112491838083CC5EDB4F198218824BC08C
:102470006D3009F448C0FC01EA5EFB4F4081518198
:102480005C018CEEA81A8BEFB80AF50160817181AE
:102490004E01F8EE8F1AFBEF9F0AF401C080E12C89
:1024A00001E0CE010E947111F4012081422F50E021
:1024B000F50180819181F6E02F9F800D911D1124FF
:1024C000F50191838083359620812223E1F06AEF24
:1024D00064039001659F300D112420583F4F281749
:1024E00039078CF4E881F9810190F081E02D6AE0F0
:1024F000CE01DF91CF910F91EF90CF90BF90AF9031
:102500009F908F900994DF91CF910F91EF90CF9092
:10251000BF90AF909F908F900895FC01EC5EFB4FB1
:1025200071836083329651834083089544960C945E
:10253000E115CF93DF931F92CDB7DEB769830E9479
:1025400023166981982F962381E0961380E00F90DF
:10255000DF91CF910895E4E6F0E08081877F80836A
:10256000E5E6F0E08081877F808381E08093D0067C
:1025700008951092DD0682E090E00E94FA24811115
:102580000C94AB120895CF92DF92EF92FF921F93BB
:10259000CF93DF939091DE06891708F065C067FD41
:1025A00063C0E82FF0E0E859F84F1491E62FF0E00F
:1025B000603330F4E85CF84FE491CE2FD0E006C0F1
:1025C000EE0FFF1FE85CF94FC591D4916E01E12C2D
:1025D000F12C60E074E284EF90E0A70196010E9484
:1025E000592421503109410951092115310581E052
:1025F0004807510570F060E970ED83E090E0A701B5
:1026000096010E945924215031094109510993E052
:1026100001C091E01130C9F0133031F58091910083
:10262000887F892B809391003093990020939800A4
:10263000D093DC06C093DB0681E08093DA068091BC
:1026400071008260809371000FC080918100887F4B
:10265000892B80938100309389002093880080919A
:102660006F00826080936F00DF91CF911F91FF9088
:10267000EF90DF90CF900895E82FF0E0E859F84F01
:10268000E491E13019F0E33069F0089580916F0032
:102690008D7F80936F002091E806E091E906F0912C
:1026A000EA0608C01092DA062091E106E091E206FF
:1026B000F091E306808190E030E020953095822310
:1026C000932380830895CF93DF93C62F8091DE06F6
:1026D000823009F46BC0E82FF0E0E859F84FD4914C
:1026E000A82FB0E0A152B94F6C938F5F8093DE06A4
:1026F00061E08C2F0E94851AD13091F1D33009F01E
:1027000055C01092900010929100809191008860C5
:1027100080939100809191008160809391006C2F53
:1027200070E0FB01E459F44F249130E0220F331F95
:102730002557344FF901859194919093E306809346
:10274000E206FB01E35BF44F64916093E1066CE306
:1027500080E00E94C31280E0DF91CF910C943C1383
:102760001092800010928100809181008860809397
:102770008100809181008160809381006C2F70E0E6
:10278000FB01E459F44F249130E0220F331F255709
:10279000344FF901859194919093EA068093E9066C
:1027A000FB01E35BF44F64916093E806DF91CF9106
:1027B0000895E091D106F091D206BF016F5F7F4F7F
:1027C0007093D2066093D106A4919A2F907F8A2F9E
:1027D0008F70903819F40E943C13EBCF903961F45C
:1027E000AF014E5F5F4F5093D2064093D106FB017D
:1027F00064910E94C312DDCF903E49F48091D306CC
:102800009091D4069093D2068093D106D2CF903F78
:1028100019F41092DD06089597FDCBCFAF014E5FFE
:102820005F4F5093D2064093D106FB016491262F4F
:1028300030E03A2BA091DB06B091DC060E947E24AA
:102840006C507E4F8F4F9F4F28EE33E040E050E0BA
:102850000E9437242093D5063093D6064093D7069E
:102860005093D8068091D5069091D606A091D706B0
:10287000B091D806892B8A2B8B2B61F481E090E0F4
:10288000A0E0B0E08093D5069093D606A093D7063B
:10289000B093D80608958091DA06882349F0909184
:1028A000E106E091E206F091E306808189278083CA
:1028B0008091DD06882329F18091D5069091D60676
:1028C000A091D706B091D806892B8A2B8B2BC9F003
:1028D0008091D5069091D606A091D706B091D806E2
:1028E0000197A109B1098093D5069093D606A093CC
:1028F000D706B093D806892B8A2B8B2B11F40C9416
:10290000D91308951F920F920FB60F9211242F938F
:102910003F938F939F93AF93BF93EF93FF938091D8
:10292000D906882309F44BC08091E4069091E5060E
:10293000A091E606B091E706892B8A2B8B2B51F1EB
:102940009091E806E091E906F091EA0680818927F6
:1029500080838091E4069091E506A091E606B0910F
:10296000E706181619061A061B0694F58091E40668
:102970009091E506A091E606B091E7060197A109BE
:10298000B1098093E4069093E506A093E606B09320
:10299000E7061EC01092D90680916F008D7F80934C
:1029A0006F002091E806E091E906F091EA06808147
:1029B00090E030E0209530958223932308C09091D9
:1029C000E806E091E906F091EA0680818927808394
:1029D000FF91EF91BF91AF919F918F913F912F9177
:1029E0000F900FBE0F901F9018951F920F920FB669
:1029F0000F9211242F933F934F935F936F937F9385
:102A00008F939F93AF93BF93EF93FF930E944B14C9
:102A1000FF91EF91BF91AF919F918F917F916F91B6
:102A20005F914F913F912F910F900FBE0F901F908C
:102A300018958EBD00000DB407FEFDCF8EB508952C
:102A40000895E091ED06F091EE0680819091EB06FD
:102A5000892B8083E091EF06F091F00690818091C0
:102A6000EC068095892380830895E091EF06F0912C
:102A7000F00680819091EC06892B8083E091ED0631
:102A8000F091EE0690818091EB06809589238083FA
:102A9000E091EF06F091F00690818091EC06809530
:102AA000892380830895CF93DF930E94F00BC7E7BB
:102AB000D7E0BE01FE01849122966F5F7F4FFB013C
:102AC0006491882319F00E94851AF3CF61E086E0B3
:102AD0000E94BE1A61E070E080E090E00E9421193F
:102AE00060E086E00E94BE1A6AE070E080E090E05C
:102AF0000E94211961E086E00E94BE1AE8E7FBE02F
:102B0000E491F0E0EE0FFF1FE557F44F85919491AB
:102B10009093F0068093EF06E9E5FBE0E491E09303
:102B2000EC06E0E7FBE0E491F0E0EE0FFF1FE55775
:102B3000F44F859194919093EE068093ED06E1E534
:102B4000FBE0E491E093EB068CB58C7F8CBD8DB5FA
:102B500081608DBD0E943515CAE6D7E0F7E0C73722
:102B6000DF0731F0FE0184910E9419152196F6CFFE
:102B70000E9421158091640081608093640080919F
:102B80006400826080936400809164008068809318
:102B9000640080916400806480936400809165008B
:102BA000816080936500DF91CF91089583B7817F25
:102BB00083BF83B7816083BF889583B78E7F83BFD0
:102BC000089520E030E0FC014191CF014EBD119C01
:102BD000119C119C2F5F3F4F2115F4E03F0799F79F
:102BE0000895CF93DF93C0E0D4E080E00E941915F0
:102BF0002197D9F7DF91CF9108950F931F93CF932A
:102C0000DF9300D0CDB7DEB70FEF10E0C801861B11
:102C10009109BC018AE02A8349830E94B119498144
:102C2000B801641B71098BE00E94B1192A81B801B7
:102C3000621B710989E00F900F90DF91CF911F9176
:102C40000F910C94B1198FB14CB123B150E0409564
:102C500050954074552733E0559547953A95E1F7DF
:102C600030E020953095207133273595279535959F
:102C70002795242B8095807F822B08950F931F9397
:102C8000CF93DF93EC01662359F00E94F218698319
:102C90007A838B839C83DF91CF911F910F9108954D
:102CA0000E94F21809811A812B813C81601B710BF3
:102CB000820B930B693171058105910530F763E053
:102CC00070E080E090E00E942119EACF60E00C946F
:102CD0003E16CF92DF92EF92FF920F931F93CF9306
:102CE000DF9300D000D0CDB7DEB78C017B01FC01B3
:102CF00072AB61AB8BE1C82ED12CC70129833A831B
:102D00004B835C830E94EB1B29813A814B815C8160
:102D1000811113C0F1E0CF1AD10879F064E670E0B8
:102D200080E090E029833A834B835C830E942119E1
:102D30005C814B813A812981E0CFBA01A901F80178
:102D400081A992A90F900F900F900F90DF91CF91D2
:102D50001F910F91FF90EF90DF90CF900C94E51BA7
:102D6000FC0113AA14AA15AA16AA118212821382B0
:102D70001482411551056105710521F0CB01BA019D
:102D80000C94211908951F93CF93DF93EC01162F14
:102D900067E372E089A99AA90E94691C4AE050E0A1
:102DA000612F89A99AA90E94201D6EE372E089A96A
:102DB0009AA90E94691C62E370E080E090E0DF91D4
:102DC000CF911F910C9421191F93CF93DF93EC01A6
:102DD000162F8D81882389F189A99AA9DC01ED91AB
:102DE000FC910480F581E02D0995892BA9F307C09A
:102DF0002637310519F12835310509F41D8289A9D5
:102E00009AA9DC01ED91FC910480F581E02D0995F2
:102E10001816190694F489A99AA9DC01ED91FC9180
:102E20000680F781E02D09959C0133272336310573
:102E3000F9F6612FCE010E94C31683E6DF91CF9190
:102E40001F9108950F931F93CF93DF931F92CDB7D8
:102E5000DEB78C01662349F081E0F801858360E0EC
:102E6000C80149830E94E4164981F80145830F9007
:102E7000DF91CF911F910F9108958F929F92AF9202
:102E8000BF92CF92DF92EF92FF92CF93DF93EC014C
:102E90005B0160E4C5010E9499128823B9F0C880E3
:102EA000D980EA80FB802AE939E949E95FE3C70173
:102EB000B6010E94C12287FF29C02FE832EC45EFFE
:102EC0005CE3C701B6010E945D221CC060E2C5013F
:102ED0000E9499128823D1F0C880D980EA80FB80B3
:102EE0002AE939E949E95FEBC701B6010E94A82345
:102EF000181664F42FE832EC45EF5CE3C701B60125
:102F00000E945C22688379838A839B8360E1C50188
:102F10000E949912811106C064E0C5010E949912B5
:102F2000882311F120E030E040E85FEB6C817D8187
:102F30008E819F810E94C12287FF08C080E090E0BF
:102F4000A0E8BFEB8C839D83AE83BF832DEC3CEC6C
:102F50004CE45FE3688179818A819B810E94AC2384
:102F6000688379838A839B8368E0C5010E949912F4
:102F7000882361F08885882349F080E090E0A0E212
:102F8000B0EC8C839D83AE83BF8318862AE939E930
:102F900049E15EE36C817D818E819F810E945D228B
:102FA0006C837D838E839F832C89222379F09F7786
:102FB0002DEC3CEC4CE85FEB0E94AC236C837D83F2
:102FC0008E839F8381E088871C8A0FC02B892223F0
:102FD00061F09F772DEC3CEC4CE85FE30E94AC2362
:102FE0006C837D838E839F831B8A8A898823A9F0C3
:102FF00088819981AA81BB81BC01CD019F7720E0A6
:1030000030E040EC5FEB0E94AC23688379838A83D5
:103010009B8381E088871A8A17C089898823A1F059
:1030200088819981AA81BB81BC01CD019F7720E075
:1030300030E040EC5FE30E94AC23688379838A83AD
:103040009B8381E08887198A22E538EB4EE75FE3AE
:103050006C817D818E819F810E94AC234B015C013C
:103060006C837D838E839F8328E431EE4AE75FE3A0
:10307000688179818A819B810E94AC236B017C01EC
:10308000688379838A839B832DEC3CEC4CE050E48D
:10309000C501B4010E94A82387FD08C08DEC9CECFB
:1030A000ACE0B0E48C839D83AE83BF832C813D81F3
:1030B0004E815F816D857E858F8598890E945D2216
:1030C0006D877E878F87988BA701960169857A85A2
:1030D0008B859C850E945D2269877A878B879C8778
:1030E000DF91CF91FF90EF90DF90CF90BF90AF90A6
:1030F0009F908F9008950F931F93CF93DF93EC01D0
:103100008A01882777FD8095982F0E94F822698789
:103110007A878B879C87B801882777FD8095982FC1
:103120000E94F8226D877E878F87988B1C821D8274
:103130001E821F82188219821A821B821886198A9F
:103140001A8A1B8A1C8ADF91CF911F910F910895D3
:103150001F920F920FB60F9211242F933F938F93CC
:103160009F93AF93BF9380913E0790913F07A091AB
:103170004007B091410730913D0723E0230F2D37E1
:1031800020F40196A11DB11D05C026E8230F02966B
:10319000A11DB11D20933D0780933E0790933F07EB
:1031A000A0934007B0934107809142079091430755
:1031B000A0914407B09145070196A11DB11D8093D0
:1031C000420790934307A0934407B0934507BF91EC
:1031D000AF919F918F913F912F910F900FBE0F90C4
:1031E0001F9018952FB7F89460913E0770913F0794
:1031F00080914007909141072FBF08953FB7F89401
:103200008091420790914307A0914407B0914507F0
:1032100026B5A89B05C02F3F19F00196A11DB11D31
:103220003FBF6627782F892F9A2F620F711D811D4E
:10323000911D42E0660F771F881F991F4A95D1F7AD
:1032400008958F929F92AF92BF92CF92DF92EF92AA
:10325000FF926B017C010E94FE184B015C01C114BE
:10326000D104E104F104F1F00E94BE210E94FE1895
:10327000681979098A099B09683E7340810591059F
:1032800070F321E0C21AD108E108F10888EE880E37
:1032900083E0981EA11CB11CC114D104E104F10407
:1032A00029F7DDCFFF90EF90DF90CF90BF90AF90E8
:1032B0009F908F900895789484B5826084BD84B582
:1032C000816084BD85B5826085BD85B5816085BD21
:1032D000EEE6F0E0808181608083E1E8F0E010823A
:1032E000808182608083808181608083E0E8F0E07B
:1032F000808181608083E1E9F0E080818260808369
:10330000808181608083E0E9F0E08081816080835A
:10331000E1ECF0E080818460808380818260808342
:10332000808181608083E3ECF0E080818160808334
:10333000E0ECF0E0808182608083E2ECF0E080816C
:1033400081608083EAE7F0E080818460808380810F
:1033500082608083808181608083808180688083B7
:1033600008951F93CF93DF93182FEB0161E00E9424
:10337000851A209711F460E004C0CF3FD10539F4DD
:1033800061E0812FDF91CF911F910C94BE1AE12F44
:10339000F0E0E25DF44F449150E0FA013197EF30F4
:1033A000F10508F06CC0EA5AFF4F0C94782484B5FC
:1033B000806884BDC7BD68C084B5806284BDC8BD57
:1033C00063C080918000806880938000D0938900E2
:1033D000C093880059C080918000806280938000F3
:1033E000D0938B00C0938A004FC08091800088608A
:1033F00080938000D0938D00C0938C0045C0809155
:103400009000806880939000D0939900C0939800BA
:103410003BC080919000806280939000D0939B008D
:10342000C0939A0031C08091900088608093900092
:10343000D0939D00C0939C0027C08091C0008068FD
:103440008093C0008091C0008F7B8093C000C093A8
:10345000CF001AC08091C00080628093C000C093EA
:10346000D00012C08091C20088608093C200809119
:10347000C2008B7F8093C200C093D20005C0C038C9
:10348000D1050CF07DCF77CFDF91CF911F910895BB
:1034900090E0FC013197EF30F105B0F5EB59FF4FAB
:1034A0000C947824809180008F7703C080918000F5
:1034B0008F7D80938000089580918000877FF9CF71
:1034C00084B58F7702C084B58F7D84BD08958091C7
:1034D00090008F7707C0809190008F7D03C080910E
:1034E0009000877F8093900008958091C0008F772F
:1034F00003C08091C0008F7D8093C00008958091AB
:10350000C200877F8093C2000895CF93DF9390E03D
:10351000FC01E35BF44F2491FC01E459F44F8491E6
:10352000882349F190E0880F991FFC01E756F44F7A
:10353000A591B4918557944FFC01C591D4919FB743
:10354000611108C0F8948C91209582238C93888116
:1035500082230AC0623051F4F8948C91322F309556
:1035600083238C938881822B888304C0F8948C9168
:10357000822B8C939FBFDF91CF9108950F931F9360
:10358000CF93DF931F92CDB7DEB7282F30E0F9013C
:10359000E25DF44F8491F901E35BF44F1491F9017A
:1035A000E459F44F04910023C9F0882321F0698382
:1035B0000E94481A6981E02FF0E0EE0FFF1FE557E7
:1035C000F44FA591B4919FB7F8948C91611103C009
:1035D0001095812301C0812B8C939FBF0F90DF91A9
:1035E000CF911F910F910895CF93DF931F92CDB785
:1035F000DEB76983DC01ED91FC910280F381E02D5F
:1036000041E050E0BE016F5F7F4F09950F90DF9161
:10361000CF910895CF93DF93EC018C859D8597FF23
:1036200005C082E00E94381E9D878C878C859D8511
:10363000DF91CF91089583E00C94CC20FC01848528
:10364000958597FD06C082E00E94E01D90E00196FE
:10365000089582E00E94E01D90E00895FC018485B9
:10366000958597FD05C02FEF3FEF35872487089597
:1036700082E00C94381ECF93DF93EC01809102021C
:10368000882331F083E00E94691E1816190634F071
:1036900081E090E09B838A8380E090E0DF91CF918E
:1036A0000895FC0120812E5F208342E450E067EA08
:1036B0007BE080E80C94041FFC0121818081813A29
:1036C00059F4213209F04BC047E050E06BEF71E054
:1036D00080E00E94041F5EC0813209F040C02332A6
:1036E00089F4838190E0982F88273281832BA0E092
:1036F000B0E08093F7019093F801A093F901B093A3
:10370000FA010FC0203239F467E070E08BEF91E0EE
:103710000E94351F09C0223221F482818093020267
:1037200003C02D7F2032B1F580919607811103C02F
:10373000E0E0F8E002C0EEEFFAE08091FB0190914A
:10374000FC01A091FD01B091FE01803B9440A105D8
:10375000B10511F58091020280FF03C01DC080E019
:103760000895EE3F2AE0F20731F080819181909335
:10377000FF0A8093FE0A87E797E7918380832BE017
:1037800088E190E00FB6F894A895809360000FBE92
:103790002093600081E0089588E10FB6F89480934B
:1037A0006000109260000FBEA895EE3F8AE0F80717
:1037B00039F08091FE0A9091FF0A91838083EACFCD
:1037C0001092FF0A1092FE0AE5CF2FEF3FEFFC01A7
:1037D000358724870895CF93C09102026AE070E094
:1037E00080E090E00E94211981E0C11101C080E0D9
:1037F000CF910895109249071092480788EE93E000
:10380000A0E0B0E080934A0790934B07A0934C0749
:10381000B0934D0783E992E0909347078093460762
:103820008FEF9FEF90935307809352070895089569
:103830000E945B190E94171C87E997E00E9459219A
:103840000E943F06C0E0D0E00E947E062097E1F390
:103850000E940000F9CFCF92DF92EF92FF920F9378
:103860001F93CF93DF937C016A01EB0100E010E02E
:103870000C151D0571F06991D701ED91FC91019036
:10388000F081E02DC7010995892B19F00F5F1F4FBB
:10389000EFCFC801DF91CF911F910F91FF90EF9073
:1038A000DF90CF9008956115710581F0DB010D90D7
:1038B0000020E9F7AD0141505109461B570BDC01CF
:1038C000ED91FC910280F381E02D099480E090E07D
:1038D00008950C94531CDC01ED91FC910190F08152
:1038E000E02D09948F929F92AF92BF92DF92EF9258
:1038F000FF920F931F93CF93DF93CDB7DEB7A197BE
:103900000FB6F894DEBF0FBECDBF7C01F42FD52ECD
:10391000CB0119A2223008F42AE08E010F5D1F4F5F
:10392000822E912CA12CB12C6F2F7D2DA5019401FD
:103930000E943724F22FD32ECA01015011096A3098
:1039400014F4E0E301C0E7E3E60FD801EC93232B86
:10395000242B252B49F7B801C7010E94531CA196BF
:103960000FB6F894DEBF0FBECDBFDF91CF911F9190
:103970000F91FF90EF90DF90BF90AF909F908F904E
:103980000895CF92DF92EF92FF920F931F93CF9300
:10399000DF93EC016A017B012115310579F4E8819F
:1039A000F9810190F081E02D642FDF91CF911F917B
:1039B0000F91FF90EF90DF90CF9009942A3031055E
:1039C000E9F477FF1AC06DE20E946B1C8C0144275A
:1039D0005527BA014C195D096E097F092AE0CE010D
:1039E0000E94721C800F911FDF91CF911F910F9148
:1039F000FF90EF90DF90CF9008952AE0B701A601E5
:103A0000CE01DF91CF911F910F91FF90EF90DF904A
:103A1000CF900C94721C9A01AB01662757FD6095FC
:103A2000762F0C94C11C2115310541F4DC01ED9178
:103A3000FC910190F081E02D642F09940C94721C8C
:103A40009A01462F50E060E070E00C94131D615025
:103A500030F02091F100FC0120830196F8CF2898E6
:103A600084E68093A007089540919B0750919C079E
:103A70002091990730919A0742175307B4F4909117
:103A8000E8009570E1F39091E80092FD19C08093F1
:103A9000F10080919B0790919C0701968F73992765
:103AA000892B19F48EEF8093E80080919B07909109
:103AB0009C07019690939C0780939B0781E0089553
:103AC00080E00895CF92DF92EF92FF920F931F93C1
:103AD000CF93DF931F92CDB7DEB7082F162FF42EAA
:103AE000862F880F8E5F99830E94341D83E00E9489
:103AF000341DE02EC02E9981D92E8C2D8E19811760
:103B000098F4F601F7FE02C0849101C080810E9402
:103B1000341D082F80E00E94341D8023FFEFCF1A50
:103B2000DF0A8111EACF01C081E00F90DF91CF91D0
:103B30001F910F91FF90EF90DF90CF9008958091AB
:103B4000D70081608093D70080EA8093D80089B540
:103B5000806189BD89B5826089BD09B400FEFDCF51
:103B600061E070E080E090E00E9421198091D8002F
:103B70008F7C80618093D8008091E000807F80936B
:103B8000E0000895CF93DF931F92CDB7DEB719827F
:103B9000CE0101960E94511B0E944822BE016F5F18
:103BA0007F4F0E94C12189810F90DF91CF910895AD
:103BB0002FB7FC012083F89467706093E9000895A3
:103BC000CF93DF931F92CDB7DEB7682FCE0101965A
:103BD0000E94D81D8091F20099819FBF0F90DF91C4
:103BE000CF910895FF920F931F93CF93DF9300D04F
:103BF000CDB7DEB7F62E8A0190919F07992311F079
:103C000057FF03C08FEF9FEF2BC0682FCE010196A7
:103C10007A830E94D81D8091F20090E0A8017A81F9
:103C2000801791070CF4AC01EF2DF72FF40E84E60A
:103C3000FE1639F028988093A0079091F100919397
:103C4000F7CF4115510521F08091F200882321F032
:103C500089818FBFCA0104C08BE68093E800F8CF4A
:103C60000F900F90DF91CF911F910F91FF900895CA
:103C7000CF93DF931F92CDB7DEB741E050E0BE0196
:103C80006F5F7F4F0E94F21D019719F4898190E0C8
:103C900002C08FEF9FEF0F90DF91CF910895CF93E8
:103CA000DF931F92CDB7DEB7682FCE0101960E9439
:103CB000D81D9091E800892F807295FF04C09091E3
:103CC000F20080E4891B99819FBF0F90DF91CF9113
:103CD00008956F927F928F929F92AF92BF92CF92F0
:103CE000DF92EF92FF920F931F93CF93DF931F9278
:103CF000CDB7DEB7782E7B01C42EB52E80919F07FD
:103D0000882369F0042F152F8AEFD82E872D807213
:103D1000982E9AE3A92E872D8074882E11C08FEFDC
:103D20009FEF57C0872D0E944F1E682E81110CC037
:103D3000DA94A9F361E070E080E090E00E9421193C
:103D40000115110579F73BC0282F30E00217130742
:103D50000CF4602E672DCE0101960E94D81D809133
:103D6000E80085FF29C0262D30E0021B130B9920A7
:103D700039F06A948FEF6816B1F01092F100F9CF24
:103D8000F701862D77FE07C0815058F094919093EB
:103D9000F1003196F9CF815020F091919093F1008C
:103DA000FACFE20EF31E8091E80085FF0FC00115E7
:103DB000110511F481100AC089818FBFC1CF5D98B0
:103DC00084E68093A1078C2D9B2D03C0A092E80070
:103DD000F3CF0F90DF91CF911F910F91FF90EF9054
:103DE000DF90CF90BF90AF909F908F907F906F901B
:103DF00008951092E90010929C0710929B079093EF
:103E00009A07809399070895CF92DF92FF920F93BC
:103E10001F93CF93DF9300D0CDB7DEB7F82E8A0182
:103E20006B0101151105B1F0F601F7FE02C0849196
:103E300001C0808149835A830E94341D01501109B9
:103E4000FFEFCF1ADF0A49815A818111EACF8FEF44
:103E50009FEF01C0CA010F900F90DF91CF911F918A
:103E60000F91FF90DF90CF900895BF92CF92DF9295
:103E7000EF92FF920F931F93CF93DF936C018B010F
:103E8000EB013BEFB32E2097C1F07E01C134D10589
:103E90001CF020E4E22EF12C8091E80082FFFCCFA0
:103EA000C8018C1B9D0B6E2D8C0D9D1D0E94271D26
:103EB000B092E800CE19DF09E6CFC801DF91CF91BB
:103EC0001F910F91FF90EF90DF90CF90BF900895DA
:103ED0001F920F920FB60F921124DF92EF92FF9272
:103EE0000F931F932F933F934F935F936F937F9302
:103EF0008F939F93AF93BF93EF93FF93CF93DF93F2
:103F0000CDB7DEB76C97DEBFCDBF1092E9008091D0
:103F1000E80083FF23C168E0CE0145960E94271D7B
:103F200082EF8093E8003D8937FF05C08091E8006B
:103F300080FFFCCF03C08EEF8093E800832F807654
:103F400009F0F0C02E894F89D88C21110CC030386F
:103F500029F480919E078093F10002C01092F10035
:103F60001092F100F4C0842F90E09D29213049F493
:103F70003111EDC0019709F0EAC080919E078D7F55
:103F80000AC0233059F43111E2C0019709F0DFC0B3
:103F900080919E07826080939E07D9C0253041F4AE
:103FA0008091E80080FFFCCF40684093E300CFC0E1
:103FB000263009F08DC0EB8CFC8C22E0D2122CC094
:103FC00080E090E00E94F91E0E94C21D99E08E01DF
:103FD0000F5F1F4FF801292F11922A95E9F7998356
:103FE000DA8291E09E8390EA98879AEF99872091F0
:103FF0009B0730919C07275F3F4F3C832B838D832A
:10400000C7010E94F91E49E050E0B80180E00E941B
:10401000041F0E94C21D9BC0C7010E94F91E0E947E
:104020004822BE016B5E7F4F0E94EA21009719F083
:104030000CF08DC090C081E0D8120EC08B8D9C8D8D
:10404000089719F481E0809398078091980781116F
:104050002FC06BEF7BE031C0E3E0DE127CC08F89C4
:10406000882349F1823029F440E867E089E19CE047
:104070001CC0813029F440E86BE08DE09CE015C065
:10408000833009F068C00E9448228E010F5F1F4FE5
:10409000B8010E940922F80101900020E9F7319748
:1040A000E01BF10B40E06E2FC8010E94621D4DC065
:1040B00069EE7BE002C061E27CE06115710509F404
:1040C0004AC0FB01449150E080E80E94041F3FC0B9
:1040D000273009F440C0283021F481E08093F100BA
:1040E00036C02930A1F53370B1F5E4E0F2E081E0AB
:1040F00021E036E39081992361F08093E9002093D9
:10410000EB0091919093EC003093ED008F5F87303E
:1041100089F78EE78093EA001092EA008F898093F6
:104120009F0715C08B8D9C8D0E94F91E898D811172
:1041300005C0CE0145960E945C1B07C00E94482224
:10414000BE016B5E7F4F0E942822882321F08EEFF4
:104150008093E80003C081E28093EB006C960FB679
:10416000F894DEBF0FBECDBFDF91CF91FF91EF91ED
:10417000BF91AF919F918F917F916F915F914F917F
:104180003F912F911F910F91FF90EF90DF900F9033
:104190000FBE0F901F9018958093E9008091F20058
:1041A000882319F08AE38093E80008951F920F9204
:1041B0000FB60F9211242F933F934F935F936F93FA
:1041C0007F938F939F93AF93BF93CF93EF93FF937F
:1041D000C091E1008091E100837F8093E1008093B2
:1041E000E100C3FF0FC01092E90081E08093EB0073
:1041F0001092EC0082E38093ED0010929F0788E01C
:104200008093F000C2FF19C083E00E94CC2080910F
:10421000A107882339F08091A10781508093A107DD
:10422000882389F18091A007882339F08091A00725
:1042300081508093A007882341F1C4FF10C0809172
:10424000E2008E7E81608093E2008091E1008F7EAB
:104250008093E10080919D078E7E806111C0C0FF38
:1042600016C08091E2008E7E80618093E200809192
:10427000E1008E7E8093E10080919D078E7E8160BB
:1042800080939D0704C05D9ACDCF289AD6CFFF9129
:10429000EF91CF91BF91AF919F918F917F916F914E
:1042A0005F914F913F912F910F900FBE0F901F90F4
:1042B000189510929F0710929E0710929D070E94DA
:1042C0009F1D8091E1008E7E8093E1008DE08093C0
:1042D000E200559A209AEEEFFFE7859194918B3F8B
:1042E0009C4D19F481E0809396070895611571053E
:1042F0008105910511F00C94EC240895CF93DF9380
:1043000000D000D0CDB7DEB79B01AC0161157105BF
:104310008105910569F069833A834B835C830E9430
:10432000E72429813A814B815C810E94592403C092
:1043300060E070E0CB010F900F900F900F90DF9135
:10434000CF910895CF92DF92EF92FF926B017C01A3
:10435000621773078407950764F4CA01B9016C19E1
:104360007D098E099F090E947E216C0D7D1D8E1D89
:104370009F1DFF90EF90DF90CF90089508950E94C9
:10438000F524EF92FF920F931F93CF93DF937B015E
:10439000FC01C281D38100E010E0209781F0E88128
:1043A000F9810280F381E02DB701CE01099597FDD7
:1043B00008C0080F191F0884D985C02DEECFC80189
:1043C00002C08FEF9FEFDF91CF911F910F91FF9070
:1043D000EF9008950F931F93CF93DF938B01FC0110
:1043E000C281D381209771F0E881F9810480F58141
:1043F000E02DB801CE010995009731F40884D985E4
:10440000C02DF0CF80E090E0DF91CF911F910F9110
:1044100008950F931F93CF93DF938B01FC01C2810B
:10442000D381209771F0E881F9810680F781E02D32
:10443000B801CE010995080F111D0884D985C02D3A
:10444000F0CFF8011082DF91CF911F910F91089565
:104450000F931F93CF93DF938B01FC01C281D38114
:10446000209771F0E881F9810190F081E02DB80189
:10447000CE010995811106C00884D985C02DF0CFE1
:1044800080E001C081E0DF91CF911F910F910895ED
:104490008091A60781110DC082E08093A20784E07D
:1044A0008093A3071092A5071092A40781E0809340
:1044B000A60782EA97E008955058BB27AA270ED096
:1044C0000DC1FED030F003D120F031F49F3F11F444
:1044D0001EF4F3C00EF4E095E7FBE9C0E92F0FD11D
:1044E00080F3BA17620773078407950718F071F411
:1044F0009EF527C10EF4E0950B2EBA2FA02D0B01CF
:10450000B90190010C01CA01A0011124FF27591B18
:1045100099F0593F50F4503E68F11A16F040A22F1E
:10452000232F342F4427585FF3CF4695379527958F
:10453000A795F0405395C9F77EF41F16BA0B620B8E
:10454000730B840BBAF09150A1F0FF0FBB1F661FD5
:10455000771F881FC2F70EC0BA0F621F731F841F18
:1045600048F4879577956795B795F7959E3F08F03E
:10457000B3CF9395880F08F09927EE0F97958795FD
:10458000089571D008F481E0089504D06894B111C1
:10459000D9C00895BCD088F09F5790F0B92F9927C3
:1045A000B751A0F0D1F0660F771F881F991F1AF03E
:1045B000BA95C9F712C0B13081F0C3D0B1E0089507
:1045C000C0C0672F782F8827B85F39F0B93FCCF388
:1045D000869577956795B395D9F73EF49095809534
:1045E000709561957F4F8F4F9F4F0895E89409C054
:1045F00097FB3EF490958095709561957F4F8F4F16
:104600009F4F9923A9F0F92F96E9BB279395F6952B
:10461000879577956795B795F111F8CFFAF4BB0FA9
:1046200011F460FF1BC06F5F7F4F8F4F9F4F16C00D
:10463000882311F096E911C0772321F09EE8872F97
:10464000762F05C0662371F096E8862F70E060E053
:104650002AF09A95660F771F881FDAF7880F9695CC
:10466000879597F90895990F0008550FAA0BE0E870
:10467000FEEF16161706E807F907C0F01216130624
:10468000E407F50798F0621B730B840B950B39F464
:104690000A2661F0232B242B252B21F408950A26CA
:1046A00009F4A140A6958FEF811D811D089597F90A
:1046B0009F6780E870E060E008959FEF80EC0895C8
:1046C00000240A94161617061806090608950024F1
:1046D0000A9412161306140605060895092E03946B
:1046E000000C11F4882352F0BB0F40F4BF2B11F4DF
:1046F00060FF04C06F5F7F4F8F4F9F4F089557FD3E
:104700009058440F551F59F05F3F71F04795880F3F
:1047100097FB991F61F09F3F79F0879508951216D6
:1047200013061406551FF2CF4695F1DF08C0161682
:1047300017061806991FF1CF869571056105089433
:104740000895E894BB2766277727CB0197F908954A
:104750008ADF08F48FEF08950BD0C0CFB1DF28F0C7
:10476000B6DF18F0952309F0A2CFA7CF1124EACF26
:10477000C6DFA0F3959FD1F3950F50E0551F629FC0
:10478000F001729FBB27F00DB11D639FAA27F00DAA
:10479000B11DAA1F649F6627B00DA11D661F829FD1
:1047A0002227B00DA11D621F739FB00DA11D621FB6
:1047B000839FA00D611D221F749F3327A00D611DD3
:1047C000231F849F600D211D822F762F6A2F1124B5
:1047D0009F5750408AF0E1F088234AF0EE0FFF1F08
:1047E000BB1F661F771F881F91505040A9F79E3F3F
:1047F000510570F05CCFA6CF5F3FECF3983EDCF341
:10480000869577956795B795F795E7959F5FC1F77B
:10481000FE2B880F911D9695879597F90895AA1BF1
:10482000BB1B51E107C0AA1FBB1FA617B70710F09B
:10483000A61BB70B881F991F5A95A9F780959095CD
:10484000BC01CD01089597FB072E16F4009407D004
:1048500077FD09D00E940F2407FC05D03EF4909507
:1048600081959F4F0895709561957F4F0895A1E2BE
:104870001A2EAA1BBB1BFD010DC0AA1FBB1FEE1FDA
:10488000FF1FA217B307E407F50720F0A21BB30B25
:10489000E40BF50B661F771F881F991F1A9469F7A1
:1048A00060957095809590959B01AC01BD01CF01FD
:1048B0000895052E97FB1EF400940E94702457FD66
:1048C00007D00E94372407FC03D04EF40C947024C8
:1048D00050954095309521953F4F4F4F5F4F08952C
:1048E00090958095709561957F4F8F4F9F4F08955C
:1048F000EE0FFF1F0590F491E02D0994A29FB001E7
:10490000B39FC001A39F700D811D1124911DB29F03
:10491000700D811D1124911D08950E947E24A59F74
:10492000900DB49F900DA49F800D911D11240895AA
:104930008F929F92AF92BF92CF92DF92EF92FF92AF
:10494000CF93DF93EC01688179818A819B81611526
:1049500071058105910521F464E279ED8BE597E01D
:104960002DE133EF41E050E00E94592449015A0102
:104970009B01AC01A7EAB1E40E948D246B017C018C
:10498000ACEEB4EFA50194010E940525C60ED71E1A
:10499000E81EF91EF7FE06C081E0C81AD108E1083A
:1049A00080E8F80AC882D982EA82FB82C701B60190
:1049B0009F77DF91CF91FF90EF90DF90CF90BF90E6
:1049C000AF909F908F9008950E949824089580E062
:1049D00091E00E9498240895609300017093010172
:1049E0008093020190930301089581E090E0F89490
:1049F0000C940A25F999FECF92BD81BDF89A9927AA
:104A000080B50895B7FF0C948D240E948D24821BDD
:084A1000930B0895F894FFCF09
:104A180001000000100100004000400004000000F8
:104A2800000040004000040000003C004400040076
:104A3800200000000000100004003000000000000A
:104A48000C0056000400000056000C000400200072
:104A580000003C006400AA000400000056002C007E
:104A680064000400000078005A000A000A000000F0
:104A78009B0055000F000F000000C80055000F00F4
:104A88000F000000D70055000F000F000000DC00E9
:104A98004B000A000A000000E6004B006400040016
:104AA80000002C012D001E001E0000004A010F000E
:104AB8001E001E00000068010F00460004000000F0
:104AC800BA001800040018000000BA0014005000D2
:104AD800040000000A01E2FF0400360000000E0195
:104AE800E2FFA00004000000AA01E6FF040029007C
:104AF80000009601F6FF0A001900020016002000C7
:104B080020000100010001FFFFFFFF00E10000009D
:104B180000000000C18081000000564D4450565FDF
:104B2800317C315F564D4450560D0A00564D445065
:104B3800455F31007C005F564D4450450D0A00002A
:104B480000000018122B1C564D4450435F005F565E
:104B58004D4450430D0A004572726F723A204174F9
:104B680074656D707420746F207365742061207291
:104B78006561642D6F6E6C79207661726961626C13
:104B880065206F7220646174612074797065206E8D
:104B98006F7420737570706F727465640D0A00000D
:104BA800000000F41A3B1B1E1B2E1B0A1B1B1B00BC
:084BB800000000BF212B1C00CE
:00000001FF
