:100000000C9457070C947F070C947F070C947F0780
:100010000C947F070C947F070C947F070C947F0748
:100020000C947F070C947F070C9479200C940B1F81
:100030000C947F070C947F070C947F070C947F0728
:100040000C947F070C94C6160C947F070C947F07C2
:100050000C947F070C947F070C947F070C94421A32
:100060000C947F070C947F070C947F070C947F07F8
:100070000C947F070C947F070C947F070C947F07E8
:100080000C9439170C947F070C947F070C947F070E
:100090000C947F070C947F070C947F070C947F07C8
:1000A0000C947F070C947F070C947F07711B761BC1
:1000B0007B1B851B8F1BD91BD91BD91B991BA31B12
:1000C000AD1BB71BC41BD91BCC1BFA1BFD1BEC1BA8
:1000D000F01BF61B1E1C1E1C1E1C011C051C091CF3
:1000E0000F1C131C1E1C191C00004000FF04000004
:1000F00000000004400040003600060A018000367F
:1001000000060A018A003600060A0194003600063D
:100110000A01D4003600060A01DE003600060A0194
:10012000F7003600060A0101013600060A01FE004A
:100130004000C0040037013600060A0141013600C4
:10014000060A014B013600060A0155013600060A6F
:10015000015F013600060A0169013600060A014DF9
:10016000012C000E040089012C00021403BE014082
:1001700000040E00BE014E00400400FA01400004DD
:100180000E00C2014400060A01CE014400060A0125
:10019000DA014400060A01E6014400060A01F20100
:1001A0004400060A01FE014000C8040008023600AF
:1001B000060A0112023600060A011C023600060A6F
:1001C0000126023600060A0130023600060A0175D1
:1001D000023600060A017D0236000B0A007F022C5F
:1001E00000060A0187022C000B0A00870236000B6A
:1001F0000A0089022200060A01910236000B0A0059
:1002000093022C00060A019D023600060A01B20282
:1002100027000A190200004000C004004000280026
:10022000200400600010001E04008000F4FF1C0485
:1002300000A000DCFFC00400E000C4FF10040000C8
:1002400001ACFF0E0400200194FF0C040040017C6F
:10025000FF600400600164FF10040080014CFF0E89
:100260000400600134FF0C040080011CFF40040006
:100270009A0103FF0A1902ACFF40009404004000F9
:100280001C0004280000001C00400400E0FF1C00CB
:10029000200E00C0FF1C00201400A0FF1C0020182E
:1002A0000040FF80006C0400ACFF4400044000608C
:1002B000FF5F002017007CFF3F0004200040FF404C
:1002C0000004400040FF3C004004006AFF46000A72
:1002D0001902000040004004003C004400042000DB
:1002E0000000100004300000000C0056040056000E
:1002F0000C000420003C006400AA040056002C00FE
:1003000064040078005A000A0A009B0055000F0F91
:1003100000C80055000F0F00D70055000F0F00DC7C
:10032000004B000A0A00E6004B006404002C012D7B
:10033000001E1E004A010F001E1E0068010F00462D
:100340000400BA001800041800BA00140050040099
:100350000A01E2FF0436000E01E2FFA00400AA0138
:10036000E6FF0429009601F6FF0A1902F0F89C8EB8
:100370008783878E9CF8F00000FEFF0303030303CE
:10038000070EFCF80000FEFF0303030303070EFC47
:10039000F80000FFFF00000000000000FFFF000069
:1003A000FEFF8383838383C7EE7C380000F8FC0E56
:1003B00007030303070EFCF800003F7FE0C08080C6
:1003C000C0E07F3FFFFF01010101010101FFFF00CC
:1003D00000FFFF0C0C0C0C1C3E77E3C100007FFFFC
:1003E000C0C0C0C0C0E0703F1F00001F3F70E0C031
:1003F000C0C0E0703F1F00007FFFC1C1C1C1C1E3A9
:10040000773E1C00001F3F70E0C0C0C0E0703F1F7F
:10041000000000000001FFFF0100000000000000DC
:10042000003E5B4F5B3E3E6B4F6B3E1C3E7C3E1C7A
:10043000183C7E3C181C577D571C1C5E7F5E1C00C0
:10044000183C1800FFE7C3E7FF0018241800FFE777
:10045000DBE7FF30483A060E2629792926407F053A
:100460000507407F05253F5A3CE73C5A7F3E1C1C50
:1004700008081C1C3E7F14227F22145F5F005F5F10
:1004800006097F017F006689956A606060606094FC
:10049000A2FFA29408047E040810207E2010080801
:1004A0002A1C08081C2A08081E101010100C1E0C0C
:1004B0001E0C30383E3830060E3E0E06000000009E
:1004C0000000005F00000007000700147F147F1485
:1004D000242A7F2A122313086462364956205000CA
:1004E00008070300001C2241000041221C002A1CB6
:1004F0007F1C2A08083E08080080703000080808A1
:100500000808000060600020100804023E514945C0
:100510003E00427F400072494949462141494D33DE
:100520001814127F1027454545393C4A4949314145
:10053000211109073649494936464949291E000013
:100540001400000040340000000814224114141468
:100550001414004122140802015909063E415D5954
:100560004E7C1211127C7F494949363E414141225D
:100570007F4141413E7F494949417F090909013E87
:10058000414151737F0808087F00417F41002040AE
:10059000413F017F081422417F404040407F021CC0
:1005A000027F7F0408107F3E4141413E7F090909D7
:1005B000063E4151215E7F091929462649494932A3
:1005C00003017F01033F4040403F1F2040201F3F69
:1005D0004038403F631408146303047804036159EE
:1005E000494D43007F414141020408102000414130
:1005F000417F0402010204404040404000030708DC
:100600000020545478407F284444383844444428D7
:10061000384444287F385454541800087E0902187E
:10062000A4A49C787F0804047800447D4000204006
:10063000403D007F1028440000417F40007C04784A
:1006400004787C080404783844444438FC18242492
:100650001818242418FC7C08040408485454542412
:1006600004043F44243C4040207C1C2040201C3C8F
:100670004030403C44281028444C9090907C446486
:10068000544C440008364100000077000000413619
:10069000080002010204023C2623263C1EA1A1619F
:1006A000123A4040207A38545455592155557941D1
:1006B0002154547841215554784020545579400CA8
:1006C0001E52721239555555593954545459395589
:1006D0005454580000457C410002457D42000145CC
:1006E0007C40F0292429F0F0282528F07C54554539
:1006F000002054547C547C0A097F493249494932CC
:100700003248484832324A4848303A4141217A3AE0
:1007100042402078009DA0A07D39444444393D40AA
:1007200040403D3C24FF2424487E4943662B2FFC57
:100730002F2BFF0929F620C0887E09032054547905
:10074000410000447D413048484A32384040227AD6
:10075000007A0A0A727D0D19317D2629292F282653
:100760002929292630484D4020380808080808085B
:100770000808382F10C8ACBA2F102834FA00007BB4
:10078000000008142A142222142A140895002200BA
:1007900095AA005500AAAA55AA55AA000000FF0074
:1007A000101010FF00141414FF001010FF00FF10B1
:1007B00010F010F0141414FC001414F700FF0000E3
:1007C000FF00FF1414F404FC141417101F10101F62
:1007D000101F1414141F00101010F0000000001F50
:1007E000101010101F10101010F010000000FF105B
:1007F0001010101010101010FF10000000FF140057
:1008000000FF00FF00001F10170000FC04F4141488
:100810001710171414F404F40000FF00F714141454
:1008200014141414F700F7141414171410101F10D4
:100830001F141414F4141010F010F000001F101FF7
:100840000000001F14000000FC140000F010F01065
:1008500010FF10FF141414FF141010101F000000DC
:1008600000F010FFFFFFFFFFF0F0F0F0F0FFFFFFE0
:100870000000000000FFFF0F0F0F0F0F3844443837
:10088000447C2A2A3E147E02020606027E027E0272
:1008900063554941633844443C04407E201E200691
:1008A000027E020299A5E7A5991C2A492A1C4C72CE
:1008B00001724C304A4D4D303048784830BC625A55
:1008C000463D3E494949007E0101017E2A2A2A2AE5
:1008D0002A44445F444440514A444040444A5140C1
:1008E0000000FF0103E080FF000008086B6B083682
:1008F00012362436060F090F0600001818000000F3
:100900001010003040FF0101001F01011E00191DE1
:100910001712003C3C3C3C000000000006011501A1
:10092000260137014A015D01720188019F01B8016A
:10093000D201EE010B022A024B026E029302BA02AE
:10094000E40210033F037003A403DC0317045504FF
:100950009704DD0427057505C80520067D06E00619
:100960004907B8072D08A9082D09B9094D0AEA0A4F
:10097000900B400CFA0CC00D910E6F0F5A105311D2
:100980005B1272139A14D41520178018F519801B66
:10099000231DDE1EB420A622B524E4263429A72B6D
:1009A000402E0031EA330037453ABC3D68414C45A2
:1009B0006B49C84D68524F57805C0062101112138A
:1009C000151617181A1C1D1F21232527292C2E3117
:1009D00034373A3E4145494E52575C62686E757BEA
:1009E000838B939CA5AFB9C4D0DCE9F70301D5F0A4
:1009F0008D14A1C881CFD9F1AF20001402130212C7
:100A00000215020702080204010C0106010080C061
:100A1000E030B0B030E0C08078FCFE036B6B87FE46
:100A2000FC78070F1F303D3D301F0F07000001030A
:100A3000030303010000FFFFFFFF01FDFDFDFDFFBC
:100A400001FDFDFD01FF01FDFDFD01FF01EDEDEDEE
:100A5000EDFFFFFFFFFFFFFFFFFCFDFDFDFDFFFCC6
:100A6000FDFDFDFCFFFCFFFFFFFCFFFCFFFFFFFFA8
:100A7000FFFFFFFFFFFFFFFF01EDEDEDE1FF01FFD6
:100A8000FFFFFFFF03DDDDDD03FFF1CF3FCFF1FF10
:100A9000FFFFFFFFFFFFFFFCFFFFFFFFFFFCFDFD70
:100AA000FDFDFFFCFFFFFFFCFFFFFFFCFFFFFFFF63
:100AB000FFFF0000040404040404040808080808F4
:100AC0000808080808081818E808080808080808A6
:100AD00008088808101010101010101010100000D6
:100AE0000000000000000000000000000000000006
:100AF0000000000000E04040408080808000000056
:100B000000000000000000000000000000000000E5
:100B100000000000000000000000000000000000D5
:100B200000000000000000000000000000000000C5
:100B300000000000000000000000000000000000B5
:100B40000000000000000000009FE0000000000026
:100B500000001FE000000000000000000000000096
:100B60000000000000000000000000000000000085
:100B70000000000000001FE0000000103051890A52
:100B80000A04000000000000000000000000000057
:100B90000000000000000000000000000000000055
:100BA0000000000000000000000000000000000045
:100BB0000000000000000000000000000000000035
:100BC00000000000000000C0300F00000000000026
:100BD000000080FF202020202040C00000000000F6
:100BE00080402020202020202040800000000000A5
:100BF0000000000000000007F800000000000106EF
:100C000038C000000080404040404080000000C0EC
:100C10000000000000000000C00000000000000014
:100C20000000008040404080800000000000000084
:100C300000000000000000000000000000000000B4
:100C400000000000E01807000000000000000000A5
:100C500000FFE01F00000000000000FF000000FE99
:100C6000090810101010101010180D0200000000DC
:100C7000000000000000000007F8000000008040B5
:100C8000300F00003EC1000080E01F0000003FC0A8
:100C900080804040300C0280F01F040202FE000001
:100CA0003CC201001E61418888090906000000005D
:100CB0000000000000000000000000000000000034
:100CC0000000007E41000000000000000000000065
:100CD000000F0300000000000000040300000000FB
:100CE00003020404000000000000000000000000F7
:100CF00000000000000000000001000606010000E6
:100D000000000000000001010100000000000000E0
:100D100000000000000000030100000000010000CE
:100D200000000100000000000001010000000000C0
:100D300000000000000000000000000000000000B3
:100D400000000000000000000000000000000000A3
:100D50000000000000000000000000000000000093
:100D60000000000000000000000000000000000083
:100D70000000000000000000000000000000000073
:100D80000000000000000000000000000000000063
:100D90000000000000000000000000000000000053
:100DA0000000000000000000000000000000000043
:100DB00000000000000200090F0000030401000C05
:100DC0000000000000000000000000000000000023
:100DD000000408020110408040102040804080083C
:100DE00002040180402010020110801020404020A9
:100DF00004040404040304050202020204030202C0
:100E000002020606060606060404020202040400A4
:100E1000000000250028002B002E003100000000FB
:100E200000240027002A002D00300012010002EFEC
:100E3000020140412336800001010203011201003A
:100E400002000000404123368000010102030141FD
:100E5000726475696E6F204C4C4300417264756218
:100E60006F790004030904080B0002020201000963
:100E70000400000102020000052400100105240105
:100E80000101042402060524060001070581031060
:100E9000004009040100020A0000000705020240A8
:100EA00000000705830240000000CB0D55221124ED
:100EB0001FBECFEFDAE0DEBFCDBF11E0A0E0B1E0B2
:100EC000ECE8FBE402C005900D92AE33B107D9F710
:100ED00027E0AEE3B1E001C01D92A433B207E1F711
:100EE0001EE0CEEADEE004C02297FE010E942B2520
:100EF000CA3AD107C9F70E948F1C0C94C4250C94E0
:100F000000001F93CF93DF93182F8230F1F030F45D
:100F1000813009F053C0C0E0D0E008C0833031F127
:100F2000843009F04BC0C0E0D0E031C0BE016E5249
:100F30007D4F47E050E0CE01825C9E4F0E94AB2582
:100F40002796CA39D10591F732C0C0E0D0E0BE0182
:100F500069587D4F47E050E0CE01825C9E4F0E9471
:100F6000AB252796CB35D10591F723C0C0E0D0E063
:100F7000BE016B5E7D4F47E050E0CE01825C9E4F2C
:100F80000E94AB252796C236D10591F714C0BE0149
:100F900068517F4F47E050E0CE01825C9E4F0E9437
:100FA000AB252796CD3281E0D80789F706C096E1B8
:100FB00005C09DE003C09EE001C09BE290936F02DC
:100FC00010937002DF91CF911F91089582E792E014
:100FD0000E9421136EE182E792E00E942F0E409161
:100FE00004015091050160910601709107018EEA9C
:100FF00096E00E94151A81E00C9481072F923F928F
:101000004F925F926F927F928F929F92AF92BF9218
:10101000CF92DF92EF92FF920F931F93CF93DF93C4
:10102000CDB7DEB72E970FB6F894DEBF0FBECDBF9B
:1010300082E792E00E94440E882309F493C582E778
:1010400092E00E94381180910901813009F568E031
:1010500082E792E00E946314882359F0809108018E
:10106000882339F082E08093090182E792E00E94B0
:10107000AA0E60E282E792E00E946314811121C50A
:1010800060E482E792E00E94631481111AC526C5CC
:10109000823009F0FFC260E882E792E00E946314A8
:1010A000882319F081E08093090162E772E08EEAFB
:1010B00096E00E94821820E030E046E953E4609117
:1010C000BB067091BC068091BD069091BE060E9441
:1010D0005924181664F4409104015091050160915F
:1010E0000601709107018EEA96E00E94151A24E429
:1010F00031E03A8329835EE3252E51E0352E83E4E7
:1011000091E09E838D83A2E4B1E0BC83AB8318861B
:101110001F8280916F0290E02F8138852817390750
:101120000CF057C2C090B706D090B806E090B90650
:10113000F090BA06F1010190F081E02DFE87ED8775
:10114000CF010597BC01882777FD8095982F0E94D5
:10115000A9239B01AC01C701B6010E94592487FD58
:101160001FC2AB81BC818C91ED85FE85E80FF11D1E
:10117000FA87E987CF010596BC01882777FD80951E
:10118000982F0E94A9239B01AC01C701B6010E94C0
:10119000722318160CF404C28090BB069090BC0613
:1011A000A090BD06B090BE06D10112960D911C9183
:1011B0001397C8010597BC01882777FD8095982F64
:1011C0000E94A9239B01AC01C501B4010E945924CE
:1011D00087FDE6C1ED81FE8180819801280F311DD8
:1011E0003C872B87C9010596BC01882777FD809530
:1011F000982F0E94A9239B01AC01C501B4010E9454
:10120000722318160CF4CCC1AD85BE85BD018827AC
:1012100077FD8095982F0E94A9232B013C019B010B
:10122000AC01C701B6010E94592487FD75C0E9854C
:10123000FA85BF01882777FD8095982F0E94A92302
:101240009B01AC01C701B6010E94722318160CF471
:101250006BC020E030E040E850E4C501B4010E94DA
:101260000E232B013C01B801882777FD8095982F2C
:101270000E94A9239B01AC01C301B2010E94592421
:1012800087FD52C02B853C85B901882777FD809565
:10129000982F0E94A9239B01AC01C301B2010E94B7
:1012A000722318160CF440C0A981BA818C91823047
:1012B00031F0833071F0B1E0B093C20679C0E3E061
:1012C000E093090122E030E030930501209304010E
:1012D0006FC08091060190910701AD85BE858A1788
:1012E0009B0709F465C024E630E040E050E060EA86
:1012F0007FE086E792E00E944C16F10180819181A7
:101300009093070180930601828193810C979093BB
:101310000501809304014CC0A3019201C701B601ED
:101320000E94592487FD44C029853A85B901882740
:1013300077FD8095982F0E94A9239B01AC01C701DE
:10134000B6010E94722318169CF120E030E040E4C0
:1013500050E4C501B4010E940D236B017C01B8016A
:10136000882777FD8095982F0E94A9239B01AC01C7
:10137000C701B6010E94592487FD1AC0AB85BC8500
:10138000BD01882777FD8095982F0E94A9239B0196
:10139000AC01C701B6010E94722318164CF0E98116
:1013A000FA8180818250823018F0F1E0F093C1061A
:1013B000C090B706D090B806E090B906F090BA0693
:1013C00020E030E040E450E4C701B6010E940E2363
:1013D0004B015C01D1010D911C91B801882777FD6B
:1013E0008095982F0E94A9232B013C019B01AC0101
:1013F000C501B4010E94592487FD54C0EB81FC81D2
:1014000080819801280F311DB901882777FD8095CB
:10141000982F0E94A9239B01AC01C501B4010E9431
:10142000722318160CF43EC08090BB069090BC0648
:10143000A090BD06B090BE06D10112960D90BC9151
:10144000A02DBA87A987BD01882777FD8095982FA1
:101450000E94A9239B01AC01C501B4010E9459243B
:1014600087FD20C0ED81FE81808169857A85680FC6
:10147000711D882777FD8095982F0E94A9239B01D5
:10148000AC01C501B4010E94722318165CF0A98159
:10149000BA818C918250823008F461C0B1E0B0937F
:1014A000C0065DC020E030E040E450E4C701B60172
:1014B0000E940D236B017C01A30192010E9459241B
:1014C00087FD4DC0EB81FC818081080F111DB801A3
:1014D000882777FD8095982F0E94A9239B01AC0156
:1014E000C701B6010E9472231816CCF1C090BB064A
:1014F000D090BC06E090BD06F090BE06D1011296D9
:101500000D911C911397B801882777FD8095982F2E
:101510000E94A9239B01AC01C701B6010E94592476
:1015200087FD1DC0ED81FE818081B801680F711DAE
:10153000882777FD8095982F0E94A9239B01AC01F5
:10154000C701B6010E94722318164CF0A981BA8116
:101550008C918250823018F0B1E0B093BF06809138
:10156000C10681110CC08091C206811108C0809112
:10157000BF06811104C08091C006882389F0E981EB
:10158000FA818081813061F440910401509105011C
:1015900060910601709107018EEA96E00E94151A8B
:1015A0002F8138852F5F3F4F38872F8389819A811C
:1015B00007969A83898397E0290E311CAD81BE81FD
:1015C0001796BE83AD83EB81FC813796FC83EB835A
:1015D000A0CD60916D0270916E02882777FD809595
:1015E000982F0E94A9236B017C0120E030E040E8A5
:1015F00052E46091B7067091B8068091B906909157
:10160000BA060E940D23A70196010E940D2329E22C
:101610003CE54FE85DE30E945D249B01AC01C701FE
:10162000B6010E940E230E94762370936E0260938F
:101630006D0260916B0270916C02882777FD809536
:10164000982F0E94A9236B017C0120E030E040E04C
:1016500052E46091BB067091BC068091BD069091EA
:10166000BE060E940D23A70196010E940D2329E2C8
:101670003CE54FE85DE30E945D249B01AC01C7019E
:10168000B6010E940E230E94762370936C02609331
:101690006B025EC0833009F05BC062E082E792E0DB
:1016A0000E94380E8823F9F020E030E040E85FE344
:1016B0006091BB067091BC068091BD069091BE06FC
:1016C0000E940D236093BB067093BC068093BD06F9
:1016D0009093BE068091040190910501029690932B
:1016E00005018093040180910401909105018138E6
:1016F000910524F182E08093090180E290E09093CB
:1017000005018093040180917002823031F08330B2
:1017100031F0813039F482E003C083E001C084E01D
:101720000E948107409104015091050160910601DA
:10173000709107018EEA96E00E94151A2AE030E0C7
:1017400040E050E068E873E186E792E00E944C16C2
:10175000809109018250823008F097C123E4622E03
:1017600021E0722E8EE391E09A83898332E4832E06
:1017700031E0932E44E4442E41E0542E212C312CB0
:1017800040916F0250E080916D0290916E02209125
:101790006B0230916C02241635060CF0D7C0D201D2
:1017A0004C91423009F447C0433009F483C04130C2
:1017B00089F0E981FA8142815381421B530B608198
:1017C0007181681B790BEE24E394D3010C91F40131
:1017D0002081A6C0A981BA816D917C911197F401F5
:1017E000D0801296ED91FC911397D3014C91DF01BB
:1017F000A40FB11DAD01421B530B7B01ED0CF11C7D
:10180000E81AF90AB2E0EB0EF11C8F01021B130B70
:10181000AD2DA6959B012A0F311D281B390B681B86
:10182000790B62507109AA24A3946A0182E792E0BD
:101830000E943B1179C0E981FA8142815381421BA8
:10184000530B60817181681B790BEE24E394D30103
:101850000C91F401208182E792E00E94CA10D3012A
:101860001C91E981FA81E280F38080916B02909172
:101870006C02E81AF90A6081718180916D02909181
:101880006E02681B790BD4018C919B01280F311DCE
:10189000442737FD4095542F882777FD8095982F52
:1018A0000E94452101E0212FA70182E792E00E94DA
:1018B0009B0F3AC0E981FA8142815381421B530B4D
:1018C00060817181681B790BEE24E394D3010C9144
:1018D000F401208182E792E00E94CA106091060123
:1018E00070910701A981BA818D919C911197681718
:1018F0007907D1F412964D915C91139780916B0208
:1019000090916C02481B590B80916D0290916E0270
:10191000681B790BF4018081680F711D05E028E0D8
:1019200082E792E00E94CA10FFEF2F1A3F0A27E0D9
:10193000620E711C89819A8107969A83898397E048
:10194000890E911CA7E04A0E511C1ACF40917002DB
:101950004130F1F445E350E0421B530B61E371E089
:10196000681B790BCC24C3949EE0E92E04E12EE0A1
:101970003AE082E792E00E94831147E350E08091D1
:101980006B0290916C02481B590B6EE371E01FC013
:10199000423059F542E650E0421B530B65E67FEFBB
:1019A000681B790BCC24C3948EE0E82E04E12EE072
:1019B0003AE082E792E00E94831148E650E080918D
:1019C0006B0290916C02481B590B68E67FEF809187
:1019D0006D0290916E02681B790BEE24E39406E091
:1019E00024E082E792E00E94011180910901A09019
:1019F0006D02B0906E0200916B0210916C02823009
:101A000009F56091BB067091BC068091BD0690916E
:101A1000BE060E9476237B01E01AF10A6091B706A8
:101A20007091B8068091B9069091BA060E9476230B
:101A30006A197B0901E021E0A70182E792E00E9498
:101A40006F1023C06091BB067091BC068091BD06EB
:101A50009091BE060E9476236B01C01AD10A609154
:101A6000B7067091B8068091B9069091BA060E94A7
:101A700076236A197B09EE24E3940091040122E0A5
:101A8000A60182E792E00E94CA1082E792E02E96B9
:101A90000FB6F894DEBF0FBECDBFDF91CF911F917F
:101AA0000F91FF90EF90DF90CF90BF90AF909F90FD
:101AB0008F907F906F905F904F903F902F900C94FD
:101AC00060148091710281110EC08091080191E033
:101AD0008927809308019093710205C0809171025B
:101AE000811110927102CC24C394EAE2EE2E00E838
:101AF00022EB3AE040E050E060E070E082E792E004
:101B00000E94831180910801882391F070E1E72EF3
:101B10000FE124E73AE040E350E06CE070E082E758
:101B200092E00E94831126E33AE044E350E013C0C0
:101B3000CC24C39460E1E62E0FE124E73AE044E3CD
:101B400050E06CE070E082E792E00E94831126E3AF
:101B50003AE040E350E065E570E082E792E00E9401
:101B60008311F6CD2E960FB6F894DEBF0FBECDBF13
:101B7000DF91CF911F910F91FF90EF90DF90CF9069
:101B8000BF90AF909F908F907F906F905F904F909D
:101B90003F902F90089582E792E00C94050ECF932A
:101BA000CFB7F89480918C06811127C0E1E0FEE068
:101BB0008491E2EEFDE09491E82FF0E0EE0FFF1F3C
:101BC000E35EF14FA591B4918C91892321F461E0FA
:101BD00081E10E94581C61E081E10E941F1C8CB5CC
:101BE00080618CBD8CB580648CBD61E08FE00E940B
:101BF0001F1C61E080E10E941F1C80918C068F5F9A
:101C000080938C06CFBFCF910895CF93DF93EC01E3
:101C100089E291E0998388831B821A82CE010E9417
:101C2000641781E291E0998388838CE38E8380E15D
:101C3000898718861F821E861F86188A198A1A8A23
:101C4000FE01EC5EFB4F11821082329611821082EF
:101C5000C85EDB4F81E08883DF91CF910895FC015E
:101C6000668370E088EE93E00E94D4246187089533
:101C700070E0FC01878190850E94C02421E0892BBF
:101C800009F020E0822F08950F931F93CF93DF93E5
:101C9000EC010E948C1AE62F462F572FBC018A892F
:101CA000882351F08A859E2F981B9B8B8F81988566
:101CB000019698878F831A8A0E851F85288939890E
:101CC000401751076207730734F40E1B023008F106
:101CD0000E941A181EC089850A851B852C853D85A2
:101CE000080F111D211D311D041715072607370781
:101CF0002CF00E871F87288B398B04C04E875F8797
:101D0000688B798B4A875B876C877D8781E08A8BBC
:101D100001C080E0DF91CF911F910F9108956093F2
:101D20007C00673C19F480E280937B0062E070E005
:101D300080E090E00E94BB1A80917A0080648093DA
:101D40007A0080917A0086FDFCCF80917800909196
:101D500079000895CF92DF92EF92FF92CF93DF93B5
:101D60007C01C4E6D0E088818E7F888367ECC70160
:101D70000E948F0E6C016EE5C7010E948F0E7C01E0
:101D80000E94981A9B01AC01E094F094C094D09406
:101D9000EC9CD001ED9CB00DFC9CB00D1124209565
:101DA0003095409550950E943E256B017C010E9424
:101DB000981A6C0D7D1D8E1D9F1D0E941921888112
:101DC00081608883DF91CF91FF90EF90DF90CF907B
:101DD00008956038710518F54034510500F5E42F79
:101DE000E695E695E695F0E047705527F695FE2FC7
:101DF000EE27F795E795E60FF71FE80FF91F81E04B
:101E000090E0042E01C0880F0A94EAF7222319F00B
:101E10009489982B03C0809594899823948B089576
:101E20002F923F924F925F926F927F928F929F92EA
:101E3000AF92BF92CF92DF92EF92FF920F931F93D8
:101E4000CF93DF932C01EB016A0159019801241B08
:101E5000350B37FF03C0319521953109C5018C1B26
:101E60009D0B97FF03C0919581959109FF24F394F1
:101E70008217930714F0F12C0AC09A2D8B2D58016C
:101E8000092F182F9C2F8D2FE601C92ED82EAC16A6
:101E9000BD0654F49C2D8D2D6801092F182F9C2F01
:101EA0008D2FE501A92EB82E15012C1A3D0A3801F7
:101EB0006C187D0877FE03C071946194710841012C
:101EC00037FE03C08FEF881A980A95948794C0163E
:101ED000D10614F401E001C00FEF112707FD1095A2
:101EE000AC16BD06ACF02E2DFF2019F0AE01B601E8
:101EF00002C0A601BE01C2010E94E90E8618970821
:101F000097FE04C0C00ED11E820C931C2196E8CF10
:101F1000DF91CF911F910F91FF90EF90DF90CF90C5
:101F2000BF90AF909F908F907F906F905F904F90F9
:101F30003F902F900895AF92BF92CF92DF92EF9291
:101F4000FF920F93CF93DF936C015B017A01E20E56
:101F5000F11CEA0157FF0DC0C0E0D0E00AC0C41771
:101F6000D5077CF4202FAE01B501C6010E94E90E11
:101F70002196A70181E4E816F1048CF340E450E0D7
:101F8000EECFDF91CF910F91FF90EF90DF90CF9048
:101F9000BF90AF9008952F923F924F925F926F92B1
:101FA0007F928F929F92AF92BF92CF92DF92EF92E9
:101FB000FF920F931F93CF93DF9300D01F92CDB763
:101FC000DEB74C013B012A011E2D822F90E09B833E
:101FD0008A8322242394312C281A390A7C01F19413
:101FE000E194F108EE0CFF1CAA24A394B12C302F2D
:101FF000317039831F5F0270D02EC5010197EA81CD
:10200000FB818E179F070CF054C037FC0AC08A81F1
:102010009B8101979B838A8392E0E90EF11C2E0C31
:102020003F1CC501880F991F0196280E391E398162
:102030003323E1F02A81220F210F0C2DA2018A8186
:102040009B81481B590BB501660D771DC4010E9489
:102050009B0F2A2D220F210FA2014A195B096A81C9
:102060007B81660D771DC4010E949B0FDD20E9F086
:102070002A81220F210F0C2DA201EA81FB814E1B28
:102080005F0BB3016A197B09C4010E949B0F2A2DC3
:10209000220F210FA2014A195B09B3018A819B819A
:1020A000681B790BC4010E949B0F9FEFA91AB90A04
:1020B000A4CF0F900F900F90DF91CF911F910F91B0
:1020C000FF90EF90DF90CF90BF90AF909F908F9058
:1020D0007F906F905F904F903F902F9008958F92D8
:1020E0009F92AF92BF92CF92EF92FF920F931F9366
:1020F000CF93DF93EC015B014A01122FC02E220F18
:102100002F5F411B51090E949B0FE12CF12C03E032
:10211000212FA401B501CE010E94CB0FDF91CF91F9
:102120001F910F91FF90EF90CF90BF90AF909F9035
:102130008F900895AF92BF92CF92DF92EF92FF926D
:102140000F93CF93DF936C015A017B01E20EF11CD8
:10215000EB0177FF0DC0C0E0D0E00AC0C617D7077B
:102160007CF4202FA501BE01C6010E94E90E219634
:10217000B70181E8E816F1048CF360E870E0EECF77
:10218000DF91CF910F91FF90EF90DF90CF90BF90B4
:10219000AF900895AF92BF92CF92DF92EF92FF92ED
:1021A0000F931F93CF93DF93EC015B016A01F22E33
:1021B000102F0E2D0E949A10A601410F511D415063
:1021C00051092F2DB501CE010E949A10212FA60191
:1021D000B501CE010E949B0FB5016F0D711D6150BD
:1021E0007109212FA601CE010E949B0FDF91CF9193
:1021F0001F910F91FF90EF90DF90CF90BF90AF9025
:1022000008958F929F92AF92BF92CF92DF92EF92FA
:102210000F931F93CF93DF936C015A01102FEB01A3
:102220004B01820E911CC815D9054CF40E2D212F9F
:10223000A501BE01C6010E949B0F2196F4CFDF913C
:10224000CF911F910F91EF90DF90CF90BF90AF9003
:102250009F908F9008954496B62FB111BFEFFC0167
:102260000024B193B193B193B1930394D1F708953E
:1022700060E00C942B112F923F924F925F926F92DD
:102280007F928F929F92AF92CF92DF92EF92FF92C6
:102290000F931F93CF93DF9300D000D0CDB7DEB75D
:1022A0009C838B831B014A0139012801FA82E98250
:1022B000EA2C0E94100F860129813A81A201B30104
:1022C0008B819C810E94100F84019101A60169817C
:1022D0007A818B819C810E94100F0F900F900F903C
:1022E0000F90DF91CF911F910F91FF90EF90DF90B2
:1022F000CF90AF909F908F907F906F905F904F9016
:102300003F902F9008952F923F924F925F926F923D
:102310007F928F929F92AF92BF92CF92DF92EF9275
:10232000FF920F931F93CF93DF9300D000D01F92A3
:10233000CDB7DEB7C982202E312CFB01E20DF31D93
:10234000F7FD13C1603871050CF00FC1FA01EE0DF5
:10235000F11DF7FD0AC1403451050CF006C1DA0148
:1023600057FF04C0AA27BB27A41BB50BFD01E770CC
:10237000FF27FB83EA83FA0157FD3796DF0113E05D
:10238000B595A7951A95E1F7BD83AC8357FF0CC0AF
:102390001197BD83AC8348E050E0DA01EA81FB810C
:1023A000AE1BBF0BBB83AA834E2D46954695469523
:1023B000C42ED12C4E2D477019F0FFEFCF1ADF0A33
:1023C00049014C815D815695542F44275795479577
:1023D000480F591F2C813D81F8E06F2E712C8A81A6
:1023E0009B81681A790AC901AC81BD818A1B9B0B4C
:1023F0008C159D050CF0B9C02830310509F4B5C025
:102400002F3F9FEF39070CF4A3C0CB0100E010E091
:10241000DA01A058BF4F2D01021513050CF098C02A
:102420008038910509F494C097FD8EC02F3FBFEF0F
:102430003B0709F494C0D801A80DB91D7A01E80E34
:10244000F91EE981E13071F4FD01A491B0E00A8048
:1024500002C0AA0FBB1F0A94E2F7F701B488AB29A8
:10246000A48B28C0F981F11114C0FD01A491EA2FB9
:10247000F0E00A8002C0EE0FFF1F0A94E2F7E09539
:10248000F095D7015496AC905497B12CEA21FB21DA
:102490000FC0FD01A491EA2FF0E00A8002C0EE0F08
:1024A000FF1F0A94E2F7D7015496BC905497EB258E
:1024B0005496EC93AA81BB81AB2B09F445C027301D
:1024C000310509F441C0F801E80DF91DB981B130B9
:1024D00089F4E491F0E0062C02C0F595E7950A94A2
:1024E000E2F77201E80EF91ED7015496BC9054979A
:1024F000EB2928C0B981B11115C0E491F0E0062C98
:1025000002C0F595E7950A94E2F7E095F09572011F
:10251000E80EF91ED7015496AC905497B12CEA21DD
:10252000FB2110C0E491F0E0062C02C0F595E79580
:102530000A94E2F77201E80EF91ED7015496BC9096
:102540005497EB255496EC930F5F1F4F019664CF81
:102550002F5F3F4F820C931C40585F4F44CFAA819E
:10256000BB81AB2B09F0AFCFEFCF0F900F900F9047
:102570000F900F90DF91CF911F910F91FF90EF90EF
:10258000DF90CF90BF90AF909F908F907F906F9093
:102590005F904F903F902F9008958F929F92AF92AF
:1025A000BF92CF92EF920F931F93CF93DF935C0173
:1025B000CEEEDFEF18E14C0184E1880E911C20E0A3
:1025C00040E0612F6C1BC5010E944118C5010E94AB
:1025D0003811CC24C39400E1E02E08E52CE633E06A
:1025E000AE0164E170E0C5010E948311C4010E9444
:1025F00025186BE170E080E090E00E94BB1AC03FBC
:1026000031F46AEF70E080E090E00E94BB1A2196FE
:10261000C931D105A1F66EEE72E080E090E00E9433
:10262000BB1A20E040E060E0C501DF91CF911F912F
:102630000F91EF90CF90BF90AF909F908F900C94A0
:102640004118CF93DF93EC010E9497170E946718FF
:102650008078803849F40E9435182FEF4FEF6FEFE4
:10266000CE010E944118FFCFCE010E94CD122496C8
:1026700065E0CE010E942D156DE0CE010E942D1562
:10268000DF91CF910C9483142F923F924F925F92DF
:102690006F927F928F929F92AF92BF92CF92DF9272
:1026A000EF92FF920F931F93CF93DF93CDB7DEB7D7
:1026B00028970FB6F894DEBF0FBECDBF9E838D83E3
:1026C0002A01603871050CF06DC0403451050CF0E2
:1026D00069C0CB01A5E0CA9E800D911D112418167A
:1026E00019060CF05FC0EC2DF0E0FC83EB83CA010F
:1026F000F8E0CF9E800D911D1124181619060CF0DC
:1027000051C0A5E02A9FC00111245B0118861F82D9
:10271000845E9B4F9A838983BF81B53041F0E98104
:10272000FA818F819885E80FF91F149101C010E09C
:10273000320128E0D22E10FF02C0F02E01C0FE2C84
:10274000F1100BC0E01209C01695DA94AB81BC8180
:102750006A0E7B1ED110EFCF19C01501822D8A1988
:102760008C1590F74301882D86198C1558F42F2D60
:10277000A401B1018D819E810E94E90EBFEF8B1AE9
:102780009B0AF1CFEFEF2E1A3E0AE8CF8F81988592
:10279000019698878F83AB81BC81AA0EBB1E0697DA
:1027A00009F0BACF28960FB6F894DEBF0FBECDBFA2
:1027B000DF91CF911F910F91FF90EF90DF90CF901D
:1027C000BF90AF909F908F907F906F905F904F9051
:1027D0003F902F9008958F929F92AF92BF92CF9289
:1027E000EF920F93CF93DF93EC01262F6A3099F489
:1027F000FC01E85EFB4F208132978081918138E0B7
:10280000239F800D911D112491838083CC5EDB4F2B
:10281000198218824BC06D3009F448C0FC01EA5E91
:10282000FB4F408151815C018CEEA81A8BEFB80AF6
:10283000F501608171814E01F8EE8F1AFBEF9F0A5E
:10284000F401C080E12C01E0CE010E944413F401A8
:102850002081422F50E0F50180819181F6E02F9F89
:10286000800D911D1124F50191838083359620817F
:102870002223E1F06AEF64039001659F300D11247B
:1028800020583F4F281739078CF4E881F9810190CF
:10289000F081E02D6AE0CE01DF91CF910F91EF90B2
:1028A000CF90BF90AF909F908F900994DF91CF9180
:1028B0000F91EF90CF90BF90AF909F908F90089521
:1028C00044960C942518CF93DF931F92CDB7DEB7B3
:1028D00069830E9467186981982F962381E0961377
:1028E00080E00F90DF91CF910895E4E6F0E08081E1
:1028F000877F8083E5E6F0E08081877F808381E0C9
:1029000080938D06089510929A0682E090E00E94CE
:10291000B42581110C9475140895CF92DF92EF9233
:10292000FF921F93CF93DF9390919B06891708F036
:1029300065C067FD63C0E82FF0E0E451F64F1491E5
:10294000E62FF0E0603330F4E454F64FE491CE2FFC
:10295000D0E006C0EE0FFF1FE454F74FC591D491AD
:102960006E01E12CF12C60E074E284EF90E0A701AD
:1029700096010E940A25215031094109510921156A
:10298000310581E04807510570F060E970ED83E0A2
:1029900090E0A70196010E940A25215031094109C2
:1029A000510993E001C091E01130C9F0133031F5C5
:1029B00080919100887F892B8093910030939900BA
:1029C00020939800D0939906C093980681E0809355
:1029D0009706809171008260809371000FC0809192
:1029E0008100887F892B8093810030938900209318
:1029F000880080916F00826080936F00DF91CF919B
:102A00001F91FF90EF90DF90CF900895E82FF0E0B6
:102A1000E451F64FE491E13019F0E33069F00895A4
:102A200080916F008D7F80936F002091A506E091CB
:102A3000A606F091A70608C01092970620919E0660
:102A4000E0919F06F091A006808190E030E0209513
:102A500030958223932380830895CF93DF93C62FED
:102A600080919B06823009F46BC0E82FF0E0E451BE
:102A7000F64FD491A82FB0E0A456B94F6C938F5F56
:102A800080939B0661E08C2F0E941F1CD13091F136
:102A9000D33009F055C010929000109291008091AF
:102AA0009100886080939100809191008160809373
:102AB00091006C2F70E0FB01E051F24F249130E067
:102AC000220F331F215F314FF9018591949190932B
:102AD000A00680939F06FB01EF52F24F6491609332
:102AE0009E066CE380E00E948D1480E0DF91CF9120
:102AF0000C94061510928000109281008091810044
:102B00008860809381008091810081608093810042
:102B10006C2F70E0FB01E051F24F249130E0220F66
:102B2000331F215F314FF901859194919093A7064E
:102B30008093A606FB01EF52F24F64916093A506C5
:102B4000DF91CF910895E0918E06F0918F06BF013D
:102B50006F5F7F4F70938F0660938E06A4919A2FBC
:102B6000907F8A2F8F70903819F40E940615EBCF52
:102B7000903961F4AF014E5F5F4F50938F064093E1
:102B80008E06FB0164910E948D14DDCF903E49F4C6
:102B9000809190069091910690938F0680938E0677
:102BA000D2CF903F19F410929A06089597FDCBCF9B
:102BB000AF014E5F5F4F50938F0640938E06FB012F
:102BC0006491262F30E03A2BA0919806B091990697
:102BD0000E942F256C507E4F8F4F9F4F28EE33E081
:102BE00040E050E00E94E824209392063093930640
:102BF0004093940650939506809192069091930687
:102C0000A0919406B0919506892B8A2B8B2B61F4A9
:102C100081E090E0A0E0B0E080939206909393066C
:102C2000A0939406B0939506089580919706882303
:102C300049F090919E06E0919F06F091A006808158
:102C40008927808380919A06882329F180919206B2
:102C500090919306A0919406B0919506892B8A2BAA
:102C60008B2BC9F08091920690919306A0919406C7
:102C7000B09195060197A109B109809392069093AE
:102C80009306A0939406B0939506892B8A2B8B2BE1
:102C900011F40C94A31508954F925F926F927F9256
:102CA0008F929F92AF92BF92CF92DF92EF92FF925C
:102CB000CF93DF93EB0149015A0181E0809396069F
:102CC0002B01612C712C60E072E18AE790E0A30196
:102CD00092010E940A2569017A0181E0C81AD1088F
:102CE000E108F108C114D10481E0E806F10488F09C
:102CF00068E478EE81E090E0A30192010E940A2549
:102D000069017A0181E0C81AD108E108F10893E06D
:102D100001C091E080918100887F892B80938100A0
:102D200081149104A104B10471F0DE01AA0FBB1F4C
:102D3000A50194010E943E2528EE33E040E050E0DA
:102D40000E94E82403C02FEF3FEFA901D092890031
:102D5000C09288002093A1063093A2064093A30658
:102D60005093A40680916F00826080936F00DF9182
:102D7000CF91FF90EF90DF90CF90BF90AF909F905A
:102D80008F907F906F905F904F9008951F920F9259
:102D90000FB60F9211242F933F938F939F93AF936E
:102DA000BF93EF93FF9380919606882309F44BC05D
:102DB0008091A1069091A206A091A306B091A406CD
:102DC000892B8A2B8B2B51F19091A506E091A606B9
:102DD000F091A7068081892780838091A106909138
:102DE000A206A091A306B091A406181619061A0609
:102DF0001B0694F58091A1069091A206A091A306CE
:102E0000B091A4060197A109B1098093A1069093FE
:102E1000A206A093A306B093A4061EC01092960625
:102E200080916F008D7F80936F002091A506E091C7
:102E3000A606F091A706808190E030E020953095BD
:102E40008223932308C09091A506E091A606F091F5
:102E5000A706808189278083FF91EF91BF91AF9171
:102E60009F918F913F912F910F900FBE0F901F90C8
:102E700018951F920F920FB60F9211242F933F9324
:102E80004F935F936F937F938F939F93AF93BF9372
:102E9000EF93FF930E941516FF91EF91BF91AF91B1
:102EA0009F918F917F916F915F914F913F912F9162
:102EB0000F900FBE0F901F9018958EBD00000DB49F
:102EC00007FEFDCF8EB508950895E091AA06F09112
:102ED000AB0680819091A806892B8083E091AC0697
:102EE000F091AD0690818091A90680958923808319
:102EF0000895E091AC06F091AD0680819091A9060D
:102F0000892B8083E091AA06F091AB069081809195
:102F1000A806809589238083E091AC06F091AD06E8
:102F200090818091A9068095892380830895CF930D
:102F3000DF930E94CF0DCBEFD9E0BE01FE0184915B
:102F400022966F5F7F4FFB016491882319F00E94E6
:102F50001F1CF3CF61E086E00E94581C61E070E026
:102F600080E090E00E94BB1A60E086E00E94581C5E
:102F70006AE070E080E090E00E94BB1A61E086E0C9
:102F80000E94581CECEFFDE0E491F0E0EE0FFF1F13
:102F9000E15FF14F859194919093AD068093AC06DB
:102FA000EDEDFDE0E491E093A906E4EFFDE0E491AE
:102FB000F0E0EE0FFF1FE15FF14F85919491909348
:102FC000AB068093AA06E5EDFDE0E491E093A80648
:102FD0008CB58C7F8CBD8DB581608DBD0E947917BD
:102FE000CEEED9E0F9E0CB3FDF0731F0FE0184916E
:102FF0000E945D172196F6CF0E94651780916400AC
:10300000816080936400809164008260809364009A
:103010008091640080688093640080916400806483
:103020008093640080916500816080936500DF91EA
:10303000CF91089583B7817F83BF83B7816083BFBA
:10304000889583B78E7F83BF089520E030E0FC0130
:103050004191CF014EBD119C119C119C2F5F3F4FA0
:103060002115F4E03F0799F70895CF93DF93C0E06F
:10307000D4E080E00E945D172197D9F7DF91CF91CE
:1030800008950F931F93CF93DF9300D0CDB7DEB792
:103090000FEF10E0C801861B9109BC018AE02A836A
:1030A00049830E944B1B4981B801641B71098BE065
:1030B0000E944B1B2A81B801621B710989E00F90A5
:1030C0000F90DF91CF911F910F910C944B1B8FB1FB
:1030D0004CB123B150E0409550954074552733E0F2
:1030E000559547953A95E1F730E020953095207158
:1030F00033273595279535952795242B8095807F07
:10310000822B08958F929F92AF92BF92CF92DF92BF
:10311000EF92FF920F931F93CF93DF93EC018B01FC
:1031200060E4C8010E9463148823B9F0C880D98084
:10313000EA80FB802AE939E949E95FE3C701B60182
:103140000E94722387FF29C02FE832EC45EF5CE331
:10315000C701B6010E940E231CC060E2C8010E9494
:1031600063148823D1F0C880D980EA80FB802AE9E3
:1031700039E949E95FEBC701B6010E9459241816E5
:1031800064F42FE832EC45EF5CE3C701B6010E941E
:103190000D23688379838A839B8360E1C8010E9441
:1031A0006314811106C064E0C8010E94631488237F
:1031B00011F120E030E040E85FEB6C817D818E8191
:1031C0009F810E94722387FF08C080E090E0A0E802
:1031D000BFEB8C839D83AE83BF832FE135E84BE645
:1031E0005FE3688179818A819B810E945D24688385
:1031F00079838A839B8368E0C8010E9463148823D3
:1032000061F08885882349F080E090E0A0E2B0EC8E
:103210008C839D83AE83BF8318862AE939E949E10F
:103220005EE36C817D818E819F810E940E236C8381
:103230007D838E839F832C89222379F09F772DECC9
:103240003CEC4CE85FEB0E945D246C837D838E83B5
:103250009F8321E028871C8A0FC02B89222319F124
:103260009F772DEC3CEC4CE85FE30E945D246C837F
:103270007D838E839F831B8A9F7720E030E048E424
:1032800052E40E945D2420E030E048EC53E40E94C8
:103290000E230E947B232AE030E040E050E0C8018A
:1032A00004960E944C168A898823A9F08881998106
:1032B000AA81BB81BC01CD019F7720E030E040ECCA
:1032C0005FEB0E945D24688379838A839B8321E07E
:1032D00028871A8A17C08989882359F1888199819A
:1032E000AA81BB81BC01CD019F7720E030E040EC9A
:1032F0005FE30E945D24688379838A839B8321E056
:103300002887198A9F7720E030E048E452E40E9441
:103310005D2420E030E048EC53E40E940E230E943C
:103320007B232AE030E040E050E0C80104960E9490
:103330004C1622E538EB4EE75FE36C817D818E8190
:103340009F810E945D244B015C016C837D838E8391
:103350009F8328E431EE4AE75FE3688179818A81BF
:103360009B810E945D246B017C01688379838A8341
:103370009B832DEC3CEC4CE050E4C501B4010E9471
:10338000592487FD08C08DEC9CECACE0B0E48C8344
:103390009D83AE83BF8320E030E040E450E4C7016A
:1033A000B6010E94592418162CF480E090E0A0E4A5
:1033B000B0E40EC020E030E040E450ECC701B601BC
:1033C0000E94722387FF08C080E090E0A0E4B0EC88
:1033D00088839983AA83BB832C813D814E815F8141
:1033E0006D857E858F8598890E940E236D877E87E7
:1033F0008F87988B288139814A815B8169857A859D
:103400008B859C850E940E2369877A878B879C8792
:10341000DF91CF911F910F91FF90EF90DF90CF90B0
:10342000BF90AF909F908F9008950F931F93CF936D
:10343000DF93EC018A01882777FD8095982F0E9401
:10344000A92369877A878B879C87B801882777FDAE
:103450008095982F0E94A9236D877E878F87988BF0
:103460001C821D821E821F82188219821A821B8270
:103470001886198A1A8A1B8A1C8ADF91CF911F919C
:103480000F9108951F920F920FB60F9211242F9350
:103490003F938F939F93AF93BF938091C406909176
:1034A000C506A091C606B091C7063091C30623E0B9
:1034B000230F2D3720F40196A11DB11D05C026E86C
:1034C000230F0296A11DB11D2093C3068093C4064D
:1034D0009093C506A093C606B093C7068091C80610
:1034E0009091C906A091CA06B091CB060196A11D84
:1034F000B11D8093C8069093C906A093CA06B093E5
:10350000CB06BF91AF919F918F913F912F910F90DB
:103510000FBE0F901F9018952FB7F8946091C406B6
:103520007091C5068091C6069091C7062FBF089579
:103530003FB7F8948091C8069091C906A091CA0639
:10354000B091CB0626B5A89B05C02F3F19F0019678
:10355000A11DB11D3FBF6627782F892F9A2F620FBB
:10356000711D811D911D42E0660F771F881F991FF5
:103570004A95D1F708958F929F92AF92BF92CF92C2
:10358000DF92EF92FF926B017C010E94981A4B012F
:103590005C01C114D104E104F104F1F00E94612145
:1035A0000E94981A681979098A099B09683E734034
:1035B0008105910570F321E0C21AD108E108F108F4
:1035C00088EE880E83E0981EA11CB11CC114D104A2
:1035D000E104F10429F7DDCFFF90EF90DF90CF9069
:1035E000BF90AF909F908F900895789484B582603B
:1035F00084BD84B5816084BD85B5826085BD85B597
:10360000816085BDEEE6F0E0808181608083E1E845
:10361000F0E010828081826080838081816080837D
:10362000E0E8F0E0808181608083E1E9F0E0808182
:1036300082608083808181608083E0E9F0E0808126
:1036400081608083E1ECF0E0808184608083808110
:1036500082608083808181608083E3ECF0E0808100
:1036600081608083E0ECF0E0808182608083E2EC26
:10367000F0E0808181608083EAE7F0E0808184600F
:10368000808380818260808380818160808380816B
:103690008068808308951F93CF93DF93182FEB01E9
:1036A00061E00E941F1C209711F460E004C0CF3F2E
:1036B000D10539F461E0812FDF91CF911F910C94F6
:1036C000581CE12FF0E0EE54F24F449150E0FA0123
:1036D0003197EF30F10508F06CC0EA5AFF4F0C94B7
:1036E000292584B5806884BDC7BD68C084B5806263
:1036F00084BDC8BD63C080918000806880938000D5
:10370000D0938900C093880059C080918000806266
:1037100080938000D0938B00C0938A004FC080912B
:103720008000886080938000D0938D00C0938C00CF
:1037300045C080919000806880939000D09399005C
:10374000C09398003BC0809190008062809390006D
:10375000D0939B00C0939A0031C080919000886004
:1037600080939000D0939D00C0939C0027C08091CF
:10377000C00080688093C0008091C0008F7B8093E0
:10378000C000C093CF001AC08091C00080628093B7
:10379000C000C093D00012C08091C20088608093A6
:1037A000C2008091C2008B7F8093C200C093D20080
:1037B00005C0C038D1050CF07DCF77CFDF91CF9118
:1037C0001F91089590E0FC013197EF30F105B0F5BD
:1037D000EB59FF4F0C942925809180008F7703C00F
:1037E000809180008F7D809380000895809180007B
:1037F000877FF9CF84B58F7702C084B58F7D84BD74
:103800000895809190008F7707C0809190008F7D00
:1038100003C080919000877F8093900008958091ED
:10382000C0008F7703C08091C0008F7D8093C0005F
:1038300008958091C200877F8093C2000895CF933E
:10384000DF9390E0FC01EF52F24F2491FC01E05134
:10385000F24F8491882349F190E0880F991FFC0171
:10386000E35EF14FA591B491815F914FFC01C59149
:10387000D4919FB7611108C0F8948C912095822350
:103880008C93888182230AC0623051F4F8948C9121
:10389000322F309583238C938881822B888304C0B8
:1038A000F8948C91822B8C939FBFDF91CF910895D8
:1038B0000F931F93CF93DF931F92CDB7DEB7282FBF
:1038C00030E0F901EE54F24F8491F901EF52F24FDA
:1038D0001491F901E051F24F04910023C9F08823BB
:1038E00021F069830E94E21B6981E02FF0E0EE0F76
:1038F000FF1FE15FF14FA591B4919FB7F8948C91B0
:10390000611103C01095812301C0812B8C939FBF4F
:103910000F90DF91CF911F910F91089508950E940C
:10392000F51A0E948E1C8CEC96E00E94FC200E94EE
:10393000E607C0E0D0E00E94FE072097E1F30E9476
:103940000000F9CFCF92DF92EF92FF920F931F9377
:10395000CF93DF937C016A01EB0100E010E00C15CE
:103960001D0571F06991D701ED91FC910190F081F5
:10397000E02DC7010995892B19F00F5F1F4FEFCF7D
:10398000C801DF91CF911F910F91FF90EF90DF90D1
:10399000CF900895615030F02091F100FC01208318
:1039A0000196F8CF289884E68093D5060895409133
:1039B000D0065091D1062091CE063091CF06421705
:1039C0005307B4F49091E8009570E1F39091E8000A
:1039D00092FD19C08093F1008091D0069091D1069C
:1039E00001968F739927892B19F48EEF8093E80045
:1039F0008091D0069091D10601969093D106809344
:103A0000D00681E0089580E00895CF92DF92EF9292
:103A1000FF920F931F93CF93DF931F92CDB7DEB723
:103A2000082F162FF42E862F880F8E5F99830E9401
:103A3000D71C83E00E94D71CE02EC02E9981D92E7E
:103A40008C2D8E19811798F4F601F7FE02C084912F
:103A500001C080810E94D71C082F80E00E94D71CE3
:103A60008023FFEFCF1ADF0A8111EACF01C081E086
:103A70000F90DF91CF911F910F91FF90EF90DF900A
:103A8000CF9008958091D70081608093D70080EA1D
:103A90008093D80089B5806189BD89B5826089BD70
:103AA00009B400FEFDCF61E070E080E090E00E948C
:103AB000BB1A8091D8008F7C80618093D800809160
:103AC000E000807F8093E0000895CF93DF931F9202
:103AD000CDB7DEB71982CE0101960E94C1210E94A6
:103AE000F922BE016F5F7F4F0E94722289810F9081
:103AF000DF91CF9108952FB7FC012083F894677070
:103B00006093E9000895CF93DF931F92CDB7DEB79E
:103B1000682FCE0101960E947B1D8091F200998151
:103B20009FBF0F90DF91CF910895FF920F931F9346
:103B3000CF93DF9300D0CDB7DEB7F62E8A019091F8
:103B4000D406992311F057FF03C08FEF9FEF2BC0CE
:103B5000682FCE0101967A830E947B1D8091F2002E
:103B600090E0A8017A81801791070CF4AC01EF2D49
:103B7000F72FF40E84E6FE1639F028988093D506C8
:103B80009091F1009193F7CF4115510521F080916B
:103B9000F200882321F089818FBFCA0104C08BE61F
:103BA0008093E800F8CF0F900F90DF91CF911F9195
:103BB0000F91FF900895CF93DF931F92CDB7DEB79B
:103BC00041E050E0BE016F5F7F4F0E94951D01975D
:103BD00019F4898190E002C08FEF9FEF0F90DF9181
:103BE000CF910895CF93DF931F92CDB7DEB7682FA3
:103BF000CE0101960E947B1D9091E800892F807272
:103C000095FF04C09091F20080E4891B99819FBFC9
:103C10000F90DF91CF9108956F927F928F929F9234
:103C2000AF92BF92CF92DF92EF92FF920F931F93CA
:103C3000CF93DF931F92CDB7DEB7782E7B01C42ED2
:103C4000B52E8091D406882369F0042F152F8AEFB2
:103C5000D82E872D8072982E9AE3A92E872D8074F6
:103C6000882E11C08FEF9FEF57C0872D0E94F21D45
:103C7000682E81110CC0DA94A9F361E070E080E055
:103C800090E00E94BB1A0115110579F73BC0282F5F
:103C900030E0021713070CF4602E672DCE01019659
:103CA0000E947B1D8091E80085FF29C0262D30E011
:103CB000021B130B992039F06A948FEF6816B1F04C
:103CC0001092F100F9CFF701862D77FE07C08150E1
:103CD00058F094919093F1003196F9CF815020F0F3
:103CE00091919093F100FACFE20EF31E8091E800DB
:103CF00085FF0FC00115110511F481100AC08981DB
:103D00008FBFC1CF5D9884E68093D6068C2D9B2D06
:103D100003C0A092E800F3CF0F90DF91CF911F91E5
:103D20000F91FF90EF90DF90CF90BF90AF909F905A
:103D30008F907F906F9008951092E9001092D106B5
:103D40001092D0069093CF068093CE060895CF921E
:103D5000DF92FF920F931F93CF93DF9300D0CDB7E5
:103D6000DEB7F82E8A016B0101151105B1F0F601DD
:103D7000F7FE02C0849101C0808149835A830E946A
:103D8000D71C01501109FFEFCF1ADF0A49815A8170
:103D90008111EACF8FEF9FEF01C0CA010F900F9002
:103DA000DF91CF911F910F91FF90DF90CF900895F9
:103DB000BF92CF92DF92EF92FF920F931F93CF9318
:103DC000DF936C018B01EB013BEFB32E2097C1F029
:103DD0007E01C134D1051CF020E4E22EF12C80914B
:103DE000E80082FFFCCFC8018C1B9D0B6E2D8C0D53
:103DF0009D1D0E94CA1CB092E800CE19DF09E6CFD3
:103E0000C801DF91CF911F910F91FF90EF90DF904C
:103E1000CF90BF9008951F920F920FB60F9211246A
:103E2000DF92EF92FF920F931F932F933F934F9345
:103E30005F936F937F938F939F93AF93BF93EF9312
:103E4000FF93CF93DF93CDB7DEB76C97DEBFCDBFC7
:103E50001092E9008091E80083FF23C168E0CE0161
:103E600045960E94CA1C82EF8093E8003D8937FF87
:103E700005C08091E80080FFFCCF03C08EEF8093E7
:103E8000E800832F807609F0F0C02E894F89D88C06
:103E900021110CC0303829F48091D3068093F100B1
:103EA00002C01092F1001092F100F4C0842F90E053
:103EB0009D29213049F43111EDC0019709F0EAC084
:103EC0008091D3068D7F0AC0233059F43111E2C0AE
:103ED000019709F0DFC08091D30682608093D306FA
:103EE000D9C0253041F48091E80080FFFCCF4068C4
:103EF0004093E300CFC0263009F08DC0EB8CFC8CE2
:103F000022E0D2122CC080E090E00E949C1E0E9411
:103F1000651D99E08E010F5F1F4FF801292F119247
:103F20002A95E9F79983DA8291E09E8390EA98874F
:103F30009AEF99872091D0063091D106275F3F4FA5
:103F40003C832B838D83C7010E949C1E49E050E077
:103F5000B80180E00E94A71E0E94651D9BC0C7019A
:103F60000E949C1E0E94F922BE016B5E7F4F0E9440
:103F70009B22009719F00CF08DC090C081E0D81200
:103F80000EC08B8D9C8D089719F481E08093CD062F
:103F90008091CD0681112FC06DE37EE031C0E3E05A
:103FA000DE127CC08F89882349F1823029F440E8F1
:103FB00067E08BE59EE01CC0813029F440E86BE0AF
:103FC0008FE49EE015C0833009F068C00E94F9229A
:103FD0008E010F5F1F4FB8010E94BA22F8010190B5
:103FE0000020E9F73197E01BF10B40E06E2FC8018C
:103FF0000E94051D4DC06BE27EE002C063E67EE0DC
:104000006115710509F44AC0FB01449150E080E854
:104010000E94A71E3FC0273009F440C0283021F479
:1040200081E08093F10036C02930A1F53370B1F5FD
:10403000EBE0F1E081E021E036E39081992361F04B
:104040008093E9002093EB0091919093EC003093E2
:10405000ED008F5F873089F78EE78093EA0010923A
:10406000EA008F898093D40615C08B8D9C8D0E94A9
:104070009C1E898D811105C0CE0145960E94CC21E0
:1040800007C00E94F922BE016B5E7F4F0E94D922B9
:10409000882321F08EEF8093E80003C081E28093B3
:1040A000EB006C960FB6F894DEBF0FBECDBFDF916C
:1040B000CF91FF91EF91BF91AF919F918F917F91A0
:1040C0006F915F914F913F912F911F910F91FF90B1
:1040D000EF90DF900F900FBE0F901F901895809378
:1040E000E9008091F200882319F08AE38093E800C8
:1040F00008951F920F920FB60F9211242F933F93A2
:104100004F935F936F937F938F939F93AF93BF93DF
:10411000CF93EF93FF93C091E1008091E100837F03
:104120008093E1008093E100C3FF0FC01092E9008B
:1041300081E08093EB001092EC0082E38093ED002D
:104140001092D40688E08093F000C2FF19C083E08B
:104150000E946F208091D606882339F08091D60680
:1041600081508093D606882389F18091D5068823D3
:1041700039F08091D50681508093D506882341F18E
:10418000C4FF10C08091E2008E7E81608093E200C7
:104190008091E1008F7E8093E1008091D2068E7E37
:1041A000806111C0C0FF16C08091E2008E7E8061E8
:1041B0008093E2008091E1008E7E8093E100809107
:1041C000D2068E7E81608093D20604C05D9ACDCFE8
:1041D000289AD6CFFF91EF91CF91BF91AF919F9148
:1041E0008F917F916F915F914F913F912F910F90A0
:1041F0000FBE0F901F9018951092D4061092D30600
:104200001092D2060E94421D8091E1008E7E809322
:10421000E1008DE08093E200559A209AEEEFFFE7EF
:10422000859194918B3F9C4D19F481E080932707F1
:104230000895611571058105910511F00C949D2576
:104240000895CF93DF9300D000D0CDB7DEB79B01A8
:10425000AC01611571058105910569F069833A83A7
:104260004B835C830E94982529813A814B815C8134
:104270000E940A2503C060E070E0CB010F900F9010
:104280000F900F90DF91CF910895CF92DF92EF9230
:10429000FF926B017C01621773078407950764F432
:1042A000CA01B9016C197D098E099F090E9421215B
:1042B0006C0D7D1D8E1D9F1DFF90EF90DF90CF90A8
:1042C000089508950E94A625CF93DF931F92CDB73E
:1042D000DEB76983DC01ED91FC910280F381E02D72
:1042E00041E050E0BE016F5F7F4F09950F90DF9175
:1042F000CF910895CF93DF93EC018C859D8597FF37
:1043000005C082E00E94DB1D9D878C878C859D8582
:10431000DF91CF91089583E00C946F20FC01848598
:10432000958597FD06C082E00E94831D90E001966E
:10433000089582E00E94831D90E00895FC01848529
:10434000958597FD05C02FEF3FEF358724870895AA
:1043500082E00C94DB1DCF93DF93EC0180911C0174
:10436000882331F083E00E940C1E1816190634F0E1
:1043700081E090E09B838A8380E090E0DF91CF91A1
:104380000895FC0120812E5F208342E450E067E61F
:104390007EE080E80C94A71EFC0121818081813A97
:1043A00059F4213209F04BC047E050E065E171E07B
:1043B00080E00E94A71E5EC0813209F040C0233217
:1043C00089F4838190E0982F88273281832BA0E0A5
:1043D000B0E08093110190931201A0931301B09368
:1043E00014010FC0203239F467E070E085E191E0FC
:1043F0000E94D81E09C0223221F4828180931C01C0
:1044000003C02D7F2032B1F580912707811103C0B1
:10441000E0E0F8E002C0EEEFFAE080911501909143
:104420001601A0911701B0911801803B9440A1059D
:10443000B10511F580911C0180FF03C01DC080E013
:104440000895EE3F2AE0F20731F080819181909348
:10445000FF0A8093FE0A87E797E7918380832BE02A
:1044600088E190E00FB6F894A895809360000FBEA5
:104470002093600081E0089588E10FB6F89480935E
:104480006000109260000FBEA895EE3F8AE0F8072A
:1044900039F08091FE0A9091FF0A91838083EACFE0
:1044A0001092FF0A1092FE0AE5CF1092DA061092DF
:1044B000D90688EE93E0A0E0B0E08093DB0690930D
:1044C000DC06A093DD06B093DE0681E391E09093D5
:1044D000D8068093D7068FEF9FEF9093E4068093E2
:1044E000E3060895EF92FF920F931F93CF93DF930C
:1044F0007B01FC01C281D38100E010E0209781F0B4
:10450000E881F9810280F381E02DB701CE010995A0
:1045100097FD08C0080F191F0884D985C02DEECF5C
:10452000C80102C08FEF9FEFDF91CF911F910F91D4
:10453000FF90EF9008950F931F93CF93DF938B011C
:10454000FC01C281D381209771F0E881F981048058
:10455000F581E02DB801CE010995009731F408846A
:10456000D985C02DF0CF80E090E0DF91CF911F91F1
:104570000F9108950F931F93CF93DF938B01FC014D
:10458000C281D381209771F0E881F9810680F7819B
:10459000E02DB801CE010995080F111D0884D985B9
:1045A000C02DF0CFF8011082DF91CF911F910F91B4
:1045B00008950F931F93CF93DF938B01FC01C2816A
:1045C000D381209771F0E881F9810190F081E02D8D
:1045D000B801CE010995811106C00884D985C02D86
:1045E000F0CF80E001C081E0DF91CF911F910F916A
:1045F000089580912C0781110DC082E080932807D7
:1046000084E08093290710922B0710922A0781E0FB
:1046100080932C0788E297E008955058BB27AA277B
:104620000ED00DC1FED030F003D120F031F49F3F09
:1046300011F41EF4F3C00EF4E095E7FBE9C0E92F96
:104640000FD180F3BA17620773078407950718F034
:1046500071F49EF527C10EF4E0950B2EBA2FA02D14
:104660000B01B90190010C01CA01A0011124FF271F
:10467000591B99F0593F50F4503E68F11A16F0401A
:10468000A22F232F342F4427585FF3CF4695379519
:104690002795A795F0405395C9F77EF41F16BA0BDE
:1046A000620B730B840BBAF09150A1F0FF0FBB1F8C
:1046B000661F771F881FC2F70EC0BA0F621F731FD5
:1046C000841F48F4879577956795B795F7959E3F32
:1046D00008F0B3CF9395880F08F09927EE0F9795C0
:1046E0008795089571D008F481E0089504D0689406
:1046F000B111D9C00895BCD088F09F5790F0B92F60
:104700009927B751A0F0D1F0660F771F881F991F26
:104710001AF0BA95C9F712C0B13081F0C3D0B1E038
:104720000895C0C0672F782F8827B85F39F0B93F48
:10473000CCF3869577956795B395D9F73EF4909528
:104740008095709561957F4F8F4F9F4F0895E894A6
:1047500009C097FB3EF490958095709561957F4FC9
:104760008F4F9F4F9923A9F0F92F96E9BB27939577
:10477000F695879577956795B795F111F8CFFAF487
:10478000BB0F11F460FF1BC06F5F7F4F8F4F9F4FB8
:1047900016C0882311F096E911C0772321F09EE816
:1047A000872F762F05C0662371F096E8862F70E07C
:1047B00060E02AF09A95660F771F881FDAF7880F56
:1047C0009695879597F90895990F0008550FAA0BAC
:1047D000E0E8FEEF16161706E807F907C0F0121614
:1047E0001306E407F50798F0621B730B840B950B17
:1047F00039F40A2661F0232B242B252B21F408956C
:104800000A2609F4A140A6958FEF811D811D089508
:1048100097F99F6780E870E060E008959FEF80EC73
:10482000089500240A941616170618060906089516
:1048300000240A9412161306140605060895092E7C
:104840000394000C11F4882352F0BB0F40F4BF2BEB
:1048500011F460FF04C06F5F7F4F8F4F9F4F08952B
:1048600057FD9058440F551F59F05F3F71F0479521
:10487000880F97FB991F61F09F3F79F08795089506
:10488000121613061406551FF2CF4695F1DF08C025
:10489000161617061806991FF1CF86957105610542
:1048A00008940895E894BB2766277727CB0197F9EA
:1048B00008958ADF08F48FEF08950BD0C0CFB1DFE1
:1048C00028F0B6DF18F0952309F0A2CFA7CF112466
:1048D000EACFC6DFA0F3959FD1F3950F50E0551FA7
:1048E000629FF001729FBB27F00DB11D639FAA2745
:1048F000F00DB11DAA1F649F6627B00DA11D661F94
:10490000829F2227B00DA11D621F739FB00DA11DB4
:10491000621F839FA00D611D221F749F3327A00D6E
:10492000611D231F849F600D211D822F762F6A2F0A
:1049300011249F5750408AF0E1F088234AF0EE0F8F
:10494000FF1FBB1F661F771F881F91505040A9F79C
:104950009E3F510570F05CCFA6CF5F3FECF3983ED1
:10496000DCF3869577956795B795F795E7959F5F03
:10497000C1F7FE2B880F911D9695879597F908959D
:10498000AA1BBB1B51E107C0AA1FBB1FA617B70775
:1049900010F0A61BB70B881F991F5A95A9F7809591
:1049A0009095BC01CD01089597FB072E16F4009455
:1049B00007D077FD09D00E94C02407FC05D03EF443
:1049C000909581959F4F0895709561957F4F0895BB
:1049D000A1E21A2EAA1BBB1BFD010DC0AA1FBB1F03
:1049E000EE1FFF1FA217B307E407F50720F0A21B75
:1049F000B30BE40BF50B661F771F881F991F1A94E2
:104A000069F760957095809590959B01AC01BD010B
:104A1000CF010895052E97FB1EF400940E942125D6
:104A200057FD07D00E94E82407FC03D04EF40C94F5
:104A3000212550954095309521953F4F4F4F5F4F21
:104A4000089590958095709561957F4F8F4F9F4FFA
:104A50000895EE0FFF1F0590F491E02D0994A29F99
:104A6000B001B39FC001A39F700D811D1124911D42
:104A7000B29F700D811D1124911D08950E942F2554
:104A8000A59F900DB49F900DA49F800D911D1124A2
:104A900008958F929F92AF92BF92CF92DF92EF9242
:104AA000FF92CF93DF93EC01688179818A819B81AA
:104AB000611571058105910521F464E279ED8BE5BD
:104AC00097E02DE133EF41E050E00E940A254901D3
:104AD0005A019B01AC01A7EAB1E40E943E256B019B
:104AE0007C01ACEEB4EFA50194010E94BF25C60E77
:104AF000D71EE81EF91EF7FE06C081E0C81AD108CD
:104B0000E10880E8F80AC882D982EA82FB82C701FC
:104B1000B6019F77DF91CF91FF90EF90DF90CF901C
:104B2000BF90AF909F908F9008950E94492508955F
:104B300080E091E00E944925089560930001709300
:104B400001018093020190930301089581E090E0B8
:104B5000F8940C94C425FB01DC0102C005900D9271
:104B600041505040D8F70895F999FECF92BD81BDCC
:104B7000F89A992780B50895B7FF0C943E250E94B6
:0C4B80003E25821B930B0895F894FFCF94
:104B8C000100000020002000010100C18081000014
:104B9C0000FFFFFFFF00E10000000000000000002C
:104BAC0000EB13A21C000000006221A21C000000FC
:0E4BBC00006421AB218E219E217A218B2100E5
:00000001FF
