:100000000C943C090C9464090C9464090C946409E4
:100010000C9464090C9464090C9464090C946409AC
:100020000C9464090C9464090C94C9270C945B2605
:100030000C9464090C9464090C9464090C9464098C
:100040000C9464090C94A61D0C9464090C94640926
:100050000C9464090C9464090C9464090C94922126
:100060000C9464090C9464090C9464090C9464095C
:100070000C9464090C9464090C9464090C9464094C
:100080000C94191E0C9464090C9464090C94640972
:100090000C9464090C9464090C9464090C9464092C
:1000A0000C9464090C9464090C9464097809870918
:1000B0009609A509B409C409D309C122C622CB22D5
:1000C000D522DF22292329232923E922F322FD2215
:1000D0000723142329231C234A234D233C23402395
:1000E00046236E236E236E235123552359235F230A
:1000F00063236E2369233000ECFF0A1402280000FA
:10010000001804000000E8FF40040000004000FF69
:1001100004000000C0FF0480004000A0FF04800035
:100120008000E4FF045C00FF004000FF0400620068
:1001300020001E040076001500060A01720024004B
:10014000060A0B440000001E04004700F5FF060AE3
:10015000014B000400060A0B6200E0FFBC040078BB
:1001600000CCFF1414004800BCFF1004067200E429
:10017000FF060A0B4400C0FF1E040040009CFF4421
:1001800004008000A0FF042C000001E4FF044800EC
:100190008400C8FF200400A400A8FF042400A800D5
:1001A000A8FF580400AA00ACFF060A0BB400ACFF7D
:1001B000060A0BCB00D5FF060A01D500D5FF060ABB
:1001C00001EC00ACFF060A0BF600ACFF060A0B00C0
:1001D00001A8FF0420000401C4FF4004004401A65C
:1001E000FF0462003B01C8FF060A0B1501E4FF068D
:1001F0000A0B2601080046040028010C00060A0B21
:1002000064012C001414008C003C0010040644010E
:100210002C000214036C01C4FF046800C000080035
:10022000043800BF00FDFF060A01C40028001E04B8
:1002300000A20028001E0400E20008001E04008442
:100240000008001E04008A01A6FF049A004801A6C7
:10025000FF420400520104001004085A00ACFF02DF
:100260001403000000000000000000000000000077
:1002700000000000000000CEFF4000690400ECFF19
:100280001000043000F6FF3C00100406330010009C
:1002900004300083FF0C00B40400CEFF440004408F
:1002A0000001FF8400D1040065FF44000440008386
:1002B000FF10000474646EFF80001004071FFF002D
:1002C00000044A00E3FE440004400001FF800010E7
:1002D000046AEDFE800010040702FE8400FF0400A3
:1002E0005FFE6B000A196634FE680010046BACFEFA
:1002F000500010046B0CFE740010046B5CFE5C007C
:1003000010046B84FE680010046B0CFE5000100497
:100310006BACFE740010040702FE000004840000B1
:10032000004000FF040000000000FF040000000483
:1003300000043C0040000800060A0B4000310006A3
:100340000A013E0004000B04003E003C000B0400C8
:1003500080000C00060A0B80002D00060A017E00BA
:1003600004000B08007E0038000B0800C0000800E5
:10037000060A0BC0002900060A01BE0004000B0497
:1003800000BE0034000B0C00F0002C00021403220D
:1003900001400014040040010800060A0B4001312E
:1003A00000060A014A010800060A0B4A013100064C
:1003B0000A015E012C001404007C01F4FF060A0B04
:1003C0007C011D00060A018601F4FF060A0B860166
:1003D0001D00060A019A01AF00820400F4019B008F
:1003E000021403FE018200A00400FE01BE00A0046E
:1003F000000002B4002E0A0F000286002E0A1032FE
:1004000002B4002E0A0F320286002E0A106402B4D3
:10041000002E0A0F640286002E0A109602B400060F
:100420000A0196028600060A0B2D02A0001E040097
:100430005802AF001E04007B029B001E04009402C1
:10044000AF00600400BC029B0002140307039B0082
:10045000060A0B050369000B32002003AF001E04DF
:10046000002F0396000A190200004000FF0400005C
:1004700000000004400040003600060A01800036FB
:1004800000060A018A003600060A019400360006BA
:100490000A01D4003600060A01DE003600060A0111
:1004A000F7003600060A0101013600060A01FE00C7
:1004B0004000C00400370136002E0A0F69013600E3
:1004C000060A014D012C000E040089012C000214C3
:1004D00003BE014000040E00BE014E00400400FABD
:1004E000014000040E00C2014400060A01CE01448E
:1004F00000060A01DA014400060A01E6014400068A
:100500000A01F2014400060A01FE014000C804008D
:10051000080236002E0A0F75023600060A017D0217
:1005200036000B0A007F022C00060A0187022C000D
:100530000B0A00870236000B0A0089022200060A15
:1005400001910236000B0A0093022C00060A019D5D
:10055000023600060A01B20227000A190200004012
:1005600000E0040040002800200400600010001E8D
:1005700004008000F4FF1C0400A000DCFFE0040085
:10058000E000C4FF1404000001ACFF1204002001CD
:1005900094FF10040040017CFF800400600164FFB0
:1005A00014040080014CFF120400600134FF1004A9
:1005B0000080011CFF4004009A0103FF0A1902ACED
:1005C000FF400094040040001C0004280000001CB0
:1005D00000400400E0FF1C00200E00C0FF1C0020B3
:1005E0001400A0FF1C0020180040FF80006C0400D5
:1005F000ACFF440004400060FF5F002017007CFF58
:100600003F0004200040FF400004400040FF3C0049
:100610004004006AFF46000A19020000400040043E
:10062000003C0044000420000000100004300000E2
:10063000000C0056040056000C000420003C00642E
:1006400000AA040056002C0064040078005A000A36
:100650000A009B0055000F0F00C80055000F0F0047
:10066000D70055000F0F00DC004B000A0A00E6001F
:100670004B006404002C012D001E1E004A010F00D7
:100680001E1E0068010F00460400BA00180004187E
:1006900000BA0014005004000A01E2FF0436000E04
:1006A00001E2FFA00400AA01E6FF0429009601F67A
:1006B000FF0A190200000000003E5B4F5B3E3E6BEC
:1006C0004F6B3E1C3E7C3E1C183C7E3C181C577DEC
:1006D000571C1C5E7F5E1C00183C1800FFE7C3E738
:1006E000FF0018241800FFE7DBE7FF30483A060E4A
:1006F0002629792926407F050507407F05253F5A91
:100700003CE73C5A7F3E1C1C08081C1C3E7F142200
:100710007F22145F5F005F5F06097F017F006689AB
:10072000956A606060606094A2FFA29408047E04F1
:100730000810207E201008082A1C08081C2A080817
:100740001E101010100C1E0C1E0C30383E383006D7
:100750000E3E0E06000000000000005F00000007D3
:10076000000700147F147F14242A7F2A1223130801
:10077000646236495620500008070300001C2241DD
:10078000000041221C002A1C7F1C2A08083E080881
:100790000080703000080808080800006060002031
:1007A000100804023E5149453E00427F4000724914
:1007B0004949462141494D331814127F10274545B8
:1007C00045393C4A494931412111090736494949CE
:1007D00036464949291E000014000000403400003C
:1007E00000081422411414141414004122140802A5
:1007F000015909063E415D594E7C1211127C7F4918
:100800004949363E414141227F4141413E7F49496C
:1008100049417F090909013E414151737F08080898
:100820007F00417F41002040413F017F0814224169
:100830007F404040407F021C027F7F0408107F3EC3
:100840004141413E7F090909063E4151215E7F0930
:10085000192946264949493203017F01033F404097
:10086000403F1F2040201F3F4038403F6314081482
:100870006303047804036159494D43007F414141BA
:100880000204081020004141417F0402010204409B
:1008900040404040000307080020545478407F281F
:1008A0004444383844444428384444287F38545415
:1008B000541800087E090218A4A49C787F08040438
:1008C0007800447D40002040403D007F10284400D7
:1008D00000417F40007C047804787C080404783868
:1008E00044444438FC1824241818242418FC7C0898
:1008F000040408485454542404043F44243C404015
:10090000207C1C2040201C3C4030403C44281028C7
:10091000444C9090907C4464544C44000836410010
:100920000000770000004136080002010204023C8A
:100930002623263C1EA1A161123A4040207A385459
:1009400054555921555579412154547841215554D4
:10095000784020545579400C1E5272123955555525
:1009600059395454545939555454580000457C4110
:100970000002457D420001457C40F0292429F0F029
:10098000282528F07C545545002054547C547C0A7A
:10099000097F4932494949323248484832324A4847
:1009A00048303A4141217A3A42402078009DA0A047
:1009B0007D39444444393D4040403D3C24FF24249B
:1009C000487E4943662B2FFC2F2BFF0929F620C0B8
:1009D000887E090320545479410000447D41304809
:1009E000484A32384040227A007A0A0A727D0D194C
:1009F000317D2629292F28262929292630484D40AE
:100A000020380808080808080808382F10C8ACBAA9
:100A10002F102834FA00007B000008142A14222228
:100A2000142A14089500220095AA005500AAAA5578
:100A3000AA55AA000000FF00101010FF00141414A3
:100A4000FF001010FF00FF1010F010F0141414FC41
:100A5000001414F700FF0000FF00FF1414F404FC5E
:100A6000141417101F10101F101F1414141F00103F
:100A70001010F0000000001F101010101F101010B8
:100A800010F010000000FF101010101010101010C7
:100A9000FF10000000FF140000FF00FF00001F1007
:100AA000170000FC04F414141710171414F404F4C1
:100AB0000000FF00F714141414141414F700F714B2
:100AC0001414171410101F101F141414F414101001
:100AD000F010F000001F101F0000001F14000000A5
:100AE000FC140000F010F01010FF10FF141414FF9D
:100AF000141010101F00000000F010FFFFFFFFFF98
:100B0000F0F0F0F0F0FFFFFF0000000000FFFF0F2B
:100B10000F0F0F0F38444438447C2A2A3E147E02BB
:100B2000020606027E027E02635549416338444450
:100B30003C04407E201E2006027E020299A5E7A505
:100B4000991C2A492A1C4C7201724C304A4D4D3076
:100B50003048784830BC625A463D3E494949007E9B
:100B60000101017E2A2A2A2A2A44445F4444405132
:100B70004A444040444A51400000FF0103E080FFE6
:100B8000000008086B6B083612362436060F090F72
:100B900006000018180000001010003040FF01018E
:100BA000001F01011E00191D1712003C3C3C3C00B7
:100BB0000000000006011501260137014A015D0110
:100BC000720188019F01B801D201EE010B022A02D5
:100BD0004B026E029302BA02E40210033F03700359
:100BE000A403DC03170455049704DD0427057505E9
:100BF000C80520067D06E0064907B8072D08A908A4
:100C00002D09B9094D0AEA0A900B400CFA0CC00DE7
:100C1000910E6F0F5A1053115B1272139A14D41560
:100C200020178018F519801B231DDE1EB420A62274
:100C3000B524E4263429A72B402E0031EA330037AF
:100C4000453ABC3D68414C456B49C84D68524F57C9
:100C5000805C006210111213151617181A1C1D1F44
:100C600021232527292C2E3134373A3E4145494E40
:100C700052575C62686E757B838B939CA5AFB9C439
:100C8000D0DCE9F70301D5F08D14A1C881CFD9F1EB
:100C9000AF20001402130212021502070208020418
:100CA000010C01060100C0F0380C06060303030323
:100CB00006060C38F0C0030F1C306060C0C0C0C016
:100CC0006060301C0F03080C0A09090909090909A9
:100CD0000909090A0C0880C0E030B0B030E0C080DB
:100CE00078FCFE036B6B87FEFC78070F1F303D3DE1
:100CF000301F0F0700000103030303010000FFFF83
:100D0000FFFF01FDFDFDFDFF01FDFDFD01FF01FDFB
:100D1000FDFD01FF01EDEDEDEDFFFFFFFF3F3F3F6B
:100D20003F3C3D3D3D3D3F3C3D3D3D3C3F3C3F3FED
:100D30003F3C3F3C3F3F3F3F3F3F3F3FFFFFFFFFC9
:100D400001EDEDEDE1FF01FFFFFFFFFF03DDDDDD65
:100D500003FFF1CF3FCFF1FFFFFFFF3F3F3F3F3C9E
:100D60003F3F3F3F3F3C3D3D3D3D3F3C3F3F3F3CA4
:100D70003F3F3F3C3F3F3F3F3F3F0080C0E0F07080
:100D800078383C1C1C1E0E0E0E0E070707070707BF
:100D900007070707070707070707070707070707E3
:100DA00007070707070707070707070707070707D3
:100DB00007070707070707070707070707070707C3
:100DC00007070707070707070707070707070707B3
:100DD00007070707070707070707070707070707A3
:100DE000070707070707070707070E0E0E0E1E1C4B
:100DF0001C3C387870F0E0C08000FEFFFF0300006C
:100E000000000000000282BE828280BE888888BE08
:100E100080BEAA2A2A000000000000000000000096
:100E20000000000000000000000080808080800042
:100E30000000008080808080000000008080808032
:100E400080808080808080808080000000008080A2
:100E50008080808080808080808080000000000012
:100E60008080808080808080808080808080000082
:100E700000000000000003FFFFFEFFFFFF00000076
:100E80000000000000FFFF0301F9F989898989F951
:100E9000710183FFFE000000000000000000000060
:100EA000000000000000000000FFFF030103FFFF3F
:100EB0000000FFFF030103FFFF0000FFFF0301012C
:100EC000010101010101010103FFFF0000FFFF0318
:100ED00001010181C1C1C1C1C1C1E37F3E0000FF69
:100EE000FF030101E1F1B1B1B1B1B1B13B3F1F006D
:100EF00000000000000000FFFFFFFFFFFF000000F8
:100F00000000000000FFFF0000F8F888888888F8DB
:100F100070070FFDF8000000000000000000000056
:100F2000000000000000000000FFFF0000003F7F05
:100F300060607F3F000000FFFF0000FFFF00000037
:100F4000FEFF0303FFFE000000FFFF0000FFFF00A5
:100F50000000000F1F181818181838F0E00000FFE4
:100F6000FF000000387D6D6D6D6D6D6FE7E0C000B6
:100F700000000000000000FFFFFFFFFFFF00000077
:100F80000000000000070F0C0C0C0C0C0C0C0C0CDF
:100F90000C0C0E0703000000000000000000000021
:100FA000000000000000000000070F0E0C0C0C0CED
:100FB0000C0C0C0C0C0C0E0F070000070F0E0C0E87
:100FC0000F070000070F0E0C0E0F070000070F0E93
:100FD0000C0C0C0C0C0C0C0C0C0C0E07030000077A
:100FE0000F0C0C0C0C0C0C0C0C0C0C0C0E0F07004A
:100FF00000000000000000FFFFFFFFFFFF000000F7
:1010000000000000000000000000000000000000E0
:1010100000000000000000000000000000000000D0
:1010200000000000000000000000000000000000C0
:1010300000000000000000000000000000000000B0
:1010400000000000000000000000000000000000A0
:101050000000000000000000000000000000000090
:101060000000000000000000000000000000000080
:1010700000000000000000FFFFFF7FFFFFC0000036
:101080000000000000000000000000000000000060
:101090000000000000000000000000000000000050
:1010A0000000000000000000000000000000000040
:1010B0000000000000000000000000000000000030
:1010C0000000000000000000000000000000000020
:1010D0000000000000000000000000000000000010
:1010E0000000000000000000000000000000000000
:1010F000000000000000C0FFFF7F000103070F0E8B
:101100001E1C3C38387870707070E0E0E0E0E0E081
:10111000E0E0E0E0E0E0E0E0E0E0E0E0E0E0E0E0CF
:10112000E0E0E0E0E0E0E0E0E0E0E0E0E0E0E0E0BF
:10113000E0E0E0E0E0E0E0E0E0E0E0E0E0E0E0E0AF
:10114000E0E0E0E0E0E0E0E0E0E0E0E0E0E0E0E09F
:10115000E0E0E0E0E0E0E0E0E0E0E0E0E0E0E0E08F
:10116000E0E0E0E0E0E0E0E0E0E07070707078384F
:10117000383C1C1E0E0F070301000000000200098E
:101180000F0000030401000C00000000000000003C
:101190000000000000000000000408020110408070
:1011A000401020408040800802040180402010024E
:1011B00001108010204040200404040404030405AE
:1011C00002020202040302020202060606060606E4
:1011D0000404020202040400000000250028002B81
:1011E000002E00310000000000240027002A002DFE
:1011F00000300012010002EF02014041233680005E
:1012000001010203011201000200000040412336E7
:101210008000010102030141726475696E6F204C08
:101220004C430041726475626F790004030904083D
:101230000B0002020201000904000001020200008A
:1012400005240010010524010101042402060524DF
:101250000600010705810310004009040100020A8D
:10126000000000070502024000000705830240005D
:10127000000087138521A52911241FBECFEFDAE0D6
:10128000DEBFCDBF11E0A0E0B1E0E8E4FAE502C0C6
:1012900005900D92AE33B107D9F727E0AEE3B1E088
:1012A00001C01D92A639B207E1F712E1C8E7D2E109
:1012B00004C02297FE010E947B2CC237D107C9F7D8
:1012C0000E94DF230C94222D0C9400001F93CF93D7
:1012D000DF93182F482F50E0FA013197E730F105DE
:1012E00008F07EC0EA5AFF4FC0E0D0E00C94792CA1
:1012F000BE01665E794F47E050E0CE01825C9E4FB2
:101300000E94FB2C2796CA39D10591F75CC0BE011B
:1013100061547A4F47E050E0CE01825C9E4F0E94BC
:10132000FB2C2796CB35D10591F74FC0BE01635AF0
:101330007A4F47E050E0CE01825C9E4F0E94FB2C2A
:101340002796C236D10591F742C0BE0168597B4F3E
:1013500047E050E0CE01825C9E4F0E94FB2C279616
:10136000C53FD10591F735C0BE01615E7C4F47E0B6
:1013700050E0CE01825C9E4F0E94FB2C2796C93420
:1013800081E0D80789F727C0BE0169587D4F47E043
:1013900050E0CE01825C9E4F0E94FB2C2796C83AFB
:1013A000D10591F71AC0BE016A507F4F47E050E067
:1013B000CE01825C9E4F0E94FB2C2796C13881E0B3
:1013C000D80789F70CC096E10BC09DE009C09EE0EC
:1013D00007C093E205C09FE203C098E101C097E314
:1013E0009093CB021093CC0280E290E09093C602DF
:1013F0008093C5029093C4028093C3028AE999E95D
:10140000A9E1BEE380931B0790931C07A0931D07DF
:10141000B0931E07DF91CF911F9108958EEC92E05B
:101420000E94EB136EE18EEC92E00E940B1481E0BF
:101430000E9466094091C3025091C4026091C502A6
:101440007091C6028AE097E00C9450212F923F924F
:101450004F925F926F927F928F929F92AF92BF92C4
:10146000CF92DF92EF92FF920F931F93CF93DF9370
:10147000CDB7DEB72E970FB6F894DEBF0FBECDBF47
:101480008EEC92E00E942014882311F40C946E13C9
:101490008EEC92E00E94EA1780910901813009F0F8
:1014A000ECC068E08EEC92E00E942D1B8823F9F0DE
:1014B0008091CD02811137C080910801882341F0CD
:1014C00082E0809309018EEC92E00E9486140BC0AA
:1014D0000E944D1B882319F00E94501B02C00E94DD
:1014E0003F1B0E945D1B81E08093CD021CC060E227
:1014F0008EEC92E00E942D1B811109C060E48EECFD
:1015000092E00E942D1B882311F40C9464138091A7
:10151000CD02811108C08091080191E08927809354
:1015200008019093CD022AE939E949E15EE360912F
:10153000BF027091C0028091C1029091C2020E94CC
:101540005E2A4B015C016093BF027093C0028093DE
:10155000C1029093C202C0900401D0900501E090B6
:101560000601F090070120E030E040E052E4C701BE
:10157000B6010E94A92B87FD11C0C501B4019F7758
:1015800027ED33EA40E75FEB0E94AD2B6093BF028B
:101590007093C0028093C1029093C2022091BF0257
:1015A0003091C0024091C1025091C202C701B60100
:1015B0000E945E2A609304017093050180930601E6
:1015C00090930701CC24C39490E4E92E00E82AE725
:1015D0003DE040E050E060E070E08EEC92E00E9480
:1015E000C418809108018823A1F00EE0E02E0FE1DD
:1015F0002CE33DE04FE250E06FE070E08EEC92E0D3
:101600000E94C4188AE0E82E2EEF3CE041E350E04F
:1016100015C0CC24C394BAE0EB2E0FE12CE33DE0DF
:1016200041E350E06FE070E08EEC92E00E94C4185D
:101630001EE0E12E2EEF3CE04FE250E062E570E06C
:101640008EEC92E00E94C418609104017091050133
:1016500080910601909107010E94C62ACC24C39470
:10166000A0E1EA2E00E126EA3CE0AB016DE170E08A
:101670008EEC92E00E94C41862C4823009F003C468
:1016800060E88EEC92E00E942D1B882319F081E027
:10169000809309016EEC72E08AE097E00E94621F7D
:1016A000C0901707D0901807E0901907F0901A071C
:1016B00020E030E046E953E4C701B6010E94A92BBF
:1016C0001816FCF44091C3025091C4026091C50207
:1016D0007091C6028AE097E00E94502124E431E034
:1016E0003C832B838EE391E09A838983A3E4B1E06A
:1016F000BE83AD83E2E4F1E0F887EF83212C312C47
:1017000043C020E030E046E953ECC701B6010E9437
:10171000C22A87FFE3CFD6CFC0901307D09014071B
:10172000E0901507F0901607A981BA810D90BC9141
:10173000A02DBE87AD87CD010597BC01882777FD19
:101740008095982F0E94F92A9B01AC01C701B60130
:101750000E94A92B87FF1FC0FFEF2F1A3F0A2B8182
:101760003C81295F3F4F3C832B8389819A81079677
:101770009A838983AD81BE811796BE83AD83EF8145
:10178000F8853796F887EF838091CB0290E0281692
:10179000390614F217C3EF81F88580812D853E85C7
:1017A000280F311D3A872987C9010596BC01882772
:1017B00077FD8095982F0E94F92A9B01AC01C70103
:1017C000B6010E94C22A18163CF28090170790902A
:1017D0001807A0901907B0901A07A981BA8112962C
:1017E0000D911C911397C8010597BC01882777FDBF
:1017F0008095982F0E94F92A9B01AC01C501B40184
:101800000E94A92B87FDA8CFED81FE8180819801E0
:10181000280F311D3C872B87C9010596BC018827FD
:1018200077FD8095982F0E94F92A9B01AC01C50194
:10183000B4010E94C22A18160CF48ECFAD85BE8565
:10184000BD01882777FD8095982F0E94F92A2B01EA
:101850003C019B01AC01C701B6010E94A92B87FD89
:1018600027C1E985FA85BF01882777FD8095982FE4
:101870000E94F92A9B01AC01C701B6010E94C22A4D
:1018800018160CF41DC120E030E040E850E4C5011A
:10189000B4010E945E2A2B013C01B801882777FD24
:1018A0008095982F0E94F92A9B01AC01C301B201D7
:1018B0000E94A92B87FD04C12B853C85B90188278F
:1018C00077FD8095982F0E94F92A9B01AC01C301F6
:1018D000B2010E94C22A18160CF4F2C0AB81BC817E
:1018E0001C91153009F485C038F41330F1F008F07C
:1018F00040C0123081F00BC0173009F4A1C008F4C9
:101900007FC0183009F4BAC0143609F451C1B1E0EF
:10191000B09324074DC1E3E0E093090122E030E0F9
:101920003093C4022093C30243C18091C5029091B9
:10193000C602AD85BE858A179B0709F439C124E626
:1019400030E040E050E060EA7FE082ED92E00E940B
:101950002C1DE981FA81808191819093C602809348
:10196000C502828193810C979093C4028093C30235
:101970001FC180911F078823B9F1C1010196F7E0CB
:10198000F89F8001F99F100D1124025C1E4FD801B1
:1019900014962C91149726958D919C91820F911DF0
:1019A000BC01882777FD8095982F0E94F92A6093C3
:1019B0001307709314078093150790931607F80187
:1019C0008581869562817381680F711D882777FDF7
:1019D0008095982F0E94F92A609317077093180733
:1019E0008093190790931A078AE097E00E9480215C
:1019F000DFC080911F078823B9F3C1010197BFCFD2
:101A0000F1E0F0932407E3E6AB81BC81EC9324E69C
:101A100030E040E050E060ED77E082ED92E00E943F
:101A20002C1DC101019727E0289FF001299FF00D8F
:101A30001124E25CFE4FDF011D922A95E9F7B8C040
:101A4000B1E0B093240723E6EB81FC81208324E6F8
:101A500030E040E050E060ED77E082ED92E00E94FF
:101A60002C1DC1010197189FF001199FF00D112441
:101A7000E25CFE4F8681845686839AC031E03093C3
:101A8000240780911F07882309F4AECFC0901B075D
:101A9000D0901C07E0901D07F0901E0720E030E07A
:101AA000A901C701B6010E94A92B87FD9DCF69C07E
:101AB000A3019201C701B6010E94A92B87FD78C03E
:101AC000A985BA85BD01882777FD8095982F0E944A
:101AD000F92A9B01AC01C701B6010E94C22A18165F
:101AE0000CF466C020E030E040E450E4C501B401ED
:101AF0000E945D2A6B017C01B801882777FD8095E3
:101B0000982F0E94F92A9B01AC01C701B6010E94DF
:101B1000A92B87FD4DC0EB85FC85BF01882777FD8C
:101B20008095982F0E94F92A9B01AC01C701B6014C
:101B30000E94C22A1816E4F1AB81BC818C919EEF01
:101B4000980F9430A8F1843699F1B1E0B09323074F
:101B5000883071F580911F07882309F445CFC09024
:101B60001B07D0901C07E0901D07F0901E0720E097
:101B700030E0A901C701B6010E94C22A18160CF470
:101B800033CFF7FAF094F7F8F094C0921B07D09295
:101B90001C07E0921D07F0921E0724E630E040E0AB
:101BA00050E060ED77E082ED92E00E942C1D1CCFAA
:101BB0004090130750901407609015077090160717
:101BC00020E030E040E450E4C301B2010E945E2A0C
:101BD0006B017C01E981FA8100811181B8018827BC
:101BE00077FD8095982F0E94F92A4B015C019B019B
:101BF000AC01C701B6010E94A92B87FD59C0AF8176
:101C0000B8858C91F801E80FF11DBF01882777FD99
:101C10008095982F0E94F92A9B01AC01C701B6015B
:101C20000E94C22A18160CF443C0C0901707D09027
:101C30001807E0901907F0901A07A981BA81129647
:101C40000D90BC91A02DBA87A987BD01882777FD8B
:101C50008095982F0E94F92A9B01AC01C701B6011B
:101C60000E94A92B87FD24C0ED81FE8180816985BA
:101C70007A85680F711D882777FD8095982F0E94BF
:101C8000F92A9B01AC01C701B6010E94C22A1816AD
:101C90007CF0AB81BC818C919EEF980F943008F45E
:101CA00068C0843609F465C0B1E0B093220761C012
:101CB00020E030E040E450E4C301B2010E945D2A1C
:101CC0006B017C01A50194010E94A92B87FD51C0E5
:101CD000EF81F8858081080F111DB801882777FDF5
:101CE0008095982F0E94F92A9B01AC01C701B6018B
:101CF0000E94C22A1816ECF1C0901707D09018075E
:101D0000E0901907F0901A07A981BA8112960D91F7
:101D10001C911397B801882777FD8095982F0E9412
:101D2000F92A9B01AC01C701B6010E94A92B87FDCE
:101D300020C0ED81FE818081B801680F711D882768
:101D400077FD8095982F0E94F92A9B01AC01C7016D
:101D5000B6010E94C22A181664F0AB81BC818C9136
:101D60009EEF980F943028F0843619F0B1E0B093CC
:101D700021078091230781110DC0809124078111D3
:101D800009C080912107811105C080912207882315
:101D900009F4E2CCEB81FC818081813031F08B3021
:101DA00021F08F50823008F0D7CC4091C30250917F
:101DB000C4026091C5027091C6028AE097E00E9459
:101DC0005021CACC6091C9027091CA02882777FD60
:101DD0008095982F0E94F92A6B017C0120E030E069
:101DE00040E852E460911307709114078091150741
:101DF000909116070E945D2AA70196010E945D2A14
:101E000029E23CE54FE85DE30E94AD2B9B01AC016C
:101E1000C701B6010E945E2A0E94C62A7093CA02B8
:101E20006093C9026091C7027091C802882777FD4C
:101E30008095982F0E94F92A6B017C0120E030E008
:101E400040E052E4609117077091180780911907DC
:101E500090911A070E945D2AA70196010E945D2AAF
:101E600029E23CE54FE85DE30E94AD2B9B01AC010C
:101E7000C701B6010E945E2A0E94C62A7093C8025A
:101E80006093C7025CC0833009F059C062E08EECF9
:101E900092E00E9414148823F9F020E030E040E83A
:101EA0005FE360911707709118078091190790916F
:101EB0001A070E945D2A6093170770931807809392
:101EC000190790931A078091C3029091C402029659
:101ED0009093C4028093C30265E08EEC92E00E946E
:101EE0001414882339F08091CB02882319F0815093
:101EF0008093CB028091C3029091C40281389105F6
:101F0000A4F082E0809309018091CC028F5F0E944F
:101F100066094091C3025091C4026091C50270915C
:101F2000C6028AE097E00E9450212AE030E040E0BB
:101F300050E068E873E182ED92E00E942C1D8091F0
:101F400009018250823008F0A3C3512CF7E0BF2E64
:101F50008091CB02581608F0F4C2852C912CB89CC5
:101F60003001B99C700C11249301225C3E4F390161
:101F7000D90116964C91483009F4DDC0B0F44330D5
:101F800009F499C070F48091C9029091CA0220911D
:101F9000C7023091C8024130A9F1423009F44CC067
:101FA00015C0463008F005C211C0403109F496C191
:101FB00038F44B3009F414C14F3009F446C106C05F
:101FC000433609F4D8C1443609F4F3C1B89CF00192
:101FD000B99CF00D1124E25CFE4F42815381809147
:101FE000C7029091C802481B590B60817181809192
:101FF000C9029091CA02681B790BEE24E394058113
:10200000248194C0F30160817181E481D30112962F
:102010000D911C91139715964C91D801A40FB11DE9
:10202000AD01421B530B7B01EE0EF11CE81AF90ABD
:10203000B2E0EB0EF11CF5C0F30142815381421B6B
:10204000530B60817181681B790BEE24E394058149
:1020500024818EEC92E00E947C17D30115961C918E
:1020600015971296ED90FC9013978091C70290916E
:10207000C802E81AF90A6D917C9111978091C90202
:102080009091CA02681B790B14968C919B01280FC2
:10209000311D442737FD4095542F882777FD8095C3
:1020A000982F0E94952801E0212FA7018EEC92E045
:1020B0000E944D167EC1F901428153818091C70271
:1020C0009091C802481B590B608171818091C902AF
:1020D0009091CA02681B790BEE24E3940581248158
:1020E0008EEC92E00E947C176091C5027091C6024E
:1020F000D3018D919C9111976817790709F059C107
:1021000012964D915C9113978091C7029091C802ED
:10211000481B590B8091C9029091CA02681B790B28
:1021200014968C91680F711D05E028E08EEC92E00A
:102130000E947C173EC120E030E0A90160911B079E
:1021400070911C0780911D0790911E070E94A92B7A
:102150002091C9023091CA02E091C702F091C802F1
:10216000D3016D917C91119787FD09C012964D9115
:102170005C9113974E1B5F0B4250510909C0D3016C
:1021800012964D915C9113974E1B5F0B4D5F5F4F05
:10219000621B730B6C5F7F4FEE24E39403E028E037
:1021A0008EEC92E00E947C17B89CF001B99CF00D77
:1021B0001124E25CFE4F428153818091C7029091CD
:1021C000C802481B590B608171818091C9029091AE
:1021D000CA02681B790BEE24E39404E020E1A6CF49
:1021E000F90160817181E4818091C9029091CA02F4
:1021F000D90112960D911C9113972091C70230912D
:10220000C802A801421B530B7B01EE0EF11CE81A19
:10221000F90AB2E0EB0EF11CD3011596FC910F0FF9
:10222000111D021B130BE6959B012E0F311D281B60
:10223000390B681B790B62507109AA24A3946A01B7
:102240008EEC92E00E947C18B4C01C821B821901A3
:10225000B2E02B0E311CF9013596FA83E983D301E4
:102260006D917C918091C9029091CA02F101008127
:1022700011812091C7023091C802A981BA814C9185
:10228000F801E40FF11DAF01421B530B7B01F8E095
:10229000EF0EF11CE81AF90AAB81BC81EA0EFB1EB5
:1022A000021B130B9B012D5F3F4F281B390B2A0F7D
:1022B0003B1F681B790B625071096A0F7B1FAA24B0
:1022C000A3946A018EEC92E00E947C18EB81FC8161
:1022D0003A96FC83EB83F29711F66BC01C821B824B
:1022E0001901F2E02F0E311C2B5F3F4F3A832983F7
:1022F000D3016D917C918091C9029091CA02F10144
:10230000008111812091C7023091C802A801421BAF
:10231000530B7B01F8E0EF0EF11CE81AF90AAB81D0
:10232000BC81EA0EFB1EA981BA81EC910E0F111D32
:10233000021B130B9B012D5F3F4F281B390BEB81B9
:10234000FC812E0F3F1F681B790B625071096E0FC5
:102350007F1FAA24A3946A018EEC92E00E947C184D
:102360002B813C81265F3F4F3C832B8322333105F9
:1023700009F0BECF1EC0D90112964D915C91139702
:102380008091C7029091C802481B590B6D917C91B6
:102390008091C9029091CA02681B790BCC24C39426
:1023A000E4E0EE2E00E126EC3CE08EEC92E00E94B0
:1023B000C418B89CF001B99CF00D1124E25CFE4FEA
:1023C000FA83E98386819CEF980F923008F077C0FA
:1023D0003F01F5E06F0E711C89809A8024E0820E27
:1023E000911C29803A8032E0230E311CA981BA81E8
:1023F00012964D915C9113978091C7029091C802FB
:10240000481B590B6D917C9111978091C902909155
:10241000CA02681B790BCC24C39435E0E32E1596D1
:102420000C91159714962C918EEC92E00E94ED176A
:1024300042E0F42EC980DA80F10160817181D3011C
:102440008C919B01280F311D21503109442737FD04
:102450004095542F6E5F7F4F882777FD8095982F8A
:102460000E9495282091C7023091C8028B01021B5F
:10247000130BF60160817181D4018C919B01280FAF
:10248000311D22503109442737FD4095542F6E5F8E
:102490007F4F882777FD8095982F0E94952820915F
:1024A000C9023091CA02621B730B21E0A8018EECB5
:1024B00092E00E94C514FA9409F0BECF40C0865045
:1024C0008230E8F5E981FA81428153818091C70227
:1024D0009091C802481B590B608171818091C9029B
:1024E0009091CA02681B790BCC24C39424E0E22E9D
:1024F00000E126EC3CE08EEC92E00E94C418A98139
:10250000BA8112964D915C9113978091C702909178
:10251000C802481B590B425051096D917C91809122
:10252000C9029091CA02681B790B6C5F7F4FEE2441
:10253000E39403E028E08EEC92E00E947C17539431
:1025400007CD4091CC028091C9029091CA0220919E
:10255000C7023091C8024130F1F445E350E0421B1C
:10256000530B61E371E0681B790BCC24C3949EE0AC
:10257000E92E04E126ED3CE08EEC92E00E94C418C6
:1025800047E350E08091C7029091C802481B590B65
:102590006EE371E01FC0423059F542E650E0421B45
:1025A000530B65E67FEF681B790BCC24C3948EE058
:1025B000E82E04E126ED3CE08EEC92E00E94C41887
:1025C00048E650E08091C7029091C802481B590B21
:1025D00068E67FEF8091C9029091CA02681B790B6F
:1025E000EE24E39406E024E08EEC92E00E94B31720
:1025F00080910901A090C902B090CA020091C7025F
:102600001091C802823009F5609117077091180780
:102610008091190790911A070E94C62A7B01E01A3F
:10262000F10A60911307709114078091150790913A
:1026300016070E94C62A6A197B0901E021E0A7015A
:102640008EEC92E00E94211723C0609117077091D1
:1026500018078091190790911A070E94C62A6B01EA
:10266000C01AD10A60911307709114078091150761
:10267000909116070E94C62A6A197B09EE24E394FA
:102680000091C30222E0A6018EEC92E00E947C172A
:102690008EEC92E02E960FB6F894DEBF0FBECDBF43
:1026A000DF91CF911F910F91FF90EF90DF90CF902E
:1026B000BF90AF909F908F907F906F905F904F9062
:1026C0003F902F900C942A1B8091CD02882311F407
:1026D0000C94930A1092CD020C94930A2E960FB686
:1026E000F894DEBF0FBECDBFDF91CF911F910F9148
:1026F000FF90EF90DF90CF90BF90AF909F908F9022
:102700007F906F905F904F903F902F9008958EEC48
:1027100092E00C94C113CF93CFB7F8948091E80660
:10272000811127C0E9ECF1E18491EAEAF1E19491A9
:10273000E82FF0E0EE0FFF1FEB51FE4EA591B49194
:102740008C91892321F461E081E10E94A82361E05A
:1027500081E10E946F238CB580618CBD8CB5806453
:102760008CBD61E08FE00E946F2361E080E10E94F8
:102770006F238091E8068F5F8093E806CFBFCF91EB
:102780000895CF93DF93EC0189E291E099838883E8
:102790001B821A82CE010E94441E81E291E099833D
:1027A00088838CE38E8380E1898718861F821E864A
:1027B0001F86188A198A1A8AFE01EC5EFB4F118265
:1027C0001082329611821082C85EDB4F81E08883CE
:1027D000DF91CF910895CF93DF93EC010E94771E94
:1027E0000E94471F8078803849F40E94151F2FEF00
:1027F0004FEF6FEFCE010E94211FFFCF249665E0BF
:10280000CE010E940D1C6DE0CE010E940D1CDF91D7
:10281000CF910C94631BFC01668370E088EE93E01B
:102820000E94242C6187089570E0FC0187819085C7
:102830000E94102C21E0892B09F020E0822F0895BE
:102840000F931F93CF93DF93EC010E94DC21E62FBF
:10285000462F572FBC018A89882351F08A859E2FE5
:10286000981B9B8B8F819885019698878F831A8AF6
:102870000E851F852889398940175107620773071C
:1028800034F40E1B023008F10E94FA1E1EC0898526
:102890000A851B852C853D85080F111D211D311DC5
:1028A00004171507260737072CF00E871F87288B7C
:1028B000398B04C04E875F87688B798B4A875B872B
:1028C0006C877D8781E08A8B01C080E0DF91CF91AA
:1028D0001F910F91089560937C00673C19F480E28A
:1028E00080937B0062E070E080E090E00E940B2229
:1028F00080917A00806480937A0080917A0086FDCE
:10290000FCCF80917800909179000895CF92DF926A
:10291000EF92FF92CF93DF937C01C4E6D0E08881F1
:102920008E7F888367ECC7010E946B146C016EE593
:10293000C7010E946B147C010E94E8219B01AC013D
:10294000E094F094C094D094EC9CD001ED9CB00D38
:10295000FC9CB00D112420953095409550950E9417
:102960008E2C6B017C010E94E8216C0D7D1D8E1D5B
:102970009F1D0E946928888181608883DF91CF91A3
:10298000FF90EF90DF90CF9008956038710518F5B3
:102990004034510500F5E42FE695E695E695F0E024
:1029A00047705527F695FE2FEE27F795E795E60F2A
:1029B000F71FE80FF91F81E090E0042E01C0880F97
:1029C0000A94EAF7222319F09489982B03C0809582
:1029D00094899823948B08952F923F924F925F92FF
:1029E0006F927F928F929F92AF92BF92CF92DF921F
:1029F000EF92FF920F931F93CF93DF9300D000D0FD
:102A00001F92CDB7DEB75C014B013A01802F422FF8
:102A100050E05D834C8344244394512C441A550A5E
:102A20001A01319421943108220C331CCC24C39414
:102A3000D12C01E010E0382F34703983382F3270F8
:102A40003A83382F38703B838170F82EC601019786
:102A5000EC81FD818E179F070CF07CC057FC0BC0EA
:102A60004C815D81415051095D834C8352E0250EBC
:102A7000311C420C531C0E5F1F4F400E511E3981FA
:102A80003323B1F02E2D4C815D81460D571DB601CB
:102A9000680D791DC5010E94C5142E2DA601460D95
:102AA000571D6C817D81680D791DC5010E94C5147B
:102AB0003A813323B9F02E2DA3018C819D81481BCF
:102AC000590BB601680D791DC5010E94C5142E2D44
:102AD000A3014C195D096C817D81680D791DC501CB
:102AE0000E94C5143B813323B9F02E2DA601460D5B
:102AF000571DB4018C819D81681B790BC5010E9413
:102B0000C5142E2D4C815D81460D571DB4016C19E5
:102B10007D09C5010E94C514FF20C1F02E2DA3011F
:102B20004C195D09B401EC81FD816E1B7F0BC50161
:102B30000E94C5142E2DA3018C819D81481B590B29
:102B4000B4016C197D09C5010E94C5149FEFC91A13
:102B5000D90A7CCF0F900F900F900F900F90DF91BC
:102B6000CF911F910F91FF90EF90DF90CF90BF908A
:102B7000AF909F908F907F906F905F904F903F901D
:102B80002F9008952F923F924F925F926F927F9273
:102B90008F929F92AF92BF92CF92DF92EF92FF926D
:102BA0000F931F93CF93DF932C01EB016A0159011F
:102BB0009801241B350B37FF03C03195219531094E
:102BC000C5018C1B9D0B97FF03C0919581959109C1
:102BD000FF24F3948217930714F0F12C0AC09A2D66
:102BE0008B2D5801092F182F9C2F8D2FE601C92EF0
:102BF000D82EAC16BD0654F49C2D8D2D6801092FDE
:102C0000182F9C2F8D2FE501A92EB82E15012C1AF7
:102C10003D0A38016C187D0877FE03C071946194F9
:102C20007108410137FE03C08FEF881A980A959406
:102C30008794C016D10614F401E001C00FEF1127EC
:102C400007FD1095AC16BD06ACF02E2DFF2019F037
:102C5000AE01B60102C0A601BE01C2010E94C514A8
:102C60008618970897FE04C0C00ED11E820C931CD4
:102C70002196E8CFDF91CF911F910F91FF90EF90B8
:102C8000DF90CF90BF90AF909F908F907F906F908C
:102C90005F904F903F902F900895AF92BF92CF9248
:102CA000DF92EF92FF920F93CF93DF936C015B0162
:102CB0007A01E20EF11CEA0157FF0DC0C0E0D0E03E
:102CC0000AC0C417D5077CF4202FAE01B501C60198
:102CD0000E94C5142196A70181E4E816F1048CF343
:102CE00040E450E0EECFDF91CF910F91FF90EF9055
:102CF000DF90CF90BF90AF9008952F923F924F9268
:102D00005F926F927F928F929F92AF92BF92CF927B
:102D1000DF92EF92FF920F931F93CF93DF9300D038
:102D20001F92CDB7DEB74C013B012A011E2D822F29
:102D300090E09B838A8322242394312C281A390A19
:102D40007C01F194E194F108EE0CFF1CAA24A394F9
:102D5000B12C302F317039831F5F0270D02EC50126
:102D60000197EA81FB818E179F070CF054C037FC56
:102D70000AC08A819B8101979B838A8392E0E90E36
:102D8000F11C2E0C3F1CC501880F991F0196280EBF
:102D9000391E39813323E1F02A81220F210F0C2DB6
:102DA000A2018A819B81481B590BB501660D771DD5
:102DB000C4010E944D162A2D220F210FA2014A198B
:102DC0005B096A817B81660D771DC4010E944D16E7
:102DD000DD20E9F02A81220F210F0C2DA201EA81CA
:102DE000FB814E1B5F0BB3016A197B09C4010E9472
:102DF0004D162A2D220F210FA2014A195B09B3019A
:102E00008A819B81681B790BC4010E944D169FEF3C
:102E1000A91AB90AA4CF0F900F900F90DF91CF910C
:102E20001F910F91FF90EF90DF90CF90BF90AF90E8
:102E30009F908F907F906F905F904F903F902F90DA
:102E400008958F929F92AF92BF92CF92EF92FF928E
:102E50000F931F93CF93DF93EC015B014A01122F75
:102E6000C02E220F2F5F411B51090E944D16E12CED
:102E7000F12C03E0212FA401B501CE010E947D16A3
:102E8000DF91CF911F910F91FF90EF90CF90BF9066
:102E9000AF909F908F900895AF92BF92CF92DF92A4
:102EA000EF92FF920F93CF93DF936C015A017B0156
:102EB000E20EF11CEB0177FF0DC0C0E0D0E00AC0CC
:102EC000C617D7077CF4202FA501BE01C6010E94BA
:102ED000C5142196B70181E8E816F1048CF360E887
:102EE00070E0EECFDF91CF910F91FF90EF90DF90E8
:102EF000CF90BF90AF900895AF92BF92CF92DF92E4
:102F0000EF92FF920F931F93CF93DF93EC015B013E
:102F10006A01F22E102F0E2D0E944C17A601410FB0
:102F2000511D415051092F2DB501CE010E944C1762
:102F3000212FA601B501CE010E944D16B5016F0DDE
:102F4000711D61507109212FA601CE010E944D16FD
:102F5000DF91CF911F910F91FF90EF90DF90CF9075
:102F6000BF90AF9008958F929F92AF92BF92CF92F1
:102F7000DF92EF920F931F93CF93DF936C015A016F
:102F8000102FEB014B01820E911CC815D9054CF492
:102F90000E2D212FA501BE01C6010E944D162196BE
:102FA000F4CFDF91CF911F910F91EF90DF90CF90F1
:102FB000BF90AF909F908F9008954496B62FB11117
:102FC000BFEFFC010024B193B193B193B19303948B
:102FD000D1F7089560E00C94DD172F923F924F9245
:102FE0005F926F927F928F929F92AF92BF92CF9299
:102FF000DF92EF92FF920F931F93CF93DF9300D056
:103000001F92CDB7DEB79B838A833B014A01D22E44
:10301000F02E1E2DE194EE0C3E2D320F412E512C40
:103020005B01A40CB51C0C2D232FB50139830E9424
:103030004C1714012F0C311CA10141505109398149
:10304000232FB5018A819B810E944C17FE0C840CB2
:10305000951C2F2DA401B3018A819B810E944D16DE
:103060006D0C711CB301615071092F2DA4018A816F
:103070009B810E944D16EC2C01E0212FA401B5018B
:103080008A819B810E94EC146418750881E0681A9B
:10309000710802E0212FA401B3018A819B810E9463
:1030A000EC1424183508E1E02E1A310804E0212F31
:1030B000A101B3018A819B810E94EC1408E0212FB9
:1030C000A101B5018A819B810E94EC140F900F90A1
:1030D0000F90DF91CF911F910F91FF90EF90DF90B4
:1030E000CF90BF90AF909F908F907F906F905F90A8
:1030F0004F903F902F9008952F923F924F925F9262
:103100006F927F928F929F92AF92CF92DF92EF92C7
:10311000FF920F931F93CF93DF9300D000D0CDB7D2
:10312000DEB79C838B831B014A0139012801FA8297
:10313000E982EA2C0E94C215860129813A81A20106
:10314000B3018B819C810E94C21584019101A6016B
:1031500069817A818B819C810E94C2150F900F90AA
:103160000F900F90DF91CF911F910F91FF90EF90F3
:10317000DF90CF90AF909F908F907F906F905F90F7
:103180004F903F902F9008952F923F924F925F92D1
:103190006F927F928F929F92AF92BF92CF92DF9267
:1031A000EF92FF920F931F93CF93DF9300D000D045
:1031B0001F92CDB7DEB7C982202E312CFB01E20D64
:1031C000F31DF7FD13C1603871050CF00FC1FA0152
:1031D000EE0DF11DF7FD0AC1403451050CF006C19A
:1031E000DA0157FF04C0AA27BB27A41BB50BFD01BA
:1031F000E770FF27FB83EA83FA0157FD3796DF016B
:1032000013E0B595A7951A95E1F7BD83AC8357FFF9
:103210000CC01197BD83AC8348E050E0DA01EA812D
:10322000FB81AE1BBF0BBB83AA834E2D46954695F3
:103230004695C42ED12C4E2D477019F0FFEFCF1AB2
:10324000DF0A49014C815D815695542F44275795DB
:103250004795480F591F2C813D81F8E06F2E712C46
:103260008A819B81681A790AC901AC81BD818A1B58
:103270009B0B8C159D050CF0B9C02830310509F465
:10328000B5C02F3F9FEF39070CF4A3C0CB0100E07E
:1032900010E0DA01A058BF4F2D01021513050CF004
:1032A00098C08038910509F494C097FD8EC02F3FD7
:1032B000BFEF3B0709F494C0D801A80DB91D7A01EE
:1032C000E80EF91EE981E13071F4FD01A491B0E04E
:1032D0000A8002C0AA0FBB1F0A94E2F7F701B48864
:1032E000AB29A48B28C0F981F11114C0FD01A49170
:1032F000EA2FF0E00A8002C0EE0FFF1F0A94E2F707
:10330000E095F095D7015496AC905497B12CEA21F2
:10331000FB210FC0FD01A491EA2FF0E00A8002C05A
:10332000EE0FFF1F0A94E2F7D7015496BC90549712
:10333000EB255496EC93AA81BB81AB2B09F445C0D5
:103340002730310509F441C0F801E80DF91DB981B4
:10335000B13089F4E491F0E0062C02C0F595E795D0
:103360000A94E2F77201E80EF91ED7015496BC9058
:103370005497EB2928C0B981B11115C0E491F0E050
:10338000062C02C0F595E7950A94E2F7E095F095D2
:103390007201E80EF91ED7015496AC905497B12CE7
:1033A000EA21FB2110C0E491F0E0062C02C0F59563
:1033B000E7950A94E2F77201E80EF91ED7015496D8
:1033C000BC905497EB255496EC930F5F1F4F0196DA
:1033D00064CF2F5F3F4F820C931C40585F4F44CF08
:1033E000AA81BB81AB2B09F0AFCFEFCF0F900F902D
:1033F0000F900F900F90DF91CF911F910F91FF9041
:10340000EF90DF90CF90BF90AF909F908F907F9084
:103410006F905F904F903F902F9008952F923F9222
:103420004F925F926F927F928F929F92AF92BF92D4
:10343000CF92DF92EF92FF920F931F93CF93DF9380
:10344000CDB7DEB728970FB6F894DEBF0FBECDBF5D
:103450009E838D832A01603871050CF06DC0403465
:1034600051050CF069C0CB01A5E0CA9E800D911DED
:103470001124181619060CF05FC0EC2DF0E0FC8347
:10348000EB83CA01F8E0CF9E800D911D1124181620
:1034900019060CF051C0A5E02A9FC00111245B0160
:1034A00018861F828C54994F9A838983BF81B530C7
:1034B00041F0E981FA818F819885E80FF91F149115
:1034C00001C010E0320128E0D22E10FF02C0F02E21
:1034D00001C0FE2CF1100BC0E01209C01695DA9461
:1034E000AB81BC816A0E7B1ED110EFCF19C01501D4
:1034F000822D8A198C1590F74301882D86198C1519
:1035000058F42F2DA401B1018D819E810E94C51414
:10351000BFEF8B1A9B0AF1CFEFEF2E1A3E0AE8CFCE
:103520008F819885019698878F83AB81BC81AA0E85
:10353000BB1E069709F0BACF28960FB6F894DEBFE7
:103540000FBECDBFDF91CF911F910F91FF90EF90F4
:10355000DF90CF90BF90AF909F908F907F906F90B3
:103560005F904F903F902F9008958F929F92AF92CF
:10357000BF92CF92EF920F93CF93DF93EC01262F60
:103580006A3099F4FC01E85EFB4F2081329780811C
:10359000918138E0239F800D911D112491838083B8
:1035A000CC5EDB4F198218824BC06D3009F448C0E5
:1035B000FC01EA5EFB4F408151815C018CEEA81A50
:1035C0008BEFB80AF501608171814E01F8EE8F1A18
:1035D000FBEF9F0AF401C080E12C01E0CE010E94C4
:1035E0000E1AF4012081422F50E0F5018081918173
:1035F000F6E02F9F800D911D1124F50191838083AA
:10360000359620812223E1F06AEF64039001659FE3
:10361000300D112420583F4F281739078CF4E881CA
:10362000F9810190F081E02D6AE0CE01DF91CF9128
:103630000F91EF90CF90BF90AF909F908F90099493
:10364000DF91CF910F91EF90CF90BF90AF909F906F
:103650008F90089544960C94051FCF93DF931F928B
:10366000CDB7DEB769830E94471F6981982F9623E3
:1036700081E0961380E00F90DF91CF910895E4E60A
:10368000F0E08081877F8083E5E6F0E08081877FBE
:10369000808381E08093E90608958091E90608958A
:1036A0001092E906E4E6F0E0808188608083E5E638
:1036B000F0E080818860808308956091E90682E06F
:1036C00090E00C940C2D1092F60682E090E00E949F
:1036D000042D81110C943F1B0895CF92DF92EF923D
:1036E000FF921F93CF93DF939091F706891708F00D
:1036F00065C067FD63C0E82FF0E0EC57F34F14910D
:10370000E62FF0E0603330F4EC5AF34FE491CE2F23
:10371000D0E006C0EE0FFF1FEC5AF44FC591D491D4
:103720006E01E12CF12C60E074E284EF90E0A701DF
:1037300096010E945A2C2150310941095109211545
:10374000310581E04807510570F060E970ED83E0D4
:1037500090E0A70196010E945A2C2150310941099D
:10376000510993E001C091E01130C9F0133031F5F7
:1037700080919100887F892B8093910030939900EC
:1037800020939800D093F506C093F40681E08093CF
:10379000F306809171008260809371000FC0809168
:1037A0008100887F892B809381003093890020934A
:1037B000880080916F00826080936F00DF91CF91CD
:1037C0001F91FF90EF90DF90CF900895E82FF0E0E9
:1037D000EC57F34FE491E13019F0E33069F00895CC
:1037E00080916F008D7F80936F0020910107E091A1
:1037F0000207F091030708C01092F3062091FA0621
:10380000E091FB06F091FC06808190E030E020958D
:1038100030958223932380830895CF93DF93C62F1F
:103820008091F706823009F46BC0E82FF0E0EC5786
:10383000F34FD491A82FB0E0A850B94F6C938F5F8D
:103840008093F70661E08C2F0E946F23D13091F1B5
:10385000D33009F055C010929000109291008091E1
:1038600091008860809391008091910081608093A5
:1038700091006C2F70E0FB01E854FE4E249130E083
:10388000220F331F29523E4EF90185919491909356
:10389000FC068093FB06FB01E756FE4E64916093A5
:1038A000FA066CE380E00E946D1B80E0DF91CF910F
:1038B0000C94E61B10928000109281008091810090
:1038C0008860809381008091810081608093810075
:1038D0006C2F70E0FB01E854FE4E249130E0220F83
:1038E000331F29523E4EF90185919491909303071D
:1038F00080930207FB01E756FE4E64916093010737
:10390000DF91CF910895E091EA06F091EB06BF01B7
:103910006F5F7F4F7093EB066093EA06A4919A2F36
:10392000907F8A2F8F70903819F40E94E61BEBCF9E
:10393000903961F4AF014E5F5F4F5093EB064093B7
:10394000EA06FB0164910E946D1BDDCF903E49F4B5
:103950008091EC069091ED069093EB068093EA0639
:10396000D2CF903F19F41092F606089597FDCBCF71
:10397000AF014E5F5F4F5093EB064093EA06FB01A9
:103980006491262F30E03A2BA091F406B091F50611
:103990000E947F2C6C507E4F8F4F9F4F28EE33E05C
:1039A00040E050E00E94382C2093EE063093EF0662
:1039B0004093F0065093F1068091EE069091EF0649
:1039C000A091F006B091F106892B8A2B8B2B61F424
:1039D00081E090E0A0E0B0E08093EE069093EF06E7
:1039E000A093F006B093F10608958091F306882322
:1039F00049F09091FA06E091FB06F091FC06808177
:103A0000892780838091F606882329F18091EE062C
:103A10009091EF06A091F006B091F106892B8A2BC8
:103A20008B2BC9F08091EE069091EF06A091F006E5
:103A3000B091F1060197A109B1098093EE06909328
:103A4000EF06A093F006B093F106892B8A2B8B2BFF
:103A500011F40C94831C08954F925F926F927F92A1
:103A60008F929F92AF92BF92CF92DF92EF92FF928E
:103A7000CF93DF93EB0149015A0181E08093F20675
:103A80002B01612C712C60E072E18AE790E0A301C8
:103A900092010E945A2C69017A0181E0C81AD1086A
:103AA000E108F108C114D10481E0E806F10488F0CE
:103AB00068E478EE81E090E0A30192010E945A2C24
:103AC00069017A0181E0C81AD108E108F10893E0A0
:103AD00001C091E080918100887F892B80938100D3
:103AE00081149104A104B10471F0DE01AA0FBB1F7F
:103AF000A50194010E948E2C28EE33E040E050E0B6
:103B00000E94382C03C02FEF3FEFA901D09289000B
:103B1000C09288002093FD063093FE064093FF0676
:103B20005093000780916F00826080936F00DF9157
:103B3000CF91FF90EF90DF90CF90BF90AF909F908C
:103B40008F907F906F905F904F9008951F920F928B
:103B50000FB60F9211242F933F938F939F93AF93A0
:103B6000BF93EF93FF938091F206882309F44BC033
:103B70008091FD069091FE06A091FF06B09100078E
:103B8000892B8A2B8B2B51F190910107E091020731
:103B9000F09103078081892780838091FD069091B1
:103BA000FE06A091FF06B0910007181619061A0626
:103BB0001B0694F58091FD069091FE06A091FF06EC
:103BC000B09100070197A109B1098093FD06909378
:103BD000FE06A093FF06B09300071EC01092F206E7
:103BE00080916F008D7F80936F0020910107E0919D
:103BF0000207F0910307808190E030E02095309536
:103C00008223932308C090910107E0910207F0916D
:103C10000307808189278083FF91EF91BF91AF9146
:103C20009F918F913F912F910F900FBE0F901F90FA
:103C300018951F920F920FB60F9211242F933F9356
:103C40004F935F936F937F938F939F93AF93BF93A4
:103C5000EF93FF930E94F51CFF91EF91BF91AF91FD
:103C60009F918F917F916F915F914F913F912F9194
:103C70000F900FBE0F901F9018958EBD00000DB4D1
:103C800007FEFDCF8EB508950895E0910607F091E7
:103C90000707808190910407892B8083E0910807B2
:103CA000F091090790818091050780958923808391
:103CB0000895E0910807F091090780819091050728
:103CC000892B8083E0910607F0910707908180910E
:103CD0000407809589238083E0910807F091090704
:103CE0009081809105078095892380830895CF93E3
:103CF000DF930E948B13C3E9DCE0BE01FE018491D7
:103D000022966F5F7F4FFB016491882319F00E9418
:103D10006F23F3CF61E086E00E94A82361E070E0AA
:103D200080E090E00E940B2260E086E00E94A823E1
:103D30006AE070E080E090E00E940B2261E086E0A3
:103D40000E94A823E4ECF1E1E491F0E0EE0FFF1F04
:103D5000E952FE4E8591949190930907809308074C
:103D6000E5EAF1E1E491E0930507ECEBF1E1E491A0
:103D7000F0E0EE0FFF1FE952FE4E85919491909373
:103D8000070780930607EDE9F1E1E491E09304076A
:103D90008CB58C7F8CBD8DB581608DBD0E94591E08
:103DA000C6E8DCE0FCE0C339DF0731F0FE018491B6
:103DB0000E943D1E2196F6CF0E94451E8091640010
:103DC00081608093640080916400826080936400CD
:103DD00080916400806880936400809164008064B6
:103DE0008093640080916500816080936500DF911D
:103DF000CF91089583B7817F83BF83B7816083BFED
:103E0000889583B78E7F83BF089520E030E0FC0162
:103E10004191CF014EBD119C119C119C2F5F3F4FD2
:103E20002115F4E03F0799F70895CF93DF93C0E0A1
:103E3000D4E080E00E943D1E2197D9F7DF91CF9119
:103E400008950F931F93CF93DF9300D0CDB7DEB7C4
:103E50000FEF10E0C801861B9109BC018AE02A839C
:103E600049830E949B224981B801641B71098BE040
:103E70000E949B222A81B801621B710989E00F9080
:103E80000F90DF91CF911F910F910C949B228FB1D6
:103E90004CB123B150E0409550954074552733E024
:103EA000559547953A95E1F730E02095309520718A
:103EB00033273595279535952795242B8095807F39
:103EC000822B08958F929F92AF92BF92CF92DF92F2
:103ED000EF92FF920F931F93CF93DF93EC018B012F
:103EE00060E4C8010E942D1B8823B9F0C880D980E6
:103EF000EA80FB802AE939E949E95FE3C701B601B5
:103F00000E94C22A87FF29C02FE832EC45EF5CE30C
:103F1000C701B6010E945E2A1CC060E2C8010E946F
:103F20002D1B8823D1F0C880D980EA80FB802AE944
:103F300039E949E95FEBC701B6010E94A92B1816C0
:103F400064F42FE832EC45EF5CE3C701B6010E9450
:103F50005D2A688379838A839B8360E1C8010E941C
:103F60002D1B811106C064E0C8010E942D1B88230F
:103F700011F120E030E040E85FEB6C817D818E81C3
:103F80009F810E94C22A87FF08C080E090E0A0E8DD
:103F9000BFEB8C839D83AE83BF832BE734E14EE67A
:103FA0005FE3688179818A819B810E94AD2B688360
:103FB00079838A839B8368E0C8010E942D1B882334
:103FC000E1F088858823C9F020E030E0A901698903
:103FD0007A898B899C890E94A92B87FD05C080E086
:103FE00090E0A0E2B0EC04C080E090E0A0E2B0E499
:103FF0008C839D83AE83BF831886C988DA88EB885B
:10400000FC882C813D814E815F81C701B6010E94F1
:104010005E2A6C837D838E839F832A8D2223D1F039
:104020009F772DEC3CEC4CE85FEB0E94AD2B4B01F5
:104030005C016C837D838E839F8320E030E0A90147
:10404000C701B6010E94A92B87FD02C081E08887C5
:104050001A8E1CC0298D222391F19F772DEC3CEC08
:104060004CE85FE30E94AD2B4B015C016C837D83C8
:104070008E839F8320E030E0A901C701B6010E9432
:10408000C22A181614F081E08887198EC501B40180
:104090009F7720E030E048E452E40E94AD2B20E01E
:1040A00030E048EC53E40E945E2A0E94CB2A2AE0CA
:1040B00030E040E050E0C80104960E942C1D888D3D
:1040C0008823A9F088819981AA81BB81BC01CD0197
:1040D0009F7720E030E040EC5FEB0E94AD2B6883DF
:1040E00079838A839B8321E02887188E17C08F8964
:1040F000882359F188819981AA81BB81BC01CD01B6
:104100009F7720E030E040EC5FE30E94AD2B6883B6
:1041100079838A839B8321E028871F8A9F7720E009
:1041200030E048E452E40E94AD2B20E030E048EC5F
:1041300053E40E945E2A0E94CB2A2AE030E040E04D
:1041400050E0C80104960E942C1D22E538EB4EE792
:104150005FE36C817D818E819F810E94AD2B4B013D
:104160005C016C837D838E839F8328E431EE4AE774
:104170005FE3688179818A819B810E94AD2B6B010D
:104180007C01688379838A839B832DEC3CEC4CE033
:1041900050E4C501B4010E94A92B87FD10C020E0A6
:1041A00030E0A90169897A898B899C890E94A92BB1
:1041B00087FD05C08DEC9CECACE0B0E419C02DECA3
:1041C0003CEC4CE050ECC501B4010E94C22A181628
:1041D0009CF020E030E0A90169897A898B899C896B
:1041E0000E94C22A181644F08DEC9CECACE0B0ECB6
:1041F0008C839D83AE83BF8320E030E040E850E4B1
:10420000C701B6010E94A92B18162CF480E090E09B
:10421000A0E8B0E40EC020E030E040E850ECC70178
:10422000B6010E94C22A87FF08C080E090E0A0E8A3
:10423000B0EC88839983AA83BB832C813D814E8116
:104240005F816D857E858F8598890E945E2A6D8746
:104250007E878F87988B288139814A815B81698528
:104260007A858B859C850E945E2A69877A878B87F1
:104270009C878D89811107C08E8981508E8B811119
:1042800002C081E08D8BDF91CF911F910F91FF9044
:10429000EF90DF90CF90BF90AF909F908F90089558
:1042A0000F931F93CF93DF93EC018A01882777FD4B
:1042B0008095982F0E94F92A69877A878B879C8737
:1042C000B801882777FD8095982F0E94F92A6D877D
:1042D0007E878F87988B1C821D821E821F82188288
:1042E00019821A821B8218861F8A188E198E1A8EBE
:1042F0001E8A81E08D8BDF91CF911F910F910895E0
:104300002FE0FC01268B158A08958AE999E9A9E135
:10431000BEE380931B0790931C07A0931D07B093E7
:104320001E0708951F920F920FB60F9211242F931C
:104330003F938F939F93AF93BF9380912607909164
:104340002707A0912807B09129073091250723E07E
:10435000230F2D3720F40196A11DB11D05C026E8BD
:10436000230F0296A11DB11D2093250780932607D8
:1043700090932707A0932807B093290780912A07D5
:1043800090912B07A0912C07B0912D070196A11DAC
:10439000B11D80932A0790932B07A0932C07B0930D
:1043A0002D07BF91AF919F918F913F912F910F90CA
:1043B0000FBE0F901F9018952FB7F89460912607A5
:1043C0007091270780912807909129072FBF0895A2
:1043D0003FB7F89480912A0790912B07A0912C0762
:1043E000B0912D0726B5A89B05C02F3F19F0019667
:1043F000A11DB11D3FBF6627782F892F9A2F620F0D
:10440000711D811D911D42E0660F771F881F991F46
:104410004A95D1F708958F929F92AF92BF92CF9213
:10442000DF92EF92FF926B017C010E94E8214B0129
:104430005C01C114D104E104F104F1F00E94B1283F
:104440000E94E821681979098A099B09683E73402E
:104450008105910570F321E0C21AD108E108F10845
:1044600088EE880E83E0981EA11CB11CC114D104F3
:10447000E104F10429F7DDCFFF90EF90DF90CF90BA
:10448000BF90AF909F908F900895789484B582608C
:1044900084BD84B5816084BD85B5826085BD85B5E8
:1044A000816085BDEEE6F0E0808181608083E1E897
:1044B000F0E01082808182608083808181608083CF
:1044C000E0E8F0E0808181608083E1E9F0E08081D4
:1044D00082608083808181608083E0E9F0E0808178
:1044E00081608083E1ECF0E0808184608083808162
:1044F00082608083808181608083E3ECF0E0808152
:1045000081608083E0ECF0E0808182608083E2EC77
:10451000F0E0808181608083EAE7F0E08081846060
:1045200080838081826080838081816080838081BC
:104530008068808308951F93CF93DF93182FEB013A
:1045400061E00E946F23209711F460E004C0CF3F28
:10455000D10539F461E0812FDF91CF911F910C9447
:10456000A823E12FF0E0E658FE4E449150E0FA0116
:104570003197EF30F10508F06CC0E35AFF4F0C940F
:10458000792C84B5806884BDC7BD68C084B580625D
:1045900084BDC8BD63C08091800080688093800026
:1045A000D0938900C093880059C0809180008062B8
:1045B00080938000D0938B00C0938A004FC080917D
:1045C0008000886080938000D0938D00C0938C0021
:1045D00045C080919000806880939000D0939900AE
:1045E000C09398003BC080919000806280939000BF
:1045F000D0939B00C0939A0031C080919000886056
:1046000080939000D0939D00C0939C0027C0809120
:10461000C00080688093C0008091C0008F7B809331
:10462000C000C093CF001AC08091C0008062809308
:10463000C000C093D00012C08091C20088608093F7
:10464000C2008091C2008B7F8093C200C093D200D1
:1046500005C0C038D1050CF07DCF77CFDF91CF9169
:104660001F91089590E0FC013197EF30F105B0F50E
:10467000E459FF4F0C94792C809180008F7703C010
:10468000809180008F7D80938000089580918000CC
:10469000877FF9CF84B58F7702C084B58F7D84BDC5
:1046A0000895809190008F7707C0809190008F7D52
:1046B00003C080919000877F80939000089580913F
:1046C000C0008F7703C08091C0008F7D8093C000B1
:1046D00008958091C200877F8093C2000895CF9390
:1046E000DF9390E0FC01E756FE4E2491FC01E85474
:1046F000FE4E8491882349F190E0880F991FFC01B8
:10470000EB51FE4EA591B49189529E4EFC01C5918C
:10471000D4919FB7611108C0F8948C9120958223A1
:104720008C93888182230AC0623051F4F8948C9172
:10473000322F309583238C938881822B888304C009
:10474000F8948C91822B8C939FBFDF91CF91089529
:104750000F931F93CF93DF931F92CDB7DEB7282F10
:1047600030E0F901E658FE4E8491F901E756FE4E1D
:104770001491F901E854FE4E04910023C9F08823F6
:1047800021F069830E9432236981E02FF0E0EE0F6F
:10479000FF1FE952FE4EA591B4919FB7F8948C91FA
:1047A000611103C01095812301C0812B8C939FBFA1
:1047B0000F90DF91CF911F910F91089508950E945E
:1047C00045220E94DE238EE297E00E944C280E9440
:1047D0000E0AC0E0D0E00E94260A2097E1F30E9472
:1047E0000000F9CFCF92DF92EF92FF920F931F93C9
:1047F000CF93DF937C016A01EB0100E010E00C1520
:104800001D0571F06991D701ED91FC910190F08146
:10481000E02DC7010995892B19F00F5F1F4FEFCFCE
:10482000C801DF91CF911F910F91FF90EF90DF9022
:10483000CF900895615030F02091F100FC01208369
:104840000196F8CF289884E6809337070895409121
:1048500032075091330720913007309131074217CA
:104860005307B4F49091E8009570E1F39091E8005B
:1048700092FD19C08093F100809132079091330727
:1048800001968F739927892B19F48EEF8093E80096
:10489000809132079091330701969093330780936C
:1048A000320781E0089580E00895CF92DF92EF9281
:1048B000FF920F931F93CF93DF931F92CDB7DEB775
:1048C000082F162FF42E862F880F8E5F99830E9453
:1048D000272483E00E942724E02EC02E9981D92E20
:1048E0008C2D8E19811798F4F601F7FE02C0849181
:1048F00001C080810E942724082F80E00E94272485
:104900008023FFEFCF1ADF0A8111EACF01C081E0D7
:104910000F90DF91CF911F910F91FF90EF90DF905B
:10492000CF9008958091D70081608093D70080EA6E
:104930008093D80089B5806189BD89B5826089BDC1
:1049400009B400FEFDCF61E070E080E090E00E94DD
:104950000B228091D8008F7C80618093D800809159
:10496000E000807F8093E0000895CF93DF931F9253
:10497000CDB7DEB71982CE0101960E9411290E949F
:10498000492ABE016F5F7F4F0E94C22989810F9023
:10499000DF91CF9108952FB7FC012083F8946770C1
:1049A0006093E9000895CF93DF931F92CDB7DEB7F0
:1049B000682FCE0101960E94CB248091F20099814C
:1049C0009FBF0F90DF91CF910895FF920F931F9398
:1049D000CF93DF9300D0CDB7DEB7F62E8A0190914A
:1049E0003607992311F057FF03C08FEF9FEF2BC0BD
:1049F000682FCE0101967A830E94CB248091F20029
:104A000090E0A8017A81801791070CF4AC01EF2D9A
:104A1000F72FF40E84E6FE1639F0289880933707B6
:104A20009091F1009193F7CF4115510521F08091BC
:104A3000F200882321F089818FBFCA0104C08BE670
:104A40008093E800F8CF0F900F90DF91CF911F91E6
:104A50000F91FF900895CF93DF931F92CDB7DEB7EC
:104A600041E050E0BE016F5F7F4F0E94E524019757
:104A700019F4898190E002C08FEF9FEF0F90DF91D2
:104A8000CF910895CF93DF931F92CDB7DEB7682FF4
:104A9000CE0101960E94CB249091E800892F80726C
:104AA00095FF04C09091F20080E4891B99819FBF1B
:104AB0000F90DF91CF9108956F927F928F929F9286
:104AC000AF92BF92CF92DF92EF92FF920F931F931C
:104AD000CF93DF931F92CDB7DEB7782E7B01C42E24
:104AE000B52E80913607882369F0042F152F8AEFA1
:104AF000D82E872D8072982E9AE3A92E872D807448
:104B0000882E11C08FEF9FEF57C0872D0E9442253E
:104B1000682E81110CC0DA94A9F361E070E080E0A6
:104B200090E00E940B220115110579F73BC0282F58
:104B300030E0021713070CF4602E672DCE010196AA
:104B40000E94CB248091E80085FF29C0262D30E00B
:104B5000021B130B992039F06A948FEF6816B1F09D
:104B60001092F100F9CFF701862D77FE07C0815032
:104B700058F094919093F1003196F9CF815020F044
:104B800091919093F100FACFE20EF31E8091E8002C
:104B900085FF0FC00115110511F481100AC089812C
:104BA0008FBFC1CF5D9884E6809338078C2D9B2DF5
:104BB00003C0A092E800F3CF0F90DF91CF911F9137
:104BC0000F91FF90EF90DF90CF90BF90AF909F90AC
:104BD0008F907F906F9008951092E90010923307A4
:104BE0001092320790933107809330070895CF9247
:104BF000DF92FF920F931F93CF93DF9300D0CDB737
:104C0000DEB7F82E8A016B0101151105B1F0F6012E
:104C1000F7FE02C0849101C0808149835A830E94BB
:104C2000272401501109FFEFCF1ADF0A49815A8169
:104C30008111EACF8FEF9FEF01C0CA010F900F9053
:104C4000DF91CF911F910F91FF90DF90CF9008954A
:104C5000BF92CF92DF92EF92FF920F931F93CF9369
:104C6000DF936C018B01EB013BEFB32E2097C1F07A
:104C70007E01C134D1051CF020E4E22EF12C80919C
:104C8000E80082FFFCCFC8018C1B9D0B6E2D8C0DA4
:104C90009D1D0E941A24B092E800CE19DF09E6CFCC
:104CA000C801DF91CF911F910F91FF90EF90DF909E
:104CB000CF90BF9008951F920F920FB60F921124BC
:104CC000DF92EF92FF920F931F932F933F934F9397
:104CD0005F936F937F938F939F93AF93BF93EF9364
:104CE000FF93CF93DF93CDB7DEB76C97DEBFCDBF19
:104CF0001092E9008091E80083FF23C168E0CE01B3
:104D000045960E941A2482EF8093E8003D8937FF80
:104D100005C08091E80080FFFCCF03C08EEF809338
:104D2000E800832F807609F0F0C02E894F89D88C57
:104D300021110CC0303829F4809135078093F1009F
:104D400002C01092F1001092F100F4C0842F90E0A4
:104D50009D29213049F43111EDC0019709F0EAC0D5
:104D6000809135078D7F0AC0233059F43111E2C09C
:104D7000019709F0DFC08091350782608093350785
:104D8000D9C0253041F48091E80080FFFCCF406815
:104D90004093E300CFC0263009F08DC0EB8CFC8C33
:104DA00022E0D2122CC080E090E00E94EC250E940C
:104DB000B52499E08E010F5F1F4FF801292F119242
:104DC0002A95E9F79983DA8291E09E8390EA9887A1
:104DD0009AEF99872091320730913307275F3F4F31
:104DE0003C832B838D83C7010E94EC2549E050E072
:104DF000B80180E00E94F7250E94B5249BC0C7013E
:104E00000E94EC250E94492ABE016B5E7F4F0E94E2
:104E1000EB29009719F00CF08DC090C081E0D812FA
:104E20000EC08B8D9C8D089719F481E080932F071D
:104E300080912F0781112FC065E072E131C0E3E05E
:104E4000DE127CC08F89882349F1823029F440E842
:104E500067E083E292E11CC0813029F440E86BE016
:104E600087E192E115C0833009F068C00E94492AA9
:104E70008E010F5F1F4FB8010E940A2AF8010190AE
:104E80000020E9F73197E01BF10B40E06E2FC801DD
:104E90000E9455244DC063EF71E102C06BE272E1E4
:104EA0006115710509F44AC0FB01449150E080E8A6
:104EB0000E94F7253FC0273009F440C0283021F474
:104EC00081E08093F10036C02930A1F53370B1F54F
:104ED000EBE0F1E081E021E036E39081992361F09D
:104EE0008093E9002093EB0091919093EC00309334
:104EF000ED008F5F873089F78EE78093EA0010928C
:104F0000EA008F898093360715C08B8D9C8D0E9497
:104F1000EC25898D811105C0CE0145960E941C2982
:104F200007C00E94492ABE016B5E7F4F0E94292A5A
:104F3000882321F08EEF8093E80003C081E2809304
:104F4000EB006C960FB6F894DEBF0FBECDBFDF91BD
:104F5000CF91FF91EF91BF91AF919F918F917F91F1
:104F60006F915F914F913F912F911F910F91FF9002
:104F7000EF90DF900F900FBE0F901F9018958093C9
:104F8000E9008091F200882319F08AE38093E80019
:104F900008951F920F920FB60F9211242F933F93F3
:104FA0004F935F936F937F938F939F93AF93BF9331
:104FB000CF93EF93FF93C091E1008091E100837F55
:104FC0008093E1008093E100C3FF0FC01092E900DD
:104FD00081E08093EB001092EC0082E38093ED007F
:104FE0001092360788E08093F000C2FF19C083E07A
:104FF0000E94BF2780913807882339F080913807B5
:10500000815080933807882389F18091370788235E
:1050100039F080913707815080933707882341F119
:10502000C4FF10C08091E2008E7E81608093E20018
:105030008091E1008F7E8093E100809134078E7E25
:10504000806111C0C0FF16C08091E2008E7E806139
:105050008093E2008091E1008E7E8093E100809158
:1050600034078E7E81608093340704C05D9ACDCF73
:10507000289AD6CFFF91EF91CF91BF91AF919F9199
:105080008F917F916F915F914F913F912F910F90F1
:105090000FBE0F901F90189510923607109235078B
:1050A000109234070E9492248091E1008E7E8093BA
:1050B000E1008DE08093E200559A209AEEEFFFE741
:1050C000859194918B3F9C4D19F481E080938907E1
:1050D0000895611571058105910511F00C94ED2C71
:1050E0000895CF93DF9300D000D0CDB7DEB79B01FA
:1050F000AC01611571058105910569F069833A83F9
:105100004B835C830E94E82C29813A814B815C812E
:105110000E945A2C03C060E070E0CB010F900F900A
:105120000F900F90DF91CF910895CF92DF92EF9281
:10513000FF926B017C01621773078407950764F483
:10514000CA01B9016C197D098E099F090E94712855
:105150006C0D7D1D8E1D9F1DFF90EF90DF90CF90F9
:10516000089508950E94F62CCF93DF931F92CDB738
:10517000DEB76983DC01ED91FC910280F381E02DC3
:1051800041E050E0BE016F5F7F4F09950F90DF91C6
:10519000CF910895CF93DF93EC018C859D8597FF88
:1051A00005C082E00E942B259D878C878C859D857C
:1051B000DF91CF91089583E00C94BF27FC01848593
:1051C000958597FD06C082E00E94D32490E0019669
:1051D000089582E00E94D32490E00895FC01848524
:1051E000958597FD05C02FEF3FEF358724870895FC
:1051F00082E00C942B25CF93DF93EC0180911C016E
:10520000882331F083E00E945C251816190634F0DB
:1052100081E090E09B838A8380E090E0DF91CF91F2
:105220000895FC0120812E5F208342E450E06FE26C
:1052300072E180E80C94F725FC0121818081813A9C
:1052400059F4213209F04BC047E050E065E171E0CC
:1052500080E00E94F7255EC0813209F040C0233211
:1052600089F4838190E0982F88273281832BA0E0F6
:10527000B0E08093110190931201A0931301B093B9
:1052800014010FC0203239F467E070E085E191E04D
:105290000E94282609C0223221F4828180931C01B9
:1052A00003C02D7F2032B1F580918907811103C0A1
:1052B000E0E0F8E002C0EEEFFAE080911501909195
:1052C0001601A0911701B0911801803B9440A105EF
:1052D000B10511F580911C0180FF03C01DC080E065
:1052E0000895EE3F2AE0F20731F08081918190939A
:1052F000FF0A8093FE0A87E797E7918380832BE07C
:1053000088E190E00FB6F894A895809360000FBEF6
:105310002093600081E0089588E10FB6F8948093AF
:105320006000109260000FBEA895EE3F8AE0F8077B
:1053300039F08091FE0A9091FF0A91838083EACF31
:105340001092FF0A1092FE0AE5CF10923C071092CD
:105350003B0788EE93E0A0E0B0E080933D07909398
:105360003E07A0933F07B093400781E391E09093FD
:105370003A07809339078FEF9FEF9093460780930A
:1053800045070895EF92FF920F931F93CF93DF93FA
:105390007B01FC01C281D38100E010E0209781F005
:1053A000E881F9810280F381E02DB701CE010995F2
:1053B00097FD08C0080F191F0884D985C02DEECFAE
:1053C000C80102C08FEF9FEFDF91CF911F910F9126
:1053D000FF90EF9008950F931F93CF93DF938B016E
:1053E000FC01C281D381209771F0E881F9810480AA
:1053F000F581E02DB801CE010995009731F40884BC
:10540000D985C02DF0CF80E090E0DF91CF911F9142
:105410000F9108950F931F93CF93DF938B01FC019E
:10542000C281D381209771F0E881F9810680F781EC
:10543000E02DB801CE010995080F111D0884D9850A
:10544000C02DF0CFF8011082DF91CF911F910F9105
:1054500008950F931F93CF93DF938B01FC01C281BB
:10546000D381209771F0E881F9810190F081E02DDE
:10547000B801CE010995811106C00884D985C02DD7
:10548000F0CF80E001C081E0DF91CF911F910F91BB
:10549000089580918E0781110DC082E080938A0764
:1054A00084E080938B0710928D0710928C0781E027
:1054B00080938E078AE897E008955058BB27AA2763
:1054C0000ED00DC1FED030F003D120F031F49F3F5B
:1054D00011F41EF4F3C00EF4E095E7FBE9C0E92FE8
:1054E0000FD180F3BA17620773078407950718F086
:1054F00071F49EF527C10EF4E0950B2EBA2FA02D66
:105500000B01B90190010C01CA01A0011124FF2770
:10551000591B99F0593F50F4503E68F11A16F0406B
:10552000A22F232F342F4427585FF3CF469537956A
:105530002795A795F0405395C9F77EF41F16BA0B2F
:10554000620B730B840BBAF09150A1F0FF0FBB1FDD
:10555000661F771F881FC2F70EC0BA0F621F731F26
:10556000841F48F4879577956795B795F7959E3F83
:1055700008F0B3CF9395880F08F09927EE0F979511
:105580008795089571D008F481E0089504D0689457
:10559000B111D9C00895BCD088F09F5790F0B92FB1
:1055A0009927B751A0F0D1F0660F771F881F991F78
:1055B0001AF0BA95C9F712C0B13081F0C3D0B1E08A
:1055C0000895C0C0672F782F8827B85F39F0B93F9A
:1055D000CCF3869577956795B395D9F73EF490957A
:1055E0008095709561957F4F8F4F9F4F0895E894F8
:1055F00009C097FB3EF490958095709561957F4F1B
:105600008F4F9F4F9923A9F0F92F96E9BB279395C8
:10561000F695879577956795B795F111F8CFFAF4D8
:10562000BB0F11F460FF1BC06F5F7F4F8F4F9F4F09
:1056300016C0882311F096E911C0772321F09EE867
:10564000872F762F05C0662371F096E8862F70E0CD
:1056500060E02AF09A95660F771F881FDAF7880FA7
:105660009695879597F90895990F0008550FAA0BFD
:10567000E0E8FEEF16161706E807F907C0F0121665
:105680001306E407F50798F0621B730B840B950B68
:1056900039F40A2661F0232B242B252B21F40895BD
:1056A0000A2609F4A140A6958FEF811D811D08955A
:1056B00097F99F6780E870E060E008959FEF80ECC5
:1056C000089500240A941616170618060906089568
:1056D00000240A9412161306140605060895092ECE
:1056E0000394000C11F4882352F0BB0F40F4BF2B3D
:1056F00011F460FF04C06F5F7F4F8F4F9F4F08957D
:1057000057FD9058440F551F59F05F3F71F0479572
:10571000880F97FB991F61F09F3F79F08795089557
:10572000121613061406551FF2CF4695F1DF08C076
:10573000161617061806991FF1CF86957105610593
:1057400008940895E894BB2766277727CB0197F93B
:1057500008958ADF08F48FEF08950BD0C0CFB1DF32
:1057600028F0B6DF18F0952309F0A2CFA7CF1124B7
:10577000EACFC6DFA0F3959FD1F3950F50E0551FF8
:10578000629FF001729FBB27F00DB11D639FAA2796
:10579000F00DB11DAA1F649F6627B00DA11D661FE5
:1057A000829F2227B00DA11D621F739FB00DA11D06
:1057B000621F839FA00D611D221F749F3327A00DC0
:1057C000611D231F849F600D211D822F762F6A2F5C
:1057D00011249F5750408AF0E1F088234AF0EE0FE1
:1057E000FF1FBB1F661F771F881F91505040A9F7EE
:1057F0009E3F510570F05CCFA6CF5F3FECF3983E23
:10580000DCF3869577956795B795F795E7959F5F54
:10581000C1F7FE2B880F911D9695879597F90895EE
:10582000AA1BBB1B51E107C0AA1FBB1FA617B707C6
:1058300010F0A61BB70B881F991F5A95A9F78095E2
:105840009095BC01CD01089597FB072E16F40094A6
:1058500007D077FD09D00E94102C07FC05D03EF43C
:10586000909581959F4F0895709561957F4F08950C
:10587000A1E21A2EAA1BBB1BFD010DC0AA1FBB1F54
:10588000EE1FFF1FA217B307E407F50720F0A21BC6
:10589000B30BE40BF50B661F771F881F991F1A9433
:1058A00069F760957095809590959B01AC01BD015D
:1058B000CF010895052E97FB1EF400940E94712CD1
:1058C00057FD07D00E94382C07FC03D04EF40C94EF
:1058D000712C50954095309521953F4F4F4F5F4F1C
:1058E000089590958095709561957F4F8F4F9F4F4C
:1058F0000895EE0FFF1F0590F491E02D0994A29FEB
:10590000B001B39FC001A39F700D811D1124911D93
:10591000B29F700D811D1124911D08950E947F2C4E
:10592000A59F900DB49F900DA49F800D911D1124F3
:1059300008958F929F92AF92BF92CF92DF92EF9293
:10594000FF92CF93DF93EC01688179818A819B81FB
:10595000611571058105910521F464E279ED8BE50E
:1059600097E02DE133EF41E050E00E945A2C4901CD
:105970005A019B01AC01A7EAB1E40E948E2C6B0195
:105980007C01ACEEB4EFA50194010E941D2DC60E62
:10599000D71EE81EF91EF7FE06C081E0C81AD1081E
:1059A000E10880E8F80AC882D982EA82FB82C7014E
:1059B000B6019F77DF91CF91FF90EF90DF90CF906E
:1059C000BF90AF909F908F9008950E94992C08955A
:1059D00080E091E00E94992C0895609300017093FB
:1059E00001018093020190930301089581E090E00A
:1059F000F8940C94222DFB01DC0102C005900D925D
:105A000041505040D8F70895F999FECF92BD81BD1D
:105A1000F89A992780B50895262FF999FECF1FBAD5
:105A200092BD81BD20BD0FB6F894FA9AF99A0FBEC7
:105A300001960895B7FF0C948E2C0E948E2C821B29
:085A4000930B0895F894FFCFC9
:105A480001000000000070C1010100C18081000058
:105A580000FFFFFFFF00E100000000000000000061
:105A680000B51AF22300000000B228F2230000005B
:0E5A780000B428FB28DE28EE28CA28DB280010
:00000001FF
