:100000000C94F9090C94210A0C94210A0C94210AED
:100010000C94210A0C94210A0C94210A0C94210AB4
:100020000C94210A0C94210A0C94CB2C0C945D2B7B
:100030000C94210A0C94210A0C94210A0C94210A94
:100040000C94210A0C94C4200C94210A0C94210ACB
:100050000C94210A0C94210A0C94210A0C94B024CB
:100060000C94210A0C94210A0C94210A0C94210A64
:100070000C94210A0C94210A0C94210A0C94210A54
:100080000C9437210C94210A0C94210A0C94210A17
:100090000C94210A0C94210A0C94210A0C94210A34
:1000A0000C94210A0C94210A0C94210A350A440A62
:1000B000530A620A710A800A900A9F0AAF0ABF0AAD
:1000C000CF0ADF25E425E925F325FD254726472628
:1000D0004726072611261B262526322647263A269E
:1000E00068266B265A265E2664268C268C268C264D
:1000F0006F26732677267D2681268C2687260A2062
:1001000020413D53656C65637420423D4261636BE1
:10011000000A0A202055502F444F574E3D43686F28
:100120006F7365002043686F6F7365206C6576653B
:100130006C20746F20706C61790A0A004C657665DA
:100140006C2053656C6563740A0A000A2020413DE7
:1001500053656C65637420423D4261636B000A0A1B
:100160000A202055502F444F574E3D43686F6F7300
:1001700065000A20204C6576656C2053656C6563CC
:1001800074004F4646004F4E002020417564696F51
:100190003A20004F7074696F6E73204D656E750A5A
:1001A0000A0000000000003E5B4F5B3E3E6B4F6B61
:1001B0003E1C3E7C3E1C183C7E3C181C577D571C48
:1001C0001C5E7F5E1C00183C1800FFE7C3E7FF00C1
:1001D00018241800FFE7DBE7FF30483A060E26290F
:1001E000792926407F050507407F05253F5A3CE7D2
:1001F0003C5A7F3E1C1C08081C1C3E7F14227F2298
:10020000145F5F005F5F06097F017F006689956A62
:10021000606060606094A2FFA29408047E040810ED
:10022000207E201008082A1C08081C2A08081E1016
:100230001010100C1E0C1E0C30383E3830060E3ECE
:100240000E06000000000000005F0000000700072D
:1002500000147F147F14242A7F2A12231308646257
:1002600036495620500008070300001C22410000B8
:1002700041221C002A1C7F1C2A08083E0808008016
:1002800070300008080808080000606000201008AE
:1002900004023E5149453E00427F400072494949AF
:1002A000462141494D331814127F102745454539E1
:1002B0003C4A4949314121110907364949493646E5
:1002C0004949291E000014000000403400000008C5
:1002D0001422411414141414004122140802015968
:1002E00009063E415D594E7C1211127C7F494949F5
:1002F000363E414141227F4141413E7F494949418A
:100300007F090909013E414151737F0808087F00B8
:10031000417F41002040413F017F081422417F403E
:100320004040407F021C027F7F0408107F3E414115
:10033000413E7F090909063E4151215E7F09192985
:1003400046264949493203017F01033F4040403F6F
:100350001F2040201F3F4038403F631408146303B0
:10036000047804036159494D43007F41414102042F
:10037000081020004141417F040201020440404036
:100380004040000307080020545478407F2844442C
:10039000383844444428384444287F385454541846
:1003A00000087E090218A4A49C787F080404780041
:1003B000447D40002040403D007F10284400004123
:1003C0007F40007C047804787C0804047838444436
:1003D0004438FC1824241818242418FC7C0804042D
:1003E00008485454542404043F44243C4040207C96
:1003F0001C2040201C3C4030403C44281028444CE9
:100400009090907C4464544C4400083641000000B5
:10041000770000004136080002010204023C262356
:10042000263C1EA1A161123A4040207A385454550E
:1004300059215555794121545478412155547840DA
:1004400020545579400C1E52721239555555593960
:100450005454545939555454580000457C410002B5
:10046000457D420001457C40F0292429F0F02825F3
:1004700028F07C545545002054547C547C0A097F54
:100480004932494949323248484832324A4848306C
:100490003A4141217A3A42402078009DA0A07D391E
:1004A000444444393D4040403D3C24FF2424487EA0
:1004B0004943662B2FFC2F2BFF0929F620C0887E8D
:1004C000090320545479410000447D413048484A92
:1004D00032384040227A007A0A0A727D0D19317D45
:1004E0002629292F28262929292630484D40203819
:1004F0000808080808080808382F10C8ACBA2F10D8
:100500002834FA00007B000008142A142222142A3E
:1005100014089500220095AA005500AAAA55AA55CC
:10052000AA000000FF00101010FF00141414FF00B8
:100530001010FF00FF1010F010F0141414FC001441
:1005400014F700FF0000FF00FF1414F404FC14145F
:1005500017101F10101F101F1414141F001010105C
:10056000F0000000001F101010101F10101010F0ED
:1005700010000000FF101010101010101010FF10CD
:10058000000000FF140000FF00FF00001F10170014
:1005900000FC04F414141710171414F404F40000ED
:1005A000FF00F714141414141414F700F71414149F
:1005B000171410101F101F141414F4141010F0103E
:1005C000F000001F101F0000001F14000000FC14AA
:1005D0000000F010F01010FF10FF141414FF14109E
:1005E00010101F00000000F010FFFFFFFFFFF0F0F1
:1005F000F0F0F0FFFFFF0000000000FFFF0F0F0F03
:100600000F0F38444438447C2A2A3E147E020206E6
:1006100006027E027E0263554941633844443C042D
:10062000407E201E2006027E020299A5E7A5991CA5
:100630002A492A1C4C7201724C304A4D4D303048C8
:10064000784830BC625A463D3E494949007E010126
:10065000017E2A2A2A2A2A44445F444440514A44BB
:100660004040444A51400000FF0103E080FF000089
:1006700008086B6B083612362436060F090F060081
:100680000018180000001010003040FF0101001F8A
:1006900001011E00191D1712003C3C3C3C000000EB
:1006A000000006011501260137014A015D017201B2
:1006B00088019F01B801D201EE010B022A024B0210
:1006C0006E029302BA02E40210033F037003A40314
:1006D000DC03170455049704DD0427057505C805D8
:1006E00020067D06E0064907B8072D08A9082D0950
:1006F000B9094D0AEA0A900B400CFA0CC00D910E94
:100700006F0F5A1053115B1272139A14D4152017DD
:100710008018F519801B231DDE1EB420A622B524E7
:10072000E4263429A72B402E0031EA330037453A1E
:10073000BC3D68414C456B49C84D68524F57805C81
:10074000006210111213151617181A1C1D1F2123F1
:100750002527292C2E3134373A3E4145494E5257F0
:100760005C62686E757B838B939CA5AFB9C4D0DC4B
:10077000E9F70301D5F08D14A1C881CFD9F1AF20DD
:100780000014021302120215020702080204010CEF
:1007900001060100000040004404000000000004C5
:1007A000400040000000044000000020FF04A000C2
:1007B000400020FF04A000000080FE04A0004000D4
:1007C00080FE04A000000000FE044000400000FE87
:1007D0000440000000FCFD4404001D0014FF0A1941
:1007E00002190010FF1221005AFFE8FF1004061939
:1007F0000010FF1221004C011C001004061900100B
:10080000FF1221003BFF6CFE100406190010FF12BE
:100810002100EE006CFE1004061A003C00100408D3
:100820001A0000FE1004084CFF0000B404004CFF46
:10083000BCFFB40400E0FFF8FF040701E0FFC1FFC4
:1008400004070BC0FFE7FF0A1900C0FFC0FF0A1929
:1008500000A0FFC9FF0A2E0080FFF7FF0B090080F0
:10086000FFC0FF0B090084FFEFFF04070184FFCAEC
:10087000FF04070B4CFFC0FF0440005AFFECFF10C1
:10088000140044000000A004004400BCFF20040049
:1008900064009CFF8004006400A0FF042000E000CE
:1008A000A0FF042000AE00A0FF323C00C200FCFF0D
:1008B000100406E4002000800400E400000004208E
:1008C000006001C0FF0460002E01E4FF323C004CD8
:1008D00001E0FF100406E400BCFF800400E0FF809C
:1008E000FE200400E0FF3CFE200400DCFF80FE044C
:1008F0004000DCFF00FE04400018FFC0FEC80400FA
:1009000018FFFCFDC8040018FF00FE04C000B6FF7D
:100910009DFE0F0400B6FF1FFE0F04008DFF7FFE3B
:100920000F04008DFF3DFE0F040064FF5FFE0F0407
:10093000003BFF70FE1004003BFF4CFE100400441F
:100940000080FE20040044003CFE2004006400807F
:10095000FE044000640000FE0440006400C0FE800D
:1009600004006400FCFD800400E00000FE04500070
:10097000E00070FE045000E40070FE200400E4007B
:100980004CFE20040004014CFE042800CC000CFEA8
:1009900004A800640060FE6804003000ECFF0A1444
:1009A00002280000001804000000E8FF40040000D6
:1009B000004000FF04000000E8FF0458004000A0D1
:1009C000FF0480008000E4FF045C00FF0040008F13
:1009D0000400620020001E040078001800040701D3
:1009E0007400250004070B440000001E04004900A9
:1009F000F8FF0407014D00050004070B6200E0FF4B
:100A0000BC04007800CCFF1414004800BCFF1004A4
:100A1000067400E5FF04070B4400C0FF1E040040FD
:100A2000009CFF4404008000A0FF042C000001E4AF
:100A3000FF0448008400C8FF200400A400A8FF04AD
:100A40002400A800A8FF580400AC00ADFF04070B69
:100A5000B600ADFF04070BCD00D8FF040701D70097
:100A6000D8FF040701EE00ADFF04070BF800ADFF4F
:100A700004070B0001A8FF0420000401C4FF400488
:100A8000004401A6FF0462003D01C9FF04070B17E3
:100A900001E5FF04070B260108004604002A010DAA
:100AA0000004070B64012C001414008C003C00109F
:100AB000040644012C000214036C01C4FF04680006
:100AC000C0000800043800C1000000040701C40091
:100AD00028001E0400A20028001E0400E2000800F6
:100AE0001E0400840008001E04008A01A6FF049A68
:100AF000004801A6FF420400520104001004085AF5
:100B000000ACFF0214030000300028040028001C81
:100B100000041800280018002804005000040004F5
:100B20001800500000002804005000F6FF0A0A00D8
:100B30007800ECFF0418007800E8FF2804007C002F
:100B4000E1FF040701A000D4FF041800A000D0FFBB
:100B5000280400A00062FF045F00B400BCFF021480
:100B600003C800BCFF041800C800B8FF280400C672
:100B7000004AFF0B5500CA009EFF04070BF000A4BB
:100B8000FF041800F000A0FF280400F0008CFF1400
:100B9000140018018CFF041800180188FF280400B5
:100BA000400174FF041800400170FF0A040068014E
:100BB0005CFF041800680158FF2804007C0144FF12
:100BC000021403900144FF041800900140FF280420
:100BD000009C0139FF040701B20139FF040701B885
:100BE000012CFF041800B80128FF280400C40121CB
:100BF000FF040701E00114FF041800E00110FF28C2
:100C000004000802DAFE041E00F4010CFF100406C2
:100C10000802FCFE0418000802F8FE280400F40193
:100C20000CFF1004063002E4FE0418003002E0FE5F
:100C30002804004402C7FE0A190200004000800494
:100C400000FCFF0000044400000000005404007C8D
:100C500000C0FF0480005400C0FF04806462003CB8
:100C600000100407780040FF048400580040FF048F
:100C700084007400C0FE0484005C0098FE04AC0094
:100C80007800C0FEA80400600098FE9E0400D0001A
:100C9000B1FE0F0F0020010CFE04B800FE000CFE98
:100CA000049000020189FE1E1E000C01BCFE10040F
:100CB00006240154FD04BC00FA0054FD04BC00C825
:100CC0000054FD320400280154FD320400C8001C09
:100CD000FD04380056011CFD04380082001CFD464E
:100CE00004008200F4FC0428008200F0FC6E040082
:100CF000F000F0FC044600F40032FD3A04002E013E
:100D0000F0FC0446003201F0FC8204000C0136FDC8
:100D10000C0C00CC0016FD242400400150FD1004F2
:100D200006320116FD2424008C0018FD1004065024
:100D30000088FF0804008000CCFF0804007800064B
:100D4000FF080400F60036FE0804002801DAFD085A
:100D50000400280176FD080400F200A8FD08040044
:100D60005A011CFD28040082011CFD04AC00B001E6
:100D7000F4FC04D4008601C4FD04AC00AC01C4FD45
:100D800004AC008A016CFE04AC00A8016CFE04AC4B
:100D9000008E0114FF04AC00A40114FF04AC009603
:100DA00001A3FF0A19029201BCFF120400CEFF400A
:100DB00000690400ECFF1000043000F6FF3C001056
:100DC00004063300100004300083FF0C00B404005C
:100DD000CEFF440004400001FF8400D1040065FF01
:100DE000440004400083FF10000474646EFF800020
:100DF0001004071FFF0000044A00E3FE4400044003
:100E00000001FF800010046AEDFE8000100407025C
:100E1000FE8400FF04005FFE6B000A196634FE6862
:100E20000010046BACFE500010046B0CFE7400103C
:100E3000046B5CFE5C0010046B84FE680010046BA5
:100E40000CFE500010046BACFE740010040702FE90
:100E5000000004840000004000FF040000000000C7
:100E6000FF040000000400043C00420009000407E5
:100E70000B420034000407013E0004000B04003E56
:100E8000003C000B04008200010004070B820030CC
:100E9000000407017E0004000B08007E0038000BF0
:100EA0000800C200090004070BC2002C000407015F
:100EB000BE0004000B0400BE0034000B0C00F00068
:100EC0002C00021403220140001404004201090016
:100ED00004070B420134000407014C010900040718
:100EE0000B4C0134000407015E012C001404007E49
:100EF00001F5FF04070B7E0120000407018801F5BE
:100F0000FF04070B880120000407019A01AF00824B
:100F10000400F4019B00021403FE018200A10400FE
:100F2000FE01BE00A104000202B6002C080F02025E
:100F300086002C08103402B6002C080F34028600FC
:100F40002C08106602B6002C080F660286002C08DA
:100F5000109802B7000407019802870004070B2DC0
:100F600002A0001E04005802AF001E04007B029B7A
:100F7000001E04009402AF00600400BC029B00024B
:100F8000140309039C0004070B050369000B3200DE
:100F90002003AF001E04002F0396000A1902000070
:100FA0004000FF040000000000044000420039003F
:100FB000040701820039000407018C00390004078E
:100FC0000196003900040701D6003900040701E04A
:100FD000003900040701F900390004070103013951
:100FE00000040701FE004000C00400390138002C55
:100FF000080F6B0139000407014D012C000E04009D
:1010000089012C00021403BE014000040E00BE0141
:101010004E00400400FA014000040E00C4014700E5
:10102000040701D0014700040701DC014700040761
:1010300001E8014700040701F4014700040701FE2D
:10104000014000C804000A0238002C080F7702395A
:10105000000407017D0236000B0A0081022F000404
:10106000070187022C000B0A00870236000B0A00DA
:101070008B022500040701910236000B0A0095023D
:101080002F000407019F023900040701B202270064
:101090000A190200004000FF0400FCFFE0FF0464A6
:1010A00000400031000F0F006000E0FF0F5100A072
:1010B000002C00141400C000E0FF0F5600FE002CAE
:1010C00000021403FF004000FF04002E013800045A
:1010D00007014601E0FF0B50006C0131000F0F00CB
:1010E0008A01270004070B8601E0FF0B4600AE01D2
:1010F0003800040701CA01270004070BC601E0FFFE
:101100000B4600EA0127000A1902FE01E0FF046411
:101110000000004000E004004000280020040060BF
:101120000010001E04008000F4FF1C0400A000DC7E
:10113000FFE00400E000C4FF1404000001ACFF1253
:101140000400200194FF10040040017CFF80040093
:10115000600164FF14040080014CFF120400600170
:1011600034FF10040080011CFF4004009A0103FFBB
:101170000A1902ACFF400094040040001C0004283F
:101180000000001C00400400E0FF1C00200E00C016
:10119000FF1C00201400A0FF1C0020180040FF804E
:1011A000006C0400ACFF440004400060FF5F0020BE
:1011B00017007CFF3F0004200040FF400004400077
:1011C00040FF3C004004006AFF46000A190200008C
:1011D00040004004003C00440004200000001000D7
:1011E00004300000000C0056040056000C000420DF
:1011F000003C006400AA040056002C00640400783F
:10120000005A000A0A009B0055000F0F00C8005545
:10121000000F0F00D70055000F0F00DC004B000A35
:101220000A00E6004B006404002C012D001E1E0085
:101230004A010F001E1E0068010F00460400BA009C
:101240001800041800BA0014005004000A01E2FF5C
:101250000436000E01E2FFA00400AA01E6FF042903
:10126000009601F6FF0A1902080C0A090909090982
:1012700009090909090A0C08FFFFFFFF01FDFDFD2F
:10128000FDFF01FDFDFD01FF01FDFDFD01FF01ED84
:10129000EDEDEDFFFFFFFF3F3F3F3F3C3D3D3D3D5F
:1012A0003F3C3D3D3D3C3F3C3F3F3F3C3F3C3F3F63
:1012B0003F3F3F3F3F3FFFFFFFFF01EDEDEDE1FF10
:1012C00001FFFFFFFFFF03DDDDDD03FFF1CF3FCFB8
:1012D000F1FFFFFFFF3F3F3F3F3C3F3F3F3F3F3C72
:1012E0003D3D3D3D3F3C3F3F3F3C3F3F3F3C3F3F1F
:1012F0003F3F3F3F0000000200090F0000030401D0
:10130000000C0000000000000000000000000000D1
:10131000000000040802011040804010204080407E
:10132000800802040180402010020110801020403B
:10133000402004040404040304050202020204031E
:10134000020202020606060606060404020202045F
:101350000400000000250028002B002E00310000B2
:10136000000000240027002A002D00300012010098
:1013700002EF020140412336800001010203011205
:1013800001000200000040412336800001010203F9
:101390000141726475696E6F204C4C430041726468
:1013A00075626F790004030904080B000202020150
:1013B00000090400000102020000052400100105DC
:1013C0002401010104240206052406000107058109
:1013D0000310004009040100020A00000007050292
:1013E000024000000705830240000000A316A3246A
:1013F000A72E11241FBECFEFDAE0DEBFCDBF11E074
:10140000A0E0B1E0E4E2F5E602C005900D92A4355B
:10141000B107D9F728E0A4E5B1E001C01D92AE32D2
:10142000B207E1F713E1C2EFD3E104C02297FE0156
:101430000E94E931CC3ED107C9F70E94FD260C94E9
:1014400090320C9400001F93CF93DF93182F482FF6
:1014500050E0FA013197EB30F10508F0C5C0EA5AC7
:10146000FF4FC0E0D0E00C94E731BE0162537E4EE6
:1014700047E050E0CE018B5A9E4F0E94693227967A
:10148000CA39D10591F79BC0BE016D587E4E47E029
:1014900050E0CE018B5A9E4F0E9469322796CB3581
:1014A000D10591F78EC0BE016F5E7E4E47E050E0E1
:1014B000CE018B5A9E4F0E9469322796C236D105C3
:1014C00091F781C0BE016D567F4E47E050E0CE01DE
:1014D0008B5A9E4F0E9469322796CE37D10591F7DD
:1014E00074C0BE016256704F47E050E0CE018B5A87
:1014F0009E4F0E9469322796C53FD10591F767C07C
:10150000BE016B5A714F47E050E0CE018B5A9E4F9F
:101510000E9469322796C93481E0D80789F759C0FB
:10152000BE016355724F47E050E0CE018B5A9E4F8B
:101530000E9469322796C83AD10591F74CC0BE0186
:10154000665C734F47E050E0CE018B5A9E4F0E947D
:1015500069322796C33781E0D80789F73EC0BE01BC
:101560006A5F744F47E050E0CE018B5A9E4F0E9455
:1015700069322796C43381E0D80789F730C0BE01AD
:101580006656764F47E050E0CE018B5A9E4F0E9440
:1015900069322796CC3681E0D80789F722C0BE0190
:1015A0006C56784F47E050E0CE018B5A9E4F0E9418
:1015B00069322796C63082E0D80789F714C096E1D1
:1015C00013C09DE011C09EE00FC092E10DC093E2F8
:1015D0000BC09FE209C098E107C095E305C09CE2FB
:1015E00003C094E301C09AE49093630310936403EF
:1015F00080E290E090935E0380935D0390935C03A0
:1016000080935B038AE999E9A9E1BEE38093B3077C
:101610009093B407A093B507B093B60740E250E0AB
:1016200060E270E082EA97E0DF91CF911F910C9425
:101630006E2486E693E00E9407176EE186E693E04B
:101640000E94271782EC91E00E947232809354012D
:101650009FEF980F9A3040F08B3029F061E082ECD8
:1016600091E00E947A3281E00C94230A2F923F92FB
:101670004F925F926F927F928F929F92AF92BF92A2
:10168000CF92DF92EF92FF920F931F93CF93DF934E
:10169000CDB7DEB72E970FB6F894DEBF0FBECDBF25
:1016A00086E693E00E943C17882311F40C948A1676
:1016B00086E693E00E94FF1A80910501813009F0CF
:1016C0006CC068E086E693E00E944B1E882391F090
:1016D0008091650381112DC080910401813011F446
:1016E00082E001C084E08093050186E693E00E94D9
:1016F000AE171CC060E286E693E00E944B1E81118B
:1017000009C060E486E693E00E944B1E882311F432
:101710000C947D168091650381110BC080910401AA
:10172000813011F00C9478161092040181E08093BE
:10173000650380910401CC24C3948130A1F47EE040
:10174000E72E0FE126EB32E14FE250E06FE070E070
:1017500086E693E00E94D91BEAE0EE2E28E732E10C
:1017600041E350E013C05AE0E52E0FE126EB32E1F1
:1017700041E350E06FE070E086E693E00E94D91B01
:101780006EE0E62E28E732E14FE250E062E570E0DD
:1017900086E693E00E94D91B9CC5823009F00EC4F6
:1017A00060E886E693E00E944B1E882319F081E0F2
:1017B0008093050166E673E082EA97E00E9480224A
:1017C000C090AF07D090B007E090B107F090B2079B
:1017D00020E030E046E953E4C701B6010E9413312E
:1017E0001816FCF440915B0350915C0360915D031B
:1017F00070915E0382EA97E00E946E242BE531E04F
:101800003C832B8385E591E09A838983AAE5B1E047
:10181000BE83AD83E9E5F1E0F887EF83212C312C1D
:1018200049C020E030E04FEA53ECC701B6010E9406
:10183000C42F87FFE3CF809164038830F9F28B30A7
:1018400089F6DCCFC090AB07D090AC07E090AD0735
:10185000F090AE07A981BA810D90BC91A02DBE87F2
:10186000AD87CD010597BC01882777FD8095982F1E
:101870000E9463309B01AC01C701B6010E94133185
:1018800087FF1FC0FFEF2F1A3F0A2B813C81295F82
:101890003F4F3C832B8389819A8107969A83898362
:1018A000AD81BE811796BE83AD83EF81F8853796F3
:1018B000F887EF838091630390E02816390614F2CD
:1018C0001CC3EF81F88580812D853E85280F311D51
:1018D0003A872987C9010596BC01882777FD80953D
:1018E000982F0E9463309B01AC01C701B6010E9492
:1018F000C42F18163CF28090AF079090B007A090CC
:10190000B107B090B207A981BA8112960D911C91CE
:101910001397C8010597BC01882777FD8095982FFC
:101920000E9463309B01AC01C501B4010E941331D8
:1019300087FDA8CFED81FE8180819801280F311DA0
:101940003C872B87C9010596BC01882777FD8095C8
:10195000982F0E9463309B01AC01C501B4010E9425
:10196000C42F18160CF48ECFAD85BE85BD01882717
:1019700077FD8095982F0E9463302B013C019B01DD
:10198000AC01C701B6010E94133187FD1DC1E98575
:10199000FA85BF01882777FD8095982F0E946330D4
:1019A0009B01AC01C701B6010E94C42F18160CF4AC
:1019B00013C120E030E040E450E4C501B4010E94CE
:1019C000602F2B013C01B801882777FD8095982F67
:1019D0000E9463309B01AC01C301B2010E9413312C
:1019E00087FDFAC02B853C85B901882777FD809556
:1019F000982F0E9463309B01AC01C301B2010E9489
:101A0000C42F18160CF4E8C0AB81BC811C911530B2
:101A100009F47BC038F41330A1F0B8F5123009F4A2
:101A20002AC10BC0173009F497C008F475C01830EC
:101A300009F4B0C0143609F456C1B1E0B093BC0744
:101A400052C180915D0390915E03AD85BE858A177A
:101A50009B0709F448C124E630E040E050E060EA2A
:101A60007FE08AE693E00E944A20E981FA81808142
:101A7000918190935E0380935D03828193810C97A3
:101A800090935C0380935B032EC18091B7078823FA
:101A9000B9F1C1010196F7E0F89F8001F99F100D9F
:101AA00011240B5A1E4FD80114962C911497269589
:101AB0008D919C91820F911DBC01882777FD8095A7
:101AC000982F0E9463306093AB077093AC078093AC
:101AD000AD079093AE07F801858186956281738189
:101AE000680F711D882777FD8095982F0E946330BD
:101AF0006093AF077093B0078093B1079093B207DC
:101B000082EA97E00E949E24EEC08091B707882366
:101B1000B9F3C1010197BFCFF1E0F093BC07E3E651
:101B2000AB81BC81EC9324E630E040E050E060ED16
:101B300077E08AE693E00E944A20C101019727E0FE
:101B4000289FF001299FF00D1124EB5AFE4FDF0171
:101B50001D922A95E9F7C7C0B1E0B093BC0723E610
:101B6000EB81FC81208324E630E040E050E060ED32
:101B700077E08AE693E00E944A20C1010197189F0E
:101B8000F001199FF00D1124EB5AFE4F8681845607
:101B90008683A9C031E03093BC078091B7078823C2
:101BA00009F4AECFC090B307D090B407E090B5076A
:101BB000F090B60720E030E0A901C701B6010E940D
:101BC000133187FD9DCF78C0A3019201C701B601F3
:101BD0000E94133187FD87C0A985BA85BD0188277A
:101BE00077FD8095982F0E9463309B01AC01C7015F
:101BF000B6010E94C42F18160CF475C020E030E026
:101C000040E450E4C501B4010E945F2F6B017C01E8
:101C1000B801882777FD8095982F0E9463309B013B
:101C2000AC01C701B6010E94133187FD5CC0EB8592
:101C3000FC85BF01882777FD8095982F0E9463302F
:101C40009B01AC01C701B6010E94C42F18160CF409
:101C50004AC0AB81BC818C919EEF980F943048F0C4
:101C6000843609F440C0B1E0B093BB078830D9F5A1
:101C70000CC08230C1F5E3E0E093050122E030E0E2
:101C800030935C0320935B032EC08091B7078823B9
:101C900009F436CFC090B307D090B407E090B507F1
:101CA000F090B60720E030E0A901C701B6010E941C
:101CB000C42F18160CF424CFF7FAF094F7F8F09428
:101CC000C092B307D092B407E092B507F092B6077E
:101CD00024E630E040E050E060ED77E08AE693E013
:101CE0000E944A200DCF8090AB079090AC07A09047
:101CF000AD07B090AE0720E030E040E450E4C5010D
:101D0000B4010E94602F6B017C01A981BA810D9101
:101D10001C91B801882777FD8095982F0E94633029
:101D20002B013C019B01AC01C701B6010E9413319C
:101D300087FD59C0EF81F88580819801280F311DFA
:101D4000B901882777FD8095982F0E9463309B0109
:101D5000AC01C701B6010E94C42F18160CF443C091
:101D6000C090AF07D090B007E090B107F090B207F5
:101D7000A981BA8112960D90BC91A02DBA87A9872E
:101D8000BD01882777FD8095982F0E9463309B01C5
:101D9000AC01C701B6010E94133187FD24C0ED815B
:101DA000FE81808169857A85680F711D882777FD9E
:101DB0008095982F0E9463309B01AC01C701B6014A
:101DC0000E94C42F18167CF0AB81BC818C919EEFD1
:101DD000980F943008F468C0843609F465C0B1E007
:101DE000B093BA0761C020E030E040E450E4C501A0
:101DF000B4010E945F2F6B017C01A30192010E943C
:101E0000133187FD51C0EF81F8858081080F111DC6
:101E1000B801882777FD8095982F0E9463309B0139
:101E2000AC01C701B6010E94C42F1816ECF1C09096
:101E3000AF07D090B007E090B107F090B207A9814A
:101E4000BA8112960D911C911397B801882777FDDE
:101E50008095982F0E9463309B01AC01C701B601A9
:101E60000E94133187FD20C0ED81FE818081B80181
:101E7000680F711D882777FD8095982F0E94633029
:101E80009B01AC01C701B6010E94C42F181664F073
:101E9000AB81BC818C919EEF980F943028F08436F2
:101EA00019F0B1E0B093B9078091BB0781110DC063
:101EB0008091BC07811109C08091B907811105C0CB
:101EC0008091BA07882309F4DDCCEB81FC81808105
:101ED000813031F08B3021F08F50823008F0D2CC3D
:101EE00040915B0350915C0360915D0370915E03D0
:101EF00082EA97E00E946E24C5CC609161037091E4
:101F00006203882777FD8095982F0E9463306B01CC
:101F10007C0120E030E040E852E46091AB07709132
:101F2000AC078091AD079091AE070E945F2FA7018B
:101F300096010E945F2F29E23CE54FE85DE30E9495
:101F400017319B01AC01C701B6010E94602F0E94AE
:101F50003030709362036093610360915F0370910E
:101F60006003882777FD8095982F0E9463306B016E
:101F70007C0120E030E040E052E46091AF077091D6
:101F8000B0078091B1079091B2070E945F2FA7011F
:101F900096010E945F2F29E23CE54FE85DE30E9435
:101FA00017319B01AC01C701B6010E94602F0E944E
:101FB00030307093600360935F038BC1833009F00E
:101FC00059C062E086E693E00E9430178823F9F05A
:101FD00020E030E040E85FE36091AF077091B00728
:101FE0008091B1079091B2070E945F2F6093AF0775
:101FF0007093B0078093B1079093B20780915B0311
:1020000090915C03029690935C0380935B0365E080
:1020100086E693E00E943017882339F080916303AD
:10202000882319F081508093630380915B03909122
:102030005C03813891059CF082E0809305018091DA
:1020400064038F5F0E94230A82EC91E00E94723247
:1020500060916403861718F46C3008F452C62AE0C5
:1020600030E040E050E068E873E18AE693E00E94E7
:102070004A202FC1843009F0A0C040E050E060E069
:1020800070E086E693E00E943F1E63E971E086E619
:1020900093E00E944E2769E871E086E693E00E9493
:1020A0004E270E946B1E882319F066E871E002C07B
:1020B00062E871E086E693E00E944E2762E771E0F5
:1020C00086E693E00E944E2768E086E693E00E9451
:1020D0004B1E8823E1F080916503811155C08091EA
:1020E0000401882341F0813099F5809105018F5FCB
:1020F000809305012DC00E946B1E882319F00E9459
:102100006E1E02C00E945D1E0E947B1E21C064E004
:1021100086E693E00E944B1E882351F08091650370
:10212000811132C081E080930501809365032CC04A
:1021300060E886E693E00E944B1E882359F0809168
:102140006503811121C080910401815080930401B5
:1021500081E0EBCF60E186E693E00E944B1E88238E
:1021600089F08091650381110FC0809104018F5F18
:102170008093040191E090936503823028F090935E
:10218000040102C01092650340910401F8E04F9FE2
:10219000A00111244D5E5F4F01E028E060E070E097
:1021A00086E693E00E94741A6EE571E086E693E09D
:1021B0000E944E276BE471E088C0853009F089C029
:1021C00040E050E060E070E086E693E00E943F1E51
:1021D0006CE371E086E693E00E944E2764E271E0D2
:1021E00086E693E00E944E2760E886E693E00E9430
:1021F0004B1E8823A1F080916503811150C080910E
:1022000064038F5F8093640391E0909365039091E2
:102210005401981708F043C09093640340C060E1F4
:1022200086E693E00E944B1E882391F0809165031F
:10223000811135C08091640381508093640391E0E3
:102240009093650381112BC081E08093640327C0C4
:1022500068E086E693E00E944B1E882351F080914F
:10226000650381111CC0809164030E94230A82E0EF
:102270000EC064E086E693E00E944B1E882369F05E
:102280008091650381110BC080910501815080937D
:10229000050181E08093650302C01092650369E146
:1022A00071E086E693E00E9471274AE050E0609179
:1022B000640386E693E00E94282861E171E086E6E7
:1022C00093E00E944E276EEF70E086E693E00E9456
:1022D0004E27809105018250823008F0EDC440E025
:1022E00050E060E070E086E693E00E943F1E86E6E4
:1022F00093E00E9487174AE050E0BC0186E693E035
:102300000E94132861E271E086E693E00E94712743
:102310004091AB075091AC076091AD077091AE074B
:1023200022E030E086E693E00E941A2961E271E043
:1023300086E693E00E9471274091AF075091B00765
:102340006091B1077091B20722E030E086E693E039
:102350000E941A29312C47E0B42E8091630338166D
:1023600008F02BC3632C712CB69C9001B79C300DE8
:1023700011242B5A3E4F3E832D83D90116964C9142
:10238000483009F4FEC0B0F4433009F4BAC070F428
:10239000809161039091620320915F03309160030B
:1023A000413009F1423009F46BC015C0463008F0E5
:1023B0003CC211C0403109F4B3C138F44B3009F4C8
:1023C00037C14F3009F45FC106C0433609F410C26B
:1023D000443609F42AC2B69CF001B79CF00D1124D2
:1023E000EB5AFE4F34C0ED81FE8160817181E48142
:1023F000AD81BE8112960D911C91139715964C914B
:10240000D801A40FB11DAD01421B530B7B01EE0E91
:10241000F11CE81AF90AB2E0EB0EF11C021B130BD7
:1024200003501109E6959B012E0F311D281B390B16
:1024300021503109681B790B64507109AA24A394B7
:102440006A0186E693E00E94911BED81FE81428144
:10245000538180915F0390916003481B590B608109
:1024600071818091610390916203681B790BEE2466
:10247000E3940581248186E693E00E94BB1AD5C1CE
:10248000AD81BE8112964D915C911397421B530B07
:102490006D917C911197681B790BEE24E39415964E
:1024A0000C91159714962C9186E693E00E94BB1A26
:1024B000ED81FE811581E280F38080915F03909130
:1024C0006003E81AF90A608171818091610390913B
:1024D0006203681B790B84819B01280F311D4427FF
:1024E00037FD4095542F882777FD8095982F0E94BF
:1024F000972D01E0212FA70186E693E00E94751930
:1025000094C1AD81BE8112964D915C9113978091DB
:102510005F0390916003481B590B6D917C9111975B
:102520008091610390916203681B790BEE24E39420
:1025300015960C91159714962C9186E693E00E94BF
:10254000BB1A60915D0370915E03ED81FE81808115
:1025500091816817790709F068C1428153818091A0
:102560005F0390916003481B590B80916103909128
:102570006203681B790B8481680F711D05E028E0F8
:102580007ACF20E030E0A9016091B3077091B407E1
:102590008091B5079091B6070E9413312091610395
:1025A00030916203E0915F03F0916003AD81BE81E1
:1025B0006D917C91119787FD09C012964D915C91A8
:1025C00013974E1B5F0B425051090AC0AD81BE816B
:1025D00012964D915C9113974E1B5F0B4D5F5F4FB1
:1025E000621B730B6C5F7F4FEE24E39403E028E0E3
:1025F00086E693E00E94BB1AB69CF001B79CF00DF2
:102600001124EB5AFE4F4281538180915F039091D8
:102610006003481B590B6081718180916103909127
:102620006203681B790BEE24E39404E020E123CFDE
:10263000ED81FE8160817181E481809161039091DF
:102640006203AD81BE8112960D911C91139720916A
:102650005F0330916003A801421B530B41505109A5
:102660007B01EE0EF11CE81AF90AB2E0EB0EF11C48
:10267000AD81BE811596FC910F0F111D021B130B2E
:102680000E5F1F4FCFCE812C912C4D805E8092012A
:102690002E5F3F4F3A832983C20105969C838B832B
:1026A000D2016D917C918091610390916203E981E7
:1026B000FA810081118120915F0330916003AB8129
:1026C000BC814C91F801E40FF11DAF01421B530B8B
:1026D0007B01F6E0EF0EF11CE81AF90AE80CF91C90
:1026E000021B130B025011099B012F5F3F4F281B48
:1026F000390B280D391D681B790B64507109680D61
:10270000791DAA24A3946A0186E693E00E94911B96
:102710002AE0820E911C32E38316910409F64BC025
:10272000812C912C4D805E80F2013296FA83E983F0
:1027300092012B5F3F4F3C832B83D2016D917C91A3
:102740008091610390916203E981FA810081118196
:1027500020915F0330916003A801421B530B7B0162
:10276000F7E0EF0EF11CE81AF90AE80CF91CAB814E
:10277000BC81EC910E0F111D021B130B0E5F1F4F3E
:102780009B012E5F3F4F281B390B280D391D681BFD
:10279000790B63507109680D791DAA24A3946A010D
:1027A00086E693E00E94911BBAE08B0E911CE2E357
:1027B0008E16910411F6AD81BE8112964D915C91F9
:1027C000139780915F0390916003481B590B6D91A3
:1027D0007C9111978091610390916203681B790B42
:1027E000EE24E39415960C91159714962C9143CEF4
:1027F000ED81FE814281538180915F03909160035E
:10280000481B590B60817181809161039091620333
:10281000681B790BCC24C39434E0E32E00E128E656
:1028200032E186E693E00E94D91BB69C9001B79CEA
:10283000300D11242B5A3E4F3A832983D901169625
:102840008C9116979CEF980F923008F074C0390164
:10285000B5E06B0E711C4901E4E08E0E911C29015C
:10286000F2E04F0E511CD90112964D915C911397D5
:1028700080915F0390916003481B590B6D917C918F
:1028800011978091610390916203681B790BCC24AE
:10289000C39495E0E92E15960C91159714962C91FA
:1028A00086E693E00E94021B22E0F22EC980DA80C5
:1028B000F20160817181D3018C919B01280F311D40
:1028C00021503109442737FD4095542F6E5F7F4FCB
:1028D000882777FD8095982F0E94972D20915F0380
:1028E000309160038B01021B130BF6016081718133
:1028F000D4018C919B01280F311D225031094427AE
:1029000037FD4095542F6E5F7F4F882777FD809568
:10291000982F0E94972D2091610330916203621BD2
:10292000730B21E0A80186E693E00E94ED17FA946C
:1029300009F0BECF40C086508230E8F5E981FA81C7
:102940004281538180915F0390916003481B590B32
:10295000608171818091610390916203681B790BA2
:10296000CC24C39484E0E82E00E128E632E186E638
:1029700093E00E94D91BA981BA8112964D915C9176
:10298000139780915F0390916003481B590B42504D
:1029900051096D917C918091610390916203681B54
:1029A000790B6C5F7F4FEE24E39403E028E086E62A
:1029B00093E00E94BB1A3394D0CC809105016090C3
:1029C00061037090620300915F0310916003823095
:1029D00009F03CC120E030E040E450E46091AF07F2
:1029E0007091B0078091B1079091B2070E94602F5B
:1029F0006B017C01B801882777FD8095982F0E9494
:102A000063309B01AC01C701B6010E945F2F0E9499
:102A100030306B017C01B301882777FD8095982FBA
:102A20000E9463309B01AC016091AB077091AC07D1
:102A30008091AD079091AE070E945F2F0E943030C9
:102A400021E0A60186E693E00E94ED1720E030E049
:102A500040E450E46091AF077091B0078091B107F6
:102A60009091B2070E945F2F6B017C0160915F0320
:102A700070916003882777FD8095982F0E946330BE
:102A80009B01AC01C701B6010E945F2F0E9430304C
:102A90006B017C016091610370916203882777FD6F
:102AA0008095982F0E9463309B01AC016091AB0729
:102AB0007091AC078091AD079091AE070E945F2F97
:102AC0000E94303021E0A60186E693E00E94ED17D7
:102AD00060915F0370916003882777FD8095982F40
:102AE0000E9463309B01AC016091AF077091B00709
:102AF0008091B1079091B2070E945F2F0E94303001
:102B00006B017C0120E030E040E450E46091AB07D1
:102B10007091AC078091AD079091AE070E94602F35
:102B20004B015C016091610370916203882777FD1E
:102B30008095982F0E9463309B01AC01C501B401C0
:102B40000E945F2F0E94303021E0A60186E693E0CC
:102B50000E94ED1760915F0370916003882777FDF5
:102B60008095982F0E9463309B01AC016091AF0764
:102B70007091B0078091B1079091B2070E945F2FCA
:102B80000E9430306B017C0120E030E040E450E4F2
:102B90006091AB077091AC078091AD079091AE0743
:102BA0000E945F2F4B015C01609161037091620391
:102BB000882777FD8095982F0E9463309B01AC0198
:102BC000C501B4010E945F2F0E94303021E0A601B0
:102BD00086E693E00E94ED1760915F0370916003B9
:102BE000882777FD8095982F0E9463309B01AC0168
:102BF0006091AF077091B0078091B1079091B207D3
:102C00000E945F2F0E9430306B017C016091610354
:102C100070916203882777FD8095982F0E9463301A
:102C20009B01AC016091AB077091AC078091AD073F
:102C30009091AE070E945F2F0E94303001E021E0AA
:102C4000A60186E693E00E94491A36C0B80188279B
:102C500077FD8095982F0E9463309B01AC016091B5
:102C6000AF077091B0078091B1079091B2070E94B1
:102C70005F2F0E9430304B015C01B301882777FD44
:102C80008095982F0E9463309B01AC016091AB0747
:102C90007091AC078091AD079091AE070E945F2FB5
:102CA0000E943030EE24E39400915B0322E0A40103
:102CB00086E693E00E94BB1A86E693E02E960FB656
:102CC000F894DEBF0FBECDBFDF91CF911F910F9162
:102CD000FF90EF90DF90CF90BF90AF909F908F903C
:102CE0007F906F905F904F903F902F900C94481E74
:102CF00081E0809304010C94960B109265030C9470
:102D0000990B82EC91E00E947A3280916403809367
:102D10005401A5C92E960FB6F894DEBF0FBECDBFE5
:102D2000DF91CF911F910F91FF90EF90DF90CF90A7
:102D3000BF90AF909F908F907F906F905F904F90DB
:102D40003F902F90089586E693E00C94DD16CF9384
:102D5000CFB7F89480918007811127C0E3E4F3E1B5
:102D60008491E4E2F3E19491E82FF0E0EE0FFF1F8D
:102D7000E15AFC4EA591B4918C91892321F461E034
:102D800081E10E94C62661E081E10E948D268CB51A
:102D900080618CBD8CB580648CBD61E08FE00E9449
:102DA0008D2661E080E10E948D26809180078F5FF3
:102DB00080938007CFBFCF910895CF93DF93EC012D
:102DC00080E491E0998388831B821A82CE010E945D
:102DD000622187E291E0998388838CE38E8380E18E
:102DE000898718861F821E861F86188A198A1A8A62
:102DF000FE01EC5EFB4F118210823296118210822E
:102E0000C85EDB4F81E08883DF91CF910895CF9337
:102E1000DF93EC010E9495210E9465228078803822
:102E200049F40E9433222FEF4FEF6FEFCE010E9443
:102E30003F22FFCF249665E0CE010E942B1F6DE05C
:102E4000CE010E942B1FDF91CF910C94811EFC01BB
:102E5000668370E088EE93E00E9492316187089566
:102E600070E0FC01878190850E947E3121E0892BF2
:102E700009F020E0822F08950F931F93CF93DF93E3
:102E8000EC010E94FA24E62F462F572FBC018A89B5
:102E9000882351F08A859E2F981B9B8B8F81988564
:102EA000019698878F831A8A0E851F85288939890C
:102EB000401751076207730734F40E1B023008F104
:102EC0000E9418221EC089850A851B852C853D8598
:102ED000080F111D211D311D04171507260737077F
:102EE0002CF00E871F87288B398B04C04E875F8795
:102EF000688B798B4A875B876C877D8781E08A8BBB
:102F000001C080E0DF91CF911F910F910895FC01E6
:102F1000838924E6829FC0011124618570E00E94AC
:102F20009231CB01089560937C00673C19F480E2F4
:102F300080937B0062E070E080E090E00E942925B1
:102F400080917A00806480937A0080917A0086FD77
:102F5000FCCF80917800909179000895CF92DF9214
:102F6000EF92FF92CF93DF937C01C4E6D0E088819B
:102F70008E7F888367ECC7010E9493176C016EE512
:102F8000C7010E9493177C010E9406259B01AC019A
:102F9000E094F094C094D094EC9CD001ED9CB00DE2
:102FA000FC9CB00D112420953095409550950E94C1
:102FB000FC316B017C010E9406256C0D7D1D8E1D70
:102FC0009F1D0E946B2D888181608883DF91CF9146
:102FD000FF90EF90DF90CF9008956038710518F55D
:102FE0004034510500F5E42FE695E695E695F0E0CE
:102FF00047705527F695FE2FEE27F795E795E60FD4
:10300000F71FE80FF91F81E090E0042E01C0880F40
:103010000A94EAF7222319F09489982B03C080952B
:1030200094899823948B08952F923F924F925F92A8
:103030006F927F928F929F92AF92BF92CF92DF92C8
:10304000EF92FF920F931F93CF93DF9300D000D0A6
:103050001F92CDB7DEB75C014B013A01802F422FA2
:1030600050E05D834C8344244394512C441A550A08
:103070001A01319421943108220C331CCC24C394BE
:10308000D12C01E010E0382F34703983382F3270A2
:103090003A83382F38703B838170F82EC601019730
:1030A000EC81FD818E179F070CF07CC057FC0BC094
:1030B0004C815D81415051095D834C8352E0250E66
:1030C000311C420C531C0E5F1F4F400E511E3981A4
:1030D0003323B1F02E2D4C815D81460D571DB60175
:1030E000680D791DC5010E94ED172E2DA601460D14
:1030F000571D6C817D81680D791DC5010E94ED17FA
:103100003A813323B9F02E2DA3018C819D81481B78
:10311000590BB601680D791DC5010E94ED172E2DC2
:10312000A3014C195D096C817D81680D791DC50174
:103130000E94ED173B813323B9F02E2DA601460DD9
:10314000571DB4018C819D81681B790BC5010E94BC
:10315000ED172E2D4C815D81460D571DB4016C1964
:103160007D09C5010E94ED17FF20C1F02E2DA3019E
:103170004C195D09B401EC81FD816E1B7F0BC5010B
:103180000E94ED172E2DA3018C819D81481B590BA8
:10319000B4016C197D09C5010E94ED179FEFC91A92
:1031A000D90A7CCF0F900F900F900F900F90DF9166
:1031B000CF911F910F91FF90EF90DF90CF90BF9034
:1031C000AF909F908F907F906F905F904F903F90C7
:1031D0002F9008952F923F924F925F926F927F921D
:1031E0008F929F92AF92BF92CF92DF92EF92FF9217
:1031F0000F931F93CF93DF932C01EB016A015901C9
:103200009801241B350B37FF03C0319521953109F7
:10321000C5018C1B9D0B97FF03C09195819591096A
:10322000FF24F3948217930714F0F12C0AC09A2D0F
:103230008B2D5801092F182F9C2F8D2FE601C92E99
:10324000D82EAC16BD0654F49C2D8D2D6801092F87
:10325000182F9C2F8D2FE501A92EB82E15012C1AA1
:103260003D0A38016C187D0877FE03C071946194A3
:103270007108410137FE03C08FEF881A980A9594B0
:103280008794C016D10614F401E001C00FEF112796
:1032900007FD1095AC16BD06ACF02E2DFF2019F0E1
:1032A000AE01B60102C0A601BE01C2010E94ED1727
:1032B0008618970897FE04C0C00ED11E820C931C7E
:1032C0002196E8CFDF91CF911F910F91FF90EF9062
:1032D000DF90CF90BF90AF909F908F907F906F9036
:1032E0005F904F903F902F900895AF92BF92CF92F2
:1032F000DF92EF92FF920F93CF93DF936C015B010C
:103300007A01E20EF11CEA0157FF0DC0C0E0D0E0E7
:103310000AC0C417D5077CF4202FAE01B501C60141
:103320000E94ED172196A70181E4E816F1048CF3C1
:1033300040E450E0EECFDF91CF910F91FF90EF90FE
:10334000DF90CF90BF90AF9008952F923F924F9211
:103350005F926F927F928F929F92AF92BF92CF9225
:10336000DF92EF92FF920F931F93CF93DF9300D0E2
:103370001F92CDB7DEB74C013B012A011E2D822FD3
:1033800090E09B838A8322242394312C281A390AC3
:103390007C01F194E194F108EE0CFF1CAA24A394A3
:1033A000B12C302F317039831F5F0270D02EC501D0
:1033B0000197EA81FB818E179F070CF054C037FC00
:1033C0000AC08A819B8101979B838A8392E0E90EE0
:1033D000F11C2E0C3F1CC501880F991F0196280E69
:1033E000391E39813323E1F02A81220F210F0C2D60
:1033F000A2018A819B81481B590BB501660D771D7F
:10340000C4010E9475192A2D220F210FA2014A1909
:103410005B096A817B81660D771DC4010E94751965
:10342000DD20E9F02A81220F210F0C2DA201EA8173
:10343000FB814E1B5F0BB3016A197B09C4010E941B
:1034400075192A2D220F210FA2014A195B09B30118
:103450008A819B81681B790BC4010E9475199FEFBB
:10346000A91AB90AA4CF0F900F900F90DF91CF91B6
:103470001F910F91FF90EF90DF90CF90BF90AF9092
:103480009F908F907F906F905F904F903F902F9084
:1034900008958F929F92AF92BF92CF92EF92FF9238
:1034A0000F931F93CF93DF93EC015B014A01122F1F
:1034B000C02E220F2F5F411B51090E947519E12C6C
:1034C000F12C03E0212FA401B501CE010E94A51922
:1034D000DF91CF911F910F91FF90EF90CF90BF9010
:1034E000AF909F908F9008950F934034510508F04E
:1034F00040C030E077FF04C0260F371F60E070E067
:10350000FB01E20FF31FE138F10524F020E830E081
:10351000261B370B1216130664F5FA01A3E0F59586
:10352000E795AA95E1F7F695FE2FEE27F795E79533
:10353000E60FF71F7496E80FF91F4770552781E0D3
:1035400090E001C0880F4A95EAF7482F002349F020
:10355000013079F42E0F2E1761F08081842B819336
:10356000FACF80952E0F2E1721F0908198239193FA
:10357000FACF0F910895AF92BF92CF92DF92EF9260
:10358000FF920F931F93CF93DF93EC015B016A01CE
:10359000F22E102F0E2D0E94741AA601410F511DFC
:1035A000415051092F2DB501CE010E94741A212FCF
:1035B000A601B501CE010E947519B5016F0D711DEF
:1035C00061507109212FA601CE010E947519DF916A
:1035D000CF911F910F91FF90EF90DF90CF90BF9010
:1035E000AF9008954496B62FB111BFEFFC010024AF
:1035F000B193B193B193B1930394D1F7089560E07F
:103600000C94F21A2F923F924F925F926F927F9298
:103610008F929F92AF92BF92CF92DF92EF92FF92E2
:103620000F931F93CF93DF9300D01F92CDB7DEB7D8
:103630009B838A833B014A01D22EF02E1E2DE194FA
:10364000EE0C3E2D320F412E512C5B01A40CB51C0B
:103650000C2D232FB50139830E94741A14012F0CED
:10366000311CA101415051093981232FB5018A81B3
:103670009B810E94741AFE0C840C951C2F2DA401B2
:10368000B3018A819B810E9475196D0C711CB30175
:10369000615071092F2DA4018A819B810E947519A7
:1036A000EC2C01E0212FA401B5018A819B810E94AD
:1036B00014186418750881E0681A710802E0212F57
:1036C000A401B3018A819B810E9414182418350833
:1036D000E1E02E1A310804E0212FA101B3018A8113
:1036E0009B810E94141808E0212FA101B5018A8155
:1036F0009B810E9414180F900F900F90DF91CF9133
:103700001F910F91FF90EF90DF90CF90BF90AF90FF
:103710009F908F907F906F905F904F903F902F90F1
:1037200008952F923F924F925F926F927F928F9265
:103730009F92AF92CF92DF92EF92FF920F931F93DF
:10374000CF93DF9300D000D0CDB7DEB79C838B83BF
:103750001B014A0139012801FA82E982EA2C0E9400
:10376000EA18860129813A81A201B3018B819C81EB
:103770000E94EA1884019101A60169817A818B81F6
:103780009C810E94EA180F900F900F900F90DF918C
:10379000CF911F910F91FF90EF90DF90CF90AF905E
:1037A0009F908F907F906F905F904F903F902F9061
:1037B00008952F923F924F925F926F927F928F92D5
:1037C0009F92AF92BF92CF92DF92EF92FF920F93B0
:1037D0001F93CF93DF9300D000D01F92CDB7DEB7F9
:1037E000C982202E312CFB01E20DF31DF7FD13C120
:1037F000603871050CF00FC1FA01EE0DF11DF7FDF7
:103800000AC1403451050CF006C1DA0157FF04C06B
:10381000AA27BB27A41BB50BFD01E770FF27FB837D
:10382000EA83FA0157FD3796DF01F3E0B595A795D6
:10383000FA95E1F7BD83AC8357FF0CC01197BD83A8
:10384000AC8348E050E0DA01EA81FB81AE1BBF0B9C
:10385000BB83AA834E2D469546954695C42ED12C02
:103860004E2D477019F0FFEFCF1ADF0A49014C8146
:103870005D815695542F442757954795480F591FFA
:103880002C813D81E8E06E2E712C8A819B81681A23
:10389000790AC901AC81BD818A1B9B0B8C159D05E2
:1038A0000CF0B9C02830310509F4B5C02F3F9FEFA7
:1038B00039070CF4A3C0CB0100E010E0DA01A058F6
:1038C000BF4F2D01021513050CF098C080389105EB
:1038D00009F494C097FD8EC02F3FBFEF3B0709F45A
:1038E00094C0D801A80DB91D7A01E80EF91EE9812E
:1038F000E13071F4FD01A491B0E00A8002C0AA0F8A
:10390000BB1F0A94E2F7F701B488AB29A48B28C047
:10391000F981F11114C0FD01A491EA2FF0E00A80B1
:1039200002C0EE0FFF1F0A94E2F7E095F095D70171
:103930005496AC905497B12CEA21FB210FC0FD01A5
:10394000A491EA2FF0E00A8002C0EE0FFF1F0A9454
:10395000E2F7D7015496BC905497EB255496EC931C
:10396000AA81BB81AB2B09F445C02730310509F48E
:1039700041C0F801E80DF91DB981B13089F4E49135
:10398000F0E0062C02C0F595E7950A94E2F7720183
:10399000E80EF91ED7015496BC905497EB2928C025
:1039A000B981B11115C0E491F0E0062C02C0F59583
:1039B000E7950A94E2F7E095F0957201E80EF91E9A
:1039C000D7015496AC905497B12CEA21FB2110C03A
:1039D000E491F0E0062C02C0F595E7950A94E2F731
:1039E0007201E80EF91ED7015496BC905497EB254E
:1039F0005496EC930F5F1F4F019664CF2F5F3F4F9C
:103A0000820C931C40585F4F44CFAA81BB81AB2BE3
:103A100009F0AFCFEFCF0F900F900F900F900F9056
:103A2000DF91CF911F910F91FF90EF90DF90CF909A
:103A3000BF90AF909F908F907F906F905F904F90CE
:103A40003F902F9008952F923F924F925F926F92E6
:103A50007F928F929F92AF92BF92CF92DF92EF921E
:103A6000FF920F931F93CF93DF93CDB7DEB72897C5
:103A70000FB6F894DEBF0FBECDBF9E838D832A01A3
:103A8000603871050CF06DC0403451050CF069C010
:103A9000CB01A5E0CA9E800D911D112418161906B0
:103AA0000CF05FC0EC2DF0E0FC83EB83CA01F8E082
:103AB000CF9E800D911D1124181619060CF051C0CF
:103AC000A5E02A9FC00111245B0118861F828E5534
:103AD0009E4F9A838983BF81B53041F0E981FA8195
:103AE0008F819885E80FF91F149101C010E0320111
:103AF00088E0D82E10FF02C0F02E01C0FE2CF1107D
:103B00000BC0E01209C01695DA94AB81BC816A0E35
:103B10007B1ED110EFCF19C01501822D8A198C158B
:103B200090F74301882D86198C1558F42F2DA40188
:103B3000B1018D819E810E94ED17BFEF8B1A9B0A08
:103B4000F1CFEFEF2E1A3E0AE8CF8F8198850196CC
:103B500098878F83AB81BC81AA0EBB1E069709F0A4
:103B6000BACF28960FB6F894DEBF0FBECDBFDF9157
:103B7000CF911F910F91FF90EF90DF90CF90BF906A
:103B8000AF909F908F907F906F905F904F903F90FD
:103B90002F9008958F929F92AF92BF92CF92EF9203
:103BA0000F93CF93DF93EC01262F6A3099F4FC0139
:103BB000E85EFB4F208132978081918138E0239F1E
:103BC000800D911D112491838083CC5EDB4F19827F
:103BD00018824BC06D3009F448C0FC01EA5EFB4F0F
:103BE000408151815C018CEEA81A8BEFB80AF50177
:103BF000608171814E01F8EE8F1AFBEF9F0AF4018C
:103C0000C080E12C01E0CE010E94231DF40120813F
:103C1000422F50E0F50180819181F6E02F9F800DC9
:103C2000911D1124F50191838083359620812223F3
:103C3000E1F06AEF64039001659F300D1124205874
:103C40003F4F281739078CF4E881F9810190F08102
:103C5000E02D6AE0CE01DF91CF910F91EF90CF90F0
:103C6000BF90AF909F908F900994DF91CF910F916B
:103C7000EF90CF90BF90AF909F908F900895FC01F0
:103C8000EC5EFB4F718360833296518340830895CD
:103C900044960C942322CF93DF931F92CDB7DEB7C7
:103CA00069830E9465226981982F962381E096138B
:103CB00080E00F90DF91CF910895E4E6F0E08081FD
:103CC000877F8083E5E6F0E08081877F808381E0E5
:103CD000809381070895809181070895109281074C
:103CE000E4E6F0E0808188608083E5E6F0E08081B2
:103CF0008860808308956091810782E090E00C9451
:103D00007A3210928E0782E090E00E947232811126
:103D10000C945D1E0895CF92DF92EF92FF921F9355
:103D2000CF93DF9390918F07891708F065C067FDE7
:103D300063C0E82FF0E0EE58F84F1491E62FF0E062
:103D4000603330F4EE5BF84FE491CE2FD0E006C044
:103D5000EE0FFF1FEE5BF94FC591D4916E01E12C80
:103D6000F12C60E074E284EF90E0A70196010E94DC
:103D7000C83121503109410951092115310581E02E
:103D80004807510570F060E970ED83E090E0A7010D
:103D900096010E94C831215031094109510993E02F
:103DA00001C091E01130C9F0133031F580919100DC
:103DB000887F892B809391003093990020939800FD
:103DC000D0938D07C0938C0781E080938B078091FF
:103DD00071008260809371000FC080918100887FA4
:103DE000892B8093810030938900209388008091F3
:103DF0006F00826080936F00DF91CF911F91FF90E1
:103E0000EF90DF90CF900895E82FF0E0EE58F84F54
:103E1000E491E13019F0E33069F0089580916F008A
:103E20008D7F80936F0020919907E0919A07F09120
:103E30009B0708C010928B0720919207E09193078F
:103E4000F0919407808190E030E0209530958223B6
:103E5000932380830895CF93DF93C62F80918F079C
:103E6000823009F46BC0E82FF0E0EE58F84FD4919F
:103E7000A82FB0E0A057B84F6C938F5F80938F0747
:103E800061E08C2F0E948D26D13091F1D33009F062
:103E900055C010929000109291008091910088601E
:103EA00080939100809191008160809391006C2FAC
:103EB00070E0FB01EE5CFC4E249130E0220F331FDA
:103EC0002F5A3C4EF90185919491909394078093D9
:103ED0009307FB01ED5EFC4E6491609392076CE3E7
:103EE00080E00E948B1E80E0DF91CF910C94041F34
:103EF00010928000109281008091810088608093F0
:103F00008100809181008160809381006C2F70E03E
:103F1000FB01EE5CFC4E249130E0220F331F2F5A40
:103F20003C4EF9018591949190939B0780939A0759
:103F3000FB01ED5EFC4E649160939907DF91CF9198
:103F40000895E0918207F0918307BF016F5F7F4F73
:103F50007093830760938207A4919A2F907F8A2F92
:103F60008F70903819F40E94041FEBCF903961F4E0
:103F7000AF014E5F5F4F5093830740938207FB0171
:103F800064910E948B1EDDCF903E49F4809184079E
:103F9000909185079093830780938207D2CF903FBB
:103FA00019F410928E07089597FDCBCFAF014E5FA5
:103FB0005F4F5093830740938207FB016491262F44
:103FC00030E03A2BA0918C07B0918D070E94ED3123
:103FD0006C507E4F8F4F9F4F28EE33E040E050E013
:103FE0000E94A63120938607309387074093880765
:103FF000509389078091860790918707A091880741
:10400000B0918907892B8A2B8B2B61F481E090E09A
:10401000A0E0B0E08093860790938707A09388077D
:10402000B0938907089580918B07882349F0909178
:104030009207E0919307F09194078081892780830C
:1040400080918E07882329F18091860790918707B8
:10405000A0918807B0918907892B8A2B8B2BC9F0F7
:104060008091860790918707A0918807B091890772
:104070000197A109B1098093860790938707A093C0
:104080008807B0938907892B8A2B8B2B11F40C940A
:10409000A11F08954F925F926F927F928F929F928D
:1040A000AF92BF92CF92DF92EF92FF92CF93DF93C6
:1040B000EB0149015A0181E080938A072B01612CB1
:1040C000712C60E072E18AE790E0A30192010E9406
:1040D000C83169017A0181E0C81AD108E108F10804
:1040E000C114D10481E0E806F10488F068E478EEB8
:1040F00081E090E0A30192010E94C83169017A0138
:1041000081E0C81AD108E108F10893E001C091E00C
:1041100080918100887F892B809381008114910494
:10412000A104B10471F0DE01AA0FBB1FA501940127
:104130000E94FC3128EE33E040E050E00E94A631BE
:1041400003C02FEF3FEFA901D0928900C0928800F1
:1041500020939507309396074093970750939807BD
:1041600080916F00826080936F00DF91CF91FF900C
:10417000EF90DF90CF90BF90AF909F908F907F9007
:104180006F905F904F9008951F920F920FB60F920D
:1041900011242F933F938F939F93AF93BF93EF93EC
:1041A000FF9380918A07882309F44BC0809195077B
:1041B00090919607A0919707B0919807892B8A2B29
:1041C0008B2B51F190919907E0919A07F0919B0701
:1041D0008081892780838091950790919607A0918F
:1041E0009707B0919807181619061A061B0694F53A
:1041F0008091950790919607A0919707B0919807A5
:104200000197A109B1098093950790939607A09310
:104210009707B09398071EC010928A0780916F008D
:104220008D7F80936F0020919907E0919A07F0911C
:104230009B07808190E030E0209530958223932386
:1042400008C090919907E0919A07F0919B078081AF
:1042500089278083FF91EF91BF91AF919F918F91BB
:104260003F912F910F900FBE0F901F9018951F92A6
:104270000F920FB60F9211242F933F934F935F939A
:104280006F937F938F939F93AF93BF93EF93FF931E
:104290000E941320FF91EF91BF91AF919F918F9159
:1042A0007F916F915F914F913F912F910F900FBE32
:1042B0000F901F9018958EBD00000DB407FEFDCF26
:1042C0008EB508950895E0919E07F0919F07808133
:1042D00090919C07892B8083E091A007F091A10722
:1042E000908180919D078095892380830895E09136
:1042F000A007F091A107808190919D07892B808371
:10430000E0919E07F0919F07908180919C07809596
:1043100089238083E091A007F091A107908180918B
:104320009D078095892380830895CF93DF930E9412
:10433000A716C1E8D7E0BE01FE01849122966F5F07
:104340007F4FFB016491882319F00E948D26F3CFE3
:1043500061E086E00E94C62661E070E080E090E0C7
:104360000E94292560E086E00E94C6266AE070E08F
:1043700080E090E00E94292561E086E00E94C62648
:10438000EEE3F3E1E491F0E0EE0FFF1FEF5AFC4E95
:10439000859194919093A1078093A007EFE1F3E1B9
:1043A000E491E0939D07E6E3F3E1E491F0E0EE0FA2
:1043B000FF1FEF5AFC4E8591949190939F07809335
:1043C0009E07E7E1F3E1E491E0939C078CB58C7FD5
:1043D0008CBD8DB581608DBD0E947721C4E7D7E08B
:1043E000F7E0C138DF0731F0FE0184910E945B21C4
:1043F0002196F6CF0E9463218091640081608093B2
:104400006400809164008260809364008091640005
:10441000806880936400809164008064809364006D
:1044200080916500816080936500DF91CF91089550
:1044300083B7817F83BF83B7816083BF889583B74C
:104440008E7F83BF089520E030E0FC014191CF01D1
:104450004EBD119C119C119C2F5F3F4F2115F4E024
:104460003F0799F70895CF93DF93C0E0D4E080E051
:104470000E945B212197D9F7DF91CF9108950F9387
:104480001F93CF93DF9300D0CDB7DEB70FEF10E0CF
:10449000C801861B9109BC018AE02A8349830E94D6
:1044A000B9254981B801641B71098BE00E94B925C7
:1044B0002A81B801621B710989E00F900F90DF918A
:1044C000CF911F910F910C94B9258FB14CB123B1AD
:1044D00050E0409550954074552733E055954795E9
:1044E0003A95E1F730E020953095207133273595E6
:1044F000279535952795242B8095807F822B0895CD
:104500008F929F92AF92BF92CF92DF92EF92FF92E3
:104510000F931F93CF93DF93EC018B0160E4C801ED
:104520000E944B1E8823B9F0C880D980EA80FB80A6
:104530002AE939E949E95FE3C701B6010E94C42FBE
:1045400087FF29C02FE832EC45EF5CE3C701B601D5
:104550000E94602F1CC060E2C8010E944B1E88238D
:10456000D1F0C880D980EA80FB802AE939E949E99D
:104570005FEBC701B6010E941331181664F42FE8EF
:1045800032EC45EF5CE3C701B6010E945F2F688300
:1045900079838A839B8360E1C8010E944B1E81114D
:1045A00006C064E0C8010E944B1E882311F120E080
:1045B00030E040E85FEB6C817D818E819F810E94BD
:1045C000C42F87FF08C080E090E0A0E8BFEB8C8399
:1045D0009D83AE83BF832BE734E14EE65FE36881C2
:1045E00079818A819B810E941731688379838A83CC
:1045F0009B8368E0C8010E944B1E8823E1F08885F8
:104600008823C9F020E030E0A90169897A898B8983
:104610009C890E94133187FD05C080E090E0A0E2F4
:10462000B0EC04C080E090E0A0E2B0E48C839D8315
:10463000AE83BF831886C988DA88EB88FC882C8112
:104640003D814E815F81C701B6010E94602F6C835E
:104650007D838E839F832A8D2223D1F09F772DEC3B
:104660003CEC4CE85FEB0E9417314B015C016C8322
:104670007D838E839F8320E030E0A901C701B601CE
:104680000E94133187FD02C081E088871A8E1CC00A
:10469000298D222391F19F772DEC3CEC4CE85FE3D0
:1046A0000E9417314B015C016C837D838E839F8355
:1046B00020E030E0A901C701B6010E94C42F1816FE
:1046C00014F081E08887198EC501B4019F7720E03E
:1046D00030E048E452E40E94173120E030E048EC3A
:1046E00053E40E94602F0E9435302AE030E040E021
:1046F00050E0C80104960E944A20888D8823A9F0C2
:1047000088819981AA81BB81BC01CD019F7720E07E
:1047100030E040EC5FEB0E941731688379838A8335
:104720009B8321E02887188E17C08F89882359F131
:1047300088819981AA81BB81BC01CD019F7720E04E
:1047400030E040EC5FE30E941731688379838A830D
:104750009B8321E028871F8A9F7720E030E048E490
:1047600052E40E94173120E030E048EC53E40E940C
:10477000602F0E9435302AE030E040E050E0C80170
:1047800004960E944A2022E538EB4EE75FE36C81F5
:104790007D818E819F810E9417314B015C016C836A
:1047A0007D838E839F8328E431EE4AE75FE368814F
:1047B00079818A819B810E9417316B017C0168831A
:1047C00079838A839B832DEC3CEC4CE050E4C5015B
:1047D000B4010E94133187FD10C020E030E0A90130
:1047E00069897A898B899C890E94133187FD05C06C
:1047F0008DEC9CECACE0B0E419C02DEC3CEC4CE052
:1048000050ECC501B4010E94C42F18169CF020E0A2
:1048100030E0A90169897A898B899C890E94C42F1B
:10482000181644F08DEC9CECACE0B0EC8C839D83CE
:10483000AE83BF8320E030E040E850E4C701B6011A
:104840000E94133118162CF480E090E0A0E8B0E448
:104850000EC020E030E040E850ECC701B6010E94F5
:10486000C42F87FF08C080E090E0A0E8B0EC888308
:104870009983AA83BB832C813D814E815F816D85A5
:104880007E858F8598890E94602F6D877E878F87B0
:10489000988B288139814A815B8169857A858B85EE
:1048A0009C850E94602F69877A878B879C878D897A
:1048B000811107C08E8981508E8B811102C081E0E9
:1048C0008D8BDF91CF911F910F91FF90EF90DF9033
:1048D000CF90BF90AF909F908F9008950F931F93AC
:1048E000CF93DF93EC018A01882777FD8095982F7D
:1048F0000E94633069877A878B879C87B8018827F5
:1049000077FD8095982F0E9463306D877E878F8713
:10491000988B1C821D821E821F82188219821A8225
:104920001B8218861F8A188E198E1A8E1E8A81E0A5
:104930008D8BDF91CF911F910F9108952FE0FC0196
:10494000268B158A08958AE999E9A9E1BEE3809347
:10495000B3079093B407A093B507B093B607089533
:104960001F920F920FB60F9211242F933F938F93A4
:104970009F93AF93BF938091BE079091BF07A09183
:10498000C007B091C1073091BD0723E0230F2D3739
:1049900020F40196A11DB11D05C026E8230F029643
:1049A000A11DB11D2093BD078093BE079093BF0743
:1049B000A093C007B093C1078091C2079091C3072D
:1049C000A091C407B091C5070196A11DB11D8093A8
:1049D000C2079093C307A093C407B093C507BF91C4
:1049E000AF919F918F913F912F910F900FBE0F909C
:1049F0001F9018952FB7F8946091BE077091BF076C
:104A00008091C0079091C1072FBF08953FB7F894D8
:104A10008091C2079091C307A091C407B091C507C8
:104A200026B5A89B05C02F3F19F00196A11DB11D09
:104A30003FBF6627782F892F9A2F620F711D811D26
:104A4000911D42E0660F771F881F991F4A95D1F785
:104A500008958F929F92AF92BF92CF92DF92EF9282
:104A6000FF926B017C010E9406254B015C01C11481
:104A7000D104E104F104F1F00E94B32D0E94062557
:104A8000681979098A099B09683E73408105910577
:104A900070F321E0C21AD108E108F10888EE880E0F
:104AA00083E0981EA11CB11CC114D104E104F104DF
:104AB00029F7DDCFFF90EF90DF90CF90BF90AF90C0
:104AC0009F908F900895789484B5826084BD84B55A
:104AD000816084BD85B5826085BD85B5816085BDF9
:104AE000EEE6F0E0808181608083E1E8F0E0108212
:104AF000808182608083808181608083E0E8F0E053
:104B0000808181608083E1E9F0E080818260808340
:104B1000808181608083E0E9F0E080818160808332
:104B2000E1ECF0E08081846080838081826080831A
:104B3000808181608083E3ECF0E08081816080830C
:104B4000E0ECF0E0808182608083E2ECF0E0808144
:104B500081608083EAE7F0E08081846080838081E7
:104B6000826080838081816080838081806880838F
:104B700008951F93CF93DF93182FEB0161E00E94FC
:104B80008D26209711F460E004C0CF3FD10539F4A1
:104B900061E0812FDF91CF911F910C94C626E12F08
:104BA000F0E0EC50FD4E449150E0FA013197EF30C7
:104BB000F10508F06CC0EF59FF4F0C94E73184B554
:104BC000806884BDC7BD68C084B5806284BDC8BD2F
:104BD00063C080918000806880938000D0938900BA
:104BE000C093880059C080918000806280938000CB
:104BF000D0938B00C0938A004FC080918000886062
:104C000080938000D0938D00C0938C0045C080912C
:104C10009000806880939000D0939900C093980092
:104C20003BC080919000806280939000D0939B0065
:104C3000C0939A0031C0809190008860809390006A
:104C4000D0939D00C0939C0027C08091C0008068D5
:104C50008093C0008091C0008F7B8093C000C09380
:104C6000CF001AC08091C00080628093C000C093C2
:104C7000D00012C08091C20088608093C2008091F1
:104C8000C2008B7F8093C200C093D20005C0C038A1
:104C9000D1050CF07DCF77CFDF91CF911F91089593
:104CA00090E0FC013197EF30F105B0F5E059FF4F8E
:104CB0000C94E731809180008F7703C08091800051
:104CC0008F7D80938000089580918000877FF9CF49
:104CD00084B58F7702C084B58F7D84BD089580919F
:104CE00090008F7707C0809190008F7D03C08091E6
:104CF0009000877F8093900008958091C0008F7707
:104D000003C08091C0008F7D8093C0000895809182
:104D1000C200877F8093C2000895CF93DF9390E015
:104D2000FC01ED5EFC4E2491FC01EE5CFC4E849196
:104D3000882349F190E0880F991FFC01E15AFC4E4D
:104D4000A591B4918F5A9C4EFC01C591D4919FB707
:104D5000611108C0F8948C91209582238C938881EE
:104D600082230AC0623051F4F8948C91322F30952E
:104D700083238C938881822B888304C0F8948C9140
:104D8000822B8C939FBFDF91CF9108950F931F9338
:104D9000CF93DF931F92CDB7DEB7282F30E0F90114
:104DA000EC50FD4E8491F901ED5EFC4E1491F90139
:104DB000EE5CFC4E04910023C9F0882321F0698346
:104DC0000E9450266981E02FF0E0EE0FFF1FEF5A9E
:104DD000FC4EA591B4919FB7F8948C91611103C0DA
:104DE0001095812301C0812B8C939FBF0F90DF9181
:104DF000CF911F910F91089508950E9463250E94FD
:104E0000FC2686EC97E00E944E2D0E94190BC0E014
:104E1000D0E00E94360B2097E1F30E940000F9CF0A
:104E2000CF92DF92EF92FF920F931F93CF93DF9376
:104E30007C016A01EB0100E010E00C151D0571F02A
:104E40006991D701ED91FC910190F081E02DC701AE
:104E50000995892B19F00F5F1F4FEFCFC801DF9124
:104E6000CF911F910F91FF90EF90DF90CF90089519
:104E70006115710581F0DB010D900020E9F7AD01AE
:104E800041505109461B570BDC01ED91FC9102800A
:104E9000F381E02D099480E090E00895EF92FF9275
:104EA0000F931F93CF93DF938C017B01C0E0D0E081
:104EB000F701EC0FFD1F6491662359F0F801A08102
:104EC000B181ED91FC91C8010995892B11F02196D2
:104ED000EFCFCE01DF91CF911F910F91FF90EF9017
:104EE00008950C943827DC01ED91FC910190F0813C
:104EF000E02D09948F929F92AF92BF92DF92EF9232
:104F0000FF920F931F93CF93DF93CDB7DEB7A19797
:104F10000FB6F894DEBF0FBECDBF7C01F42FD52EA7
:104F2000CB0119A2223008F42AE08E010F5D1F4F39
:104F3000822E912CA12CB12C6F2F7D2DA5019401D7
:104F40000E94A631F22FD32ECA01015011096A30F6
:104F500014F4E0E301C0E7E3E60FD801EC93232B60
:104F6000242B252B49F7B801C7010E943827A196A9
:104F70000FB6F894DEBF0FBECDBFDF91CF911F916A
:104F80000F91FF90EF90DF90BF90AF909F908F9028
:104F90000895CF92DF92EF92FF920F931F93CF93DA
:104FA000DF93EC016A017B012115310579F4E88179
:104FB000F9810190F081E02D642FDF91CF911F9155
:104FC0000F91FF90EF90DF90CF9009942A30310538
:104FD000E9F477FF1AC06DE20E9473278C01442721
:104FE0005527BA014C195D096E097F092AE0CE01E7
:104FF0000E947A27800F911FDF91CF911F910F910F
:10500000FF90EF90DF90CF9008952AE0B701A601BE
:10501000CE01DF91CF911F910F91FF90EF90DF9024
:10502000CF900C947A279A01AB01662757FD6095C3
:10503000762F0C94C9272115310541F4DC01ED913F
:10504000FC910190F081E02D642F09940C947A2753
:105050009A01462F50E060E070E00C941B284F92BC
:105060005F926F927F928F929F92AF92BF92CF92F8
:10507000DF92EF92FF920F931F93CF93DF93EC0198
:105080006A017B01B22E9A01AB01C701B6010E94F1
:105090007A31882319F06EE271E027C026013701CA
:1050A000E89477F82FEF3FEF4FE75FE7C301B201D6
:1050B0000E947A3181110DC02FEF3FEF4FE75FE77C
:1050C000C301B2010E94C42F18161CF462E371E000
:1050D0000CC02FEF3FEF4FE75FE4C701B6010E941E
:1050E00013311816ACF466E371E0CE01DF91CF9175
:1050F0001F910F91FF90EF90DF90CF90BF90AF90F6
:105100009F908F907F906F905F904F900C94382776
:105110002FEF3FEF4FE75FECC701B6010E94C42FAE
:1051200087FDE1CF20E030E0A901C701B6010E9470
:10513000C42F87FF0AC06DE2CE010E9473278C0145
:10514000F7FAF094F7F8F09402C000E010E0A12C18
:1051500060E070E080E09FE3AB1441F020E030E0DD
:1051600040E251E40E94C82FA394F6CF9B01AC010A
:10517000C701B6010E94602F6B017C010E9435308F
:105180002B013C010E9461309B01AC01C701B601BB
:105190000E945F2F6B017C012AE0B301A201CE01C6
:1051A0000E947A27080F191FBB2039F06AE371E0CB
:1051B000CE010E943827080F191F7B2C772041F160
:1051C00020E030E040E251E4C701B6010E9417310F
:1051D0006B017C010E9430304B01AA2497FCA09403
:1051E000BA2C2AE030E0B501A401CE010E94C92703
:1051F000080F191FC501B4010E9463309B01AC0167
:10520000C701B6010E945F2F6B017C017A94D6CF53
:10521000C801DF91CF911F910F91FF90EF90DF9028
:10522000CF90BF90AF909F908F907F906F905F9046
:105230004F9008950C942F28615030F02091F10088
:10524000FC0120830196F8CF289884E68093CF074D
:1052500008954091CA075091CB072091C80730911B
:10526000C90742175307B4F49091E8009570E1F331
:105270009091E80092FD19C08093F1008091CA07D7
:105280009091CB0701968F739927892B19F48EEF94
:105290008093E8008091CA079091CB070196909384
:1052A000CB078093CA0781E0089580E00895CF92EC
:1052B000DF92EF92FF920F931F93CF93DF931F9292
:1052C000CDB7DEB7082F162FF42E862F880F8E5FEE
:1052D00099830E94292983E00E942929E02EC02E6B
:1052E0009981D92E8C2D8E19811798F4F601F7FE2D
:1052F00002C0849101C080810E942929082F80E08A
:105300000E9429298023FFEFCF1ADF0A8111EACFFB
:1053100001C081E00F90DF91CF911F910F91FF901D
:10532000EF90DF90CF9008958091D70081608093B7
:10533000D70080EA8093D80089B5806189BD89B59E
:10534000826089BD09B400FEFDCF61E070E080E0BD
:1053500090E00E9429258091D8008F7C8061809305
:10536000D8008091E000807F8093E0000895CF9383
:10537000DF931F92CDB7DEB71982CE0101960E944E
:10538000132E0E944B2FBE016F5F7F4F0E94C42ED1
:1053900089810F90DF91CF9108952FB7FC01208371
:1053A000F89467706093E9000895CF93DF931F929C
:1053B000CDB7DEB7682FCE0101960E94CD2980912E
:1053C000F20099819FBF0F90DF91CF910895FF92D6
:1053D0000F931F93CF93DF9300D0CDB7DEB7F62E98
:1053E0008A019091CE07992311F057FF03C08FEFE8
:1053F0009FEF2BC0682FCE0101967A830E94CD29A2
:105400008091F20090E0A8017A81801791070CF456
:10541000AC01EF2DF72FF40E84E6FE1639F0289834
:105420008093CF079091F1009193F7CF41155105EB
:1054300021F08091F200882321F089818FBFCA0179
:1054400004C08BE68093E800F8CF0F900F90DF91B7
:10545000CF911F910F91FF900895CF93DF931F92EB
:10546000CDB7DEB741E050E0BE016F5F7F4F0E94D5
:10547000E729019719F4898190E002C08FEF9FEF2F
:105480000F90DF91CF910895CF93DF931F92CDB707
:10549000DEB7682FCE0101960E94CD299091E800D9
:1054A000892F807295FF04C09091F20080E4891BDF
:1054B00099819FBF0F90DF91CF9108956F927F9256
:1054C0008F929F92AF92BF92CF92DF92EF92FF9214
:1054D0000F931F93CF93DF931F92CDB7DEB7782E34
:1054E0007B01C42EB52E8091CE07882369F0042F4E
:1054F000152F8AEFD82E872D8072982E9AE3A92E29
:10550000872D8074882E11C08FEF9FEF57C0872D95
:105510000E94442A682E81110CC0DA94A9F361E03C
:1055200070E080E090E00E9429250115110579F7CF
:105530003BC0282F30E0021713070CF4602E672DB4
:10554000CE0101960E94CD298091E80085FF29C0F7
:10555000262D30E0021B130B992039F06A948FEF4F
:105560006816B1F01092F100F9CFF701862D77FEA1
:1055700007C0815058F094919093F1003196F9CF83
:10558000815020F091919093F100FACFE20EF31E3A
:105590008091E80085FF0FC00115110511F48110FD
:1055A0000AC089818FBFC1CF5D9884E68093D00700
:1055B0008C2D9B2D03C0A092E800F3CF0F90DF91BC
:1055C000CF911F910F91FF90EF90DF90CF90BF9000
:1055D000AF909F908F907F906F9008951092E90008
:1055E0001092CB071092CA079093C9078093C807FF
:1055F0000895CF92DF92FF920F931F93CF93DF9383
:1056000000D0CDB7DEB7F82E8A016B010115110568
:10561000B1F0F601F7FE02C0849101C08081498398
:105620005A830E94292901501109FFEFCF1ADF0A7E
:1056300049815A818111EACF8FEF9FEF01C0CA01E2
:105640000F900F90DF91CF911F910F91FF90DF90FE
:10565000CF900895BF92CF92DF92EF92FF920F9377
:105660001F93CF93DF936C018B01EB013BEFB32EC4
:105670002097C1F07E01C134D1051CF020E4E22E58
:10568000F12C8091E80082FFFCCFC8018C1B9D0BA0
:105690006E2D8C0D9D1D0E941C29B092E800CE1924
:1056A000DF09E6CFC801DF91CF911F910F91FF90E5
:1056B000EF90DF90CF90BF9008951F920F920FB69A
:1056C0000F921124DF92EF92FF920F931F932F936B
:1056D0003F934F935F936F937F938F939F93AF937A
:1056E000BF93EF93FF93CF93DF93CDB7DEB76C9764
:1056F000DEBFCDBF1092E9008091E80083FF23C197
:1057000068E0CE0145960E941C2982EF8093E80054
:105710003D8937FF05C08091E80080FFFCCF03C0C2
:105720008EEF8093E800832F807609F0F0C02E89F9
:105730004F89D88C21110CC0303829F48091CD07C5
:105740008093F10002C01092F1001092F100F4C0B9
:10575000842F90E09D29213049F43111EDC001974B
:1057600009F0EAC08091CD078D7F0AC0233059F43B
:105770003111E2C0019709F0DFC08091CD0782604E
:105780008093CD07D9C0253041F48091E80080FF97
:10579000FCCF40684093E300CFC0263009F08DC0B5
:1057A000EB8CFC8C22E0D2122CC080E090E00E94B6
:1057B000EE2A0E94B72999E08E010F5F1F4FF80172
:1057C000292F11922A95E9F79983DA8291E09E8335
:1057D00090EA98879AEF99872091CA073091CB0772
:1057E000275F3F4F3C832B838D83C7010E94EE2AA6
:1057F00049E050E0B80180E00E94F92A0E94B729F0
:105800009BC0C7010E94EE2A0E944B2FBE016B5E17
:105810007F4F0E94ED2E009719F00CF08DC090C0C4
:1058200081E0D8120EC08B8D9C8D089719F481E011
:105830008093C7078091C70781112FC06FE773E17D
:1058400031C0E3E0DE127CC08F89882349F18230C9
:1058500029F440E867E08DE993E11CC0813029F428
:1058600040E86BE081E993E115C0833009F068C03E
:105870000E944B2F8E010F5F1F4FB8010E940C2F0B
:10588000F80101900020E9F73197E01BF10B40E0AF
:105890006E2FC8010E9457294DC06DE673E102C00A
:1058A00065EA73E16115710509F44AC0FB01449191
:1058B00050E080E80E94F92A3FC0273009F440C038
:1058C000283021F481E08093F10036C02930A1F521
:1058D0003370B1F5E7E0F1E081E021E036E390815B
:1058E000992361F08093E9002093EB0091919093CC
:1058F000EC003093ED008F5F873089F78EE780935F
:10590000EA001092EA008F898093CE0715C08B8D34
:105910009C8D0E94EE2A898D811105C0CE0145968D
:105920000E941E2E07C00E944B2FBE016B5E7F4F50
:105930000E942B2F882321F08EEF8093E80003C074
:1059400081E28093EB006C960FB6F894DEBF0FBE39
:10595000CDBFDF91CF91FF91EF91BF91AF919F911B
:105960008F917F916F915F914F913F912F911F91F7
:105970000F91FF90EF90DF900F900FBE0F901F9050
:1059800018958093E9008091F200882319F08AE34A
:105990008093E80008951F920F920FB60F92112482
:1059A0002F933F934F935F936F937F938F939F9327
:1059B000AF93BF93CF93EF93FF93C091E10080919A
:1059C000E100837F8093E1008093E100C3FF0FC07B
:1059D0001092E90081E08093EB001092EC0082E3EA
:1059E0008093ED001092CE0788E08093F000C2FF14
:1059F00019C083E00E94C12C8091D007882339F020
:105A00008091D00781508093D007882389F18091BD
:105A1000CF07882339F08091CF0781508093CF073B
:105A2000882341F1C4FF10C08091E2008E7E816026
:105A30008093E2008091E1008F7E8093E10080916D
:105A4000CC078E7E806111C0C0FF16C08091E2003D
:105A50008E7E80618093E2008091E1008E7E809353
:105A6000E1008091CC078E7E81608093CC0704C0DA
:105A70005D9ACDCF289AD6CFFF91EF91CF91BF916C
:105A8000AF919F918F917F916F915F914F913F91D6
:105A90002F910F900FBE0F901F9018951092CE0768
:105AA0001092CD071092CC070E9494298091E100BA
:105AB0008E7E8093E1008DE08093E200559A209ADB
:105AC000EEEFFFE7859194918B3F9C4D19F481E0B7
:105AD000809321080895611571058105910511F0E4
