:100000000C94C70B0C94EF0B0C94EF0B0C94EF0BB0
:100010000C94EF0B0C94EF0B0C94EF0B0C94EF0B78
:100020000C94EF0B0C94EF0B0C94B22A0C94442913
:100030000C94EF0B0C94EF0B0C94EF0B0C94EF0B58
:100040000C94EF0B0C9488200C94EF0B0C94EF0B9A
:100050000C94EF0B0C94EF0B0C94EF0B0C947B2493
:100060000C94EF0B0C94EF0B0C94EF0B0C94EF0B28
:100070000C94EF0B0C94EF0B0C94EF0B0C94EF0B18
:100080000C94FB200C94EF0B0C94EF0B0C94EF0BE7
:100090000C94EF0B0C94EF0B0C94EF0B0C94EF0BF8
:1000A0000C94EF0B0C94EF0B0C94EF0B030C120C55
:1000B000210C300C3F0C4E0C5E0C6D0C7E0C8E0C2B
:1000C0009E0CAA25AF25B425BE25C82512261226CA
:1000D0001226D225DC25E625F025FD25122605264B
:1000E00033263626252629262F26572657265726F5
:1000F0003A263E26422648264C26572652260000FF
:100100000000003E5B4F5B3E3E6B4F6B3E1C3E7CF7
:100110003E1C183C7E3C181C577D571C1C5E7F5EA5
:100120001C00183C1800FFE7C3E7FF001824180064
:10013000FFE7DBE7FF30483A060E262979292640FB
:100140007F050507407F05253F5A3CE73C5A7F3E27
:100150001C1C08081C1C3E7F14227F22145F5F00B9
:100160005F5F06097F017F006689956A6060606055
:100170006094A2FFA29408047E040810207E201040
:1001800008082A1C08081C2A08081E101010100C49
:100190001E0C1E0C30383E3830060E3E0E06000097
:1001A00000000000005F00000007000700147F143B
:1001B0007F14242A7F2A12231308646236495620AA
:1001C000500008070300001C2241000041221C00CF
:1001D0002A1C7F1C2A08083E08080080703000088E
:1001E00008080808000060600020100804023E5162
:1001F00049453E00427F40007249494946214149F4
:100200004D331814127F1027454545393C4A49495A
:100210003141211109073649494936464949291EC4
:1002200000001400000040340000000814224114B3
:1002300014141414004122140802015909063E4105
:100240005D594E7C1211127C7F494949363E41412D
:1002500041227F4141413E7F494949417F09090986
:10026000013E414151737F0808087F00417F4100F2
:100270002040413F017F081422417F404040407FA1
:10028000021C027F7F0408107F3E4141413E7F09EE
:100290000909063E4151215E7F091929462649492F
:1002A000493203017F01033F4040403F1F2040206F
:1002B0001F3F4038403F631408146303047804036D
:1002C0006159494D43007F4141410204081020001B
:1002D0004141417F0402010204404040404000038C
:1002E00007080020545478407F2844443838444458
:1002F0004428384444287F385454541800087E0950
:100300000218A4A49C787F0804047800447D40006F
:100310002040403D007F1028440000417F40007C89
:10032000047804787C080404783844444438FC1881
:1003300024241818242418FC7C0804040848545465
:10034000542404043F44243C4040207C1C20402092
:100350001C3C4030403C44281028444C9090907CF9
:100360004464544C4400083641000000770000000B
:100370004136080002010204023C2623263C1EA14D
:10038000A161123A4040207A3854545559215555AC
:10039000794121545478412155547840205455795D
:1003A000400C1E52721239555555593954545459EE
:1003B00039555454580000457C410002457D4200A7
:1003C00001457C40F0292429F0F0282528F07C54B0
:1003D0005545002054547C547C0A097F49324949D0
:1003E00049323248484832324A4848303A4141213D
:1003F0007A3A42402078009DA0A07D394444443997
:100400003D4040403D3C24FF2424487E4943662B28
:100410002FFC2F2BFF0929F620C0887E09032054CA
:100420005479410000447D413048484A32384040C8
:10043000227A007A0A0A727D0D19317D2629292F28
:1004400028262929292630484D4020380808080840
:1004500008080808382F10C8ACBA2F102834FA0042
:10046000007B000008142A142222142A1408950084
:10047000220095AA005500AAAA55AA55AA00000074
:10048000FF00101010FF00141414FF001010FF00E4
:10049000FF1010F010F0141414FC001414F700FFF7
:1004A0000000FF00FF1414F404FC141417101F10B4
:1004B000101F101F1414141F00101010F000000063
:1004C000001F101010101F10101010F0100000006E
:1004D000FF101010101010101010FF10000000FF7F
:1004E000140000FF00FF00001F10170000FC04F4C0
:1004F00014141710171414F404F40000FF00F71478
:10050000141414141414F700F714141417141010FE
:100510001F101F141414F4141010F010F000001F1A
:10052000101F0000001F14000000FC140000F01059
:10053000F01010FF10FF141414FF141010101F00FF
:10054000000000F010FFFFFFFFFFF0F0F0F0F0FF01
:10055000FFFF0000000000FFFF0F0F0F0F0F3844D8
:100560004438447C2A2A3E147E02020606027E0299
:100570007E0263554941633844443C04407E201E5A
:100580002006027E020299A5E7A5991C2A492A1C89
:100590004C7201724C304A4D4D303048784830BC76
:1005A000625A463D3E494949007E0101017E2A2AA0
:1005B0002A2A2A44445F444440514A444040444A21
:1005C00051400000FF0103E080FF000008086B6B52
:1005D000083612362436060F090F060000181800D8
:1005E00000001010003040FF0101001F01011E003B
:1005F000191D1712003C3C3C3C00000000000601A5
:100600001501260137014A015D01720188019F0130
:10061000B801D201EE010B022A024B026E029302D4
:10062000BA02E40210033F037003A403DC031704BF
:1006300055049704DD0427057505C80520067D06C9
:10064000E0064907B8072D08A9082D09B9094D0A80
:10065000EA0A900B400CFA0CC00D910E6F0F5A1065
:1006600053115B1272139A14D41520178018F519C0
:10067000801B231DDE1EB420A622B524E4263429C7
:10068000A72B402E0031EA330037453ABC3D684184
:100690004C456B49C84D68524F57805C0062101141
:1006A0001213151617181A1C1D1F21232527292C74
:1006B0002E3134373A3E4145494E52575C62686E9E
:1006C000757B838B939CA5AFB9C4D0DCE9F703019C
:1006D000D5F08D14A1C881CFD9F1AF200014021339
:1006E00002120215020702080204010C01060100B1
:1006F00000004000440400000000000440004000EE
:100700000000044000000020FF04A000400020FF83
:1007100004A000000080FE04A000400080FE04A0B1
:1007200000000000FE044000400000FE0440000005
:1007300000FCFD4404001D0014FF0A1902190010FA
:10074000FF1221005AFFE8FF100406190010FF12E3
:1007500021004C011C00100406190010FF1221009A
:100760003BFF6CFE100406190010FF122100EE0082
:100770006CFE1004061A003C001004081A0000FE6B
:100780001004084CFF0000B404004CFFBCFFB4048C
:1007900000E0FFF7FF040801E0FFC0FF04080BC002
:1007A000FFE7FF0A1900C0FFC0FF0A1900A0FFC938
:1007B000FF0A2E0080FFF7FF0B090080FFC0FF0B30
:1007C000090084FFEEFF04080184FFC9FF04080B41
:1007D0004CFFC0FF0440005AFFECFF10140044001F
:1007E0000000A004004400BCFF20040064009CFF43
:1007F0008004006400A0FF042000E000A0FF0420AB
:1008000000AE00A0FF323C00C200FCFF100406E472
:10081000002000800400E40000000420006001C00B
:10082000FF0460002E01E4FF323C004C01E0FF10A9
:100830000406E400BCFF800400E0FF80FE2004000A
:10084000E0FF3CFE200400DCFF80FE044000DCFFF3
:1008500000FE04400018FFC0FEC8040018FFFCFDA5
:10086000C8040018FF00FE04C000B6FF9DFE0F0480
:1008700000B6FF1FFE0F04008DFF7FFE0F04008DEA
:10088000FF3DFE0F040064FF5FFE0F04003BFF709E
:10089000FE1004003BFF4CFE100400440080FE20CC
:1008A000040044003CFE200400640080FE0440007C
:1008B000640000FE0440006400C0FE800400640088
:1008C000FCFD800400E00000FE045000E00070FE2B
:1008D000045000E40070FE200400E4004CFE2004FC
:1008E0000004014CFE042800CC000CFE04A80064A7
:1008F0000060FE6804003000ECFF0A1402280000CB
:10090000001804000000E8FF40040000004000FF61
:1009100004000000E8FF0458004000A0FF0480002D
:100920008000E4FF045C00FF0040008F04006200D0
:1009300020001E0400780017000408017400240041
:1009400004080B440000001E04004900F7FF0408DF
:10095000014D00040004080B6200E0FFBC040078B5
:1009600000CCFF1414004800BCFF1004067400E41F
:10097000FF04080B4400C0FF1E040040009CFF441D
:1009800004008000A0FF042C000001E4FF044800E4
:100990008400C8FF200400A400A8FF042400A800CD
:1009A000A8FF580400AC00ACFF04080BB600ACFF75
:1009B00004080BCD00D7FF040801D700D7FF0408B7
:1009C00001EE00ACFF04080BF800ACFF04080B00BC
:1009D00001A8FF0420000401C4FF4004004401A654
:1009E000FF0462003D01C8FF04080B1701E4FF0487
:1009F000080B260108004604002A010C0004080B1D
:100A000064012C001414008C003C00100406440106
:100A10002C000214036C01C4FF046800C00008002D
:100A2000043800C100FFFF040801C40028001E04B0
:100A300000A20028001E0400E20008001E0400843A
:100A40000008001E04008A01A6FF049A004801A6BF
:100A5000FF420400520104001004085A00ACFF02D7
:100A600014030000300028040028001C00041800B3
:100A7000280018002804005000040004180050004A
:100A800000002804005000F6FF0A0A007800ECFF7E
:100A90000418007800E8FF2804007C00E0FF040848
:100AA00001A000D4FF041800A000D0FF280400A07B
:100AB0000062FF045F00B400BCFF021403C800BC66
:100AC000FF041800C800B8FF280400C6004AFF0B46
:100AD0005500CA009FFF04080BF000A4FF04180093
:100AE000F000A0FF280400F0008CFF14140018018F
:100AF0008CFF041800180188FF280400400174FFCF
:100B0000041800400170FF0A040068015CFF04182B
:100B100000680158FF2804007C0144FF0214039080
:100B20000144FF041800900140FF2804009C013894
:100B3000FF040801B20138FF040801B8012CFF04CA
:100B40001800B80128FF280400C40120FF04080190
:100B5000E00114FF041800E00110FF28040008025F
:100B6000DAFE041E00F4010CFF1004060802FCFE6D
:100B70000418000802F8FE280400F4010CFF100419
:100B8000063002E4FE0418003002E0FE28040044AF
:100B900002C7FE0A190200004000800400FCFF00AA
:100BA00000044400000000005404007C00C0FF0466
:100BB00080005400C0FF04806462003C0010040701
:100BC000780040FF048400580040FF048400740053
:100BD000C0FE0484005C0098FE04AC007800C0FEF7
:100BE000A80400600098FE9E0400D000B1FE0F0F24
:100BF0000020010CFE04B800FE000CFE0490000270
:100C00000189FE1E1E000C01BCFE100406240154C6
:100C1000FD04BC00FA0054FD04BC00C80054FD32C1
:100C20000400280154FD320400C8001CFD043800F3
:100C300056011CFD04380082001CFD4604008200A1
:100C4000F4FC0428008200F0FC6E0400F000F0FCCC
:100C5000044600F40032FD3A04002E01F0FC044684
:100C6000003201F0FC8204000C0136FD0C0C00CCBB
:100C70000016FD242400400150FD10040632011628
:100C8000FD2424008C0018FD100406500088FF0885
:100C900004008000CCFF080400780006FF08040070
:100CA000F60036FE0804002801DAFD0804002801D9
:100CB00076FD080400F200A8FD0804005A011CFD9E
:100CC00028040082011CFD04AC00B001F4FC04D433
:100CD000008601C4FD04AC00AC01C4FD04AC008A74
:100CE000016CFE04AC00A8016CFE04AC008E011483
:100CF000FF04AC00A40114FF04AC009601A3FF0A9A
:100D00001902CEFF4000690400ECFF10000430001F
:100D1000F6FF3C001004063300100004300083FF8F
:100D20000C00B40400CEFF440004400001FF840026
:100D3000D1040065FF440004400083FF10000474E8
:100D4000646EFF80001004071FFF0000044A00E3E8
:100D5000FE440004400001FF800010046AEDFE80A4
:100D60000010040702FE8400FF04005FFE6B000A0F
:100D7000196634FE680010046BACFE500010046B62
:100D80000CFE740010046B5CFE5C0010046B84FEAF
:100D9000680010046B0CFE500010046BACFE740075
:100DA00010040702FE000004840000004000FF045D
:100DB0000000000000FF040000000400043C0042AA
:100DC00000080004080B420033000408013E000440
:100DD000000B04003E003C000B040082000C0004E9
:100DE000080B82002F000408017E0004000B08009D
:100DF0007E0038000B0800C200080004080BC20087
:100E00002B00040801BE0004000B0400BE003400E7
:100E10000B0C00F0002C000214032201400014040B
:100E2000004201080004080B420133000408014C91
:100E300001080004080B4C0133000408015E012C7A
:100E4000001404007E01F4FF04080B7E011F00045F
:100E500008018801F4FF04080B88011F0004080141
:100E60009A01AF00820400F4019B00021403FE010A
:100E70008200A10400FE01BE00A104000202B6002F
:100E80002C080F020286002C08103402B6002C0831
:100E90000F340286002C08106602B6002C080F667C
:100EA0000286002C08109802B600040801980286F9
:100EB0000004080B2D02A0001E04005802AF001E03
:100EC00004007B029B001E04009402AF006004003B
:100ED000BC029B0002140309039B0004080B0503DA
:100EE00069000B32002003AF001E04002F039600A0
:100EF0000A190200004000FF040000000000044046
:100F00000042003800040801820038000408018C07
:100F100000380004080196003800040801D60038A3
:100F200000040801E0003800040801F9003800045A
:100F3000080103013800040801FE004000C004005D
:100F4000390138002C080F6B0138000408014D01ED
:100F50002C000E040089012C00021403BE01400085
:100F6000040E00BE014E00400400FA014000040ED1
:100F700000C4014600040801D0014600040801DC59
:100F8000014600040801E8014600040801F4014696
:100F900000040801FE014000C804000A0238002CC9
:100FA000080F770238000408017D0236000B0A00A2
:100FB00081022E0004080187022C000B0A00870220
:100FC00036000B0A008B022400040801910236004F
:100FD0000B0A0095022E000408019F023800040845
:100FE00001B20227000A190200004000FF0400FCC1
:100FF000FFE0FF046400400031000F0F006000E0DC
:10100000FF0F5100A0002C00141400C000E0FF0FDF
:101010005600FE002C00021403FF004000FF0400F5
:101020002E0137000408014601E0FF0B50006C015F
:1010300031000F0F008A01260004080B8601E0FF33
:101040000B4600AE013700040801CA01260004085F
:101050000BC601E0FF0B4600EA0127000A1902FE59
:1010600001E0FF04640000004000E00400400028AC
:1010700000200400600010001E04008000F4FF1C2B
:101080000400A000DCFFE00400E000C4FF14040042
:101090000001ACFF120400200194FF100400400185
:1010A0007CFF800400600164FF14040080014CFF99
:1010B000120400600134FF10040080011CFF400492
:1010C000009A0103FF0A1902ACFF4000940400409B
:1010D000001C0004280000001C00400400E0FF1C6D
:1010E00000200E00C0FF1C00201400A0FF1C0020E8
:1010F000180040FF80006C0400ACFF440004400076
:1011000060FF5F002017007CFF3F0004200040FFCD
:10111000400004400040FF3C004004006AFF4600DD
:101120000A1902000040004004003C004400042072
:10113000000000100004300000000C0056040056AF
:10114000000C000420003C006400AA040056002C9F
:101150000064040078005A000A0A009B0055000F42
:101160000F00C80055000F0F00D70055000F0F00EB
:10117000DC004B000A0A00E6004B006404002C016E
:101180002D001E1E004A010F001E1E0068010F00E8
:10119000460400BA001800041800BA0014005004F5
:1011A000000A01E2FF0436000E01E2FFA00400AADB
:1011B00001E6FF0429009601F6FF0A1902C0F03883
:1011C0000C06060303030306060C38F0C0030F1CCD
:1011D000306060C0C0C0C06060301C0F03080C0AE3
:1011E000090909090909090909090A0C0880C0E067
:1011F00030B0B030E0C08078FCFE036B6B87FEFC43
:1012000078070F1F303D3D301F0F0700000103031B
:101210000303010000FFFFFFFF01FDFDFDFDFF01D6
:10122000FDFDFD01FF01FDFDFD01FF01EDEDEDED1A
:10123000FFFFFFFF3F3F3F3F3C3D3D3D3D3F3C3DCE
:101240003D3D3C3F3C3F3F3F3C3F3C3F3F3F3F3FBE
:101250003F3F3FFFFFFFFF01EDEDEDE1FF01FFFF2E
:10126000FFFFFF03DDDDDD03FFF1CF3FCFF1FFFF28
:10127000FFFF3F3F3F3F3C3F3F3F3F3F3C3D3D3D0A
:101280003D3F3C3F3F3F3C3F3F3F3C3F3F3F3F3F79
:101290003F0080C0E0F07078383C1C1C1E0E0E0E23
:1012A0000E070707070707070707070707070707C7
:1012B00007070707070707070707070707070707BE
:1012C00007070707070707070707070707070707AE
:1012D000070707070707070707070707070707079E
:1012E000070707070707070707070707070707078E
:1012F000070707070707070707070707070707077E
:10130000070E0E0E0E1E1C1C3C387870F0E0C080DC
:1013100000FEFFFF03000000000000000282BE820A
:101320008280BE888888BE80BEAA2A2A000000006B
:1013300000000000000000000000000000000000AD
:10134000008080808080000000008080808080009D
:10135000000000808080808080808080808080800D
:10136000800000000080808080808080808080807D
:1013700080800000000000808080808080808080ED
:101380008080808080000000000000000003FFFFDC
:10139000FEFFFFFF0000000000000000FFFF030150
:1013A000F9F989898989F9710183FFFE000000003C
:1013B000000000000000000000000000000000002D
:1013C000FFFF030103FFFF0000FFFF030103FFFF17
:1013D0000000FFFF030101010101010101010103FF
:1013E000FFFF0000FFFF0301010181C1C1C1C1C1B5
:1013F000C1E37F3E0000FFFF030101E1F1B1B1B1A4
:10140000B1B1B13B3F1F0000000000000000FFFF32
:10141000FFFFFFFF0000000000000000FFFF0000D2
:10142000F8F888888888F870070FFDF80000000039
:1014300000000000000000000000000000000000AC
:10144000FFFF0000003F7F60607F3F000000FFFF64
:101450000000FFFF000000FEFF0303FFFE0000008E
:10146000FFFF0000FFFF000000000F1F18181818F2
:101470001838F0E00000FFFF000000387D6D6D6D52
:101480006D6D6FE7E0C00000000000000000FFFF8E
:10149000FFFFFFFF0000000000000000070F0C0C22
:1014A0000C0C0C0C0C0C0C0C0C0E070300000000B8
:1014B000000000000000000000000000000000002C
:1014C000070F0E0C0C0C0C0C0C0C0C0C0C0E0F075C
:1014D0000000070F0E0C0E0F070000070F0E0C0E7A
:1014E0000F070000070F0E0C0C0C0C0C0C0C0C0C56
:1014F0000C0E07030000070F0C0C0C0C0C0C0C0C52
:101500000C0C0C0E0F070000000000000000FFFF95
:10151000FFFFFFFF000000000000000000000000CF
:1015200000000000000000000000000000000000BB
:1015300000000000000000000000000000000000AB
:10154000000000000000000000000000000000009B
:10155000000000000000000000000000000000008B
:10156000000000000000000000000000000000007B
:10157000000000000000000000000000000000006B
:101580000000000000000000000000000000FFFF5D
:10159000FF7FFFFFC000000000000000000000000F
:1015A000000000000000000000000000000000003B
:1015B000000000000000000000000000000000002B
:1015C000000000000000000000000000000000001B
:1015D000000000000000000000000000000000000B
:1015E00000000000000000000000000000000000FB
:1015F00000000000000000000000000000000000EB
:1016000000000000000000000000000000C0FFFF1C
:101610007F000103070F0E1E1C3C38387870707075
:1016200070E0E0E0E0E0E0E0E0E0E0E0E0E0E0E02A
:10163000E0E0E0E0E0E0E0E0E0E0E0E0E0E0E0E0AA
:10164000E0E0E0E0E0E0E0E0E0E0E0E0E0E0E0E09A
:10165000E0E0E0E0E0E0E0E0E0E0E0E0E0E0E0E08A
:10166000E0E0E0E0E0E0E0E0E0E0E0E0E0E0E0E07A
:10167000E0E0E0E0E0E0E0E0E0E0E0E0E0E0E0E06A
:10168000E0707070707838383C1C1E0E0F07030134
:10169000000000000200090F0000030401000C001C
:1016A000000000000000000000000000000000003A
:1016B0000408020110408040102040804080080251
:1016C00004018040201002011080102040402004BE
:1016D00004040404030405020202020403020202D9
:1016E00002060606060606040402020204040000BE
:1016F0000000250028002B002E0031000000000013
:10170000240027002A002D00300012010002EF0201
:101710000140412336800001010203011201000251
:1017200000000040412336800001010203014172A4
:101730006475696E6F204C4C430041726475626F32
:10174000790004030904080B0002020201000904E5
:10175000000001020200000524001001052401011F
:101760000104240206052406000107058103100078
:101770004009040100020A000000070502024000BF
:10178000000705830240000069166E248E2C112488
:101790001FBECFEFDAE0DEBFCDBF11E0A0E0B1E0C9
:1017A000EAE1F0E602C005900D92AE33B107D9F739
:1017B00028E0AEE3B1E001C01D92AB31B207E1F722
:1017C00017E1CEE8D7E104C02297FE010E94642F02
:1017D000C838D107C9F70E94C8260C940B300C9466
:1017E00000001F93CF93DF93182F482F50E0FA018A
:1017F0003197EB30F10508F0C2C0EA5AFF4FC0E064
:10180000D0E00C94622FBE016D5D7E4E47E050E04B
:10181000CE01825C9E4F0E94E42F2796CA39D105E3
:1018200091F79CC0BE0168537F4E47E050E0CE0167
:10183000825C9E4F0E94E42F2796CB35D10591F70D
:101840008FC0BE016A597F4E47E050E0CE01825CF6
:101850009E4F0E94E42F2796C236D10591F782C091
:10186000BE016851704F47E050E0CE01825C9E4F50
:101870000E94E42F2796CE37D10591F775C0BE019F
:101880006D50714F47E050E0CE01825C9E4F0E9448
:10189000E42F2796C53FD10591F768C0BE01665574
:1018A000724F47E050E0CE01825C9E4F0E94E42FD1
:1018B0002796C93481E0D80789F75AC0BE016E5F08
:1018C000724F47E050E0CE01825C9E4F0E94E42FB1
:1018D0002796C83AD10591F74DC0BE016A56744F9C
:1018E00047E050E0CE01825C9E4F0E94E42F279695
:1018F000CC3681E0D80789F794E341C0BE016E5928
:10190000754F47E050E0CE01825C9E4F0E94E42F6D
:101910002796C43381E0D80789F72EC0BE016A50EC
:10192000774F47E050E0CE01825C9E4F0E94E42F4B
:101930002796CC3681E0D80789F7DECFBE0160510B
:10194000794F47E050E0CE01825C9E4F0E94E42F29
:101950002796C63082E0D80789F710C096E10FC0FD
:101960009DE00DC09EE00BC092E109C093E207C06C
:101970009FE205C098E103C09CE201C09AE4909305
:1019800050031093510380E290E090934B038093B7
:101990004A0390934903809348038AE999E9A9E1AE
:1019A000BEE38093A0079093A107A093A207B093F2
:1019B000A307DF91CF911F91089583E593E00E94E3
:1019C000CD166EE183E593E00E94ED1681E00E9462
:1019D000F10B409148035091490360914A03709183
:1019E0004B038FE897E00C9439242F923F924F924B
:1019F0005F926F927F928F929F92AF92BF92CF929F
:101A0000DF92EF92FF920F931F93CF93DF93CDB7A7
:101A1000DEB72E970FB6F894DEBF0FBECDBF83E5BD
:101A200093E00E940217882311F40C94501683E56A
:101A300093E00E94CC1A80910901813009F0ECC03A
:101A400068E083E593E00E940F1E8823F9F08091FF
:101A50005203811137C080910801882341F082E050
:101A60008093090183E593E00E9468170BC00E94F0
:101A70002F1E882319F00E94321E02C00E94211ED0
:101A80000E943F1E81E0809352031CC060E283E508
:101A900093E00E940F1E811109C060E483E593E08A
:101AA0000E940F1E882311F40C9446168091520355
:101AB000811108C08091080191E089278093080175
:101AC000909352032AE939E949E15EE360914403C6
:101AD0007091450380914603909147030E94472DE2
:101AE0004B015C016093440370934503809346036C
:101AF00090934703C0900401D0900501E090060147
:101B0000F090070120E030E040E052E4C701B60168
:101B10000E94922E87FD11C0C501B4019F7727ED69
:101B200033EA40E75FEB0E94962E60934403709384
:101B300045038093460390934703209144033091DB
:101B400045034091460350914703C701B6010E94E7
:101B5000472D6093040170930501809306019093D3
:101B60000701CC24C39490E4E92E00E821E932E196
:101B700040E050E060E070E083E593E00E94A61B47
:101B8000809108018823A1F00EE0E02E0FE123E50B
:101B900032E14FE250E06FE070E083E593E00E94B5
:101BA000A61B8AE0E82E25E132E141E350E015C0B2
:101BB000CC24C394BAE0EB2E0FE123E532E141E3FC
:101BC00050E06FE070E083E593E00E94A61B1EE00A
:101BD000E12E25E132E14FE250E062E570E083E57D
:101BE00093E00E94A61B6091040170910501809111
:101BF0000601909107010E94AF2DCC24C394A0E16F
:101C0000EA2E00E12DEB31E1AB016DE170E083E5FF
:101C100093E00E94A61B68C4823009F009C460E802
:101C200083E593E00E940F1E882319F081E08093E2
:101C3000090163E573E08FE897E00E944B22C090B2
:101C40009C07D0909D07E0909E07F0909F0720E0B2
:101C500030E046E953E4C701B6010E94922E1816FF
:101C6000FCF4409148035091490360914A037091FC
:101C70004B038FE897E00E94392424E431E03C8351
:101C80002B838EE391E09A838983A3E4B1E0BE8342
:101C9000AD83E2E4F1E0F887EF83212C312C49C0D9
:101CA00020E030E04FEA53ECC701B6010E94AB2DB3
:101CB00087FFE3CF809151038830F9F28B3089F6AA
:101CC000DCCFC0909807D0909907E0909A07F090E9
:101CD0009B07A981BA810D90BC91A02DBE87AD87CD
:101CE000CD010597BC01882777FD8095982F0E942C
:101CF000E22D9B01AC01C701B6010E94922E87FF25
:101D00001FC0FFEF2F1A3F0A2B813C81295F3F4FF5
:101D10003C832B8389819A8107969A838983AD813D
:101D2000BE811796BE83AD83EF81F8853796F8871D
:101D3000EF838091500390E02816390614F217C300
:101D4000EF81F88580812D853E85280F311D3A87EA
:101D50002987C9010596BC01882777FD8095982FB2
:101D60000E94E22D9B01AC01C701B6010E94AB2D80
:101D700018163CF280909C0790909D07A0909E07BB
:101D8000B0909F07A981BA8112960D911C9113976B
:101D9000C8010597BC01882777FD8095982F0E9480
:101DA000E22D9B01AC01C501B4010E94922E87FD7A
:101DB000A8CFED81FE8180819801280F311D3C87DD
:101DC0002B87C9010596BC01882777FD8095982F40
:101DD0000E94E22D9B01AC01C501B4010E94AB2D14
:101DE00018160CF48ECFAD85BE85BD01882777FD12
:101DF0008095982F0E94E22D2B013C019B01AC01A4
:101E0000C701B6010E94922E87FD27C1E985FA8598
:101E1000BF01882777FD8095982F0E94E22D9B01B6
:101E2000AC01C701B6010E94AB2D18160CF41DC100
:101E300020E030E040E850E4C501B4010E94472DA5
:101E40002B013C01B801882777FD8095982F0E94CF
:101E5000E22D9B01AC01C301B2010E94922E87FDCD
:101E600004C12B853C85B901882777FD8095982F83
:101E70000E94E22D9B01AC01C301B2010E94AB2D77
:101E800018160CF4F2C0AB81BC811C91153009F41A
:101E900085C038F41330F1F008F040C0123081F002
:101EA0000BC0173009F4A1C008F47FC0183009F442
:101EB000BAC0143609F451C1B1E0B093A9074DC1BD
:101EC000E3E0E093090122E030E0309349032093FE
:101ED000480343C180914A0390914B03AD85BE8571
:101EE0008A179B0709F439C124E630E040E050E04E
:101EF00060EA7FE087E593E00E940E20E981FA81A5
:101F00008081918190934B0380934A0382819381D6
:101F10000C9790934903809348031FC18091A407B5
:101F20008823B9F1C1010196F7E0F89F8001F99F7C
:101F3000100D1124025C1E4FD80114962C91149799
:101F400026958D919C91820F911DBC01882777FD6C
:101F50008095982F0E94E22D6093980770939907BF
:101F600080939A0790939B07F801858186956281FB
:101F70007381680F711D882777FD8095982F0E94C7
:101F8000E22D60939C0770939D0780939E0790932A
:101F90009F078FE897E00E946924DFC08091A40723
:101FA0008823B9F3C1010197BFCFF1E0F093A907EE
:101FB000E3E6AB81BC81EC9324E630E040E050E006
:101FC00060ED77E087E593E00E940E20C101019764
:101FD00027E0289FF001299FF00D1124E25CFE4FBD
:101FE000DF011D922A95E9F7B8C0B1E0B093A907C7
:101FF00023E6EB81FC81208324E630E040E050E0E2
:1020000060ED77E087E593E00E940E20C101019723
:10201000189FF001199FF00D1124E25CFE4F86819C
:10202000845686839AC031E03093A9078091A40733
:10203000882309F4AECFC090A007D090A107E0900C
:10204000A207F090A30720E030E0A901C701B60184
:102050000E94922E87FD9DCF69C0A3019201C70106
:10206000B6010E94922E87FD78C0A985BA85BD0170
:10207000882777FD8095982F0E94E22D9B01AC0167
:10208000C701B6010E94AB2D18160CF466C020E003
:1020900030E040E450E4C501B4010E94462D6B01DC
:1020A0007C01B801882777FD8095982F0E94E22D4A
:1020B0009B01AC01C701B6010E94922E87FD4DC065
:1020C000EB85FC85BF01882777FD8095982F0E94BE
:1020D000E22D9B01AC01C701B6010E94AB2D181681
:1020E000E4F1AB81BC818C919EEF980F9430A8F104
:1020F000843699F1B1E0B093A807883071F58091EA
:10210000A407882309F445CFC090A007D090A10769
:10211000E090A207F090A30720E030E0A901C701FA
:10212000B6010E94AB2D18160CF433CFF7FAF094D9
:10213000F7F8F094C092A007D092A107E092A2070E
:10214000F092A30724E630E040E050E060ED77E055
:1021500087E593E00E940E201CCF40909807509096
:10216000990760909A0770909B0720E030E040E468
:1021700050E4C301B2010E94472D6B017C01E9814B
:10218000FA8100811181B801882777FD8095982F09
:102190000E94E22D4B015C019B01AC01C701B6011D
:1021A0000E94922E87FD59C0AF81B8858C91F801AD
:1021B000E80FF11DBF01882777FD8095982F0E94B9
:1021C000E22D9B01AC01C701B6010E94AB2D181690
:1021D0000CF443C0C0909C07D0909D07E0909E07F0
:1021E000F0909F07A981BA8112960D90BC91A02D05
:1021F000BA87A987BD01882777FD8095982F0E940F
:10220000E22D9B01AC01C701B6010E94922E87FD11
:1022100024C0ED81FE81808169857A85680F711DFA
:10222000882777FD8095982F0E94E22D9B01AC01B5
:10223000C701B6010E94AB2D18167CF0AB81BC81A2
:102240008C919EEF980F943008F468C0843609F49E
:1022500065C0B1E0B093A70761C020E030E040E482
:1022600050E4C301B2010E94462D6B017C01A5011F
:1022700094010E94922E87FD51C0EF81F8858081E4
:10228000080F111DB801882777FD8095982F0E94AF
:10229000E22D9B01AC01C701B6010E94AB2D1816BF
:1022A000ECF1C0909C07D0909D07E0909E07F090C5
:1022B0009F07A981BA8112960D911C911397B801BD
:1022C000882777FD8095982F0E94E22D9B01AC0115
:1022D000C701B6010E94922E87FD20C0ED81FE81CC
:1022E0008081B801680F711D882777FD8095982F30
:1022F0000E94E22D9B01AC01C701B6010E94AB2DEB
:10230000181664F0AB81BC818C919EEF980F9430CD
:1023100028F0843619F0B1E0B093A6078091A807A1
:1023200081110DC08091A907811109C08091A60774
:10233000811105C08091A707882309F4E2CCEB81C5
:10234000FC818081813031F08B3021F08F508230E0
:1023500008F0D7CC409148035091490360914A035B
:1023600070914B038FE897E00E943924CACC6091AA
:102370004E0370914F03882777FD8095982F0E9418
:10238000E22D6B017C0120E030E040E852E46091F6
:1023900098077091990780919A0790919B070E94E6
:1023A000462DA70196010E94462D29E23CE54FE803
:1023B0005DE30E94962E9B01AC01C701B6010E940D
:1023C000472D0E94AF2D70934F0360934E03609191
:1023D0004C0370914D03882777FD8095982F0E94BC
:1023E000E22D6B017C0120E030E040E052E460919E
:1023F0009C0770919D0780919E0790919F070E9476
:10240000462DA70196010E94462D29E23CE54FE8A2
:102410005DE30E94962E9B01AC01C701B6010E94AC
:10242000472D0E94AF2D70934D0360934C035CC009
:10243000833009F059C062E083E593E00E94F6160C
:102440008823F9F020E030E040E85FE360919C07EA
:1024500070919D0780919E0790919F070E94462D45
:1024600060939C0770939D0780939E0790939F07AE
:102470008091480390914903029690934903809379
:10248000480365E083E593E00E94F616882339F05F
:1024900080915003882319F08150809350038091DC
:1024A00048039091490381389105A4F082E080931C
:1024B0000901809151038F5F0E94F10B4091480305
:1024C0005091490360914A0370914B038FE897E064
:1024D0000E9439242AE030E040E050E068E873E1EF
:1024E00087E593E00E940E2080910901825082309E
:1024F00008F0B0C3512CF7E0BF2E8091500358165E
:1025000008F001C3852C912CB89C3001B99C700C4B
:1025100011249301225C3E4F3901D90116964C914A
:10252000483009F4E1C0B0F4433009F49DC070F4C0
:1025300080914E0390914F0320914C0330914D03B5
:102540004130A9F1423009F450C015C0463008F0BE
:1025500012C211C0403109F4A1C138F44B3009F462
:1025600018C14F3009F44EC106C0433609F4E5C125
:10257000443609F400C2B89CF001B99CF00D112456
:10258000E25CFE4F4281538180914C0390914D0358
:10259000481B590B6081718180914E0390914F03CC
:1025A000681B790BEE24E3940581248198C0F30124
:1025B00060817181E481D30112960D911C91139772
:1025C00015964C91D801A40FB11DAD01421B530BC0
:1025D0007B01EE0EF11CE81AF90AB2E0EB0EF11CD9
:1025E000021B130B02501109F9C0F3014281538100
:1025F000421B530B60817181681B790BEE24E394BD
:102600000581248183E593E00E945E1AD30115962B
:102610001C9115971296ED90FC90139780914C03A6
:1026200090914D03E81AF90A6D917C911197809170
:102630004E0390914F03681B790B14968C919B016C
:10264000280F311D442737FD4095542F882777FDEB
:102650008095982F0E947E2B01E0212FA70183E512
:1026600093E00E942F1987C1F90142815381809123
:102670004C0390914D03481B590B608171818091EF
:102680004E0390914F03681B790BEE24E394058170
:10269000248183E593E00E945E1A60914A03709161
:1026A0004B03D3018D919C9111976817790709F01D
:1026B00062C112964D915C91139780914C03909159
:1026C0004D03481B590B80914E0390914F03681B9B
:1026D000790B14968C91680F711D05E028E083E555
:1026E00093E00E945E1A47C120E030E0A9016091AA
:1026F000A0077091A1078091A2079091A3070E9463
:10270000922E20914E0330914F03E0914C03F091B3
:102710004D03D3016D917C91119787FD09C01296ED
:102720004D915C9113974E1B5F0B4250510909C0AC
:10273000D30112964D915C9113974E1B5F0B4D5F29
:102740005F4F621B730B6C5F7F4FEE24E39403E0DB
:1027500028E083E593E00E945E1AB89CF001B99CE2
:10276000F00D1124E25CFE4F4281538180914C03B5
:1027700090914D03481B590B6081718180914E03EC
:1027800090914F03681B790BEE24E39404E020E161
:10279000A6CFF90160817181E48180914E0390910F
:1027A0004F03D90112960D911C91139720914C0360
:1027B00030914D03A801421B530B7B01EE0EF11C1F
:1027C000E81AF90AB2E0EB0EF11CD3011596FC9160
:1027D0000F0F111D021B130B0E5F1F4FE6959B0180
:1027E0002E0F311D281B390B21503109681B790B25
:1027F00064507109AA24A3946A0183E593E00E94BE
:102800005E1BB9C01C821B821901B2E02B0E311C69
:10281000F9013596FA83E983D3016D917C9180911A
:102820004E0390914F03F1010081118120914C03DF
:1028300030914D03A981BA814C91F801E40FF11D4B
:10284000AF01421B530B7B01F6E0EF0EF11CE81ABF
:10285000F90AAB81BC81EA0EFB1E021B130B02506E
:1028600011099B012F5F3F4F281B390B2A0F3B1F7C
:10287000681B790B645071096A0F7B1FAA24A3940B
:102880006A0183E593E00E945E1BEB81FC813A962E
:10289000FC83EB83F29709F0BFCF6DC01C821B82D3
:1028A0001901F2E02F0E311C2B5F3F4F3A83298331
:1028B000D3016D917C9180914E0390914F03F10172
:1028C0000081118120914C0330914D03A801421BDE
:1028D000530B7B01F7E0EF0EF11CE81AF90AAB810C
:1028E000BC81EA0EFB1EA981BA81EC910E0F111D6D
:1028F000021B130B0E5F1F4F9B012E5F3F4F281BC8
:10290000390BEB81FC812E0F3F1F681B790B635045
:1029100071096E0F7F1FAA24A3946A0183E593E0D7
:102920000E945E1B2B813C81265F3F4F3C832B83A3
:102930002233310509F0BCCF1EC0D90112964D914A
:102940005C91139780914C0390914D03481B590B58
:102950006D917C9180914E0390914F03681B790B90
:10296000CC24C394E4E0EE2E00E12DED31E183E5CB
:1029700093E00E94A61BB89CF001B99CF00D1124B5
:10298000E25CFE4FFA83E98386819CEF980F9230D8
:1029900008F077C03F01F5E06F0E711C89809A80C6
:1029A00024E0820E911C29803A8032E0230E311CF3
:1029B000A981BA8112964D915C91139780914C0335
:1029C00090914D03481B590B6D917C91119780910B
:1029D0004E0390914F03681B790BCC24C39435E0D0
:1029E000E32E15960C91159714962C9183E593E0A0
:1029F0000E94CF1A42E0F42EC980DA80F101608192
:102A00007181D3018C919B01280F311D2150310917
:102A1000442737FD4095542F6E5F7F4F882777FD01
:102A20008095982F0E947E2B20914C0330914D036E
:102A30008B01021B130BF60160817181D4018C9113
:102A40009B01280F311D22503109442737FD409545
:102A5000542F6E5F7F4F882777FD8095982F0E94B7
:102A60007E2B20914E0330914F03621B730B21E0AC
:102A7000A80183E593E00E94A717FA9409F0BECF5E
:102A800040C086508230E8F5E981FA814281538165
:102A900080914C0390914D03481B590B60817181CB
:102AA00080914E0390914F03681B790BCC24C39403
:102AB00024E0E22E00E12DED31E183E593E00E9478
:102AC000A61BA981BA8112964D915C9113978091B2
:102AD0004C0390914D03481B590B425051096D9185
:102AE0007C9180914E0390914F03681B790B6C5F32
:102AF0007F4FEE24E39403E028E083E593E00E9417
:102B00005E1A5394FACC4091510380914E039091F8
:102B10004F0320914C0330914D034130F1F445E3D4
:102B200050E0421B530B61E371E0681B790BCC242E
:102B3000C3949EE0E92E04E12DEE31E183E593E0BC
:102B40000E94A61B47E350E080914C0390914D03F7
:102B5000481B590B6EE371E01FC0423059F542E645
:102B600050E0421B530B65E67FEF681B790BCC24CA
:102B7000C3948EE0E82E04E12DEE31E183E593E08D
:102B80000E94A61B48E650E080914C0390914D03B3
:102B9000481B590B68E67FEF80914E0390914F03DD
:102BA000681B790BEE24E39406E024E083E593E0D0
:102BB0000E94951A80910901A0904E03B0904F0396
:102BC00000914C0310914D03823009F560919C07F0
:102BD00070919D0780919E0790919F070E94AF2D55
:102BE0007B01E01AF10A6091980770919907809132
:102BF0009A0790919B070E94AF2D6A197B0901E00B
:102C000021E0A70183E593E00E94031A23C06091AD
:102C10009C0770919D0780919E0790919F070E944D
:102C2000AF2D6B01C01AD10A609198077091990776
:102C300080919A0790919B070E94AF2D6A197B099A
:102C4000EE24E3940091480322E0A60183E593E09B
:102C50000E945E1A83E593E02E960FB6F894DEBFCD
:102C60000FBECDBFDF91CF911F910F91FF90EF90DD
:102C7000DF90CF90BF90AF909F908F907F906F909C
:102C80005F904F903F902F900C940C1E80915203B8
:102C9000882311F40C94620D109252030C94620D6F
:102CA0002E960FB6F894DEBF0FBECDBFDF91CF9149
:102CB0001F910F91FF90EF90DF90CF90BF90AF905A
:102CC0009F908F907F906F905F904F903F902F904C
:102CD000089583E593E00C94A316CF93CFB7F894AF
:102CE00080916D07811127C0E0EEF6E18491E1EC5F
:102CF000F6E19491E82FF0E0EE0FFF1FE450F94E5B
:102D0000A591B4918C91892321F461E081E10E9425
:102D1000912661E081E10E9458268CB580618CBDCE
:102D20008CB580648CBD61E08FE00E94582661E024
:102D300080E10E94582680916D078F5F80936D0718
:102D4000CFBFCF910895CF93DF93EC0189E291E05B
:102D5000998388831B821A82CE010E94262181E2F8
:102D600091E0998388838CE38E8380E1898718863C
:102D70001F821E861F86188A198A1A8AFE01EC5E37
:102D8000FB4F11821082329611821082C85EDB4F97
:102D900081E08883DF91CF910895CF93DF93EC0199
:102DA0000E9459210E9430228078803849F40E9484
:102DB000FE212FEF4FEF6FEFCE010E940A22FFCFCF
:102DC000249665E0CE010E94EF1E6DE0CE010E94C8
:102DD000EF1EDF91CF910C94451EFC01668370E0DD
:102DE00088EE93E00E940D2F6187089570E0FC014A
:102DF000878190850E94F92E21E0892B09F020E03F
:102E0000822F08950F931F93CF93DF93EC010E94BD
:102E1000C524E62F462F572FBC018A89882351F0FD
:102E20008A859E2F981B9B8B8F819885019698870A
:102E30008F831A8A0E851F85288939894017510783
:102E40006207730734F40E1B023008F10E94DC2184
:102E50001EC089850A851B852C853D85080F111D9F
:102E6000211D311D04171507260737072CF00E8783
:102E70001F87288B398B04C04E875F87688B798BBF
:102E80004A875B876C877D8781E08A8B01C080E001
:102E9000DF91CF911F910F91089560937C00673C63
:102EA00019F480E280937B0062E070E080E090E0C3
:102EB0000E94F42480917A00806480937A0080914B
:102EC0007A0086FDFCCF809178009091790008957A
:102ED000CF92DF92EF92FF92CF93DF937C01C4E613
:102EE000D0E088818E7F888367ECC7010E944D17F0
:102EF0006C016EE5C7010E944D177C010E94D12430
:102F00009B01AC01E094F094C094D094EC9CD0016F
:102F1000ED9CB00DFC9CB00D112420953095409592
:102F200050950E94772F6B017C010E94D1246C0D7B
:102F30007D1D8E1D9F1D0E94522B8881816088837C
:102F4000DF91CF91FF90EF90DF90CF9008956038A0
:102F5000710518F54034510500F5E42FE695E69526
:102F6000E695F0E047705527F695FE2FEE27F7958A
:102F7000E795E60FF71FE80FF91F81E090E0042EB8
:102F800001C0880F0A94EAF7222319F09489982B3C
:102F900003C0809594899823948B08952F923F9233
:102FA0004F925F926F927F928F929F92AF92BF9259
:102FB000CF92DF92EF92FF920F931F93CF93DF9305
:102FC00000D000D01F92CDB7DEB75C014B013A01B3
:102FD000802F422F50E05D834C8344244394512C36
:102FE000441A550A1A01319421943108220C331CD9
:102FF000CC24C394D12C01E010E0382F34703983F5
:10300000382F32703A83382F38703B838170F82E16
:10301000C6010197EC81FD818E179F070CF07CC0E3
:1030200057FC0BC04C815D81415051095D834C833D
:1030300052E0250E311C420C531C0E5F1F4F400EF8
:10304000511E39813323B1F02E2D4C815D81460D07
:10305000571DB601680D791DC5010E94A7172E2DB9
:10306000A601460D571D6C817D81680D791DC50136
:103070000E94A7173A813323B9F02E2DA3018C812A
:103080009D81481B590BB601680D791DC5010E9431
:10309000A7172E2DA3014C195D096C817D81680D48
:1030A000791DC5010E94A7173B813323B9F02E2D4E
:1030B000A601460D571DB4018C819D81681B790BBB
:1030C000C5010E94A7172E2D4C815D81460D571D0D
:1030D000B4016C197D09C5010E94A717FF20C1F03A
:1030E0002E2DA3014C195D09B401EC81FD816E1BED
:1030F0007F0BC5010E94A7172E2DA3018C819D81F6
:10310000481B590BB4016C197D09C5010E94A71712
:103110009FEFC91AD90A7CCF0F900F900F900F9094
:103120000F90DF91CF911F910F91FF90EF90DF9063
:10313000CF90BF90AF909F908F907F906F905F9057
:103140004F903F902F9008952F923F924F925F9211
:103150006F927F928F929F92AF92BF92CF92DF92A7
:10316000EF92FF920F931F93CF93DF932C01EB010C
:103170006A0159019801241B350B37FF03C03195B3
:1031800021953109C5018C1B9D0B97FF03C09195BB
:1031900081959109FF24F3948217930714F0F12C81
:1031A0000AC09A2D8B2D5801092F182F9C2F8D2F77
:1031B000E601C92ED82EAC16BD0654F49C2D8D2DDB
:1031C0006801092F182F9C2F8D2FE501A92EB82EED
:1031D00015012C1A3D0A38016C187D0877FE03C0D2
:1031E000719461947108410137FE03C08FEF881A12
:1031F000980A95948794C016D10614F401E001C092
:103200000FEF112707FD1095AC16BD06ACF02E2D63
:10321000FF2019F0AE01B60102C0A601BE01C20135
:103220000E94A7178618970897FE04C0C00ED11EEB
:10323000820C931C2196E8CFDF91CF911F910F91C3
:10324000FF90EF90DF90CF90BF90AF909F908F90C6
:103250007F906F905F904F903F902F900895AF9226
:10326000BF92CF92DF92EF92FF920F93CF93DF93B3
:103270006C015B017A01E20EF11CEA0157FF0DC0FF
:10328000C0E0D0E00AC0C417D5077CF4202FAE01FF
:10329000B501C6010E94A7172196A70181E4E8168F
:1032A000F1048CF340E450E0EECFDF91CF910F9129
:1032B000FF90EF90DF90CF90BF90AF9008952F9246
:1032C0003F924F925F926F927F928F929F92AF92B6
:1032D000BF92CF92DF92EF92FF920F931F93CF9303
:1032E000DF9300D01F92CDB7DEB74C013B012A011E
:1032F0001E2D822F90E09B838A8322242394312CDD
:10330000281A390A7C01F194E194F108EE0CFF1CB3
:10331000AA24A394B12C302F317039831F5F02701F
:10332000D02EC5010197EA81FB818E179F070CF013
:1033300054C037FC0AC08A819B8101979B838A8392
:1033400092E0E90EF11C2E0C3F1CC501880F991F5D
:103350000196280E391E39813323E1F02A81220F8C
:10336000210F0C2DA2018A819B81481B590BB501AD
:10337000660D771DC4010E942F192A2D220F210FDF
:10338000A2014A195B096A817B81660D771DC40120
:103390000E942F19DD20E9F02A81220F210F0C2D28
:1033A000A201EA81FB814E1B5F0BB3016A197B0905
:1033B000C4010E942F192A2D220F210FA2014A19A0
:1033C0005B09B3018A819B81681B790BC4010E9450
:1033D0002F199FEFA91AB90AA4CF0F900F900F9041
:1033E000DF91CF911F910F91FF90EF90DF90CF90E1
:1033F000BF90AF909F908F907F906F905F904F9015
:103400003F902F9008958F929F92AF92BF92CF924C
:10341000EF92FF920F931F93CF93DF93EC015B0129
:103420004A01122FC02E220F2F5F411B51090E940B
:103430002F19E12CF12C03E0212FA401B501CE01BD
:103440000E945F19DF91CF911F910F91FF90EF9034
:10345000CF90BF90AF909F908F900895AF92BF9202
:10346000CF92DF92EF92FF920F93CF93DF936C0195
:103470005A017B01E20EF11CEB0177FF0DC0C0E0A9
:10348000D0E00AC0C617D7077CF4202FA501BE01E3
:10349000C6010E94A7172196B70181E8E816F1043A
:1034A0008CF360E870E0EECFDF91CF910F91FF9049
:1034B000EF90DF90CF90BF90AF900895AF92BF9202
:1034C000CF92DF92EF92FF920F931F93CF93DF93F0
:1034D000EC015B016A01F22E102F0E2D0E942E1AB4
:1034E000A601410F511D415051092F2DB501CE01AB
:1034F0000E942E1A212FA601B501CE010E942F197C
:10350000B5016F0D711D61507109212FA601CE010A
:103510000E942F19DF91CF911F910F91FF90EF9093
:10352000DF90CF90BF90AF9008958F929F92AF920F
:10353000BF92CF92DF92EF920F931F93CF93DF93BF
:103540006C015A01102FEB014B01820E911CC81522
:10355000D9054CF40E2D212FA501BE01C6010E94F4
:103560002F192196F4CFDF91CF911F910F91EF90FA
:10357000DF90CF90BF90AF909F908F90089544962A
:10358000B62FB111BFEFFC010024B193B193B193F9
:10359000B1930394D1F7089560E00C94BF1A2F9271
:1035A0003F924F925F926F927F928F929F92AF92D3
:1035B000BF92CF92DF92EF92FF920F931F93CF9320
:1035C000DF9300D01F92CDB7DEB79B838A833B0188
:1035D0004A01D22EF02E1E2DE194EE0C3E2D320F1C
:1035E000412E512C5B01A40CB51C0C2D232FB501D1
:1035F00039830E942E1A14012F0C311CA101415055
:1036000051093981232FB5018A819B810E942E1A8D
:10361000FE0C840C951C2F2DA401B3018A819B8183
:103620000E942F196D0C711CB301615071092F2D6F
:10363000A4018A819B810E942F19EC2C01E0212F8B
:10364000A401B5018A819B810E94CE176418750878
:1036500081E0681A710802E0212FA401B3018A8178
:103660009B810E94CE1724183508E1E02E1A3108FC
:1036700004E0212FA101B3018A819B810E94CE1712
:1036800008E0212FA101B5018A819B810E94CE17FC
:103690000F900F900F90DF91CF911F910F91FF909E
:1036A000EF90DF90CF90BF90AF909F908F907F90E2
:1036B0006F905F904F903F902F9008952F923F9280
:1036C0004F925F926F927F928F929F92AF92CF9222
:1036D000DF92EF92FF920F931F93CF93DF9300D06F
:1036E00000D0CDB7DEB79C838B831B014A01390123
:1036F0002801FA82E982EA2C0E94A4188601298115
:103700003A81A201B3018B819C810E94A41884019B
:103710009101A60169817A818B819C810E94A41804
:103720000F900F900F900F90DF91CF911F910F91FD
:10373000FF90EF90DF90CF90AF909F908F907F9011
:103740006F905F904F903F902F9008952F923F92EF
:103750004F925F926F927F928F929F92AF92BF92A1
:10376000CF92DF92EF92FF920F931F93CF93DF934D
:1037700000D000D01F92CDB7DEB7C982202E312CE9
:10378000FB01E20DF31DF7FD13C1603871050CF06C
:103790000FC1FA01EE0DF11DF7FD0AC140345105CC
:1037A0000CF006C1DA0157FF04C0AA27BB27A41BEF
:1037B000B50BFD01E770FF27FB83EA83FA0157FD94
:1037C0003796DF0113E0B595A7951A95E1F7BD830C
:1037D000AC8357FF0CC01197BD83AC8348E050E029
:1037E000DA01EA81FB81AE1BBF0BBB83AA834E2D9E
:1037F000469546954695C42ED12C4E2D477019F00E
:10380000FFEFCF1ADF0A49014C815D815695542F95
:10381000442757954795480F591F2C813D81F8E063
:103820006F2E712C8A819B81681A790AC901AC813B
:10383000BD818A1B9B0B8C159D050CF0B9C02830EF
:10384000310509F4B5C02F3F9FEF39070CF4A3C031
:10385000CB0100E010E0DA01A058BF4F2D010215A6
:1038600013050CF098C08038910509F494C097FDB9
:103870008EC02F3FBFEF3B0709F494C0D801A80DBD
:10388000B91D7A01E80EF91EE981E13071F4FD01FC
:10389000A491B0E00A8002C0AA0FBB1F0A94E2F70D
:1038A000F701B488AB29A48B28C0F981F11114C0A9
:1038B000FD01A491EA2FF0E00A8002C0EE0FFF1F85
:1038C0000A94E2F7E095F095D7015496AC9054979E
:1038D000B12CEA21FB210FC0FD01A491EA2FF0E0F9
:1038E0000A8002C0EE0FFF1F0A94E2F7D701549638
:1038F000BC905497EB255496EC93AA81BB81AB2BDB
:1039000009F445C02730310509F441C0F801E80D3C
:10391000F91DB981B13089F4E491F0E0062C02C0C0
:10392000F595E7950A94E2F77201E80EF91ED701C2
:103930005496BC905497EB2928C0B981B11115C099
:10394000E491F0E0062C02C0F595E7950A94E2F7C1
:10395000E095F0957201E80EF91ED7015496AC90EF
:103960005497B12CEA21FB2110C0E491F0E0062C21
:1039700002C0F595E7950A94E2F77201E80EF91E88
:10398000D7015496BC905497EB255496EC930F5F57
:103990001F4F019664CF2F5F3F4F820C931C4058FE
:1039A0005F4F44CFAA81BB81AB2B09F0AFCFEFCFE4
:1039B0000F900F900F900F900F90DF91CF911F916C
:1039C0000F91FF90EF90DF90CF90BF90AF909F90BE
:1039D0008F907F906F905F904F903F902F900895C1
:1039E0002F923F924F925F926F927F928F929F920F
:1039F000AF92BF92CF92DF92EF92FF920F931F93FD
:103A0000CF93DF93CDB7DEB728970FB6F894DEBF1C
:103A10000FBECDBF9E838D832A01603871050CF0E7
:103A20006DC0403451050CF069C0CB01A5E0CA9EC1
:103A3000800D911D1124181619060CF05FC0EC2D95
:103A4000F0E0FC83EB83CA01F8E0CF9E800D911D6E
:103A50001124181619060CF051C0A5E02A9FC001C8
:103A600011245B0118861F8282509F4F9A8389839D
:103A7000BF81B53041F0E981FA818F819885E80FE7
:103A8000F91F149101C010E0320128E0D22E10FF7E
:103A900002C0F02E01C0FE2CF1100BC0E01209C0D4
:103AA0001695DA94AB81BC816A0E7B1ED110EFCFE4
:103AB00019C01501822D8A198C1590F74301882DA4
:103AC00086198C1558F42F2DA401B1018D819E818A
:103AD0000E94A717BFEF8B1A9B0AF1CFEFEF2E1AA8
:103AE0003E0AE8CF8F819885019698878F83AB81B6
:103AF000BC81AA0EBB1E069709F0BACF28960FB656
:103B0000F894DEBF0FBECDBFDF91CF911F910F9113
:103B1000FF90EF90DF90CF90BF90AF909F908F90ED
:103B20007F906F905F904F903F902F9008958F926D
:103B30009F92AF92BF92CF92EF920F93CF93DF936A
:103B4000EC01262F6A3099F4FC01E85EFB4F2081DE
:103B500032978081918138E0239F800D911D11243F
:103B600091838083CC5EDB4F198218824BC06D300D
:103B700009F448C0FC01EA5EFB4F408151815C01C1
:103B80008CEEA81A8BEFB80AF501608171814E01A5
:103B9000F8EE8F1AFBEF9F0AF401C080E12C01E0E0
:103BA000CE010E94F01CF4012081422F50E0F5016B
:103BB00080819181F6E02F9F800D911D1124F501E8
:103BC00091838083359620812223E1F06AEF64039C
:103BD0009001659F300D112420583F4F2817390759
:103BE0008CF4E881F9810190F081E02D6AE0CE014A
:103BF000DF91CF910F91EF90CF90BF90AF909F90BA
:103C00008F900994DF91CF910F91EF90CF90BF905B
:103C1000AF909F908F90089544960C94E721CF9396
:103C2000DF931F92CDB7DEB769830E94302269818E
:103C3000982F962381E0961380E00F90DF91CF912B
:103C40000895E4E6F0E08081877F8083E5E6F0E098
:103C50008081877F808381E080936E0708958091C3
:103C60006E07089510926E07E4E6F0E080818860A8
:103C70008083E5E6F0E0808188608083089560912C
:103C80006E0782E090E00C94F52F10927B0782E0A3
:103C900090E00E94ED2F81110C94211E0895CF9287
:103CA000DF92EF92FF921F93CF93DF9390917C0767
:103CB000891708F065C067FD63C0E82FF0E0E253A4
:103CC000F94F1491E62FF0E0603330F4E256F94FEB
:103CD000E491CE2FD0E006C0EE0FFF1FE256FA4F60
:103CE000C591D4916E01E12CF12C60E074E284EF77
:103CF00090E0A70196010E94432F2150310941090C
:103D000051092115310581E04807510570F060E93E
:103D100070ED83E090E0A70196010E94432F2150AF
:103D200031094109510993E001C091E01130C9F016
:103D3000133031F580919100887F892B8093910019
:103D40003093990020939800D0937A07C093790715
:103D500081E0809378078091710082608093710088
:103D60000FC080918100887F892B809381003093E0
:103D700089002093880080916F00826080936F009B
:103D8000DF91CF911F91FF90EF90DF90CF9008953A
:103D9000E82FF0E0E253F94FE491E13019F0E3301D
:103DA00069F0089580916F008D7F80936F0020915E
:103DB0008607E0918707F091880708C0109278077E
:103DC00020917F07E0918007F0918107808190E04A
:103DD00030E0209530958223932380830895CF93FC
:103DE000DF93C62F80917C07823009F46BC0E82FE7
:103DF000F0E0E253F94FD491A82FB0E0A358B84FA8
:103E00006C938F5F80937C0761E08C2F0E94582613
:103E1000D13091F1D33009F055C01092900010923A
:103E20009100809191008860809391008091910031
:103E30008160809391006C2F70E0FB01E153F94E9B
:103E4000249130E0220F331F2251394EF901859120
:103E500094919093810780938007FB01E055F94E80
:103E6000649160937F076CE380E00E944F1E80E0C6
:103E7000DF91CF910C94C81E1092800010928100A7
:103E800080918100886080938100809181008160B1
:103E9000809381006C2F70E0FB01E153F94E249177
:103EA00030E0220F331F2251394EF9018591949150
:103EB0009093880780938707FB01E055F94E649142
:103EC00060938607DF91CF910895E0916F07F0919D
:103ED0007007BF016F5F7F4F7093700760936F072C
:103EE000A4919A2F907F8A2F8F70903819F40E9496
:103EF000C81EEBCF903961F4AF014E5F5F4F509316
:103F0000700740936F07FB0164910E944F1EDDCF45
:103F1000903E49F4809171079091720790937007D9
:103F200080936F07D2CF903F19F410927B070895CA
:103F300097FDCBCFAF014E5F5F4F5093700740931B
:103F40006F07FB016491262F30E03A2BA09179078F
:103F5000B0917A070E94682F6C507E4F8F4F9F4F11
:103F600028EE33E040E050E00E94212F20937307B9
:103F700030937407409375075093760780917307C9
:103F800090917407A0917507B0917607892B8A2BC1
:103F90008B2B61F481E090E0A0E0B0E080937307A8
:103FA00090937407A0937507B09376070895809156
:103FB0007807882349F090917F07E0918007F0917E
:103FC000810780818927808380917B07882329F15D
:103FD0008091730790917407A0917507B09176074F
:103FE000892B8A2B8B2BC9F08091730790917407D2
:103FF000A0917507B09176070197A109B109809347
:10400000730790937407A0937507B0937607892B75
:104010008A2B8B2B11F40C94651F08954F925F929D
:104020006F927F928F929F92AF92BF92CF92DF92C8
:10403000EF92FF92CF93DF93EB0149015A0181E0A8
:10404000809377072B01612C712C60E072E18AE785
:1040500090E0A30192010E94432F69017A0181E05F
:10406000C81AD108E108F108C114D10481E0E806BA
:10407000F10488F068E478EE81E090E0A301920119
:104080000E94432F69017A0181E0C81AD108E10832
:10409000F10893E001C091E080918100887F892B35
:1040A0008093810081149104A104B10471F0DE01B8
:1040B000AA0FBB1FA50194010E94772F28EE33E0C1
:1040C00040E050E00E94212F03C02FEF3FEFA901F5
:1040D000D0928900C0928800209382073093830792
:1040E000409384075093850780916F00826080938E
:1040F0006F00DF91CF91FF90EF90DF90CF90BF9056
:10410000AF909F908F907F906F905F904F900895A9
:104110001F920F920FB60F9211242F933F938F93FC
:104120009F93AF93BF93EF93FF938091770788237B
:1041300009F44BC08091820790918307A091840776
:10414000B0918507892B8A2B8B2B51F19091860793
:10415000E0918707F091880780818927808380918B
:10416000820790918307A0918407B0918507181664
:1041700019061A061B0694F5809182079091830711
:10418000A0918407B09185070197A109B109809397
:10419000820790938307A0938407B09385071EC07E
:1041A0001092770780916F008D7F80936F00209130
:1041B0008607E0918707F0918807808190E030E0E2
:1041C000209530958223932308C090918607E09133
:1041D0008707F0918807808189278083FF91EF917D
:1041E000BF91AF919F918F913F912F910F900FBEF3
:1041F0000F901F9018951F920F920FB60F921124D7
:104200002F933F934F935F936F937F938F939F93DE
:10421000AF93BF93EF93FF930E94D71FFF91EF914E
:10422000BF91AF919F918F917F916F915F914F91CE
:104230003F912F910F900FBE0F901F9018958EBD3C
:1042400000000DB407FEFDCF8EB508950895E091EE
:104250008B07F0918C07808190918907892B80834F
:10426000E0918D07F0918E07908180918A0780956B
:10427000892380830895E0918D07F0918E078081D6
:1042800090918A07892B8083E0918B07F0918C07AE
:10429000908180918907809589238083E0918D07A3
:1042A000F0918E07908180918A0780958923808381
:1042B0000895CF93DF930E946D16CDEDD6E0BE0139
:1042C000FE01849122966F5F7F4FFB0164918823EA
:1042D00019F00E945826F3CF61E086E00E949126F3
:1042E00061E070E080E090E00E94F42460E086E00D
:1042F0000E9491266AE070E080E090E00E94F42441
:1043000061E086E00E949126EBEDF6E1E491F0E0B9
:10431000EE0FFF1FE251F94E8591949190938E0715
:1043200080938D07ECEBF6E1E491E0938A07E3EDEF
:10433000F6E1E491F0E0EE0FFF1FE251F94E8591B6
:10434000949190938C0780938B07E4EBF6E1E491D2
:10435000E09389078CB58C7F8CBD8DB581608DBD58
:104360000E943B21C0EDD6E0F6E0CD3DDF0731F005
:10437000FE0184910E941F212196F6CF0E942721E1
:104380008091640081608093640080916400826009
:1043900080936400809164008068809364008091C1
:1043A00064008064809364008091650081608093E4
:1043B0006500DF91CF91089583B7817F83BF83B775
:1043C000816083BF889583B78E7F83BF0895FC018A
:1043D00020812EBD21E030E0FC01E20FF31F40817F
:1043E0000DB407FEFDCF4EBD2F5F3F4F2115F4E00A
:1043F0003F0791F70DB407FEFDCF0895CF93DF93EC
:10440000C0E0D4E080E00E941F212197D9F7DF911E
:10441000CF9108950F931F93CF93DF9300D0CDB723
:10442000DEB70FEF10E0C801861B9109BC018AE0DE
:104430002A8349830E9484254981B801641B71093C
:104440008BE00E9484252A81B801621B710989E0F2
:104450000F900F90DF91CF911F910F910C948425B5
:104460008FB14CB123B150E0409550954074552721
:1044700033E0559547953A95E1F730E02095309532
:10448000207133273595279535952795242B8095D1
:10449000807F822B08958F929F92AF92BF92CF928E
:1044A000DF92EF92FF920F931F93CF93DF93EC0174
:1044B0008B0160E4C8010E940F1E8823B9F0C880F8
:1044C000D980EA80FB802AE939E949E95FE3C7013D
:1044D000B6010E94AB2D87FF29C02FE832EC45EFD3
:1044E0005CE3C701B6010E94472D1CC060E2C80111
:1044F0000E940F1E8823D1F0C880D980EA80FB80FB
:104500002AE939E949E95FEBC701B6010E94922E19
:10451000181664F42FE832EC45EF5CE3C701B601EE
:104520000E94462D688379838A839B8360E1C8015A
:104530000E940F1E811106C064E0C8010E940F1E78
:10454000882311F120E030E040E85FEB6C817D8151
:104550008E819F810E94AB2D87FF08C080E090E094
:10456000A0E8BFEB8C839D83AE83BF832BE734E150
:104570004EE65FE3688179818A819B810E94962E55
:10458000688379838A839B8368E0C8010E940F1E39
:104590008823E1F088858823C9F020E030E0A90174
:1045A00069897A898B899C890E94922E87FD05C032
:1045B00080E090E0A0E2B0EC04C080E090E0A0E2F7
:1045C000B0E48C839D83AE83BF831886C988DA8864
:1045D000EB88FC882C813D814E815F81C701B6014B
:1045E0000E94472D6C837D838E839F832A8D222397
:1045F000D1F09F772DEC3CEC4CE85FEB0E94962EBF
:104600004B015C016C837D838E839F8320E030E0CF
:10461000A901C701B6010E94922E87FD02C081E068
:1046200088871A8E1CC0298D222391F19F772DEC4B
:104630003CEC4CE85FE30E94962E4B015C016C83DE
:104640007D838E839F8320E030E0A901C701B601FE
:104650000E94AB2D181614F081E08887198EC501D1
:10466000B4019F7720E030E048E452E40E94962EA7
:1046700020E030E048EC53E40E94472D0E94B42D26
:104680002AE030E040E050E0C80104960E940E208D
:10469000888D8823A9F088819981AA81BB81BC017A
:1046A000CD019F7720E030E040EC5FEB0E94962E3A
:1046B000688379838A839B8321E02887188E17C0BB
:1046C0008F89882359F188819981AA81BB81BC0196
:1046D000CD019F7720E030E040EC5FE30E94962E12
:1046E000688379838A839B8321E028871F8A9F7749
:1046F00020E030E048E452E40E94962E20E030E0D2
:1047000048EC53E40E94472D0E94B42D2AE030E08B
:1047100040E050E0C80104960E940E2022E538EBEC
:104720004EE75FE36C817D818E819F810E94962E92
:104730004B015C016C837D838E839F8328E431EE83
:104740004AE75FE3688179818A819B810E94962E86
:104750006B017C01688379838A839B832DEC3CEC1D
:104760004CE050E4C501B4010E94922E87FD10C0B8
:1047700020E030E0A90169897A898B899C890E94AF
:10478000922E87FD05C08DEC9CECACE0B0E419C026
:104790002DEC3CEC4CE050ECC501B4010E94AB2D7B
:1047A00018169CF020E030E0A90169897A898B898C
:1047B0009C890E94AB2D181644F08DEC9CECACE06B
:1047C000B0EC8C839D83AE83BF8320E030E040E873
:1047D00050E4C701B6010E94922E18162CF480E016
:1047E00090E0A0E8B0E40EC020E030E040E850ECFB
:1047F000C701B6010E94AB2D87FF08C080E090E0A2
:10480000A0E8B0EC88839983AA83BB832C813D8187
:104810004E815F816D857E858F8598890E94472DA9
:104820006D877E878F87988B288139814A815B814C
:1048300069857A858B859C850E94472D69877A8753
:104840008B879C878D89811107C08E8981508E8BC3
:10485000811102C081E08D8BDF91CF911F910F916B
:10486000FF90EF90DF90CF90BF90AF909F908F9090
:1048700008950F931F93CF93DF93EC018A0188274C
:1048800077FD8095982F0E94E22D69877A878B8724
:104890009C87B801882777FD8095982F0E94E22D8C
:1048A0006D877E878F87988B1C821D821E821F8258
:1048B000188219821A821B8218861F8A188E198EF6
:1048C0001A8E1E8A81E08D8BDF91CF911F910F91FF
:1048D00008952FE0FC01268B158A08958AE999E94D
:1048E000A9E1BEE38093A0079093A107A093A2073C
:1048F000B093A30708951F920F920FB60F92112441
:104900002F933F938F939F93AF93BF938091AB0768
:104910009091AC07A091AD07B091AE073091AA0776
:1049200023E0230F2D3720F40196A11DB11D05C0F2
:1049300026E8230F0296A11DB11D2093AA0780939C
:10494000AB079093AC07A093AD07B093AE078091EF
:10495000AF079091B007A091B107B091B20701964F
:10496000A11DB11D8093AF079093B007A093B1072D
:10497000B093B207BF91AF919F918F913F912F91CB
:104980000F900FBE0F901F9018952FB7F89460915D
:10499000AB077091AC078091AD079091AE072FBF28
:1049A00008953FB7F8948091AF079091B007A09118
:1049B000B107B091B20726B5A89B05C02F3F19F0EB
:1049C0000196A11DB11D3FBF6627782F892F9A2F11
:1049D000620F711D811D911D42E0660F771F881FB8
:1049E000991F4A95D1F708958F929F92AF92BF92E7
:1049F000CF92DF92EF92FF926B017C010E94D12453
:104A00004B015C01C114D104E104F104F1F00E94F6
:104A10009A2B0E94D124681979098A099B09683E5A
:104A200073408105910570F321E0C21AD108E108B5
:104A3000F10888EE880E83E0981EA11CB11CC114F9
:104A4000D104E104F10429F7DDCFFF90EF90DF906E
:104A5000CF90BF90AF909F908F900895789484B539
:104A6000826084BD84B5816084BD85B5826085BD6A
:104A700085B5816085BDEEE6F0E080818160808350
:104A8000E1E8F0E010828081826080838081816033
:104A90008083E0E8F0E0808181608083E1E9F0E0FC
:104AA000808182608083808181608083E0E9F0E0A2
:104AB000808181608083E1ECF0E08081846080838C
:104AC000808182608083808181608083E3ECF0E07C
:104AD000808181608083E0ECF0E08081826080836F
:104AE000E2ECF0E0808181608083EAE7F0E08081A1
:104AF0008460808380818260808380818160808304
:104B000080818068808308951F93CF93DF93182F4F
:104B1000EB0161E00E945826209711F460E004C088
:104B2000CF3FD10539F461E0812FDF91CF911F9103
:104B30000C949126E12FF0E0EF56F94E449150E0AD
:104B4000FA013197EF30F10508F06CC0EF59FF4FD3
:104B50000C94622F84B5806884BDC7BD68C084B5DD
:104B6000806284BDC8BD63C08091800080688093EE
:104B70008000D0938900C093880059C08091800044
:104B8000806280938000D0938B00C0938A004FC0D6
:104B900080918000886080938000D0938D00C093C6
:104BA0008C0045C080919000806880939000D093E5
:104BB0009900C09398003BC08091900080628093E0
:104BC0009000D0939B00C0939A0031C080919000D8
:104BD000886080939000D0939D00C0939C0027C074
:104BE0008091C00080688093C0008091C0008F7B5E
:104BF0008093C000C093CF001AC08091C000806233
:104C00008093C000C093D00012C08091C200886021
:104C10008093C2008091C2008B7F8093C200C093BA
:104C2000D20005C0C038D1050CF07DCF77CFDF9121
:104C3000CF911F91089590E0FC013197EF30F1057D
:104C4000B0F5E059FF4F0C94622F809180008F7770
:104C500003C0809180008F7D8093800008958091B3
:104C60008000877FF9CF84B58F7702C084B58F7DB0
:104C700084BD0895809190008F7707C08091900047
:104C80008F7D03C080919000877F8093900008956E
:104C90008091C0008F7703C08091C0008F7D80938A
:104CA000C00008958091C200877F8093C20008955C
:104CB000CF93DF9390E0FC01E055F94E2491FC0185
:104CC000E153F94E8491882349F190E0880F991FB0
:104CD000FC01E450F94EA591B4918251994EFC012A
:104CE000C591D4919FB7611108C0F8948C9120951B
:104CF00082238C93888182230AC0623051F4F89415
:104D00008C91322F309583238C938881822B8883DA
:104D100004C0F8948C91822B8C939FBFDF91CF912C
:104D200008950F931F93CF93DF931F92CDB7DEB7F4
:104D3000282F30E0F901EF56F94E8491F901E05542
:104D4000F94E1491F901E153F94E04910023C9F091
:104D5000882321F069830E941B266981E02FF0E0FF
:104D6000EE0FFF1FE251F94EA591B4919FB7F89451
:104D70008C91611103C01095812301C0812B8C930C
:104D80009FBF0F90DF91CF911F910F9108950895CC
:104D90000E942E250E94C72683EB97E00E94352BA8
:104DA0000E94DD0CC0E0D0E00E94F50C2097E1F3FA
:104DB0000E940000F9CFCF92DF92EF92FF920F9303
:104DC0001F93CF93DF937C016A01EB0100E010E0B9
:104DD0000C151D0571F06991D701ED91FC910190C1
:104DE000F081E02DC7010995892B19F00F5F1F4F46
:104DF000EFCFC801DF91CF911F910F91FF90EF90FE
:104E0000DF90CF900895615030F02091F100FC01C7
:104E100020830196F8CF289884E68093BC070895F4
:104E20004091B7075091B8072091B5073091B60768
:104E300042175307B4F49091E8009570E1F3909114
:104E4000E80092FD19C08093F1008091B70790911E
:104E5000B80701968F739927892B19F48EEF8093E9
:104E6000E8008091B7079091B80701969093B80732
:104E70008093B70781E0089580E00895CF92DF9294
:104E8000EF92FF920F931F93CF93DF931F92CDB7B3
:104E9000DEB7082F162FF42E862F880F8E5F99838A
:104EA0000E94102783E00E941027E02EC02E9981D7
:104EB000D92E8C2D8E19811798F4F601F7FE02C0B9
:104EC000849101C080810E941027082F80E00E94F9
:104ED00010278023FFEFCF1ADF0A8111EACF01C02C
:104EE00081E00F90DF91CF911F910F91FF90EF9094
:104EF000DF90CF9008958091D70081608093D70094
:104F000080EA8093D80089B5806189BD89B58260C7
:104F100089BD09B400FEFDCF61E070E080E090E063
:104F20000E94F4248091D8008F7C80618093D80007
:104F30008091E000807F8093E0000895CF93DF931D
:104F40001F92CDB7DEB71982CE0101960E94FA2BCF
:104F50000E94322DBE016F5F7F4F0E94AB2C898172
:104F60000F90DF91CF9108952FB7FC012083F89423
:104F700067706093E9000895CF93DF931F92CDB7D8
:104F8000DEB7682FCE0101960E94B4278091F2000F
:104F900099819FBF0F90DF91CF910895FF920F935A
:104FA0001F93CF93DF9300D0CDB7DEB7F62E8A01E3
:104FB0009091BB07992311F057FF03C08FEF9FEF2C
:104FC0002BC0682FCE0101967A830E94B42780916E
:104FD000F20090E0A8017A81801791070CF4AC01EF
:104FE000EF2DF72FF40E84E6FE1639F02898809303
:104FF000BC079091F1009193F7CF4115510521F035
:105000008091F200882321F089818FBFCA0104C0FA
:105010008BE68093E800F8CF0F900F90DF91CF914F
:105020001F910F91FF900895CF93DF931F92CDB7FB
:10503000DEB741E050E0BE016F5F7F4F0E94CE2798
:10504000019719F4898190E002C08FEF9FEF0F90D4
:10505000DF91CF910895CF93DF931F92CDB7DEB745
:10506000682FCE0101960E94B4279091E800892F05
:10507000807295FF04C09091F20080E4891B9981B1
:105080009FBF0F90DF91CF9108956F927F928F9283
:105090009F92AF92BF92CF92DF92EF92FF920F93C7
:1050A0001F93CF93DF931F92CDB7DEB7782E7B018E
:1050B000C42EB52E8091BB07882369F0042F152FCD
:1050C0008AEFD82E872D8072982E9AE3A92E872DED
:1050D0008074882E11C08FEF9FEF57C0872D0E94DC
:1050E0002B28682E81110CC0DA94A9F361E070E0DE
:1050F00080E090E00E94F4240115110579F73BC08F
:10510000282F30E0021713070CF4602E672DCE0114
:1051100001960E94B4278091E80085FF29C0262DC2
:1051200030E0021B130B992039F06A948FEF681658
:10513000B1F01092F100F9CFF701862D77FE07C08C
:10514000815058F094919093F1003196F9CF8150AD
:1051500020F091919093F100FACFE20EF31E80912E
:10516000E80085FF0FC00115110511F481100AC078
:1051700089818FBFC1CF5D9884E68093BD078C2D58
:105180009B2D03C0A092E800F3CF0F90DF91CF9149
:105190001F910F91FF90EF90DF90CF90BF90AF9055
:1051A0009F908F907F906F9008951092E9001092D9
:1051B000B8071092B7079093B6078093B507089584
:1051C000CF92DF92FF920F931F93CF93DF9300D084
:1051D000CDB7DEB7F82E8A016B0101151105B1F0CC
:1051E000F601F7FE02C0849101C0808149835A8391
:1051F0000E94102701501109FFEFCF1ADF0A4981E1
:105200005A818111EACF8FEF9FEF01C0CA010F9041
:105210000F90DF91CF911F910F91FF90DF90CF9072
:105220000895BF92CF92DF92EF92FF920F931F9358
:10523000CF93DF936C018B01EB013BEFB32E2097F3
:10524000C1F07E01C134D1051CF020E4E22EF12C26
:105250008091E80082FFFCCFC8018C1B9D0B6E2D56
:105260008C0D9D1D0E940327B092E800CE19DF0926
:10527000E6CFC801DF91CF911F910F91FF90EF9082
:10528000DF90CF90BF9008951F920F920FB60F92AC
:105290001124DF92EF92FF920F931F932F933F936E
:1052A0004F935F936F937F938F939F93AF93BF932E
:1052B000EF93FF93CF93DF93CDB7DEB76C97DEBF4D
:1052C000CDBF1092E9008091E80083FF23C168E020
:1052D000CE0145960E94032782EF8093E8003D8926
:1052E00037FF05C08091E80080FFFCCF03C08EEF40
:1052F0008093E800832F807609F0F0C02E894F89D3
:10530000D88C21110CC0303829F48091BA078093D1
:10531000F10002C01092F1001092F100F4C0842F4D
:1053200090E09D29213049F43111EDC0019709F039
:10533000EAC08091BA078D7F0AC0233059F4311139
:10534000E2C0019709F0DFC08091BA0782608093C4
:10535000BA07D9C0253041F48091E80080FFFCCF26
:1053600040684093E300CFC0263009F08DC0EB8C3D
:10537000FC8C22E0D2122CC080E090E00E94D52864
:105380000E949E2799E08E010F5F1F4FF801292F81
:1053900011922A95E9F79983DA8291E09E8390EA47
:1053A00098879AEF99872091B7073091B807275FC0
:1053B0003F4F3C832B838D83C7010E94D52849E052
:1053C00050E0B80180E00E94E0280E949E279BC028
:1053D000C7010E94D5280E94322DBE016B5E7F4F0F
:1053E0000E94D42C009719F00CF08DC090C081E081
:1053F000D8120EC08B8D9C8D089719F481E0809394
:10540000B4078091B40781112FC06CE177E131C0FE
:10541000E3E0DE127CC08F89882349F1823029F4D1
:1054200040E867E08AE397E11CC0813029F440E856
:105430006BE08EE297E115C0833009F068C00E94EE
:10544000322D8E010F5F1F4FB8010E94F32CF8011F
:1054500001900020E9F73197E01BF10B40E06E2F3F
:10546000C8010E943E274DC06AE077E102C062E4B5
:1054700077E16115710509F44AC0FB01449150E0E0
:1054800080E80E94E0283FC0273009F440C028305F
:1054900021F481E08093F10036C02930A1F533700A
:1054A000B1F5EBE0F1E081E021E036E39081992372
:1054B00061F08093E9002093EB0091919093EC00D0
:1054C0003093ED008F5F873089F78EE78093EA0095
:1054D0001092EA008F898093BB0715C08B8D9C8D3D
:1054E0000E94D528898D811105C0CE0145960E9464
:1054F000052C07C00E94322DBE016B5E7F4F0E94BB
:10550000122D882321F08EEF8093E80003C081E202
:105510008093EB006C960FB6F894DEBF0FBECDBF44
:10552000DF91CF91FF91EF91BF91AF919F918F91BB
:105530007F916F915F914F913F912F911F910F91AB
:10554000FF90EF90DF900F900FBE0F901F90189577
:105550008093E9008091F200882319F08AE3809318
:10556000E80008951F920F920FB60F9211242F9307
:105570003F934F935F936F937F938F939F93AF93DB
:10558000BF93CF93EF93FF93C091E1008091E1002F
:10559000837F8093E1008093E100C3FF0FC01092EE
:1055A000E90081E08093EB001092EC0082E38093AD
:1055B000ED001092BB0788E08093F000C2FF19C095
:1055C00083E00E94A82A8091BD07882339F080914A
:1055D000BD0781508093BD07882389F18091BC0766
:1055E000882339F08091BC0781508093BC078823C1
:1055F00041F1C4FF10C08091E2008E7E81608093F3
:10560000E2008091E1008F7E8093E1008091B907F4
:105610008E7E806111C0C0FF16C08091E2008E7E38
:1056200080618093E2008091E1008E7E8093E100B2
:105630008091B9078E7E81608093B90704C05D9A1E
:10564000CDCF289AD6CFFF91EF91CF91BF91AF9157
:105650009F918F917F916F915F914F913F912F918A
:105660000F900FBE0F901F9018951092BB071092CD
:10567000BA071092B9070E947B278091E1008E7EC5
:105680008093E1008DE08093E200559A209AEEEF3E
:10569000FFE7859194918B3F9C4D19F481E08093B5
:1056A0000E080895611571058105910511F00C949E
:1056B000D62F0895CF93DF9300D000D0CDB7DEB7BB
:1056C0009B01AC01611571058105910569F0698344
:1056D0003A834B835C830E94D12F29813A814B818D
:1056E0005C810E94432F03C060E070E0CB010F900B
:1056F0000F900F900F90DF91CF910895CF92DF928E
:10570000EF92FF926B017C01621773078407950784
:1057100064F4CA01B9016C197D098E099F090E94C0
:105720005A2B6C0D7D1D8E1D9F1DFF90EF90DF90FD
:10573000CF90089508950E94DF2FCF93DF931F929B
:10574000CDB7DEB76983DC01ED91FC910280F38176
:10575000E02D41E050E0BE016F5F7F4F09950F9053
:10576000DF91CF910895CF93DF93EC018C859D85D8
:1057700097FF05C082E00E9414289D878C878C8546
:105780009D85DF91CF91089583E00C94A82AFC01B8
:105790008485958597FD06C082E00E94BC2790E035
:1057A0000196089582E00E94BC2790E00895FC01D4
:1057B0008485958597FD05C02FEF3FEF35872487BA
:1057C000089582E00C941428CF93DF93EC0180912C
:1057D0001C01882331F083E00E9445281816190621
:1057E00034F081E090E09B838A8380E090E0DF9159
:1057F000CF910895FC0120812E5F208342E450E088
:1058000066E477E180E80C94E028FC012181808146
:10581000813A59F4213209F04BC047E050E065E18C
:1058200071E080E00E94E0285EC0813209F040C053
:10583000233289F4838190E0982F88273281832B4B
:10584000A0E0B0E08093110190931201A0931301A6
:10585000B09314010FC0203239F467E070E085E1A5
:1058600091E00E94112909C0223221F482818093A3
:105870001C0103C02D7F2032B1F580910E088111EB
:1058800003C0E0E0F8E002C0EEEFFAE0809115011D
:1058900090911601A0911701B0911801803B94409E
:1058A000A105B10511F580911C0180FF03C01DC049
:1058B00080E00895EE3F2AE0F20731F08081918187
:1058C0009093FF0A8093FE0A87E797E7918380838E
:1058D0002BE088E190E00FB6F894A89580936000E3
:1058E0000FBE2093600081E0089588E10FB6F89420
:1058F00080936000109260000FBEA895EE3F8AE092
:10590000F80739F08091FE0A9091FF0A9183808315
:10591000EACF1092FF0A1092FE0AE5CF1092C1075B
:105920001092C00788EE93E0A0E0B0E08093C20739
:105930009093C307A093C407B093C50781E391E098
:105940009093BF078093BE078FEF9FEF9093CB0795
:105950008093CA070895EF92FF920F931F93CF93FE
:10596000DF937B01FC01C281D38100E010E020972E
:1059700081F0E881F9810280F381E02DB701CE0149
:10598000099597FD08C0080F191F0884D985C02DF7
:10599000EECFC80102C08FEF9FEFDF91CF911F9133
:1059A0000F91FF90EF9008950F931F93CF93DF9384
:1059B0008B01FC01C281D381209771F0E881F981CC
:1059C0000480F581E02DB801CE010995009731F4EE
:1059D0000884D985C02DF0CF80E090E0DF91CF9191
:1059E0001F910F9108950F931F93CF93DF938B0116
:1059F000FC01C281D381209771F0E881F981068092
:105A0000F781E02DB801CE010995080F111D08841A
:105A1000D985C02DF0CFF8011082DF91CF911F9171
:105A20000F9108950F931F93CF93DF938B01FC0188
:105A3000C281D381209771F0E881F9810190F081D2
:105A4000E02DB801CE010995811106C00884D985E1
:105A5000C02DF0CF80E001C081E0DF91CF911F9198
:105A60000F9108958091130881110DC082E08093F9
:105A70000F0884E080931008109212081092110809
:105A800081E0809313088FE098E008955058BB2779
:105A9000AA270ED00DC1FED030F003D120F031F492
:105AA0009F3F11F41EF4F3C00EF4E095E7FBE9C04C
:105AB000E92F0FD180F3BA176207730784079507A0
:105AC00018F071F49EF527C10EF4E0950B2EBA2F55
:105AD000A02D0B01B90190010C01CA01A0011124F4
