:100000000C94320C0C945A0C0C945A0C0C945A0C00
:100010000C945A0C0C945A0C0C945A0C0C945A0CC8
:100020000C945A0C0C945A0C0C94852D0C94172C8F
:100030000C945A0C0C945A0C0C945A0C0C945A0CA8
:100040000C945A0C0C94C4220C945A0C0C945A0C18
:100050000C945A0C0C945A0C0C945A0C0C94B02618
:100060000C945A0C0C945A0C0C945A0C0C945A0C78
:100070000C945A0C0C945A0C0C945A0C0C945A0C68
:100080000C9437230C945A0C0C945A0C0C945A0C64
:100090000C945A0C0C945A0C0C945A0C0C945A0C48
:1000A0000C945A0C0C945A0C0C945A0C6E0C7D0C3B
:1000B0008C0C9B0CAA0CB90CC90CD80CE80CF80CD5
:1000C000080DDF27E427E927F327FD2747284728DE
:1000D0004728072811281B282528322847283A288E
:1000E00068286B285A285E2864288C288C288C283D
:1000F0006F28732877287D2881288C2887280A2054
:1001000020413D53656C65637420423D4261636BE1
:10011000000A0A202055502F444F574E3D43686F28
:100120006F7365002043686F6F7365206C6576653B
:100130006C20746F20706C61790A0A004C657665DA
:100140006C2053656C6563740A0A000A2020413DE7
:1001500053656C65637420423D4261636B000A0A1B
:10016000202055502F444F574E3D43686F6F7365A5
:10017000000A0A2020536176652066696C65206458
:10018000656C6574656421000A202044656C6574A3
:100190006520736176652066696C65000A20204CD5
:1001A0006576656C2053656C656374004F46460048
:1001B0004F4E002020417564696F3A20004F7074E3
:1001C000696F6E73204D656E750A0A0000000000AD
:1001D000003E5B4F5B3E3E6B4F6B3E1C3E7C3E1CCD
:1001E000183C7E3C181C577D571C1C5E7F5E1C0013
:1001F000183C1800FFE7C3E7FF0018241800FFE7CA
:10020000DBE7FF30483A060E2629792926407F058C
:100210000507407F05253F5A3CE73C5A7F3E1C1CA2
:1002200008081C1C3E7F14227F22145F5F005F5F62
:1002300006097F017F006689956A6060606060944E
:10024000A2FFA29408047E040810207E2010080853
:100250002A1C08081C2A08081E101010100C1E0C5E
:100260001E0C30383E3830060E3E0E0600000000F0
:100270000000005F00000007000700147F147F14D7
:10028000242A7F2A1223130864623649562050001C
:1002900008070300001C2241000041221C002A1C08
:1002A0007F1C2A08083E08080080703000080808F3
:1002B0000808000060600020100804023E51494513
:1002C0003E00427F400072494949462141494D3331
:1002D0001814127F1027454545393C4A4949314198
:1002E000211109073649494936464949291E000066
:1002F00014000000403400000008142241141414BB
:100300001414004122140802015909063E415D59A6
:100310004E7C1211127C7F494949363E41414122AF
:100320007F4141413E7F494949417F090909013ED9
:10033000414151737F0808087F00417F4100204000
:10034000413F017F081422417F404040407F021C12
:10035000027F7F0408107F3E4141413E7F09090929
:10036000063E4151215E7F091929462649494932F5
:1003700003017F01033F4040403F1F2040201F3FBB
:100380004038403F63140814630304780403615940
:10039000494D43007F414141020408102000414182
:1003A000417F04020102044040404040000307082E
:1003B0000020545478407F2844443838444444282A
:1003C000384444287F385454541800087E090218D1
:1003D000A4A49C787F0804047800447D4000204059
:1003E000403D007F1028440000417F40007C04789D
:1003F00004787C080404783844444438FC182424E5
:100400001818242418FC7C08040408485454542464
:1004100004043F44243C4040207C1C2040201C3CE1
:100420004030403C44281028444C9090907C4464D8
:10043000544C44000836410000007700000041366B
:10044000080002010204023C2623263C1EA1A161F1
:10045000123A4040207A3854545559215555794123
:100460002154547841215554784020545579400CFA
:100470001E527212395555555939545454593955DB
:100480005454580000457C410002457D420001451E
:100490007C40F0292429F0F0282528F07C5455458B
:1004A000002054547C547C0A097F4932494949321E
:1004B0003248484832324A4848303A4141217A3A33
:1004C00042402078009DA0A07D39444444393D40FD
:1004D00040403D3C24FF2424487E4943662B2FFCAA
:1004E0002F2BFF0929F620C0887E09032054547958
:1004F000410000447D413048484A32384040227A29
:10050000007A0A0A727D0D19317D2629292F2826A5
:100510002929292630484D402038080808080808AD
:100520000808382F10C8ACBA2F102834FA00007B06
:10053000000008142A142222142A1408950022000C
:1005400095AA005500AAAA55AA55AA000000FF00C6
:10055000101010FF00141414FF001010FF00FF1003
:1005600010F010F0141414FC001414F700FF000035
:10057000FF00FF1414F404FC141417101F10101FB4
:10058000101F1414141F00101010F0000000001FA2
:10059000101010101F10101010F010000000FF10AD
:1005A0001010101010101010FF10000000FF1400A9
:1005B00000FF00FF00001F10170000FC04F41414DB
:1005C0001710171414F404F40000FF00F7141414A7
:1005D00014141414F700F7141414171410101F1027
:1005E0001F141414F4141010F010F000001F101F4A
:1005F0000000001F14000000FC140000F010F010B8
:1006000010FF10FF141414FF141010101F0000002E
:1006100000F010FFFFFFFFFFF0F0F0F0F0FFFFFF32
:100620000000000000FFFF0F0F0F0F0F3844443889
:10063000447C2A2A3E147E02020606027E027E02C4
:1006400063554941633844443C04407E201E2006E3
:10065000027E020299A5E7A5991C2A492A1C4C7220
:1006600001724C304A4D4D303048784830BC625AA7
:10067000463D3E494949007E0101017E2A2A2A2A37
:100680002A44445F444440514A444040444A514013
:100690000000FF0103E080FF000008086B6B0836D4
:1006A00012362436060F090F060000181800000045
:1006B0001010003040FF0101001F01011E00191D34
:1006C0001712003C3C3C3C000000000006011501F4
:1006D000260137014A015D01720188019F01B801BD
:1006E000D201EE010B022A024B026E029302BA0201
:1006F000E40210033F037003A403DC031704550452
:100700009704DD0427057505C80520067D06E0066B
:100710004907B8072D08A9082D09B9094D0AEA0AA1
:10072000900B400CFA0CC00D910E6F0F5A10531124
:100730005B1272139A14D41520178018F519801BB8
:10074000231DDE1EB420A622B524E4263429A72BBF
:10075000402E0031EA330037453ABC3D68414C45F4
:100760006B49C84D68524F57805C006210111213DC
:10077000151617181A1C1D1F21232527292C2E3169
:1007800034373A3E4145494E52575C62686E757B3C
:10079000838B939CA5AFB9C4D0DCE9F70301D5F0F6
:1007A0008D14A1C881CFD9F1AF2000140213021219
:1007B0000215020702080204010C010601000000F4
:1007C000400044040000000000044000400000001D
:1007D000044000000020FF04A000400020FF04A00F
:1007E00000000080FE04A000400080FE04A0000085
:1007F0000000FE044000400000FE0440000000FC39
:10080000FD4404001D0014FF0A1902190010FF1214
:1008100021005AFFE8FF100406190010FF12210002
:100820004C011C00100406190010FF1221003BFFB0
:100830006CFE100406190010FF122100EE006CFE81
:100840001004061A003C001004081A0000FE1004F0
:10085000084CFF0000B404004CFFBCFFB40400E0EF
:10086000FFF8FF040701E0FFC1FF04070BC0FFE72B
:10087000FF0A1900C0FFC0FF0A1900A0FFC9FF0A44
:100880002E0080FFF7FF0B090080FFC0FF0B09005F
:1008900084FFEFFF04070184FFCAFF04070B4CFF2E
:1008A000C0FF0440005AFFECFF1014004400000099
:1008B000A004004400BCFF20040064009CFF8004EE
:1008C000006400A0FF042000E000A0FF042000AEB0
:1008D00000A0FF323C00C200FCFF100406E4002030
:1008E00000800400E40000000420006001C0FF0458
:1008F00060002E01E4FF323C004C01E0FF100406D2
:10090000E400BCFF800400E0FF80FE200400E0FF64
:100910003CFE200400DCFF80FE044000DCFF00FE03
:1009200004400018FFC0FEC8040018FFFCFDC80406
:100930000018FF00FE04C000B6FF9DFE0F0400B6C5
:10094000FF1FFE0F04008DFF7FFE0F04008DFF3D93
:10095000FE0F040064FF5FFE0F04003BFF70FE10FB
:1009600004003BFF4CFE100400440080FE20040005
:1009700044003CFE200400640080FE04400064004B
:1009800000FE0440006400C0FE8004006400FCFD22
:10099000800400E00000FE045000E00070FE0450FF
:1009A00000E40070FE200400E4004CFE200400047B
:1009B000014CFE042800CC000CFE04A8006400607A
:1009C000FE6804003000ECFF0A1402280000001842
:1009D00004000000E8FF40040000004000FF0400A5
:1009E0000000E8FF0458004000A0FF0480008000E1
:1009F000E4FF045C00FF0040008F04006200200060
:100A00001E04007800180004070174002500040784
:100A10000B440000001E04004900F8FF0407014DCC
:100A200000050004070B6200E0FFBC04007800CC66
:100A3000FF1414004800BCFF1004067400E5FF0416
:100A4000070B4400C0FF1E040040009CFF4404004C
:100A50008000A0FF042C000001E4FF044800840093
:100A6000C8FF200400A400A8FF042400A800A8FFD9
:100A7000580400AC00ADFF04070BB600ADFF04073F
:100A80000BCD00D8FF040701D700D8FF040701EE03
:100A900000ADFF04070BF800ADFF04070B0001A831
:100AA000FF0420000401C4FF4004004401A6FF0429
:100AB00062003D01C9FF04070B1701E5FF04070BA6
:100AC000260108004604002A010D0004070B6401FA
:100AD0002C001414008C003C0010040644012C006F
:100AE0000514036C01C4FF046800C000080004384A
:100AF00000C1000000040701C40028001E0400A279
:100B00000028001E0400E20008001E040084000803
:100B1000001E04008A01A6FF049A004801A6FF42B5
:100B20000400520104001004085A00ACFF02140330
:100B30000000300028040028001C000418002800D1
:100B400018002804005000040004180050000000A1
:100B50002804005000F6FF0A0A007800ECFF041891
:100B6000007800E8FF2804007C00E1FF040701A0F2
:100B700000D4FF041800A000D0FF280400A00062E9
:100B8000FF045F00B400BCFF051403C800BCFF04F1
:100B90001800C800B8FF280400C6004AFF0B550023
:100BA000CA009EFF04070BF000A4FF041800F00029
:100BB000A0FF280400F0008CFF14140018018CFF23
:100BC000041800180188FF280400400174FF04186D
:100BD00000400170FF0A040068015CFF041800680F
:100BE0000158FF2804007C0144FF051403900144D0
:100BF000FF041800900140FF2804009C0139FF0405
:100C00000701B20139FF040701B8012CFF041800E5
:100C1000B80128FF280400C40121FF040701E001F6
:100C200014FF041800E00110FF2804000802DAFE97
:100C3000041E00F4010CFF1004060802FCFE041858
:100C4000000802F8FE280400F4010CFF100406302E
:100C500002E4FE0418003002E0FE2804004402C74B
:100C6000FE0A190200004000800400FCFF0000049E
:100C70004400000000005404007C00C0FF04800019
:100C80005400C0FF04806462003C00100407780038
:100C900040FF048400580040FF0484007400C0FE3C
:100CA0000484005C0098FE04AC007800C0FEA80438
:100CB00000600098FE9E0400D000B1FE0F0F0020DF
:100CC000010CFE04B800FE000CFE04900002018935
:100CD000FE1E1E000C01BCFE100406240154FD047F
:100CE000BC00FA0054FD04BC00C80054FD320400EE
:100CF000280154FD320400C8001CFD0438005601D0
:100D00001CFD04380082001CFD4604008200F4FC37
:100D10000428008200F0FC6E0400F000F0FC0446A1
:100D200000F40032FD3A04002E01F0FC04460032CB
:100D300001F0FC8204000C0136FD0C0C00CC001606
:100D4000FD242400400150FD100406320116FD244C
:100D500024008C0018FD100406500088FF080400D1
:100D60008000CCFF080400780006FF080400F600AD
:100D700036FE0804002801DAFD080400280176FD8B
:100D8000080400F200A8FD0804005A011CFD280414
:100D90000082011CFD04AC00B001F4FC04D4008608
:100DA00001C4FD04AC00AC01C4FD04AC008A016CBC
:100DB000FE04AC00A8016CFE04AC008E0114FF041C
:100DC000AC00A40114FF04AC009601A3FF0A1902B1
:100DD0009201BCFF120400CEFF4000690400ECFF4A
:100DE0001000043000F6FF3C001004063300100031
:100DF00004300083FF0C00B40400CEFF4400044024
:100E00000001FF8400D1040065FF4400044000831A
:100E1000FF10000474646EFF80001004071FFF00C1
:100E200000044A00E3FE440004400001FF8000107B
:100E3000046AEDFE800010040702FE8400FF040037
:100E40005FFE6B000A196634FE680010046BACFE8E
:100E5000500010046B0CFE740010046B5CFE5C0010
:100E600010046B84FE680010046B0CFE500010042C
:100E70006BACFE740010040702FE00000484000046
:100E8000004000FF040000000000FF040000000418
:100E900000043C004200090004070B420034000437
:100EA00007013E0004000B04003E003C000B040060
:100EB00082000D0004070B820030000407017E0051
:100EC00004000B08007E0038000B0800C200090077
:100ED00004070BC2002C00040701BE0004000B0431
:100EE00000BE0034000B0C00F0002C00051403229F
:100EF0000140001404004201090004070B420134C0
:100F0000000407014C01090004070B4C01340004E4
:100F100007015E012C001404007E01F5FF04070B9D
:100F20007E0120000407018801F5FF04070B8801FA
:100F300020000407019A01AF00820400F4019B0025
:100F4000051403FE018200A10400FE01BE00A104FD
:100F5000000202B6002C080F020286002C08103492
:100F600002B6002C080F340286002C08106602B668
:100F7000002C080F660286002C08109802B70004A7
:100F800007019802870004070B2D02A0001E040031
:100F90005802AF001E04007B029B001E0400940256
:100FA000AF00600400BC029B0005140309039C0011
:100FB00004070B050369000B32002003AF001E0479
:100FC000002F0396000A190200004000FF040000F1
:100FD000000000044000420039000407018200398B
:100FE000000407018C003900040701960039000451
:100FF0000701D6003900040701E0003900040701A9
:10100000F900390004070103013900040701FE005B
:101010004000C00400390138002C080F6B01390072
:101020000407014D012C000E040089012C00051459
:1010300003BE014000040E00BE014E00400400FA51
:10104000014000040E00C4014700040701D001471D
:1010500000040701DC014700040701E80147000420
:101060000701F4014700040701FE014000C8040025
:101070000A0238002C080F770239000407017D02AC
:1010800036000B0A0081022F0004070187022C00A2
:101090000B0A00870236000B0A008B0225000407AA
:1010A00001910236000B0A0095022F000407019FF0
:1010B000023900040701B20227000A1902000040A9
:1010C00000FF0400FCFFE0FF046400400031000F5B
:1010D0000F006000E0FF0F5100A0002C001414006E
:1010E000C000E0FF0F5600FE002C00051403FF00B7
:1010F0004000FF04002E0138000407014601E0FF14
:101100000B50006C0131000F0F008A01270004070B
:101110000B8601E0FF0B4600AE013800040701CA50
:1011200001270004070BC601E0FF0B4600EA012778
:10113000000A1902FE01E0FF04640000004000E024
:10114000040040002800200400600010001E04007D
:101150008000F4FF1C0400A000DCFFE00400E000BD
:10116000C4FF1404000001ACFF120400200194FF2E
:1011700010040040017CFF800400600164FF14043F
:101180000080014CFF120400600134FF1004008055
:10119000011CFF4004009A0103FF0A1902ACFF4042
:1011A0000094040040001C0004280000001C0040C3
:1011B0000400E0FF1C00200E00C0FF1C00201400F3
:1011C000A0FF1C0020180040FF80006C0400ACFF52
:1011D000440004400060FF5F002017007CFF3F00D8
:1011E00004200040FF400004400040FF3C00400459
:1011F000006AFF46000A1902000040004004003C5B
:101200000044000420000000100004300000000C26
:101210000056040056000C000420003C006400AAA4
:10122000040056002C0064040078005A000A0A00EA
:101230009B0055000F0F00C80055000F0F00D7008E
:1012400055000F0F00DC004B000A0A00E6004B00BF
:101250006404002C012D001E1E004A010F001E1EFA
:101260000068010F00460400BA001800041800BA14
:101270000014005004000A01E2FF0436000E01E2EF
:10128000FFA00400AA01E6FF0429009601F6FF0A68
:101290001902C0F0380C06060303030306060C38D7
:1012A000F0C0030F1C306060C0C0C0C06060301C64
:1012B0000F03080C0A090909090909090909090A9A
:1012C0000C0880C0E030B0B030E0C08078FCFE0395
:1012D0006B6B87FEFC78070F1F303D3D301F0F07FB
:1012E00000000103030303010000FFFFFFFF01FDF6
:1012F000FDFDFDFF01FDFDFD01FF01FDFDFD01FF08
:1013000001EDEDEDEDFFFFFFFF3F3F3F3F3C3D3D7A
:101310003D3D3F3C3D3D3D3C3F3C3F3F3F3C3F3CF6
:101320003F3F3F3F3F3F3F3FFFFFFFFF01EDEDED01
:10133000E1FF01FFFFFFFFFF03DDDDDD03FFF1CF75
:101340003FCFF1FFFFFFFF3F3F3F3F3C3F3F3F3F6E
:101350003F3C3D3D3D3D3F3C3F3F3F3C3F3F3F3CB1
:101360003F3F3F3F3F3F0080C0E0F07078383C1C7B
:101370001C1E0E0E0E0E07070707070707070707B5
:1013800007070707070707070707070707070707ED
:1013900007070707070707070707070707070707DD
:1013A00007070707070707070707070707070707CD
:1013B00007070707070707070707070707070707BD
:1013C00007070707070707070707070707070707AD
:1013D0000707070707070E0E0E0E1E1C1C3C387869
:1013E00070F0E0C08000FEFFFF030000000000007E
:1013F000000282BE828280BE888888BE80BEAA2A01
:101400002A000000000000000000000000000000B2
:1014100000000000000080808080800000000080CC
:1014200080808080000000008080808080808080BC
:1014300080808080808000000000808080808080AC
:10144000808080808080800000000000808080801C
:10145000808080808080808080800000000000008C
:10146000000003FFFFFEFFFFFF0000000000000080
:1014700000FFFF0301F9F989898989F9710183FF67
:10148000FE0000000000000000000000000000005E
:101490000000000000FFFF030103FFFF0000FFFF4B
:1014A000030103FFFF0000FFFF0301010101010130
:1014B0000101010103FFFF0000FFFF0301010181A2
:1014C000C1C1C1C1C1C1E37F3E0000FFFF030101F3
:1014D000E1F1B1B1B1B1B1B13B3F1F00000000007B
:1014E000000000FFFFFFFFFFFF0000000000000002
:1014F00000FFFF0000F8F888888888F870070FFD63
:10150000F8000000000000000000000000000000E3
:101510000000000000FFFF0000003F7F60607F3F91
:10152000000000FFFF0000FFFF000000FEFF0303BC
:10153000FFFE000000FFFF0000FFFF000000000FA3
:101540001F181818181838F0E00000FFFF000000FE
:10155000387D6D6D6D6D6D6FE7E0C00000000000BF
:10156000000000FFFFFFFFFFFF0000000000000081
:1015700000070F0C0C0C0C0C0C0C0C0C0C0C0E07BC
:101580000300000000000000000000000000000058
:101590000000000000070F0E0C0C0C0C0C0C0C0CC7
:1015A0000C0C0E0F070000070F0E0C0E0F070000AB
:1015B000070F0E0C0E0F070000070F0E0C0C0C0C83
:1015C0000C0C0C0C0C0C0E07030000070F0C0C0C81
:1015D0000C0C0C0C0C0C0C0C0E0F07000000000087
:1015E000000000FFFFFFFFFFFF0000000000000001
:1015F00000000000000000000000000000000000EB
:1016000000000000000000000000000000000000DA
:1016100000000000000000000000000000000000CA
:1016200000000000000000000000000000000000BA
:1016300000000000000000000000000000000000AA
:10164000000000000000000000000000000000009A
:10165000000000000000000000000000000000008A
:10166000000000FFFFFF7FFFFFC000000000000040
:10167000000000000000000000000000000000006A
:10168000000000000000000000000000000000005A
:10169000000000000000000000000000000000004A
:1016A000000000000000000000000000000000003A
:1016B000000000000000000000000000000000002A
:1016C000000000000000000000000000000000001A
:1016D000000000000000000000000000000000000A
:1016E0000000C0FFFF7F000103070F0E1E1C3C38E7
:1016F000387870707070E0E0E0E0E0E0E0E0E0E0BA
:10170000E0E0E0E0E0E0E0E0E0E0E0E0E0E0E0E0D9
:10171000E0E0E0E0E0E0E0E0E0E0E0E0E0E0E0E0C9
:10172000E0E0E0E0E0E0E0E0E0E0E0E0E0E0E0E0B9
:10173000E0E0E0E0E0E0E0E0E0E0E0E0E0E0E0E0A9
:10174000E0E0E0E0E0E0E0E0E0E0E0E0E0E0E0E099
:10175000E0E0E0E0E0E0707070707838383C1C1E2B
:101760000E0F070301000000000200090F00000334
:101770000401000C00000000000000000000000058
:1017800000000000000408020110408040102040CA
:101790008040800802040180402010020110801067
:1017A0002040402004040404040304050202020251
:1017B00004030202020206060606060604040202EA
:1017C00002040400000000250028002B002E003138
:1017D0000000000000240027002A002D0030001225
:1017E000010002EF020140412336800001010203A3
:1017F0000112010002000000404123368000010177
:1018000002030141726475696E6F204C4C430041C4
:10181000726475626F790004030904080B00020208
:10182000020100090400000102020000052400106A
:101830000105240101010424020605240600010714
:1018400005810310004009040100020A000000079E
:1018500005020240000007058302400000008518D1
:10186000A326612F11241FBECFEFDAE0DEBFCDBF6C
:1018700011E0A0E0B1E0E0ECF5E602C005900D92C9
:10188000A834B107D9F728E0A8E4B1E001C01D925F
:10189000A632B207E1F718E1C4E6D8E104C0229706
:1018A000FE010E943732CE35D107C9F70E94FD28CC
:1018B0000C94DE320C9400001F93CF93DF93182F0B
:1018C000482F50E0FA013197EB30F10508F0C5C020
:1018D000EA5AFF4FC0E0D0E00C943532BE016850A8
:1018E0007E4E47E050E0CE01875B9E4F0E94B732AC
:1018F0002796CA39D10591F79BC0BE0163567E4E2B
:1019000047E050E0CE01875B9E4F0E94B73227969A
:10191000CB35D10591F78EC0BE01655C7E4E47E0A8
:1019200050E0CE01875B9E4F0E94B7322796C236A9
:10193000D10591F781C0BE0163547F4E47E050E06E
:10194000CE01875B9E4F0E94B7322796CE37D105D6
:1019500091F774C0BE016853704F47E050E0CE016C
:10196000875B9E4F0E94B7322796C53FD10591F7FE
:1019700067C0BE016158714F47E050E0CE01875B00
:101980009E4F0E94B7322796C93481E0D80789F765
:1019900059C0BE016952724F47E050E0CE01875BEB
:1019A0009E4F0E94B7322796C83AD10591F74CC096
:1019B000BE016C59734F47E050E0CE01875B9E4FEC
:1019C0000E94B7322796C33781E0D80789F73EC017
:1019D000BE01605D744F47E050E0CE01875B9E4FD3
:1019E0000E94B7322796C43381E0D80789F730C008
:1019F000BE016C53764F47E050E0CE01875B9E4FAF
:101A00000E94B7322796CC3681E0D80789F722C0EA
:101A1000BE016254784F47E050E0CE01875B9E4F95
:101A20000E94B7322796C63082E0D80789F714C0E3
:101A300096E113C09DE011C09EE00FC092E10DC081
:101A400093E20BC09FE209C098E107C095E305C08F
:101A50009CE203C094E301C09AE490935B0310936B
:101A60005C0380E290E0909356038093550390933B
:101A70005403809353038AE999E9A9E1BEE3809373
:101A8000AB079093AC07A093AD07B093AE0740E2CD
:101A900050E060E270E08AE997E0DF91CF911F911A
:101AA0000C946E268EE593E00E94E9186EE18EE5B7
:101AB00093E00E94091982EC91E00E94C032809369
:101AC00048019FEF980F9A3018F08B3019F481E09D
:101AD0000C945C0C61E082EC91E00E94C83281E0E1
:101AE0000E945C0C81E08093480108952F923F9200
:101AF0004F925F926F927F928F929F92AF92BF921E
:101B0000CF92DF92EF92FF920F931F93CF93DF93C9
:101B1000CDB7DEB72E970FB6F894DEBF0FBECDBFA0
:101B20008EE593E00E941E19882311F40C946C1822
:101B30008EE593E00E94FF1C80910901813009F03D
:101B4000E0C068E08EE593E00E944B20882391F08E
:101B500080915D0381112DC080910801813011F4C5
:101B600082E001C084E0809309018EE593E00E9449
:101B700084191CC060E28EE593E00E944B20811125
:101B800009C060E48EE593E00E944B20882311F4A5
:101B90000C945F1880915D0381110BC08091080146
:101BA000813011F00C945A181092080181E0809352
:101BB0005D032AE939E949E15EE360914F037091E1
:101BC000500380915103909152030E941A304B01AF
:101BD0005C0160934F037093500380935103909383
:101BE0005203C0900401D0900501E0900601F090EE
:101BF000070120E030E040E052E4C701B6010E9456
:101C0000653187FD11C0C501B4019F7727ED33EA27
:101C100040E75FEB0E94693160934F03709350037C
:101C2000809351039093520320914F0330915003BE
:101C30004091510350915203C701B6010E941A30DE
:101C4000609304017093050180930601909307014E
:101C500080910801CC24C3948130A1F49EE0E92E48
:101C60000FE128E233E14FE250E06FE070E08EE5F3
:101C700093E00E94D91D2AE0E22E2AEE32E141E3F0
:101C800050E013C01AE0E12E0FE128E233E141E316
:101C900050E06FE070E08EE593E00E94D91D8EE089
:101CA000E82E2AEE32E14FE250E062E570E08EE588
:101CB00093E00E94D91DCC24C394A0E4EA2E00E84E
:101CC00026E633E140E050E060E070E08EE593E02E
:101CD0000E94D91D60910401709105018091060157
:101CE000909107010E948230B0E1EB2E00E122E9E1
:101CF00032E1AB016DE170E08EE593E00E94D91D09
:101D0000E3C5823009F028C460E88EE593E00E94C4
:101D10004B20882319F081E0809309016EE573E080
:101D20008AE997E00E948024C090A707D090A80776
:101D3000E090A907F090AA0720E030E046E953E4DC
:101D4000C701B6010E94653118164CF524E630E053
:101D500040E050E06CEB72E082E693E00E944A22A1
:101D60004091530350915403609155037091560371
:101D70008AE997E00E946E262FE431E03C832B83B2
:101D800089E491E09A838983AEE4B1E0BE83AD83B8
:101D9000EDE4F1E0F887EF83212C312C49C020E0FD
:101DA00030E04FEA53ECC701B6010E947E3087FF56
:101DB000E3CF80915C038830F9F28B3039F6DCCFC9
:101DC000C090A307D090A407E090A507F090A607C5
:101DD000A981BA810D90BC91A02DBE87AD87CD01A0
:101DE0000597BC01882777FD8095982F0E94B53014
:101DF0009B01AC01C701B6010E94653187FF1FC07E
:101E0000FFEF2F1A3F0A2B813C81295F3F4F3C8314
:101E10002B8389819A8107969A838983AD81BE81BC
:101E20001796BE83AD83EF81F8853796F887EF83E9
:101E300080915B0390E02816390614F22CC3EF81E1
:101E4000F88580812D853E85280F311D3A872987A9
:101E5000C9010596BC01882777FD8095982F0E94BF
:101E6000B5309B01AC01C701B6010E947E30181647
:101E70003CF28090A7079090A807A090A907B09087
:101E8000AA07A981BA8112960D911C911397C801D6
:101E90000597BC01882777FD8095982F0E94B53063
:101EA0009B01AC01C501B4010E94653187FDA8CF3B
:101EB000ED81FE8180819801280F311D3C872B87A1
:101EC000C9010596BC01882777FD8095982F0E944F
:101ED000B5309B01AC01C501B4010E947E301816DB
:101EE0000CF48ECFAD85BE85BD01882777FD80952A
:101EF000982F0E94B5302B013C019B01AC01C7011A
:101F0000B6010E94653187FD1DC1E985FA85BF01D3
:101F1000882777FD8095982F0E94B5309B01AC01F2
:101F2000C701B6010E947E3018160CF413C120E0E0
:101F300030E040E450E4C501B4010E941A302B01A6
:101F40003C01B801882777FD8095982F0E94B53015
:101F50009B01AC01C301B2010E94653187FDFAC04B
:101F60002B853C85B901882777FD8095982F0E94A5
:101F7000B5309B01AC01C301B2010E947E3018163E
:101F80000CF4E8C0AB81BC811C91153009F47BC016
:101F900038F41330A1F0B8F5123009F42AC10BC09F
:101FA000173009F497C008F475C0183009F4B0C0B0
:101FB000143609F456C1B1E0B093B40752C1809110
:101FC000550390915603AD85BE858A179B0709F48A
:101FD00048C124E630E040E050E060EA7FE082E67D
:101FE00093E00E944A22E981FA8180819181909355
:101FF000560380935503828193810C9790935403E9
:10200000809353032EC18091AF078823B9F1C1019A
:102010000196F7E0F89F8001F99F100D1124075BEE
:102020001E4FD80114962C91149726958D919C9152
:10203000820F911DBC01882777FD8095982F0E9403
:10204000B5306093A3077093A4078093A50790937E
:10205000A607F8018581869562817381680F711DDD
:10206000882777FD8095982F0E94B5306093A70749
:102070007093A8078093A9079093AA078AE997E02D
:102080000E949E26EEC08091AF078823B9F3C1015C
:102090000197BFCFF1E0F093B407E3E6AB81BC81D9
:1020A000EC9324E630E040E050E060ED77E082E63B
:1020B00093E00E944A22C101019727E0289FF00186
:1020C000299FF00D1124E75BFE4FDF011D922A9539
:1020D000E9F7C7C0B1E0B093B40723E6EB81FC8118
:1020E000208324E630E040E050E060ED77E082E6D7
:1020F00093E00E944A22C1010197189FF001199FA5
:10210000F00D1124E75BFE4F868184568683A9C0BB
:1021100031E03093B4078091AF07882309F4AECF44
:10212000C090AB07D090AC07E090AD07F090AE0741
:1021300020E030E0A901C701B6010E94653187FDAA
:102140009DCF78C0A3019201C701B6010E946531FD
:1021500087FD87C0A985BA85BD01882777FD809551
:10216000982F0E94B5309B01AC01C701B6010E94B7
:102170007E3018160CF475C020E030E040E450E4E6
:10218000C501B4010E9419306B017C01B801882798
:1021900077FD8095982F0E94B5309B01AC01C70157
:1021A000B6010E94653187FD5CC0EB85FC85BF01EF
:1021B000882777FD8095982F0E94B5309B01AC0150
:1021C000C701B6010E947E3018160CF44AC0AB81DC
:1021D000BC818C919EEF980F943048F0843609F4BE
:1021E00040C0B1E0B093B3078830D9F50CC082305D
:1021F000C1F5E3E0E093090122E030E030935403BD
:10220000209353032EC08091AF07882309F436CF63
:10221000C090AB07D090AC07E090AD07F090AE0750
:1022200020E030E0A901C701B6010E947E301816F7
:102230000CF424CFF7FAF094F7F8F094C092AB07BF
:10224000D092AC07E092AD07F092AE0724E630E002
:1022500040E050E060ED77E082E693E00E944A22A1
:102260000DCF4090A3075090A4076090A5077090F1
:10227000A60720E030E040E450E4C301B2010E9430
:102280001A306B017C01A981BA810D911C91B801B2
:10229000882777FD8095982F0E94B5304B015C010F
:1022A0009B01AC01C701B6010E94653187FD59C091
:1022B000EF81F88580819801280F311DB9018827A9
:1022C00077FD8095982F0E94B5309B01AC01C70126
:1022D000B6010E947E3018160CF443C0C090A707C8
:1022E000D090A807E090A907F090AA07A981BA8129
:1022F00012960D90BC91A02DBA87A987BD018827A1
:1023000077FD8095982F0E94B5309B01AC01C701E5
:10231000B6010E94653187FD24C0ED81FE81808178
:1023200069857A85680F711D882777FD8095982FBC
:102330000E94B5309B01AC01C701B6010E947E30FE
:1023400018167CF0AB81BC818C919EEF980F943075
:1023500008F468C0843609F465C0B1E0B093B207F0
:1023600061C020E030E040E450E4C301B2010E94CB
:1023700019306B017C01A50194010E94653187FD34
:1023800051C0EF81F8858081080F111DB8018827A1
:1023900077FD8095982F0E94B5309B01AC01C70155
:1023A000B6010E947E301816ECF1C090A707D090BD
:1023B000A807E090A907F090AA07A981BA81129610
:1023C0000D911C911397B801882777FD8095982F60
:1023D0000E94B5309B01AC01C701B6010E94653176
:1023E00087FD20C0ED81FE818081B801680F711DDD
:1023F000882777FD8095982F0E94B5309B01AC010E
:10240000C701B6010E947E30181664F0AB81BC8112
:102410008C919EEF980F943028F0843619F0B1E03B
:10242000B093B1078091B30781110DC08091B407BB
:10243000811109C08091B107811105C08091B20757
:10244000882309F4DDCCEB81FC818081813031F07F
:102450008B3021F08F50823008F0D2CC24E630E06F
:1024600040E050E068EE73E082E693E00E944A228A
:10247000409153035091540360915503709156035A
:102480008AE997E00E946E2664E670E080E090E0C2
:102490000E942927B5CC6091590370915A0388276F
:1024A00077FD8095982F0E94B5306B017C0120E06C
:1024B00030E040E852E46091A3077091A407809156
:1024C000A5079091A6070E941930A70196010E94C6
:1024D000193029E23CE54FE85DE30E9469319B0138
:1024E000AC01C701B6010E941A300E94823070937D
:1024F0005A036093590360915703709158038827DA
:1025000077FD8095982F0E94B5306B017C0120E00B
:1025100030E040E052E46091A7077091A8078091F5
:10252000A9079091AA070E941930A70196010E945D
:10253000193029E23CE54FE85DE30E9469319B01D7
:10254000AC01C701B6010E941A300E94823070931C
:10255000580360935703B8C1833009F059C062E053
:102560008EE593E00E9412198823F9F020E030E014
:1025700040E85FE36091A7077091A8078091A907E1
:102580009091AA070E9419306093A7077093A8073B
:102590008093A9079093AA078091530390915403C5
:1025A0000296909354038093530365E08EE593E085
:1025B0000E941219882339F080915B03882319F057
:1025C000815080935B038091530390915403813831
:1025D00091059CF082E08093090180915C038F5FFC
:1025E0000E945C0C82EC91E00E94C03260915C031E
:1025F000861718F46C3008F466C52AE030E040E035
:1026000050E068E873E182E693E00E944A225CC1F0
:10261000843009F0C8C040E050E060E070E08EE532
:1026200093E00E943F206DEB71E08EE593E00E9405
:102630004E2963EB71E08EE593E00E944E290E94E3
:102640006B20882319F060EB71E002C06CEA71E046
:102650008EE593E00E944E296CE971E08EE593E0EF
:102660000E944E2968E871E08EE593E00E944E29B1
:1026700068E08EE593E00E944B208823B9F18091B9
:102680005D03811177C080910801813041F1D8F05C
:10269000823051F561E082EC91E00E94C83281E025
:1026A0008093480161E771E08EE593E00E944E2936
:1026B0008EE593E00E94482060ED77E080E090E0B6
:1026C0000E94292711C00E946B20882319F00E94C4
:1026D0006E2002C00E945D200E947B2005C0809178
:1026E00009018F5F8093090181E00EC064E08EE5EF
:1026F00093E00E944B20882351F080915D0381116B
:1027000039C081E08093090180935D0333C060E8A4
:102710008EE593E00E944B20882389F080915D0331
:10272000811128C08091080181508093080191E0B7
:1027300090935D03883CF0F0109208011BC060E1AB
:102740008EE593E00E944B20882391F080915D03F9
:10275000811110C0809108018F5F8093080191E082
:1027600090935D03833030F082E08093080102C0D3
:1027700010925D0340910801F8E04F9FA0011124E1
:102780004D5E5F4F01E028E060E070E08EE593E091
:102790000E944A1C6EE571E08EE593E00E944E298E
:1027A0006BE471E08DC0853009F08EC040E050E0F0
:1027B00060E070E08EE593E00E943F206CE371E002
:1027C0008EE593E00E944E2964E271E08EE593E08D
:1027D0000E944E2960E88EE593E00E944B208823FA
:1027E000A1F080915D03811155C0809108018F5F38
:1027F0008093080191E090935D03909148019817B0
:1028000008F048C09093080145C060E18EE593E070
:102810000E944B20882391F080915D0381113AC082
:102820008091080181508093080191E090935D03AD
:10283000811130C081E0809308012CC068E08EE5F2
:1028400093E00E944B20882369F080915D03811101
:1028500021C0809108010E945C0C82E080930901F4
:1028600081E013C064E08EE593E00E944B20882352
:1028700079F080915D0381110DC080910901815033
:102880008093090181E08093080180935D0302C079
:1028900010925D036DE171E08EE593E00E94712975
:1028A0004AE050E0609108018EE593E00E94CF2954
:1028B00061E171E08EE593E00E944E296EEF70E0D9
:1028C0008EE593E00E944E2980910901825082306A
:1028D00008F0D4C3512CF7E0BF2E80915B0358164B
:1028E00008F001C3852C912CB89C3001B99C700C68
:1028F00011249301275B3E4F3901D90116964C9163
:10290000483009F4DFC0B0F4433009F49DC070F4DE
:102910008091590390915A032091570330915803A5
:102920004130A9F1423009F450C015C0463008F0DA
:1029300012C211C0403109F4A1C138F44B3009F47E
:1029400016C14F3009F44EC106C0433609F4E5C143
:10295000443609F400C2B89CF001B99CF00D112472
:10296000E75BFE4F4281538180915703909158035A
:10297000481B590B608171818091590390915A03D2
:10298000681B790BEE24E3940581248196C0F30142
:1029900060817181E481D30112960D911C9113978E
:1029A00015964C91D801A40FB11DAD01421B530BDC
:1029B0007B01EE0EF11CE81AF90AB2E0EB0EF11CF5
:1029C000021B130B03501109F9C0F301428153811B
:1029D000421B530B60817181681B790BEE24E394D9
:1029E000058124818EE593E00E94911CD301159608
:1029F0001C9115971296ED90FC90139780915703B8
:102A000090915803E81AF90A6D917C911197809181
:102A1000590390915A03681B790B14968C919B0172
:102A2000280F311D442737FD4095542F882777FD07
:102A30008095982F0E94512E01E0212FA7018EE54D
:102A400093E00E944B1B87C1F90142815381809121
:102A5000570390915803481B590B608171818091F5
:102A6000590390915A03681B790BEE24E394058176
:102A700022E08EE593E00E94911C609155037091D5
:102A80005603D3018D919C9111976817790709F02E
:102A900062C112964D915C9113978091570390916A
:102AA0005803481B590B8091590390915A03681B96
:102AB000790B6E5F7F4F05E028E08EE593E00E9482
:102AC000911C49C120E030E0A9016091AB077091F1
:102AD000AC078091AD079091AE070E9465312091BF
:102AE000590330915A03E0915703F0915803D301F1
:102AF0006D917C91119787FD09C012964D915C9163
:102B000013974E1B5F0B4250510909C0D301129617
:102B10004D915C9113974E1B5F0B4D5F5F4F621B96
:102B2000730B6C5F7F4FEE24E39403E028E08EE5A7
:102B300093E00E94911CB89CF001B99CF00D112407
:102B4000E75BFE4F42815381809157039091580378
:102B5000481B590B608171818091590390915A03F0
:102B6000681B790BEE24E39404E020E1A6CFF90181
:102B700060817181E4818091590390915A03D90158
:102B800012960D911C911397209157033091580381
:102B9000A801421B530B415051097B01EE0EF11C61
:102BA000E81AF90AB2E0EB0EF11CD3011596FC917C
:102BB0000F0F111D021B130B0E5F1F4FE6959B019C
:102BC0002E0F311D281B390B21503109681B790B41
:102BD00064507109AA24A3946A018EE593E00E94CF
:102BE000911DB9C01C821B821901B2E02B0E311C51
:102BF000F9013596FA83E983D3016D917C91809137
:102C0000590390915A03F1010081118120915703DA
:102C100030915803A981BA814C91F801E40FF11D5C
:102C2000AF01421B530B7B01F6E0EF0EF11CE81ADB
:102C3000F90AAB81BC81EA0EFB1E021B130B02508A
:102C400011099B012F5F3F4F281B390B2A0F3B1F98
:102C5000681B790B645071096A0F7B1FAA24A39427
:102C60006A018EE593E00E94911DEB81FC813A960A
:102C7000FC83EB83F29709F0BFCF6DC01C821B82EF
:102C80001901F2E02F0E311C2B5F3F4F3A8329834D
:102C9000D3016D917C918091590390915A03F10178
:102CA000008111812091570330915803A801421BE4
:102CB000530B7B01F7E0EF0EF11CE81AF90AAB8128
:102CC000BC81EA0EFB1EA981BA81EC910E0F111D89
:102CD000021B130B0E5F1F4F9B012E5F3F4F281BE4
:102CE000390BEB81FC812E0F3F1F681B790B635062
:102CF00071096E0F7F1FAA24A3946A018EE593E0E9
:102D00000E94911D2B813C81265F3F4F3C832B838A
:102D10002233310509F0BCCF1EC0D90112964D9166
:102D20005C9113978091570390915803481B590B5E
:102D30006D917C918091590390915A03681B790B96
:102D4000CC24C394E4E0EE2E00E122EB32E18EE5E8
:102D500093E00E94D91DB89CF001B99CF00D11249C
:102D6000E75BFE4FFA83E98386819CEF980F9230F0
:102D700008F077C03F01F5E06F0E711C89809A80E2
:102D800024E0820E911C29803A8032E0230E311C0F
:102D9000A981BA8112964D915C9113978091570346
:102DA00090915803481B590B6D917C91119780911C
:102DB000590390915A03681B790BCC24C39435E0D6
:102DC000E32E15960C91159714962C918EE593E0B1
:102DD0000E94021D42E0F42EC980DA80F101608178
:102DE0007181D3018C919B01280F311D2150310934
:102DF000442737FD4095542F6E5F7F4F882777FD1E
:102E00008095982F0E94512E20915703309158039E
:102E10008B01021B130BF60160817181D4018C912F
:102E20009B01280F311D22503109442737FD409561
:102E3000542F6E5F7F4F882777FD8095982F0E94D3
:102E4000512E2091590330915A03621B730B21E0DC
:102E5000A8018EE593E00E94C319FA9409F0BECF51
:102E600040C086508230E8F5E981FA814281538181
:102E70008091570390915803481B590B60817181D1
:102E80008091590390915A03681B790BCC24C39409
:102E900024E0E22E00E122EB32E18EE593E00E9495
:102EA000D91DA981BA8112964D915C911397809199
:102EB000570390915803481B590B425051096D918B
:102EC0007C918091590390915A03681B790B6C5F38
:102ED0007F4FEE24E39403E028E08EE593E00E9428
:102EE000911C5394FACC40915C03809159039091CA
:102EF0005A0320915703309158034130F1F445E3D0
:102F000050E0421B530B61E371E0681B790BCC244A
:102F1000C3949EE0E92E04E122EC32E18EE593E0D9
:102F20000E94D91D47E350E08091570390915803C8
:102F3000481B590B6EE371E01FC0423059F542E661
:102F400050E0421B530B65E67FEF681B790BCC24E6
:102F5000C3948EE0E82E04E122EC32E18EE593E0AA
:102F60000E94D91D48E650E0809157039091580384
:102F7000481B590B68E67FEF8091590390915A03E3
:102F8000681B790BEE24E39406E024E08EE593E0E1
:102F90000E94C81C809109010091590310915A03A5
:102FA0006091570370915803823099F5882777FD17
:102FB0008095982F0E94B5309B01AC016091A707C6
:102FC0007091A8078091A9079091AA070E941930D3
:102FD0000E9482306B017C01B801882777FD8095C3
:102FE000982F0E94B5309B01AC016091A3077091AE
:102FF000A4078091A5079091A6070E9419300E940E
:10300000823001E021E0A6018EE593E00E941F1CC2
:1030100035C0882777FD8095982F0E94B5309B0199
:10302000AC016091A7077091A8078091A9079091C2
:10303000AA070E9419300E9482304B015C01B8013E
:10304000882777FD8095982F0E94B5309B01AC01B1
:103050006091A3077091A4078091A5079091A6079E
:103060000E9419300E948230EE24E39400915303B1
:1030700022E0A4018EE593E00E94911C8EE593E08E
:103080002E960FB6F894DEBF0FBECDBFDF91CF9165
:103090001F910F91FF90EF90DF90CF90BF90AF9076
:1030A0009F908F907F906F905F904F903F902F9068
:1030B0000C94482081E0809308010C94D60D109266
:1030C0005D030C94D90D82EC91E00E94C83280918E
:1030D0005C038093480191CA2E960FB6F894DEBF28
:1030E0000FBECDBFDF91CF911F910F91FF90EF9059
:1030F000DF90CF90BF90AF909F908F907F906F9018
:103100005F904F903F902F9008958EE593E00C9440
:10311000BF18CF93CFB7F89480917807811127C05B
:10312000E5EBF7E18491E6E9F7E19491E82FF0E02F
:10313000EE0FFF1FEF52F84EA591B4918C918923A9
:1031400021F461E081E10E94C62861E081E10E94F2
:103150008D288CB580618CBD8CB580648CBD61E0A0
:103160008FE00E948D2861E080E10E948D2880918F
:1031700078078F5F80937807CFBFCF910895CF9363
:10318000DF93EC0183E391E0998388831B821A82A9
:10319000CE010E9462238BE291E0998388838CE3C5
:1031A0008E8380E1898718861F821E861F86188A73
:1031B000198A1A8AFE01EC5EFB4F11821082329648
:1031C00011821082C85EDB4F81E08883DF91CF914E
:1031D0000895CF93DF93EC010E9495230E9465240C
:1031E0008078803849F40E9433242FEF4FEF6FEF3F
:1031F000CE010E943F24FFCF249665E0CE010E94BD
:103200002B216DE0CE010E942B21DF91CF910C94F8
:103210008120FC01668370E088EE93E00E94E0313B
:103220006187089570E0FC01878190850E94CC3110
:1032300021E0892B09F020E0822F08950F931F933E
:10324000CF93DF93EC010E94FA26E62F462F572FEB
:10325000BC018A89882351F08A859E2F981B9B8BFD
:103260008F819885019698878F831A8A0E851F858E
:1032700028893989401751076207730734F40E1BF8
:10328000023008F10E9418241EC089850A851B851A
:103290002C853D85080F111D211D311D04171507B3
:1032A000260737072CF00E871F87288B398B04C021
:1032B0004E875F87688B798B4A875B876C877D87B2
:1032C00081E08A8B01C080E0DF91CF911F910F9147
:1032D000089560937C00673C19F480E280937B0042
:1032E00062E070E080E090E00E94292780917A00FF
:1032F000806480937A0080917A0086FDFCCF809173
:103300007800909179000895CF92DF92EF92FF922A
:10331000CF93DF937C01C4E6D0E088818E7F8883E1
:1033200067ECC7010E9469196C016EE5C7010E9434
:1033300069197C010E9406279B01AC01E094F0947E
:10334000C094D094EC9CD001ED9CB00DFC9CB00DD1
:10335000112420953095409550950E944A326B017A
:103360007C010E9406276C0D7D1D8E1D9F1D0E94F5
:10337000252E888181608883DF91CF91FF90EF9027
:10338000DF90CF9008956038710518F540345105ED
:1033900000F5E42FE695E695E695F0E047705527B1
:1033A000F695FE2FEE27F795E795E60FF71FE80F46
:1033B000F91F81E090E0042E01C0880F0A94EAF71B
:1033C000222319F09489982B03C08095948998231F
:1033D000948B08952F923F924F925F926F927F92BB
:1033E0008F929F92AF92BF92CF92DF92EF92FF9215
:1033F0000F931F93CF93DF9300D000D01F92CDB7D0
:10340000DEB75C014B013A01802F422F50E05D8313
:103410004C8344244394512C441A550A1A01319484
:1034200021943108220C331CCC24C394D12C01E00C
:1034300010E0382F34703983382F32703A83382FA8
:1034400038703B838170F82EC6010197EC81FD81B5
:103450008E179F070CF07CC057FC0BC04C815D8120
:10346000415051095D834C8352E0250E311C420CC2
:10347000531C0E5F1F4F400E511E39813323B1F094
:103480002E2D4C815D81460D571DB601680D791DAD
:10349000C5010E94C3192E2DA601460D571D6C8132
:1034A0007D81680D791DC5010E94C3193A813323BE
:1034B000B9F02E2DA3018C819D81481B590BB601BB
:1034C000680D791DC5010E94C3192E2DA3014C1949
:1034D0005D096C817D81680D791DC5010E94C3194C
:1034E0003B813323B9F02E2DA601460D571DB401A3
:1034F0008C819D81681B790BC5010E94C3192E2DFB
:103500004C815D81460D571DB4016C197D09C501C3
:103510000E94C319FF20C1F02E2DA3014C195D0993
:10352000B401EC81FD816E1B7F0BC5010E94C319A4
:103530002E2DA3018C819D81481B590BB4016C1960
:103540007D09C5010E94C3199FEFC91AD90A7CCF12
:103550000F900F900F900F900F90DF91CF911F91D0
:103560000F91FF90EF90DF90CF90BF90AF909F9022
:103570008F907F906F905F904F903F902F90089525
:103580002F923F924F925F926F927F928F929F9273
:10359000AF92BF92CF92DF92EF92FF920F931F9361
:1035A000CF93DF932C01EB016A0159019801241B91
:1035B000350B37FF03C0319521953109C5018C1BAF
:1035C0009D0B97FF03C0919581959109FF24F3947A
:1035D0008217930714F0F12C0AC09A2D8B2D5801F5
:1035E000092F182F9C2F8D2FE601C92ED82EAC162F
:1035F000BD0654F49C2D8D2D6801092F182F9C2F8A
:103600008D2FE501A92EB82E15012C1A3D0A38017F
:103610006C187D0877FE03C07194619471084101B4
:1036200037FE03C08FEF881A980A95948794C016C6
:10363000D10614F401E001C00FEF112707FD10952A
:10364000AC16BD06ACF02E2DFF2019F0AE01B60170
:1036500002C0A601BE01C2010E94C31986189708C4
:1036600097FE04C0C00ED11E820C931C2196E8CF99
:10367000DF91CF911F910F91FF90EF90DF90CF904E
:10368000BF90AF909F908F907F906F905F904F9082
:103690003F902F900895AF92BF92CF92DF92EF921A
:1036A000FF920F93CF93DF936C015B017A01E20EDF
:1036B000F11CEA0157FF0DC0C0E0D0E00AC0C417FA
:1036C000D5077CF4202FAE01B501C6010E94C319B5
:1036D0002196A70181E4E816F1048CF340E450E060
:1036E000EECFDF91CF910F91FF90EF90DF90CF90D1
:1036F000BF90AF9008952F923F924F925F926F923A
:103700007F928F929F92AF92BF92CF92DF92EF9271
:10371000FF920F931F93CF93DF9300D01F92CDB7EB
:10372000DEB74C013B012A011E2D822F90E09B83C6
:103730008A8322242394312C281A390A7C01F1949B
:10374000E194F108EE0CFF1CAA24A394B12C302FB5
:10375000317039831F5F0270D02EC5010197EA8155
:10376000FB818E179F070CF054C037FC0AC08A817A
:103770009B8101979B838A8392E0E90EF11C2E0CBA
:103780003F1CC501880F991F0196280E391E3981EB
:103790003323E1F02A81220F210F0C2DA2018A810F
:1037A0009B81481B590BB501660D771DC4010E9412
:1037B0004B1B2A2D220F210FA2014A195B096A8196
:1037C0007B81660D771DC4010E944B1BDD20E9F053
:1037D0002A81220F210F0C2DA201EA81FB814E1BB1
:1037E0005F0BB3016A197B09C4010E944B1B2A2D90
:1037F000220F210FA2014A195B09B3018A819B8123
:10380000681B790BC4010E944B1B9FEFA91AB90AD0
:10381000A4CF0F900F900F90DF91CF911F910F9138
:10382000FF90EF90DF90CF90BF90AF909F908F90E0
:103830007F906F905F904F903F902F9008958F9260
:103840009F92AF92BF92CF92EF92FF920F931F93EE
:10385000CF93DF93EC015B014A01122FC02E220FA0
:103860002F5F411B51090E944B1BE12CF12C03E0FF
:10387000212FA401B501CE010E947B1BDF91CF91C6
:103880001F910F91FF90EF90CF90BF90AF909F90BE
:103890008F9008950F934034510508F040C030E0F8
:1038A00077FF04C0260F371F60E070E0FB01E20FD6
:1038B000F31FE138F10524F020E830E0261B370B38
:1038C0001216130664F5FA01A3E0F595E795AA959B
:1038D000E1F7F695FE2FEE27F795E795E60FF71F30
:1038E0007496E80FF91F4770552781E090E001C0FA
:1038F000880F4A95EAF7482F002349F0013079F400
:103900002E0F2E1761F08081842B8193FACF809542
:103910002E0F2E1721F0908198239193FACF0F91BB
:103920000895AF92BF92CF92DF92EF92FF920F93E2
:103930001F93CF93DF93EC015B016A01F22E102FEE
:103940000E2D0E944A1CA601410F511D41505109E4
:103950002F2DB501CE010E944A1C212FA601B501D1
:10396000CE010E944B1BB5016F0D711D6150710995
:10397000212FA601CE010E944B1BDF91CF911F91F9
:103980000F91FF90EF90DF90CF90BF90AF90089590
:103990008F929F92AF92BF92CF92DF92EF920F934E
:1039A0001F93CF93DF936C015A01102FEB014B0152
:1039B000820E911CC815D9054CF40E2D212FA5019E
:1039C000BE01C6010E944B1B2196F4CFDF91CF911F
:1039D0001F910F91EF90DF90CF90BF90AF909F908D
:1039E0008F9008954496B62FB111BFEFFC010024CB
:1039F000B193B193B193B1930394D1F7089560E07B
:103A00000C94F21C2F923F924F925F926F927F9292
:103A10008F929F92AF92BF92CF92DF92EF92FF92DE
:103A20000F931F93CF93DF9300D01F92CDB7DEB7D4
:103A30009B838A833B014A01D22EF02E1E2DE194F6
:103A4000EE0C3E2D320F412E512C5B01A40CB51C07
:103A50000C2D232FB50139830E944A1C14012F0C11
:103A6000311CA101415051093981232FB5018A81AF
:103A70009B810E944A1CFE0C840C951C2F2DA401D6
:103A8000B3018A819B810E944B1B6D0C711CB30199
:103A9000615071092F2DA4018A819B810E944B1BCB
:103AA000EC2C01E0212FA401B5018A819B810E94A9
:103AB000EA196418750881E0681A710802E0212F7C
:103AC000A401B3018A819B810E94EA192418350858
:103AD000E1E02E1A310804E0212FA101B3018A810F
:103AE0009B810E94EA1908E0212FA101B5018A817A
:103AF0009B810E94EA190F900F900F90DF91CF9158
:103B00001F910F91FF90EF90DF90CF90BF90AF90FB
:103B10009F908F907F906F905F904F903F902F90ED
:103B200008952F923F924F925F926F927F928F9261
:103B30009F92AF92CF92DF92EF92FF920F931F93DB
:103B4000CF93DF9300D000D0CDB7DEB79C838B83BB
:103B50001B014A0139012801FA82E982EA2C0E94FC
:103B6000C01A860129813A81A201B3018B819C810F
:103B70000E94C01A84019101A60169817A818B811A
:103B80009C810E94C01A0F900F900F900F90DF91B0
:103B9000CF911F910F91FF90EF90DF90CF90AF905A
:103BA0009F908F907F906F905F904F903F902F905D
:103BB00008952F923F924F925F926F927F928F92D1
:103BC0009F92AF92BF92CF92DF92EF92FF920F93AC
:103BD0001F93CF93DF9300D000D01F92CDB7DEB7F5
:103BE000C982202E312CFB01E20DF31DF7FD13C11C
:103BF000603871050CF00FC1FA01EE0DF11DF7FDF3
:103C00000AC1403451050CF006C1DA0157FF04C067
:103C1000AA27BB27A41BB50BFD01E770FF27FB8379
:103C2000EA83FA0157FD3796DF01F3E0B595A795D2
:103C3000FA95E1F7BD83AC8357FF0CC01197BD83A4
:103C4000AC8348E050E0DA01EA81FB81AE1BBF0B98
:103C5000BB83AA834E2D469546954695C42ED12CFE
:103C60004E2D477019F0FFEFCF1ADF0A49014C8142
:103C70005D815695542F442757954795480F591FF6
:103C80002C813D81E8E06E2E712C8A819B81681A1F
:103C9000790AC901AC81BD818A1B9B0B8C159D05DE
:103CA0000CF0B9C02830310509F4B5C02F3F9FEFA3
:103CB00039070CF4A3C0CB0100E010E0DA01A058F2
:103CC000BF4F2D01021513050CF098C080389105E7
:103CD00009F494C097FD8EC02F3FBFEF3B0709F456
:103CE00094C0D801A80DB91D7A01E80EF91EE9812A
:103CF000E13071F4FD01A491B0E00A8002C0AA0F86
:103D0000BB1F0A94E2F7F701B488AB29A48B28C043
:103D1000F981F11114C0FD01A491EA2FF0E00A80AD
:103D200002C0EE0FFF1F0A94E2F7E095F095D7016D
:103D30005496AC905497B12CEA21FB210FC0FD01A1
:103D4000A491EA2FF0E00A8002C0EE0FFF1F0A9450
:103D5000E2F7D7015496BC905497EB255496EC9318
:103D6000AA81BB81AB2B09F445C02730310509F48A
:103D700041C0F801E80DF91DB981B13089F4E49131
:103D8000F0E0062C02C0F595E7950A94E2F772017F
:103D9000E80EF91ED7015496BC905497EB2928C021
:103DA000B981B11115C0E491F0E0062C02C0F5957F
:103DB000E7950A94E2F7E095F0957201E80EF91E96
:103DC000D7015496AC905497B12CEA21FB2110C036
:103DD000E491F0E0062C02C0F595E7950A94E2F72D
:103DE0007201E80EF91ED7015496BC905497EB254A
:103DF0005496EC930F5F1F4F019664CF2F5F3F4F98
:103E0000820C931C40585F4F44CFAA81BB81AB2BDF
:103E100009F0AFCFEFCF0F900F900F900F900F9052
:103E2000DF91CF911F910F91FF90EF90DF90CF9096
:103E3000BF90AF909F908F907F906F905F904F90CA
:103E40003F902F9008952F923F924F925F926F92E2
:103E50007F928F929F92AF92BF92CF92DF92EF921A
:103E6000FF920F931F93CF93DF93CDB7DEB72897C1
:103E70000FB6F894DEBF0FBECDBF9E838D832A019F
:103E8000603871050CF06DC0403451050CF069C00C
:103E9000CB01A5E0CA9E800D911D112418161906AC
:103EA0000CF05FC0EC2DF0E0FC83EB83CA01F8E07E
:103EB000CF9E800D911D1124181619060CF051C0CB
:103EC000A5E02A9FC00111245B0118861F8284533C
:103ED0009E4F9A838983BF81B53041F0E981FA8191
:103EE0008F819885E80FF91F149101C010E032010D
:103EF00088E0D82E10FF02C0F02E01C0FE2CF11079
:103F00000BC0E01209C01695DA94AB81BC816A0E31
:103F10007B1ED110EFCF19C01501822D8A198C1587
:103F200090F74301882D86198C1558F42F2DA40184
:103F3000B1018D819E810E94C319BFEF8B1A9B0A2C
:103F4000F1CFEFEF2E1A3E0AE8CF8F8198850196C8
:103F500098878F83AB81BC81AA0EBB1E069709F0A0
:103F6000BACF28960FB6F894DEBF0FBECDBFDF9153
:103F7000CF911F910F91FF90EF90DF90CF90BF9066
:103F8000AF909F908F907F906F905F904F903F90F9
:103F90002F9008958F929F92AF92BF92CF92EF92FF
:103FA0000F93CF93DF93EC01262F6A3099F4FC0135
:103FB000E85EFB4F208132978081918138E0239F1A
:103FC000800D911D112491838083CC5EDB4F19827B
:103FD00018824BC06D3009F448C0FC01EA5EFB4F0B
:103FE000408151815C018CEEA81A8BEFB80AF50173
:103FF000608171814E01F8EE8F1AFBEF9F0AF40188
:10400000C080E12C01E0CE010E94231FF401208139
:10401000422F50E0F50180819181F6E02F9F800DC5
:10402000911D1124F50191838083359620812223EF
:10403000E1F06AEF64039001659F300D1124205870
:104040003F4F281739078CF4E881F9810190F081FE
:10405000E02D6AE0CE01DF91CF910F91EF90CF90EC
:10406000BF90AF909F908F900994DF91CF910F9167
:10407000EF90CF90BF90AF909F908F900895FC01EC
:10408000EC5EFB4F718360833296518340830895C9
:1040900044960C942324CF93DF931F92CDB7DEB7C1
:1040A00069830E9465246981982F962381E0961385
:1040B00080E00F90DF91CF910895E4E6F0E08081F9
:1040C000877F8083E5E6F0E08081877F808381E0E1
:1040D0008093790708958091790708951092790760
:1040E000E4E6F0E0808188608083E5E6F0E08081AE
:1040F0008860808308956091790782E090E00C9455
:10410000C8321092860782E090E00E94C03281118E
:104110000C945D200895CF92DF92EF92FF921F934F
:10412000CF93DF9390918707891708F065C067FDEB
:1041300063C0E82FF0E0E456F84F1491E62FF0E06A
:10414000603330F4E459F84FE491CE2FD0E006C04C
:10415000EE0FFF1FE459F94FC591D4916E01E12C88
:10416000F12C60E074E284EF90E0A70196010E94D8
:10417000163221503109410951092115310581E0DB
:104180004807510570F060E970ED83E090E0A70109
:1041900096010E941632215031094109510993E0DC
:1041A00001C091E01130C9F0133031F580919100D8
:1041B000887F892B809391003093990020939800F9
:1041C000D0938507C093840781E080938307809113
:1041D00071008260809371000FC080918100887FA0
:1041E000892B8093810030938900209388008091EF
:1041F0006F00826080936F00DF91CF911F91FF90DD
:10420000EF90DF90CF900895E82FF0E0E456F84F5C
:10421000E491E13019F0E33069F0089580916F0086
:104220008D7F80936F0020919107E0919207F0912C
:10423000930708C01092830720918A07E0918B07AB
:10424000F0918C07808190E030E0209530958223BA
:10425000932380830895CF93DF93C62F80918707A0
:10426000823009F46BC0E82FF0E0E456F84FD491A7
:10427000A82FB0E0A857B84F6C938F5F8093870743
:1042800061E08C2F0E948D28D13091F1D33009F05C
:1042900055C010929000109291008091910088601A
:1042A00080939100809191008160809391006C2FA8
:1042B00070E0FB01EC55F84E249130E0220F331FE3
:1042C0002D53384EF9018591949190938C078093EA
:1042D0008B07FB01EB57F84E649160938A076CE300
:1042E00080E00E948B2080E0DF91CF910C9404212C
:1042F00010928000109281008091810088608093EC
:104300008100809181008160809381006C2F70E03A
:10431000FB01EC55F84E249130E0220F331F2D5352
:10432000384EF90185919491909393078093920769
:10433000FB01EB57F84E649160939107DF91CF91A9
:104340000895E0917A07F0917B07BF016F5F7F4F7F
:1043500070937B0760937A07A4919A2F907F8A2F9E
:104360008F70903819F40E940421EBCF903961F4DA
:10437000AF014E5F5F4F50937B0740937A07FB017D
:1043800064910E948B20DDCF903E49F480917C07A0
:1043900090917D0790937B0780937A07D2CF903FCF
:1043A00019F410928607089597FDCBCFAF014E5FA9
:1043B0005F4F50937B0740937A07FB016491262F50
:1043C00030E03A2BA0918407B09185070E943B32E0
:1043D0006C507E4F8F4F9F4F28EE33E040E050E00F
:1043E0000E94F43120937E0730937F07409380072B
:1043F0005093810780917E0790917F07A09180075D
:10440000B0918107892B8A2B8B2B61F481E090E09E
:10441000A0E0B0E080937E0790937F07A093800791
:10442000B0938107089580918307882349F0909184
:104430008A07E0918B07F0918C0780818927808320
:1044400080918607882329F180917E0790917F07CC
:10445000A0918007B0918107892B8A2B8B2BC9F003
:1044600080917E0790917F07A0918007B09181078E
:104470000197A109B10980937E0790937F07A093CC
:104480008007B0938107892B8A2B8B2B11F40C9416
:10449000A12108954F925F926F927F928F929F9287
:1044A000AF92BF92CF92DF92EF92FF92CF93DF93C2
:1044B000EB0149015A0181E0809382072B01612CB5
:1044C000712C60E072E18AE790E0A30192010E9402
:1044D000163269017A0181E0C81AD108E108F108B1
:1044E000C114D10481E0E806F10488F068E478EEB4
:1044F00081E090E0A30192010E94163269017A01E5
:1045000081E0C81AD108E108F10893E001C091E008
:1045100080918100887F892B809381008114910490
:10452000A104B10471F0DE01AA0FBB1FA501940123
:104530000E944A3228EE33E040E050E00E94F4311D
:1045400003C02FEF3FEFA901D0928900C0928800ED
:1045500020938D0730938E0740938F0750939007D9
:1045600080916F00826080936F00DF91CF91FF9008
:10457000EF90DF90CF90BF90AF909F908F907F9003
:104580006F905F904F9008951F920F920FB60F9209
:1045900011242F933F938F939F93AF93BF93EF93E8
:1045A000FF9380918207882309F44BC080918D0787
:1045B00090918E07A0918F07B0919007892B8A2B3D
:1045C0008B2B51F190919107E0919207F091930715
:1045D00080818927808380918D0790918E07A0919B
:1045E0008F07B0919007181619061A061B0694F546
:1045F00080918D0790918E07A0918F07B0919007C1
:104600000197A109B10980938D0790938E07A0931C
:104610008F07B09390071EC01092820780916F00A1
:104620008D7F80936F0020919107E0919207F09128
:104630009307808190E030E020953095822393238A
:1046400008C090919107E0919207F09193078081C3
:1046500089278083FF91EF91BF91AF919F918F91B7
:104660003F912F910F900FBE0F901F9018951F92A2
:104670000F920FB60F9211242F933F934F935F9396
:104680006F937F938F939F93AF93BF93EF93FF931A
:104690000E941322FF91EF91BF91AF919F918F9153
:1046A0007F916F915F914F913F912F910F900FBE2E
:1046B0000F901F9018958EBD00000DB407FEFDCF22
:1046C0008EB508950895E0919607F091970780813F
:1046D00090919407892B8083E0919807F091990736
:1046E0009081809195078095892380830895E0913A
:1046F0009807F0919907808190919507892B808385
:10470000E0919607F09197079081809194078095AA
:1047100089238083E0919807F09199079081809197
:1047200095078095892380830895CF93DF930E9416
:104730008918CBEAD7E0BE01FE01849122966F5F13
:104740007F4FFB016491882319F00E948D28F3CFDD
:1047500061E086E00E94C62861E070E080E090E0C1
:104760000E94292760E086E00E94C6286AE070E087
:1047700080E090E00E94292761E086E00E94C62840
:10478000E0EBF7E1E491F0E0EE0FFF1FED53F84EA0
:10479000859194919093990780939807E1E9F7E1C7
:1047A000E491E0939507E8EAF7E1E491F0E0EE0F99
:1047B000FF1FED53F84E8591949190939707809346
:1047C0009607E9E8F7E1E491E09394078CB58C7FD4
:1047D0008CBD8DB581608DBD0E947723CEE9D7E079
:1047E000F7E0CB3ADF0731F0FE0184910E945B23B2
:1047F0002196F6CF0E9463238091640081608093AC
:104800006400809164008260809364008091640001
:104810008068809364008091640080648093640069
:1048200080916500816080936500DF91CF9108954C
:1048300083B7817F83BF83B7816083BF889583B748
:104840008E7F83BF089520E030E0FC014191CF01CD
:104850004EBD119C119C119C2F5F3F4F2115F4E020
:104860003F0799F70895CF93DF93C0E0D4E080E04D
:104870000E945B232197D9F7DF91CF9108950F9381
:104880001F93CF93DF9300D0CDB7DEB70FEF10E0CB
:10489000C801861B9109BC018AE02A8349830E94D2
:1048A000B9274981B801641B71098BE00E94B927BF
:1048B0002A81B801621B710989E00F900F90DF9186
:1048C000CF911F910F910C94B9278FB14CB123B1A7
:1048D00050E0409550954074552733E055954795E5
:1048E0003A95E1F730E020953095207133273595E2
:1048F000279535952795242B8095807F822B0895C9
:104900008F929F92AF92BF92CF92DF92EF92FF92DF
:104910000F931F93CF93DF93EC018B0160E4C801E9
:104920000E944B208823B9F0C880D980EA80FB80A0
:104930002AE939E949E95FE3C701B6010E947E30FF
:1049400087FF29C02FE832EC45EF5CE3C701B601D1
:104950000E941A301CC060E2C8010E944B208823CC
:10496000D1F0C880D980EA80FB802AE939E949E999
:104970005FEBC701B6010E946531181664F42FE899
:1049800032EC45EF5CE3C701B6010E941930688341
:1049900079838A839B8360E1C8010E944B20811147
:1049A00006C064E0C8010E944B20882311F120E07A
:1049B00030E040E85FEB6C817D818E819F810E94B9
:1049C0007E3087FF08C080E090E0A0E8BFEB8C83DA
:1049D0009D83AE83BF832BE734E14EE65FE36881BE
:1049E00079818A819B810E946931688379838A8376
:1049F0009B8368E0C8010E944B208823E1F08885F2
:104A00008823C9F020E030E0A90169897A898B897F
:104A10009C890E94653187FD05C080E090E0A0E29E
:104A2000B0EC04C080E090E0A0E2B0E48C839D8311
:104A3000AE83BF831886C988DA88EB88FC882C810E
:104A40003D814E815F81C701B6010E941A306C839F
:104A50007D838E839F832A8D2223D1F09F772DEC37
:104A60003CEC4CE85FEB0E9469314B015C016C83CC
:104A70007D838E839F8320E030E0A901C701B601CA
:104A80000E94653187FD02C081E088871A8E1CC0B4
:104A9000298D222391F19F772DEC3CEC4CE85FE3CC
:104AA0000E9469314B015C016C837D838E839F83FF
:104AB00020E030E0A901C701B6010E947E3018163F
:104AC00014F081E08887198EC501B4019F7720E03A
:104AD00030E048E452E40E94693120E030E048ECE4
:104AE00053E40E941A300E9487302AE030E040E010
:104AF00050E0C80104960E944A22888D8823A9F0BC
:104B000088819981AA81BB81BC01CD019F7720E07A
:104B100030E040EC5FEB0E946931688379838A83DF
:104B20009B8321E02887188E17C08F89882359F12D
:104B300088819981AA81BB81BC01CD019F7720E04A
:104B400030E040EC5FE30E946931688379838A83B7
:104B50009B8321E028871F8A9F7720E030E048E48C
:104B600052E40E94693120E030E048EC53E40E94B6
:104B70001A300E9487302AE030E040E050E0C8015F
:104B800004960E944A2222E538EB4EE75FE36C81EF
:104B90007D818E819F810E9469314B015C016C8314
:104BA0007D838E839F8328E431EE4AE75FE368814B
:104BB00079818A819B810E9469316B017C016883C4
:104BC00079838A839B832DEC3CEC4CE050E4C50157
:104BD000B4010E94653187FD10C020E030E0A901DA
:104BE00069897A898B899C890E94653187FD05C016
:104BF0008DEC9CECACE0B0E419C02DEC3CEC4CE04E
:104C000050ECC501B4010E947E3018169CF020E0E3
:104C100030E0A90169897A898B899C890E947E305C
:104C2000181644F08DEC9CECACE0B0EC8C839D83CA
:104C3000AE83BF8320E030E040E850E4C701B60116
:104C40000E94653118162CF480E090E0A0E8B0E4F2
:104C50000EC020E030E040E850ECC701B6010E94F1
:104C60007E3087FF08C080E090E0A0E8B0EC888349
:104C70009983AA83BB832C813D814E815F816D85A1
:104C80007E858F8598890E941A306D877E878F87F1
:104C9000988B288139814A815B8169857A858B85EA
:104CA0009C850E941A3069877A878B879C878D89BB
:104CB000811107C08E8981508E8B811102C081E0E5
:104CC0008D8BDF91CF911F910F91FF90EF90DF902F
:104CD000CF90BF90AF909F908F9008950F931F93A8
:104CE000CF93DF93EC018A01882777FD8095982F79
:104CF0000E94B53069877A878B879C87B80188279F
:104D000077FD8095982F0E94B5306D877E878F87BD
:104D1000988B1C821D821E821F82188219821A8221
:104D20001B8218861F8A188E198E1A8E1E8A81E0A1
:104D30008D8BDF91CF911F910F9108952FE0FC0192
:104D4000268B158A08958AE999E9A9E1BEE3809343
:104D5000AB079093AC07A093AD07B093AE0708954F
:104D60001F920F920FB60F9211242F933F938F93A0
:104D70009F93AF93BF938091B6079091B707A0918F
:104D8000B807B091B9073091B50723E0230F2D374D
:104D900020F40196A11DB11D05C026E8230F02963F
:104DA000A11DB11D2093B5078093B6079093B70757
:104DB000A093B807B093B9078091BA079091BB0749
:104DC000A091BC07B091BD070196A11DB11D8093B4
:104DD000BA079093BB07A093BC07B093BD07BF91E0
:104DE000AF919F918F913F912F910F900FBE0F9098
:104DF0001F9018952FB7F8946091B6077091B70778
:104E00008091B8079091B9072FBF08953FB7F894E4
:104E10008091BA079091BB07A091BC07B091BD07E4
:104E200026B5A89B05C02F3F19F00196A11DB11D05
:104E30003FBF6627782F892F9A2F620F711D811D22
:104E4000911D42E0660F771F881F991F4A95D1F781
:104E500008958F929F92AF92BF92CF92DF92EF927E
:104E6000FF926B017C010E9406274B015C01C1147B
:104E7000D104E104F104F1F00E946D2E0E94062796
:104E8000681979098A099B09683E73408105910573
:104E900070F321E0C21AD108E108F10888EE880E0B
:104EA00083E0981EA11CB11CC114D104E104F104DB
:104EB00029F7DDCFFF90EF90DF90CF90BF90AF90BC
:104EC0009F908F900895789484B5826084BD84B556
:104ED000816084BD85B5826085BD85B5816085BDF5
:104EE000EEE6F0E0808181608083E1E8F0E010820E
:104EF000808182608083808181608083E0E8F0E04F
:104F0000808181608083E1E9F0E08081826080833C
:104F1000808181608083E0E9F0E08081816080832E
:104F2000E1ECF0E080818460808380818260808316
:104F3000808181608083E3ECF0E080818160808308
:104F4000E0ECF0E0808182608083E2ECF0E0808140
:104F500081608083EAE7F0E08081846080838081E3
:104F6000826080838081816080838081806880838B
:104F700008951F93CF93DF93182FEB0161E00E94F8
:104F80008D28209711F460E004C0CF3FD10539F49B
:104F900061E0812FDF91CF911F910C94C628E12F02
:104FA000F0E0EA59F84E449150E0FA013197EF30C1
:104FB000F10508F06CC0EF59FF4F0C94353284B501
:104FC000806884BDC7BD68C084B5806284BDC8BD2B
:104FD00063C080918000806880938000D0938900B6
:104FE000C093880059C080918000806280938000C7
:104FF000D0938B00C0938A004FC08091800088605E
:1050000080938000D0938D00C0938C0045C0809128
:105010009000806880939000D0939900C09398008E
:105020003BC080919000806280939000D0939B0061
:10503000C0939A0031C08091900088608093900066
:10504000D0939D00C0939C0027C08091C0008068D1
:105050008093C0008091C0008F7B8093C000C0937C
:10506000CF001AC08091C00080628093C000C093BE
:10507000D00012C08091C20088608093C2008091ED
:10508000C2008B7F8093C200C093D20005C0C0389D
:10509000D1050CF07DCF77CFDF91CF911F9108958F
:1050A00090E0FC013197EF30F105B0F5E059FF4F8A
:1050B0000C943532809180008F7703C080918000FE
:1050C0008F7D80938000089580918000877FF9CF45
:1050D00084B58F7702C084B58F7D84BD089580919B
:1050E00090008F7707C0809190008F7D03C08091E2
:1050F0009000877F8093900008958091C0008F7703
:1051000003C08091C0008F7D8093C000089580917E
:10511000C200877F8093C2000895CF93DF9390E011
:10512000FC01EB57F84E2491FC01EC55F84E8491AC
:10513000882349F190E0880F991FFC01EF52F84E47
:10514000A591B4918D53984EFC01C591D4919FB710
:10515000611108C0F8948C91209582238C938881EA
:1051600082230AC0623051F4F8948C91322F30952A
:1051700083238C938881822B888304C0F8948C913C
:10518000822B8C939FBFDF91CF9108950F931F9334
:10519000CF93DF931F92CDB7DEB7282F30E0F90110
:1051A000EA59F84E8491F901EB57F84E1491F90140
:1051B000EC55F84E04910023C9F0882321F069834F
:1051C0000E9450286981E02FF0E0EE0FFF1FED53A1
:1051D000F84EA591B4919FB7F8948C91611103C0DA
:1051E0001095812301C0812B8C939FBF0F90DF917D
:1051F000CF911F910F91089508950E9463270E94F7
:10520000FC288EEB97E00E94082E0E94520DC0E011
:10521000D0E00E94760D2097E1F30E940000F9CFC4
:10522000CF92DF92EF92FF920F931F93CF93DF9372
:105230007C016A01EB0100E010E00C151D0571F026
:105240006991D701ED91FC910190F081E02DC701AA
:105250000995892B19F00F5F1F4FEFCFC801DF9120
:10526000CF911F910F91FF90EF90DF90CF90089515
:105270006115710581F0DB010D900020E9F7AD01AA
:1052800041505109461B570BDC01ED91FC91028006
:10529000F381E02D099480E090E00895EF92FF9271
:1052A0000F931F93CF93DF938C017B01C0E0D0E07D
:1052B000F701EC0FFD1F6491662359F0F801A081FE
:1052C000B181ED91FC91C8010995892B11F02196CE
:1052D000EFCFCE01DF91CF911F910F91FF90EF9013
:1052E00008950C9438298F929F92AF92BF92DF92CB
:1052F000EF92FF920F931F93CF93DF93CDB7DEB75B
:10530000A1970FB6F894DEBF0FBECDBF7C01F42F7E
:10531000D52ECB0119A2223008F42AE08E010F5DB0
:105320001F4F822E912CA12CB12C6F2F7D2DA5010A
:1053300094010E94F431F22FD32ECA0101501109B9
:105340006A3014F4E0E301C0E7E3E60FD801EC9320
:10535000232B242B252B49F7B801C7010E9438299C
:10536000A1960FB6F894DEBF0FBECDBFDF91CF91EF
:105370001F910F91FF90EF90DF90BF90AF909F90A3
:105380008F9008952115310541F4DC01ED91FC91D8
:105390000190F081E02D642F09940C9473299A01F7
:1053A000462F50E060E070E00C94C229615030F06C
:1053B0002091F100FC0120830196F8CF289884E623
:1053C0008093C70708954091C2075091C307209169
:1053D000C0073091C10742175307B4F49091E80019
:1053E0009570E1F39091E80092FD19C08093F1006F
:1053F0008091C2079091C30701968F739927892BDB
:1054000019F48EEF8093E8008091C2079091C30752
:1054100001969093C3078093C20781E0089580E0CE
:105420000895CF92DF92EF92FF920F931F93CF9345
:10543000DF931F92CDB7DEB7082F162FF42E862FDD
:10544000880F8E5F99830E94E32983E00E94E329FD
:10545000E02EC02E9981D92E8C2D8E19811798F4AB
:10546000F601F7FE02C0849101C080810E94E32909
:10547000082F80E00E94E3298023FFEFCF1ADF0A84
:105480008111EACF01C081E00F90DF91CF911F9190
:105490000F91FF90EF90DF90CF9008958091D7000B
:1054A00081608093D70080EA8093D80089B58061BD
:1054B00089BD89B5826089BD09B400FEFDCF61E078
:1054C00070E080E090E00E9429278091D8008F7CD6
:1054D00080618093D8008091E000807F8093E0001D
:1054E0000895CF93DF931F92CDB7DEB71982CE0117
:1054F00001960E94CD2E0E940530BE016F5F7F4F46
:105500000E947E2F89810F90DF91CF9108952FB750
:10551000FC012083F89467706093E9000895CF93AD
:10552000DF931F92CDB7DEB7682FCE0101960E94A0
:10553000872A8091F20099819FBF0F90DF91CF91D0
:105540000895FF920F931F93CF93DF9300D0CDB7B1
:10555000DEB7F62E8A019091C607992311F057FF06
:1055600003C08FEF9FEF2BC0682FCE0101967A8387
:105570000E94872A8091F20090E0A8017A8180172A
:1055800091070CF4AC01EF2DF72FF40E84E6FE1614
:1055900039F028988093C7079091F1009193F7CF45
:1055A0004115510521F08091F200882321F0898175
:1055B0008FBFCA0104C08BE68093E800F8CF0F903C
:1055C0000F90DF91CF911F910F91FF900895CF938E
:1055D000DF931F92CDB7DEB741E050E0BE016F5FB1
:1055E0007F4F0E94A12A019719F4898190E002C09F
:1055F0008FEF9FEF0F90DF91CF910895CF93DF93BF
:105600001F92CDB7DEB7682FCE0101960E94872A80
:105610009091E800892F807295FF04C09091F2006C
:1056200080E4891B99819FBF0F90DF91CF910895EE
:105630006F927F928F929F92AF92BF92CF92DF92A2
:10564000EF92FF920F931F93CF93DF931F92CDB7EB
:10565000DEB7782E7B01C42EB52E8091C607882335
:1056600069F0042F152F8AEFD82E872D8072982E7F
:105670009AE3A92E872D8074882E11C08FEF9FEF9B
:1056800057C0872D0E94FE2A682E81110CC0DA9423
:10569000A9F361E070E080E090E00E942927011505
:1056A000110579F73BC0282F30E0021713070CF4DF
:1056B000602E672DCE0101960E94872A8091E80016
:1056C00085FF29C0262D30E0021B130B992039F0ED
:1056D0006A948FEF6816B1F01092F100F9CFF701DC
:1056E000862D77FE07C0815058F094919093F10079
:1056F0003196F9CF815020F091919093F100FACF3B
:10570000E20EF31E8091E80085FF0FC00115110520
:1057100011F481100AC089818FBFC1CF5D9884E6E2
:105720008093C8078C2D9B2D03C0A092E800F3CF77
:105730000F90DF91CF911F910F91FF90EF90DF902D
:10574000CF90BF90AF909F908F907F906F90089573
:105750001092E9001092C3071092C2079093C107FC
:105760008093C0070895CF92DF92FF920F931F930B
:10577000CF93DF9300D0CDB7DEB7F82E8A016B014F
:1057800001151105B1F0F601F7FE02C0849101C0C8
:10579000808149835A830E94E32901501109FFEF58
:1057A000CF1ADF0A49815A818111EACF8FEF9FEF2B
:1057B00001C0CA010F900F90DF91CF911F910F91FF
:1057C000FF90DF90CF900895BF92CF92DF92EF923B
:1057D000FF920F931F93CF93DF936C018B01EB012B
:1057E0003BEFB32E2097C1F07E01C134D1051CF0F0
:1057F00020E4E22EF12C8091E80082FFFCCFC8016A
:105800008C1B9D0B6E2D8C0D9D1D0E94D629B09278
:10581000E800CE19DF09E6CFC801DF91CF911F91D3
:105820000F91FF90EF90DF90CF90BF9008951F925F
:105830000F920FB60F921124DF92EF92FF920F9307
:105840001F932F933F934F935F936F937F938F9308
:105850009F93AF93BF93EF93FF93CF93DF93CDB716
:10586000DEB76C97DEBFCDBF1092E9008091E800F3
:1058700083FF23C168E0CE0145960E94D62982EFBE
:105880008093E8003D8937FF05C08091E80080FFE4
:10589000FCCF03C08EEF8093E800832F807609F061
:1058A000F0C02E894F89D88C21110CC0303829F4D2
:1058B0008091C5078093F10002C01092F100109210
:1058C000F100F4C0842F90E09D29213049F431117A
:1058D000EDC0019709F0EAC08091C5078D7F0AC02D
:1058E000233059F43111E2C0019709F0DFC08091F3
:1058F000C50782608093C507D9C0253041F48091E7
:10590000E80080FFFCCF40684093E300CFC0263022
:1059100009F08DC0EB8CFC8C22E0D2122CC080E010
:1059200090E00E94A82B0E94712A99E08E010F5FDF
:105930001F4FF801292F11922A95E9F79983DA82EE
:1059400091E09E8390EA98879AEF99872091C20709
:105950003091C307275F3F4F3C832B838D83C70163
:105960000E94A82B49E050E0B80180E00E94B32BD0
:105970000E94712A9BC0C7010E94A82B0E9405307B
:10598000BE016B5E7F4F0E94A72F009719F00CF0AD
:105990008DC090C081E0D8120EC08B8D9C8D089771
:1059A00019F481E08093BF078091BF0781112FC058
:1059B00061EF77E131C0E3E0DE127CC08F8988239C
:1059C00049F1823029F440E867E08FE098E11CC09B
:1059D000813029F440E86BE083E098E115C0833022
:1059E00009F068C00E9405308E010F5F1F4FB8019B
:1059F0000E94C62FF80101900020E9F73197E01BC3
:105A0000F10B40E06E2FC8010E94112A4DC06FEDCE
:105A100077E102C067E178E16115710509F44AC0D8
:105A2000FB01449150E080E80E94B32B3FC0273037
:105A300009F440C0283021F481E08093F10036C0A1
:105A40002930A1F53370B1F5EBE0F1E081E021E020
:105A500036E39081992361F08093E9002093EB0075
:105A600091919093EC003093ED008F5F873089F730
:105A70008EE78093EA001092EA008F898093C60730
:105A800015C08B8D9C8D0E94A82B898D811105C01E
:105A9000CE0145960E94D82E07C00E940530BE0157
:105AA0006B5E7F4F0E94E52F882321F08EEF80935D
:105AB000E80003C081E28093EB006C960FB6F89487
:105AC000DEBF0FBECDBFDF91CF91FF91EF91BF91B0
:105AD000AF919F918F917F916F915F914F913F9186
