:100000000C9423080C944B080C944B080C944B084C
:100010000C944B080C944B080C944B080C944B0814
:100020000C944B080C944B080C94C9260C945B253B
:100030000C944B080C944B080C944B080C944B08F4
:100040000C944B080C945F1B0C944B080C944B08BD
:100050000C944B080C944B080C944B080C94ED1E1C
:100060000C944B080C944B080C944B080C944B08C4
:100070000C944B080C944B080C944B080C944B08B4
:100080000C94D21B0C944B080C944B080C944B080A
:100090000C944B080C944B080C944B080C944B0894
:1000A0000C944B080C944B080C944B081C202120FA
:1000B000262030203A2084208420842044204E2092
:1000C000582062206F2084207720A520A820972028
:1000D0009B20A120C920C920C920AC20B020B42079
:1000E000BA20BE20C920C420CEFF4000690400EC25
:1000F000FF1000043000F6FF3C001004063300102F
:100100000004300083FF0C00B40400CEFF44000460
:10011000400001FF8400D1040065FF44000440005A
:1001200083FF10000474646EFF8000100407000059
:1001300000000000000000000000000000000000BF
:1001400000000000000000000000000000000000AF
:100150000000004000FF04000000000004400040D8
:10016000003600060A0180003600060A018A0036C1
:1001700000060A0194003600060A01D40036000683
:100180000A01DE003600060A01F7003600060A0101
:1001900001013600060A01FE004000C004003701DC
:1001A0003600060A0141013600060A014B013600FD
:1001B000060A0155013600060A015F013600060AEB
:1001C0000169013600060A014D012C000E04008968
:1001D000012C00021403BE014000040E00BE014EBB
:1001E00000400400FA014000040E00C20144000671
:1001F0000A01CE014400060A01DA014400060A01A0
:10020000E6014400060A01F2014400060A01FE016B
:100210004000C8040008023600060A011202360037
:10022000060A011C023600060A0126023600060AEA
:100230000130023600060A0175023600060A017D09
:100240000236000B0A007F022C00060A0187022CEE
:10025000000B0A00870236000B0A00890222000602
:100260000A01910236000B0A0093022C00060A01D3
:100270009D023600060A01B20227000A1902000098
:100280004000C0040040002800200400600010006E
:100290001E04008000F4FF1C0400A000DCFFC0046A
:1002A00000E000C4FF1004000001ACFF0E040020B9
:1002B0000194FF0C040040017CFF600400600164B5
:1002C000FF10040080014CFF0E0400600134FF0C9D
:1002D000040080011CFF4004009A0103FF0A190278
:1002E000ACFF400094040040001C00042800000003
:1002F0001C00400400E0FF1C00200E00C0FF1C009A
:10030000201400A0FF1C0020180040FF80006C0497
:1003100000ACFF440004400060FF5F002017007C39
:10032000FF3F0004200040FF400004400040FF3C2D
:10033000004004006AFF46000A1902000040004025
:1003400004003C00440004200000001000043000C1
:1003500000000C0056040056000C000420003C0075
:100360006400AA040056002C0064040078005A00BF
:100370000A0A009B0055000F0F00C80055000F0F20
:1003800000D70055000F0F00DC004B000A0A00E602
:10039000004B006404002C012D001E1E004A010FBA
:1003A000001E1E0068010F00460400BA0018000479
:1003B0001800BA0014005004000A01E2FF043600DD
:1003C0000E01E2FFA00400AA01E6FF042900960145
:1003D000F6FF0A1902F0F89C8E8783878E9CF8F04E
:1003E0000000FEFF0303030303070EFCF80000FEFA
:1003F000FF0303030303070EFCF80000FFFF0000E8
:100400000000000000FFFF0000FEFF838383838362
:10041000C7EE7C380000F8FC0E07030303070EFC50
:10042000F800003F7FE0C08080C0E07F3FFFFF0119
:10043000010101010101FFFF0000FFFF0C0C0C0C8A
:100440001C3E77E3C100007FFFC0C0C0C0C0E070A9
:100450003F1F00001F3F70E0C0C0C0E0703F1F00A2
:10046000007FFFC1C1C1C1C1E3773E1C00001F3F37
:1004700070E0C0C0C0E0703F1F000000000001FF3E
:10048000FF0100000000000000003E5B4F5B3E3EAD
:100490006B4F6B3E1C3E7C3E1C183C7E3C181C5730
:1004A0007D571C1C5E7F5E1C00183C1800FFE7C3D4
:1004B000E7FF0018241800FFE7DBE7FF30483A06A3
:1004C0000E2629792926407F050507407F05253F0F
:1004D0005A3CE73C5A7F3E1C1C08081C1C3E7F14FB
:1004E000227F22145F5F005F5F06097F017F006645
:1004F00089956A606060606094A2FFA29408047E9F
:10050000040810207E201008082A1C08081C2A084D
:10051000081E101010100C1E0C1E0C30383E383007
:10052000060E3E0E06000000000000005F00000006
:1005300007000700147F147F14242A7F2A12231334
:1005400008646236495620500008070300001C2248
:1005500041000041221C002A1C7F1C2A08083E087A
:10056000080080703000080808080800006060007B
:1005700020100804023E5149453E00427F4000726F
:10058000494949462141494D331814127F102745E6
:100590004545393C4A494931412111090736494904
:1005A0004936464949291E00001400000040340025
:1005B00000000814224114141414140041221408D9
:1005C00002015909063E415D594E7C1211127C7F91
:1005D000494949363E414141227F4141413E7F499F
:1005E0004949417F090909013E414151737F08088A
:1005F000087F00417F41002040413F017F081422D5
:10060000417F404040407F021C027F7F0408107FF2
:100610003E4141413E7F090909063E4151215E7F2D
:1006200009192946264949493203017F01033F4000
:1006300040403F1F2040201F3F4038403F63140888
:10064000146303047804036159494D43007F414119
:10065000410204081020004141417F0402010204CC
:100660004040404040000307080020545478407F39
:10067000284444383844444428384444287F385473
:1006800054541800087E090218A4A49C787F08041A
:10069000047800447D40002040403D007F10284405
:1006A0000000417F40007C047804787C08040478D2
:1006B0003844444438FC1824241818242418FC7C9A
:1006C00008040408485454542404043F44243C407F
:1006D00040207C1C2040201C3C4030403C442810E2
:1006E00028444C9090907C4464544C44000836411B
:1006F00000000077000000413608000201020402F9
:100700003C2623263C1EA1A161123A4040207A38A3
:100710005454555921555579412154547841215506
:1007200054784020545579400C1E52721239555558
:100730005559395454545939555454580000457C2E
:10074000410002457D420001457C40F0292429F00A
:10075000F0282528F07C545545002054547C547CC6
:100760000A097F4932494949323248484832324AB7
:100770004848303A4141217A3A42402078009DA0D1
:10078000A07D39444444393D4040403D3C24FF2451
:1007900024487E4943662B2FFC2F2BFF0929F62086
:1007A000C0887E090320545479410000447D4130C3
:1007B00048484A32384040227A007A0A0A727D0D4F
:1007C00019317D2629292F28262929292630484D07
:1007D0004020380808080808080808382F10C8AC56
:1007E000BA2F102834FA00007B000008142A1422C3
:1007F00022142A14089500220095AA005500AAAADE
:1008000055AA55AA000000FF00101010FF00141494
:1008100014FF001010FF00FF1010F010F01414145B
:10082000FC001414F700FF0000FF00FF1414F40490
:10083000FC141417101F10101F101F1414141F0085
:10084000101010F0000000001F101010101F1010EA
:100850001010F010000000FF1010101010101010F9
:1008600010FF10000000FF140000FF00FF00001F39
:1008700010170000FC04F414141710171414F404D7
:10088000F40000FF00F714141414141414F700F704
:10089000141414171410101F101F141414F414102F
:1008A00010F010F000001F101F0000001F140000C7
:1008B00000FC140000F010F01010FF10FF141414CE
:1008C000FF141010101F00000000F010FFFFFFFFCA
:1008D000FFF0F0F0F0F0FFFFFF0000000000FFFF6E
:1008E0000F0F0F0F0F38444438447C2A2A3E147EE1
:1008F00002020606027E027E0263554941633844C5
:10090000443C04407E201E2006027E020299A5E798
:10091000A5991C2A492A1C4C7201724C304A4D4D33
:10092000303048784830BC625A463D3E494949001B
:100930007E0101017E2A2A2A2A2A44445F44444037
:10094000514A444040444A51400000FF0103E080C6
:10095000FF000008086B6B083612362436060F09B4
:100960000F06000018180000001010003040FF01B2
:1009700001001F01011E00191D1712003C3C3C3CE8
:10098000000000000006011501260137014A015D43
:1009900001720188019F01B801D201EE010B022A08
:1009A000024B026E029302BA02E40210033F03708C
:1009B00003A403DC03170455049704DD042705751D
:1009C00005C80520067D06E0064907B8072D08A9D9
:1009D000082D09B9094D0AEA0A900B400CFA0CC01F
:1009E0000D910E6F0F5A1053115B1272139A14D49B
:1009F0001520178018F519801B231DDE1EB420A6B4
:100A000022B524E4263429A72B402E0031EA3300F6
:100A100037453ABC3D68414C456B49C84D68524F1B
:100A200057805C006210111213151617181A1C1D3E
:100A30001F21232527292C2E3134373A3E414549A1
:100A40004E52575C62686E757B838B939CA5AFB9E1
:100A5000C4D0DCE9F70301D5F08D14A1C881CFD94A
:100A6000F1AF20001402130212021502070208025D
:100A700004010C01060100C0F0380C060603030354
:100A80000306060C38F0C0030F1C306060C0C0C005
:100A9000C06060301C0F03080C0A09090909090924
:100AA000090909090A0C0880C0E030B0B030E0C084
:100AB0008078FCFE036B6B87FEFC78070F1F303DD0
:100AC0003D301F0F0700000103030303010000FF77
:100AD000FFFFFF01FDFDFDFDFF01FDFDFD01FF012C
:100AE000FDFDFD01FF01EDEDEDEDFFFFFFFF3F3FE0
:100AF0003F3F3C3D3D3D3D3F3C3D3D3D3C3F3C3F20
:100B00003F3F3C3F3C3F3F3F3F3F3F3F3FFFFFFFBB
:100B1000FF01EDEDEDE1FF01FFFFFFFFFF03DDDD75
:100B2000DD03FFF1CF3FCFF1FFFFFFFF3F3F3F3F2F
:100B30003C3F3F3F3F3F3C3D3D3D3D3F3C3F3F3FD6
:100B40003C3F3F3F3C3F3F3F3F3F3F0080C0E0F0E6
:100B50007078383C1C1C1E0E0E0E0E070707070788
:100B60000707070707070707070707070707070715
:100B70000707070707070707070707070707070705
:100B800007070707070707070707070707070707F5
:100B900007070707070707070707070707070707E5
:100BA00007070707070707070707070707070707D5
:100BB00007070707070707070707070E0E0E0E1E92
:100BC0001C1C3C387870F0E0C08000FEFFFF030082
:100BD0000000000000000282BE828280BE888888F9
:100BE000BE80BEAA2A2A000000000000000000000B
:100BF0000000000000000000000000808080808075
:100C000000000000808080808000000000808080E4
:100C100080808080808080808080800000000080D4
:100C200080808080808080808080808000000000C4
:100C300000808080808080808080808080808000B4
:100C40000000000000000003FFFFFEFFFFFF0000A8
:100C5000000000000000FFFF0301F9F9898989897C
:100C6000F9710183FFFE0000000000000000000099
:100C700000000000000000000000FFFF030103FF70
:100C8000FF0000FFFF030103FFFF0000FFFF030160
:100C900001010101010101010103FFFF0000FFFF4C
:100CA0000301010181C1C1C1C1C1C1E37F3E000097
:100CB000FFFF030101E1F1B1B1B1B1B1B13B3F1FA0
:100CC0000000000000000000FFFFFFFFFFFF00002A
:100CD000000000000000FFFF0000F8F88888888806
:100CE000F870070FFDF80000000000000000000091
:100CF00000000000000000000000FFFF0000003FB7
:100D00007F60607F3F000000FFFF0000FFFF0000EA
:100D100000FEFF0303FFFE000000FFFF0000FFFFD7
:100D2000000000000F1F181818181838F0E0000015
:100D3000FFFF000000387D6D6D6D6D6D6FE7E0C0E9
:100D40000000000000000000FFFFFFFFFFFF0000A9
:100D5000000000000000070F0C0C0C0C0C0C0C0C1D
:100D60000C0C0C0E07030000000000000000000047
:100D700000000000000000000000070F0E0C0C0C2B
:100D80000C0C0C0C0C0C0C0E0F070000070F0E0CBB
:100D90000E0F070000070F0E0C0E0F070000070FC5
:100DA0000E0C0C0C0C0C0C0C0C0C0C0E07030000A5
:100DB000070F0C0C0C0C0C0C0C0C0C0C0C0E0F0775
:100DC0000000000000000000FFFFFFFFFFFF000029
:100DD0000000000000000000000000000000000013
:100DE0000000000000000000000000000000000003
:100DF00000000000000000000000000000000000F3
:100E000000000000000000000000000000000000E2
:100E100000000000000000000000000000000000D2
:100E200000000000000000000000000000000000C2
:100E300000000000000000000000000000000000B2
:100E40000000000000000000FFFFFF7FFFFFC00068
:100E50000000000000000000000000000000000092
:100E60000000000000000000000000000000000082
:100E70000000000000000000000000000000000072
:100E80000000000000000000000000000000000062
:100E90000000000000000000000000000000000052
:100EA0000000000000000000000000000000000042
:100EB0000000000000000000000000000000000032
:100EC00000000000000000C0FFFF7F000103070FCB
:100ED0000E1E1C3C38387870707070E0E0E0E0E086
:100EE000E0E0E0E0E0E0E0E0E0E0E0E0E0E0E0E002
:100EF000E0E0E0E0E0E0E0E0E0E0E0E0E0E0E0E0F2
:100F0000E0E0E0E0E0E0E0E0E0E0E0E0E0E0E0E0E1
:100F1000E0E0E0E0E0E0E0E0E0E0E0E0E0E0E0E0D1
:100F2000E0E0E0E0E0E0E0E0E0E0E0E0E0E0E0E0C1
:100F3000E0E0E0E0E0E0E0E0E0E0E07070707078D9
:100F400038383C1C1E0E0F07030100000000020091
:100F5000090F0000030401000C0000000000000065
:100F60000000000000000000000004080201104022
:100F70008040102040804080080204018040201002
:100F800002011080102040402004040404040304E3
:100F90000502020202040302020202060606060617
:100FA00006040402020204040000000025002800D8
:100FB0002B002E00310000000000240027002A0032
:100FC0002D00300012010002EF0201404123368063
:100FD0000001010203011201000200000040412350
:100FE000368000010102030141726475696E6F2051
:100FF0004C4C430041726475626F7900040309042C
:10100000080B0002020201000904000001020200B4
:101010000005240010010524010101042402060535
:1010200024060001070581031000400904010002A5
:101030000A00000007050202400000070583024085
:101040000000E610A52811241FBECFEFDAE0DEBFB6
:10105000CDBF11E0A0E0B1E0E4E0F9E502C0059009
:101060000D92AA35B107D9F727E0AAE5B1E001C092
:101070001D92A635B207E1F710E1C6E4D0E104C045
:101080002297FE010E94E72BC234D107C9F70E94C4
:101090003A210C94802C0C9400001F93CF93DF9383
:1010A000182F833089F140F4813071F0823009F0DB
:1010B00066C0C0E0D0E019C08430B9F1853009F0D5
:1010C0005EC0C0E0D0E043C0C0E0D0E0BE01655CDF
:1010D0007C4F47E050E0CE01865A9E4F0E94672C1D
:1010E0002796CA39D10591F741C0BE0160527D4FA4
:1010F00047E050E0CE01865A9E4F0E94672C27960B
:10110000CB35D10591F734C0C0E0D0E0BE016258C4
:101110007D4F47E050E0CE01865A9E4F0E94672CDB
:101120002796C236D10591F725C0C0E0D0E0BE01B8
:101130006F5A7E4F47E050E0CE01865A9E4F0E9484
:10114000672C2796CD3281E0D80789F715C0BE01FC
:1011500068517F4F47E050E0CE01865A9E4F0E9473
:10116000672C2796C936D10591F708C096E107C0CC
:101170009DE005C09EE003C09BE201C09FE090930C
:101180008F021093900280E290E090930B01809385
:101190000A019093090180930801DF91CF911F917B
:1011A000089582E992E00E94A1176EE182E992E03F
:1011B0000E944A11409108015091090160910A0171
:1011C00070910B018EEC96E00E94B81E81E00C94A9
:1011D0004D082F923F924F925F926F927F928F9223
:1011E0009F92AF92BF92CF92DF92EF92FF920F93B6
:1011F0001F93CF93DF93CDB7DEB72E970FB6F8943A
:10120000DEBF0FBECDBF82E992E00E945F1188234E
:1012100009F4C3C782E992E00E94291580910D016B
:10122000813009F0E9C068E082E992E00E94EC18A0
:101230008823E9F080919102811134C080910C01E2
:10124000882341F082E080930D0182E992E00E94C0
:10125000C51109C00E940C19882319F00E940F19AA
:1012600002C00E94FE1881E0809391021BC060E2E0
:1012700082E992E00E94EC18811108C060E482E9E2
:1012800092E00E94EC18882309F47FC780919102B4
:10129000811108C080910C0191E0892780930C0195
:1012A000909391022AE939E949E15EE3609187026E
:1012B000709188028091890290918A020E945E2931
:1012C0004B015C01609387027093880280938902CE
:1012D00090938A02C0900401D0900501E09006012D
:1012E000F090070120E030E040E052E4C701B60191
:1012F0000E94112B87FD11C0C501B4019F7723E324
:1013000033E343E75FEB0E94152B609387027093F2
:1013100088028093890290938A02209187023091FB
:1013200088024091890250918A02C701B6010E9449
:101330005E296093040170930501809306019093E8
:101340000701CC24C39490E4E92E00E82BE43BE0B1
:1013500040E050E060E070E082E992E00E94031615
:1013600080910C018823A1F00EE0E02E0FE12DE02A
:101370003BE04FE250E06FE070E082E992E00E94D3
:1013800003168AE0E82E2FEC3AE041E350E015C066
:10139000CC24C394BAE0EB2E0FE12DE03BE041E317
:1013A00050E06FE070E082E992E00E9403161EE0D8
:1013B000E12E2FEC3AE04FE250E062E570E082E986
:1013C00092E00E94031660910401709105018091E2
:1013D0000601909107010E942E2ACC24C394A0E11B
:1013E000EA2E00E127E73AE0AB016DE170E082E927
:1013F00092E00E940316FFC3823009F0A0C360E8A8
:1014000082E992E00E94EC18882319F081E0809331
:101410000D0162E972E08EEC96E00E941B1D20E057
:1014200030E046E953E46091DB067091DC06809180
:10143000DD069091DE060E94112B181664F440918F
:1014400008015091090160910A0170910B018EEC25
:1014500096E00E94B81E20E631E03A8329838AE5AF
:1014600091E09C838B83AFE5B1E0B887AF83EEE575
:10147000F1E0FE83ED83212C312C80918F0290E0EE
:10148000281639060CF0FAC2C090D706D090D806BC
:10149000E090D906F090DA06AB81BC810D90BC914A
:1014A000A02DBE87AD87CD010597BC01882777FDAC
:1014B0008095982F0E94612A9B01AC01C701B6015B
:1014C0000E94112B87FDC1C2ED81FE8180812D8597
:1014D0003E85280F311D3A872987C9010596BC0131
:1014E000882777FD8095982F0E94612A9B01AC0187
:1014F000C701B6010E94C22918160CF4A6C280903A
:10150000DB069090DC06A090DD06B090DE06AB8195
:10151000BC8112960D911C911397C8010597BC01CF
:10152000882777FD8095982F0E94612A9B01AC0146
:10153000C501B4010E94112B87FD87C2EF81F88598
:1015400080819801280F311D3C872B87C9010596A2
:10155000BC01882777FD8095982F0E94612A9B0106
:10156000AC01C501B4010E94C22918160CF46DC269
:10157000AD85BE85BD01882777FD8095982F0E9497
:10158000612A2B013C019B01AC01C701B6010E94FD
:10159000112B87FD09C1E985FA85BF01882777FDF1
:1015A0008095982F0E94612A9B01AC01C701B6016A
:1015B0000E94C22918160CF4FFC020E030E040E879
:1015C00050E4C501B4010E945E292B013C01B80121
:1015D000882777FD8095982F0E94612A9B01AC0196
:1015E000C301B2010E94112B87FDE6C02B853C850B
:1015F000B901882777FD8095982F0E94612A9B0169
:10160000AC01C301B2010E94C22918160CF4D4C067
:10161000A981BA811C91153009F481C030F41330CE
:10162000D1F0E8F5123069F008C0173009F49EC017
:1016300008F47CC0143609F406C1B1E0B093E406A6
:1016400002C1E3E0E0930D0122E030E030930901B4
:1016500020930801F8C080910A0190910B01AD859B
:10166000BE858A179B0709F4EEC024E630E040E00F
:1016700050E060EA7FE086E992E00E94E51AEB81A3
:10168000FC818081918190930B0180930A0182817A
:1016900093810C979093090180930801D4C08091A5
:1016A000DF068823B9F1C1010196F7E0F89F8001B8
:1016B000F99F100D1124065A1E4FD80114962C9133
:1016C000149726958D919C91820F911DBC018827BE
:1016D00077FD8095982F0E94612A6093D7067093BA
:1016E000D8068093D9069093DA06F801858186950D
:1016F00062817381680F711D882777FD8095982F0F
:101700000E94612A6093DB067093DC068093DD06FD
:101710009093DE068EEC96E00E94E81E94C08091C5
:10172000DF068823B9F3C1010197BFCFF1E0F09341
:10173000E406E3E6A981BA81EC9324E630E040E0D8
:1017400050E060ED77E086E992E00E94E51AC10181
:10175000019727E0289FF001299FF00D1124E65AF8
:10176000FE4FDF011D922A95E9F76DC0B1E0B093FD
:10177000E40623E6E981FA81208324E630E040E0B4
:1017800050E060ED77E086E992E00E94E51AC10141
:101790000197189FF001199FF00D1124E65AFE4F92
:1017A0008681845686834FC0A3019201C701B6018A
:1017B0000E94112B87FD47C0A985BA85BD018827E6
:1017C00077FD8095982F0E94612A9B01AC01C7018B
:1017D000B6010E94C2291816B4F120E030E040E4BE
:1017E00050E4C501B4010E945D296B017C01B80180
:1017F000882777FD8095982F0E94612A9B01AC0174
:10180000C701B6010E94112B87FD1DC0EB85FC8529
:10181000BF01882777FD8095982F0E94612A9B0140
:10182000AC01C701B6010E94C229181664F0A98153
:10183000BA818C919EEF980F943028F0843619F07D
:10184000B1E0B093E3064090D7065090D806609080
:10185000D9067090DA0620E030E040E450E4C3019D
:10186000B2010E945E296B017C01EB81FC81008149
:101870001181B801882777FD8095982F0E94612AF1
:101880004B015C019B01AC01C701B6010E94112B09
:1018900087FD59C0AD81BE818C91F801E80FF11D23
:1018A000BF01882777FD8095982F0E94612A9B01B0
:1018B000AC01C701B6010E94C22918160CF443C03E
:1018C000C090DB06D090DC06E090DD06F090DE06EE
:1018D000AB81BC8112960D90BC91A02DBA87A987CF
:1018E000BD01882777FD8095982F0E94612A9B0172
:1018F000AC01C701B6010E94112B87FD24C0EF8106
:10190000F885808169857A85680F711D882777FD44
:101910008095982F0E94612A9B01AC01C701B601F6
:101920000E94C22918167CF0A981BA818C919EEF81
:10193000980F943008F468C0843609F465C0B1E0AB
:10194000B093E20661C020E030E040E450E4C3011F
:10195000B2010E945D296B017C01A50194010E94E6
:10196000112B87FD51C0ED81FE818081080F111D73
:10197000B801882777FD8095982F0E94612A9B01E6
:10198000AC01C701B6010E94C2291816ECF1C09043
:10199000DB06D090DC06E090DD06F090DE06AB8141
:1019A000BC8112960D911C911397B801882777FD81
:1019B0008095982F0E94612A9B01AC01C701B60156
:1019C0000E94112B87FD20C0EF81F8858081B8012E
:1019D000680F711D882777FD8095982F0E94612AD6
:1019E0009B01AC01C701B6010E94C229181664F020
:1019F000A981BA818C919EEF980F943028F084369B
:101A000019F0B1E0B093E1068091E30681110CC0BA
:101A10008091E406811108C08091E106811104C023
:101A20008091E206882389F0E981FA818081813002
:101A300061F4409108015091090160910A0170918F
:101A40000B018EEC96E00E94B81EFFEF2F1A3F0AA2
:101A500029813A81295F3F4F3A8329838B819C8179
:101A600007969C838B83AF81B8851796B887AF8321
:101A7000ED81FE813796FE83ED83FFCC60918D0270
:101A800070918E02882777FD8095982F0E94612A99
:101A90006B017C0120E030E040E852E46091D70621
:101AA0007091D8068091D9069091DA060E945D293E
:101AB000A70196010E945D2929E23CE54FE85DE31C
:101AC0000E94152B9B01AC01C701B6010E945E2943
:101AD0000E942E2A70938E0260938D0260918B0279
:101AE00070918C02882777FD8095982F0E94612A3B
:101AF0006B017C0120E030E040E052E46091DB06C5
:101B00007091DC068091DD069091DE060E945D29D1
:101B1000A70196010E945D2929E23CE54FE85DE3BB
:101B20000E94152B9B01AC01C701B6010E945E29E2
:101B30000E942E2A70938C0260938B025CC08330CB
:101B400009F059C062E082E992E00E9453118823B3
:101B5000F9F020E030E040E85FE36091DB0670914F
:101B6000DC068091DD069091DE060E945D2960937F
:101B7000DB067093DC068093DD069093DE06809191
:101B80000801909109010296909309018093080140
:101B900065E082E992E00E945311882339F0809138
:101BA0008F02882319F0815080938F028091080161
:101BB0009091090181389105A4F082E080930D0194
:101BC000809190028F5F0E944D08409108015091D2
:101BD000090160910A0170910B018EEC96E00E9460
:101BE000B81E2AE030E040E050E068E873E186E9A2
:101BF00092E00E94E51A80910D018250823008F037
:101C0000A8C240E050E060E070E082E992E00E940B
:101C1000E01861E271E082E992E00E948B2140913C
:101C2000D7065091D8066091D9067091DA0622E065
:101C300030E082E992E00E94182364E271E082E9D8
:101C400092E00E948B214091DB065091DC0660916E
:101C5000DD067091DE0622E030E082E992E00E942B
:101C60001823712CF7E06F2E80918F02781608F000
:101C7000C9C1872C912C689C6001699CD00C1124EF
:101C80009601265A3E4F6901D90116964C9148306B
:101C9000A0F4463008F0F2C080918D0290918E023F
:101CA00020918B0230918C02423009F455C04330B0
:101CB00009F491C0413039F422C0433609F4C2C05E
:101CC000443609F4DBC0689CF001699CF00D1124D6
:101CD000E65AFE4F4281538180918B0290918C0293
:101CE000481B590B6081718180918D0290918E0209
:101CF000681B790BEE24E394058124819EC0F601D4
:101D000060817181E481D60112960D911C91139727
:101D100015964C91D801A40FB11DAD01421B530B78
:101D20007B01EE0EF11CE81AF90AB2E0EB0EF11C91
:101D3000021B130BE6959B012E0F311D281B390B3F
:101D4000681B790B62507109AA24A3946A0182E985
:101D500092E00E94BB1592C0F60142815381421B62
:101D6000530B60817181681B790BEE24E39405812C
:101D7000248182E992E00E94BB14D60115961C9141
:101D800015971296ED90FC90139780918B0290918D
:101D90008C02E81AF90A6D917C91119780918D025D
:101DA00090918E02681B790B14968C919B01280FE1
:101DB000311D442737FD4095542F882777FD8095A6
:101DC000982F0E94952701E0212FA70182E992E038
:101DD0000E948C1353C0F60142815381421B530B66
:101DE00060817181681B790BEE24E3940581248165
:101DF00082E992E00E94BB1460910A0170910B018C
:101E0000D6018D919C91119768177907B9F51296B3
:101E10004D915C91139780918B0290918C02481B9D
:101E2000590B80918D0290918E02681B790B14964C
:101E30008C91680F711D05E028E082E992E00E9414
:101E4000BB141CC0F9014281538180918B02909197
:101E50008C02481B590B6081718180918D02909199
:101E60008E02681B790BCC24C394E4E0EE2E00E1D3
:101E700027E93AE082E992E00E940316689C20017B
:101E8000699C500C11249201265A3E4F2901D90118
:101E900016968C919CEF980F923008F073C0590100
:101EA000B5E0AB0EB11C1901E4E02E0E311C490166
:101EB000F2E08F0E911CD90112964D915C9113970F
:101EC00080918B0290918C02481B590B6D917C91F3
:101ED000119780918D0290918E02681B790BCC2412
:101EE000C39435E0E32E15960C91159714962C911A
:101EF00082E992E00E942C1542E0D42E7201F40196
:101F000060817181D5018C919B01280F311D215079
:101F10003109442737FD4095542F6E5F7F4F882746
:101F200077FD8095982F0E94952720918B02309104
:101F30008C028B01021B130BF70160817181D101AF
:101F40008C919B01280F311D22503109442737FD08
:101F50004095542F6E5F7F4F882777FD8095982F8F
:101F60000E94952720918D0230918E02621B730B87
:101F700021E0A80182E992E00E940412DA9409F0BB
:101F8000BECF3EC086508230D8F5F90142815381E0
:101F900080918B0290918C02481B590B608171815A
:101FA00080918D0290918E02681B790BCC24C39492
:101FB00024E0E22E00E127E93AE082E992E00E9483
:101FC0000316D20112964D915C91139780918B026A
:101FD00090918C02481B590B425051096D917C9194
:101FE00080918D0290918E02681B790B6C5F7F4F00
:101FF000EE24E39403E028E082E992E00E94BB141F
:10200000739432CE4091900280918D0290918E0215
:1020100020918B0230918C024130F1F445E350E085
:10202000421B530B61E371E0681B790BCC24C39412
:102030009EE0E92E04E127EA3AE082E992E00E947C
:10204000031647E350E080918B0290918C02481B6D
:10205000590B6EE371E01FC0423059F542E650E083
:10206000421B530B65E67FEF681B790BCC24C394AE
:102070008EE0E82E04E127EA3AE082E992E00E944D
:10208000031648E650E080918B0290918C02481B29
:10209000590B68E67FEF80918D0290918E02681B4C
:1020A000790BEE24E39406E024E082E992E00E94BA
:1020B000F21480910D01A0908D02B0908E020091DB
:1020C0008B0210918C02823009F56091DB067091D1
:1020D000DC068091DD069091DE060E942E2A7B01AF
:1020E000E01AF10A6091D7067091D8068091D9065E
:1020F0009091DA060E942E2A6A197B0901E021E0FC
:10210000A70182E992E00E94601423C06091DB067F
:102110007091DC068091DD069091DE060E942E2AE9
:102120006B01C01AD10A6091D7067091D8068091D0
:10213000D9069091DA060E942E2A6A197B09EE24AC
:10214000E3940091080122E0A60182E992E00E9456
:10215000BB1482E992E02E960FB6F894DEBF0FBE54
:10216000CDBFDF91CF911F910F91FF90EF90DF9046
:10217000CF90BF90AF909F908F907F906F905F9027
:102180004F903F902F900C94E918809191028823F2
:1021900009F488C81092910285C82E960FB6F8945B
:1021A000DEBF0FBECDBFDF91CF911F910F91FF908A
:1021B000EF90DF90CF90BF90AF909F908F907F90E7
:1021C0006F905F904F903F902F90089582E992E03A
:1021D0000C942011CF93CFB7F8948091AC06811165
:1021E00027C0EAE9FFE08491EBE7FFE09491E82F54
:1021F000F0E0EE0FFF1FEA54F04FA591B4918C91DF
:10220000892321F461E081E10E94032161E081E101
:102210000E94CA208CB580618CBD8CB580648CBD59
:1022200061E08FE00E94CA2061E080E10E94CA2044
:102230008091AC068F5F8093AC06CFBFCF9108959D
:10224000CF93DF93EC0185E491E0998388831B822F
:102250001A82CE010E94FD1B8CE291E09983888353
:102260008CE38E8380E1898718861F821E861F86F5
:10227000188A198A1A8AFE01EC5EFB4F11821082BD
:10228000329611821082C85EDB4F81E08883DF9135
:10229000CF910895FC01668370E088EE93E00E9480
:1022A000902B6187089570E0FC01878190850E94E2
:1022B0007C2B21E0892B09F020E0822F08950F93D9
:1022C0001F93CF93DF93EC010E94371FE62F462F19
:1022D000572FBC018A89882351F08A859E2F981B2D
:1022E0009B8B8F819885019698878F831A8A0E859C
:1022F0001F8528893989401751076207730734F40D
:102300000E1B023008F10E94B31C1EC089850A858D
:102310001B852C853D85080F111D211D311D0417BE
:102320001507260737072CF00E871F87288B398B58
:1023300004C04E875F87688B798B4A875B876C8781
:102340007D8781E08A8B01C080E0DF91CF911F9172
:102350000F91089560937C00673C19F480E28093AC
:102360007B0062E070E080E090E00E94661F809158
:102370007A00806480937A0080917A0086FDFCCF99
:1023800080917800909179000895CF92DF92EF923A
:10239000FF92CF93DF937C01C4E6D0E088818E7FEB
:1023A000888367ECC7010E94AA116C016EE5C70122
:1023B0000E94AA117C010E94431F9B01AC01E09482
:1023C000F094C094D094EC9CD001ED9CB00DFC9C9A
:1023D000B00D112420953095409550950E94FA2B10
:1023E0006B017C010E94431F6C0D7D1D8E1D9F1D86
:1023F0000E946927888181608883DF91CF91FF9057
:10240000EF90DF90CF9008956038710518F5403453
:10241000510500F5E42FE695E695E695F0E0477066
:102420005527F695FE2FEE27F795E795E60FF71F50
:10243000E80FF91F81E090E0042E01C0880F0A9494
:10244000EAF7222319F09489982B03C08095948988
:102450009823948B08952F923F924F925F926F92A0
:102460007F928F929F92AF92BF92CF92DF92EF9224
:10247000FF920F931F93CF93DF9300D000D01F9252
:10248000CDB7DEB75C014B013A01802F422F50E0FF
:102490005D834C8344244394512C441A550A1A01F9
:1024A000319421943108220C331CCC24C394D12CB8
:1024B00001E010E0382F34703983382F32703A83BE
:1024C000382F38703B838170F82EC6010197EC815C
:1024D000FD818E179F070CF07CC057FC0BC04C8110
:1024E0005D81415051095D834C8352E0250E311CC2
:1024F000420C531C0E5F1F4F400E511E3981332377
:10250000B1F02E2D4C815D81460D571DB601680D31
:10251000791DC5010E9404122E2DA601460D571DDE
:102520006C817D81680D791DC5010E9404123A817C
:102530003323B9F02E2DA3018C819D81481B590BAB
:10254000B601680D791DC5010E9404122E2DA3014C
:102550004C195D096C817D81680D791DC5010E9452
:1025600004123B813323B9F02E2DA601460D571DD1
:10257000B4018C819D81681B790BC5010E940412F6
:102580002E2D4C815D81460D571DB4016C197D09BE
:10259000C5010E940412FF20C1F02E2DA3014C1989
:1025A0005D09B401EC81FD816E1B7F0BC5010E94AA
:1025B00004122E2DA3018C819D81481B590BB4015F
:1025C0006C197D09C5010E9404129FEFC91AD90A2E
:1025D0007CCF0F900F900F900F900F90DF91CF91C5
:1025E0001F910F91FF90EF90DF90CF90BF90AF9031
:1025F0009F908F907F906F905F904F903F902F9023
:1026000008952F923F924F925F926F927F928F9296
:102610009F92AF92BF92CF92DF92EF92FF920F9371
:102620001F93CF93DF932C01EB016A0159019801AD
:10263000241B350B37FF03C0319521953109C501A6
:102640008C1B9D0B97FF03C0919581959109FF24E9
:10265000F3948217930714F0F12C0AC09A2D8B2D56
:102660005801092F182F9C2F8D2FE601C92ED82E27
:10267000AC16BD0654F49C2D8D2D6801092F182F22
:102680009C2F8D2FE501A92EB82E15012C1A3D0A7D
:1026900038016C187D0877FE03C07194619471084D
:1026A000410137FE03C08FEF881A980A95948794EA
:1026B000C016D10614F401E001C00FEF112707FD89
:1026C0001095AC16BD06ACF02E2DFF2019F0AE0112
:1026D000B60102C0A601BE01C2010E940412861802
:1026E000970897FE04C0C00ED11E820C931C219641
:1026F000E8CFDF91CF911F910F91FF90EF90DF9086
:10270000CF90BF90AF909F908F907F906F905F9091
:102710004F903F902F900895AF92BF92CF92DF924B
:10272000EF92FF920F93CF93DF936C015B017A01DD
:10273000E20EF11CEA0157FF0DC0C0E0D0E00AC074
:10274000C417D5077CF4202FAE01B501C6010E9445
:1027500004122196A70181E4E816F1048CF340E409
:1027600050E0EECFDF91CF910F91FF90EF90DF908F
:10277000CF90BF90AF9008952F923F924F925F926B
:102780006F927F928F929F92AF92BF92CF92DF9281
:10279000EF92FF920F931F93CF93DF9300D01F927E
:1027A000CDB7DEB74C013B012A011E2D822F90E0F0
:1027B0009B838A8322242394312C281A390A7C0192
:1027C000F194E194F108EE0CFF1CAA24A394B12C1F
:1027D000302F317039831F5F0270D02EC5010197F1
:1027E000EA81FB818E179F070CF054C037FC0AC0AA
:1027F0008A819B8101979B838A8392E0E90EF11C79
:102800002E0C3F1CC501880F991F0196280E391EFA
:1028100039813323E1F02A81220F210F0C2DA201EF
:102820008A819B81481B590BB501660D771DC40138
:102830000E948C132A2D220F210FA2014A195B0935
:102840006A817B81660D771DC4010E948C13DD2097
:10285000E9F02A81220F210F0C2DA201EA81FB81D0
:102860004E1B5F0BB3016A197B09C4010E948C13D4
:102870002A2D220F210FA2014A195B09B3018A8177
:102880009B81681B790BC4010E948C139FEFA91ACE
:10289000B90AA4CF0F900F900F90DF91CF911F91A5
:1028A0000F91FF90EF90DF90CF90BF90AF909F90EF
:1028B0008F907F906F905F904F903F902F900895F2
:1028C0008F929F92AF92BF92CF92EF92FF920F930F
:1028D0001F93CF93DF93EC015B014A01122FC02EAF
:1028E000220F2F5F411B51090E948C13E12CF12C08
:1028F00003E0212FA401B501CE010E94BC13DF919A
:10290000CF911F910F91FF90EF90CF90BF90AF901C
:102910009F908F900895AF92BF92CF92DF92EF92E7
:10292000FF920F93CF93DF936C015A017B01E20E6C
:10293000F11CEB0177FF0DC0C0E0D0E00AC0C61764
:10294000D7077CF4202FA501BE01C6010E94041206
:102950002196B70181E8E816F1048CF360E870E095
:10296000EECFDF91CF910F91FF90EF90DF90CF905E
:10297000BF90AF900895AF92BF92CF92DF92EF9247
:10298000FF920F931F93CF93DF93EC015B016A01DA
:10299000F22E102F0E2D0E948B14A601410F511DF7
:1029A000415051092F2DB501CE010E948B14212FCA
:1029B000A601B501CE010E948C13B5016F0D711DEA
:1029C00061507109212FA601CE010E948C13DF9165
:1029D000CF911F910F91FF90EF90DF90CF90BF901C
:1029E000AF9008958F929F92AF92BF92CF92DF9255
:1029F000EF920F931F93CF93DF936C015A01102F27
:102A0000EB014B01820E911CC815D9054CF40E2D1B
:102A1000212FA501BE01C6010E948C132196F4CF7F
:102A2000DF91CF911F910F91EF90DF90CF90BF90EA
:102A3000AF909F908F9008954496B62FB111BFEF3D
:102A4000FC010024B193B193B193B1930394D1F7F6
:102A5000089560E00C941C152F923F924F925F9264
:102A60006F927F928F929F92AF92BF92CF92DF929E
:102A7000EF92FF920F931F93CF93DF9300D01F929B
:102A8000CDB7DEB79B838A833B014A01D22EF02E5D
:102A90001E2DE194EE0C3E2D320F412E512C5B0188
:102AA000A40CB51C0C2D232FB50139830E948B1467
:102AB00014012F0C311CA101415051093981232FE0
:102AC000B5018A819B810E948B14FE0C840C951C9D
:102AD0002F2DA401B3018A819B810E948C136D0C60
:102AE000711CB301615071092F2DA4018A819B8152
:102AF0000E948C13EC2C01E0212FA401B5018A81E6
:102B00009B810E942B126418750881E0681A710875
:102B100002E0212FA401B3018A819B810E942B1224
:102B200024183508E1E02E1A310804E0212FA10114
:102B3000B3018A819B810E942B1208E0212FA10101
:102B4000B5018A819B810E942B120F900F900F90EC
:102B5000DF91CF911F910F91FF90EF90DF90CF9079
:102B6000BF90AF909F908F907F906F905F904F90AD
:102B70003F902F9008952F923F924F925F926F92C5
:102B80007F928F929F92AF92CF92DF92EF92FF92BD
:102B90000F931F93CF93DF9300D000D0CDB7DEB754
:102BA0009C838B831B014A0139012801FA82E98247
:102BB000EA2C0E940113860129813A81A201B30106
:102BC0008B819C810E94011384019101A60169817E
:102BD0007A818B819C810E9401130F900F900F903E
:102BE0000F90DF91CF911F910F91FF90EF90DF90A9
:102BF000CF90AF909F908F907F906F905F904F900D
:102C00003F902F9008952F923F924F925F926F9234
:102C10007F928F929F92AF92BF92CF92DF92EF926C
:102C2000FF920F931F93CF93DF9300D000D01F929A
:102C3000CDB7DEB7C982202E312CFB01E20DF31D8A
:102C4000F7FD13C1603871050CF00FC1FA01EE0DEC
:102C5000F11DF7FD0AC1403451050CF006C1DA013F
:102C600057FF04C0AA27BB27A41BB50BFD01E770C3
:102C7000FF27FB83EA83FA0157FD3796DF0113E054
:102C8000B595A7951A95E1F7BD83AC8357FF0CC0A6
:102C90001197BD83AC8348E050E0DA01EA81FB8103
:102CA000AE1BBF0BBB83AA834E2D4695469546951A
:102CB000C42ED12C4E2D477019F0FFEFCF1ADF0A2A
:102CC00049014C815D815695542F4427579547956E
:102CD000480F591F2C813D81F8E06F2E712C8A819D
:102CE0009B81681A790AC901AC81BD818A1B9B0B43
:102CF0008C159D050CF0B9C02830310509F4B5C01C
:102D00002F3F9FEF39070CF4A3C0CB0100E010E088
:102D1000DA01A058BF4F2D01021513050CF098C021
:102D20008038910509F494C097FD8EC02F3FBFEF06
:102D30003B0709F494C0D801A80DB91D7A01E80E2B
:102D4000F91EE981E13071F4FD01A491B0E00A803F
:102D500002C0AA0FBB1F0A94E2F7F701B488AB299F
:102D6000A48B28C0F981F11114C0FD01A491EA2FB0
:102D7000F0E00A8002C0EE0FFF1F0A94E2F7E09530
:102D8000F095D7015496AC905497B12CEA21FB21D1
:102D90000FC0FD01A491EA2FF0E00A8002C0EE0FFF
:102DA000FF1F0A94E2F7D7015496BC905497EB2585
:102DB0005496EC93AA81BB81AB2B09F445C0273014
:102DC000310509F441C0F801E80DF91DB981B130B0
:102DD00089F4E491F0E0062C02C0F595E7950A9499
:102DE000E2F77201E80EF91ED7015496BC90549791
:102DF000EB2928C0B981B11115C0E491F0E0062C8F
:102E000002C0F595E7950A94E2F7E095F095720116
:102E1000E80EF91ED7015496AC905497B12CEA21D4
:102E2000FB2110C0E491F0E0062C02C0F595E79577
:102E30000A94E2F77201E80EF91ED7015496BC908D
:102E40005497EB255496EC930F5F1F4F019664CF78
:102E50002F5F3F4F820C931C40585F4F44CFAA8195
:102E6000BB81AB2B09F0AFCFEFCF0F900F900F903E
:102E70000F900F90DF91CF911F910F91FF90EF90E6
:102E8000DF90CF90BF90AF909F908F907F906F908A
:102E90005F904F903F902F9008958F929F92AF92A6
:102EA000BF92CF92EF920F931F93CF93DF935C016A
:102EB000CEEEDFEF18E14C0184E1880E911C20E09A
:102EC00040E0612F6C1BC5010E94DA1CC5010E9405
:102ED0002915CC24C39400E1E02E08E525ED33E06C
:102EE000AE0164E170E0C5010E940316C4010E94B6
:102EF000BE1C6BE170E080E090E00E94661FC03F66
:102F000031F46AEF70E080E090E00E94661F219645
:102F1000C931D105A1F66EEE72E080E090E00E942A
:102F2000661F20E040E060E0C501DF91CF911F9176
:102F30000F91EF90CF90BF90AF909F908F900C9497
:102F4000DA1CCF93DF93EC010E94301C0E94001D1D
:102F50008078803849F40E94CE1C2FEF4FEF6FEF3E
:102F6000CE010E94DA1CFFCFCE010E944D1724969D
:102F700065E0CE010E94C6196DE0CE010E94C6191F
:102F8000DF91CF910C941C192F923F924F925F9238
:102F90006F927F928F929F92AF92BF92CF92DF9269
:102FA000EF92FF920F931F93CF93DF93CDB7DEB7CE
:102FB00028970FB6F894DEBF0FBECDBF9E838D83DA
:102FC0002A01603871050CF06DC0403451050CF0D9
:102FD00069C0CB01A5E0CA9E800D911D1124181671
:102FE00019060CF05FC0EC2DF0E0FC83EB83CA0106
:102FF000F8E0CF9E800D911D1124181619060CF0D3
:1030000051C0A5E02A9FC00111245B0118861F82D0
:103010008B579B4F9A838983BF81B53041F0E981FB
:10302000FA818F819885E80FF91F149101C010E093
:10303000320128E0D22E10FF02C0F02E01C0FE2C7B
:10304000F1100BC0E01209C01695DA94AB81BC8177
:103050006A0E7B1ED110EFCF19C01501822D8A197F
:103060008C1590F74301882D86198C1558F42F2D57
:10307000A401B1018D819E810E940412BFEF8B1AC1
:103080009B0AF1CFEFEF2E1A3E0AE8CF8F81988589
:10309000019698878F83AB81BC81AA0EBB1E0697D1
:1030A00009F0BACF28960FB6F894DEBF0FBECDBF99
:1030B000DF91CF911F910F91FF90EF90DF90CF9014
:1030C000BF90AF909F908F907F906F905F904F9048
:1030D0003F902F9008958F929F92AF92BF92CF9280
:1030E000EF920F93CF93DF93EC01262F6A3099F480
:1030F000FC01E85EFB4F208132978081918138E0AE
:10310000239F800D911D112491838083CC5EDB4F22
:10311000198218824BC06D3009F448C0FC01EA5E88
:10312000FB4F408151815C018CEEA81A8BEFB80AED
:10313000F501608171814E01F8EE8F1AFBEF9F0A55
:10314000F401C080E12C01E0CE010E94C417F4011B
:103150002081422F50E0F50180819181F6E02F9F80
:10316000800D911D1124F501918380833596208176
:103170002223E1F06AEF64039001659F300D112472
:1031800020583F4F281739078CF4E881F9810190C6
:10319000F081E02D6AE0CE01DF91CF910F91EF90A9
:1031A000CF90BF90AF909F908F900994DF91CF9177
:1031B0000F91EF90CF90BF90AF909F908F90089518
:1031C000FC01EC5EFB4F7183608332965183408338
:1031D000089544960C94BE1CCF93DF931F92CDB7F5
:1031E000DEB769830E94001D6981982F962381E0D4
:1031F000961380E00F90DF91CF910895E4E6F0E020
:103200008081877F8083E5E6F0E08081877F80830F
:1032100081E08093AD0608958091AD0608951092E7
:10322000AD06E4E6F0E0808188608083E5E6F0E0CA
:1032300080818860808308951092BA0682E090E0D1
:103240000E94702C81110C94FE180895CF92DF9289
:10325000EF92FF921F93CF93DF939091BB06891754
:1032600008F065C067FD63C0E82FF0E0EB5AF54F4A
:103270001491E62FF0E0603330F4EB5DF54FE4910C
:10328000CE2FD0E006C0EE0FFF1FEB5DF64FC591CD
:10329000D4916E01E12CF12C60E074E284EF90E0B7
:1032A000A70196010E94C62B2150310941095109FD
:1032B0002115310581E04807510570F060E970ED96
:1032C00083E090E0A70196010E94C62B21503109AE
:1032D0004109510993E001C091E01130C9F0133068
:1032E00031F580919100887F892B809391003093F4
:1032F000990020939800D093B906C093B80681E056
:103300008093B706809171008260809371000FC036
:1033100080918100887F892B809381003093890080
:103320002093880080916F00826080936F00DF910E
:10333000CF911F91FF90EF90DF90CF900895E82FED
:10334000F0E0EB5AF54FE491E13019F0E33069F029
:10335000089580916F008D7F80936F002091C50646
:10336000E091C606F091C70608C01092B7062091FA
:10337000BE06E091BF06F091C006808190E030E08B
:10338000209530958223932380830895CF93DF93F4
:10339000C62F8091BB06823009F46BC0E82FF0E0A5
:1033A000EB5AF54FD491A82FB0E0A454B94F6C93C9
:1033B0008F5F8093BB0661E08C2F0E94CA20D130C2
:1033C00091F1D33009F055C0109290001092910005
:1033D000809191008860809391008091910081603C
:1033E000809391006C2F70E0FB01E757F04F249120
:1033F00030E0220F331F2855304FF9018591949109
:103400009093C0068093BF06FB01E659F04F64918C
:103410006093BE066CE380E00E94261980E0DF9195
:10342000CF910C949F19109280001092810080918E
:103430008100886080938100809181008160809309
:1034400081006C2F70E0FB01E757F04F249130E0D2
:10345000220F331F2855304FF90185919491909395
:10346000C7068093C606FB01E659F04F649160934E
:10347000C506DF91CF910895E091AE06F091AF06B9
:10348000BF016F5F7F4F7093AF066093AE06A4914C
:103490009A2F907F8A2F8F70903819F40E949F196D
:1034A000EBCF903961F4AF014E5F5F4F5093AF06A1
:1034B0004093AE06FB0164910E942619DDCF903E39
:1034C00049F48091B0069091B1069093AF06809335
:1034D000AE06D2CF903F19F41092BA06089597FD28
:1034E000CBCFAF014E5F5F4F5093AF064093AE0618
:1034F000FB016491262F30E03A2BA091B806B091E1
:10350000B9060E94EB2B6C507E4F8F4F9F4F28EED9
:1035100033E040E050E00E94A42B2093B2063093A9
:10352000B3064093B4065093B5068091B2069091CD
:10353000B306A091B406B091B506892B8A2B8B2BCC
:1035400061F481E090E0A0E0B0E08093B206909357
:10355000B306A093B406B093B50608958091B7065C
:10356000882349F09091BE06E091BF06F091C00615
:103570008081892780838091BA06882329F18091F0
:10358000B2069091B306A091B406B091B506892B0E
:103590008A2B8B2BC9F08091B2069091B306A09133
:1035A000B406B091B5060197A109B1098093B2069E
:1035B0009093B306A093B406B093B506892B8A2BDB
:1035C0008B2B11F40C943C1A08954F925F926F92DA
:1035D0007F928F929F92AF92BF92CF92DF92EF92A3
:1035E000FF92CF93DF93EB0149015A0181E0809371
:1035F000B6062B01612C712C60E072E18AE790E045
:10360000A30192010E94C62B69017A0181E0C81AC8
:10361000D108E108F108C114D10481E0E806F10401
:1036200088F068E478EE81E090E0A30192010E94C6
:10363000C62B69017A0181E0C81AD108E108F108B6
:1036400093E001C091E080918100887F892B809375
:10365000810081149104A104B10471F0DE01AA0F6C
:10366000BB1FA50194010E94FA2B28EE33E040E035
:1036700050E00E94A42B03C02FEF3FEFA901D0928E
:103680008900C09288002093C1063093C2064093FF
:10369000C3065093C40680916F00826080936F00D0
:1036A000DF91CF91FF90EF90DF90CF90BF90AF90E0
:1036B0009F908F907F906F905F904F9008951F9292
:1036C0000F920FB60F9211242F933F938F939F93D6
:1036D000AF93BF93EF93FF938091B606882309F4CD
:1036E0004BC08091C1069091C206A091C306B091D3
:1036F000C406892B8A2B8B2B51F19091C506E09142
:10370000C606F091C7068081892780838091C10613
:103710009091C206A091C306B091C406181619066E
:103720001A061B0694F58091C1069091C206A091DD
:10373000C306B091C4060197A109B1098093C106DF
:103740009093C206A093C306B093C4061EC0109205
:10375000B60680916F008D7F80936F002091C50623
:10376000E091C606F091C706808190E030E0209598
:1037700030958223932308C09091C506E091C60638
:10378000F091C706808189278083FF91EF91BF91D7
:10379000AF919F918F913F912F910F900FBE0F90FE
:1037A0001F9018951F920F920FB60F9211242F930E
:1037B0003F934F935F936F937F938F939F93AF93B9
:1037C000BF93EF93FF930E94AE1AFF91EF91BF91C9
:1037D000AF919F918F917F916F915F914F913F91A9
:1037E0002F910F900FBE0F901F9018958EBD000067
:1037F0000DB407FEFDCF8EB508950895E091CA0679
:10380000F091CB0680819091C806892B8083E0914E
:10381000CC06F091CD0690818091C90680958923D0
:1038200080830895E091CC06F091CD06808190913F
:10383000C906892B8083E091CA06F091CB0690815E
:103840008091C806809589238083E091CC06F09111
:10385000CD0690818091C906809589238083089543
:10386000CF93DF930E94EA10C4E6DAE0BE01FE01C6
:10387000849122966F5F7F4FFB016491882319F03A
:103880000E94CA20F3CF61E086E00E94032161E03C
:1038900070E080E090E00E94661F60E086E00E9499
:1038A00003216AE070E080E090E00E94661F61E022
:1038B00086E00E940321E5E9FFE0E491F0E0EE0FED
:1038C000FF1FE855F04F859194919093CD0680931A
:1038D000CC06E6E7FFE0E491E093C906EDE8FFE0FF
:1038E000E491F0E0EE0FFF1FE855F04F85919491C1
:1038F0009093CB068093CA06EEE6FFE0E491E09356
:10390000C8068CB58C7F8CBD8DB581608DBD0E9445
:10391000121CC7E5DAE0FAE0C436DF0731F0FE0139
:1039200084910E94F61B2196F6CF0E94FE1B809187
:103930006400816080936400809164008260809361
:1039400064008091640080688093640080916400CA
:10395000806480936400809165008160809365003D
:10396000DF91CF91089583B7817F83BF83B7816053
:1039700083BF889583B78E7F83BF089520E030E0B2
:10398000FC014191CF014EBD119C119C119C2F5FF8
:103990003F4F2115F4E03F0799F70895CF93DF9348
:1039A000C0E0D4E080E00E94F61B2197D9F7DF91B8
:1039B000CF9108950F931F93CF93DF9300D0CDB78E
:1039C000DEB70FEF10E0C801861B9109BC018AE049
:1039D0002A8349830E94F61F4981B801641B71093B
:1039E0008BE00E94F61F2A81B801621B710989E0F1
:1039F0000F900F90DF91CF911F910F910C94F61FB4
:103A00008FB14CB123B150E040955095407455278B
:103A100033E0559547953A95E1F730E0209530959C
:103A2000207133273595279535952795242B80953B
:103A3000807F822B08958F929F92AF92BF92CF92F8
:103A4000DF92EF92FF920F931F93CF93DF93EC01DE
:103A50008B0160E4C8010E94EC188823B9F0C8808B
:103A6000D980EA80FB802AE939E949E95FE3C701A7
:103A7000B6010E94C22987FF29C02FE832EC45EF2A
:103A80005CE3C701B6010E945E291CC060E2C80168
:103A90000E94EC188823D1F0C880D980EA80FB808E
:103AA0002AE939E949E95FEBC701B6010E94112B08
:103AB000181664F42FE832EC45EF5CE3C701B60159
:103AC0000E945D29688379838A839B8360E1C801B2
:103AD0000E94EC18811106C064E0C8010E94EC1835
:103AE000882311F120E030E040E85FEB6C817D81BC
:103AF0008E819F810E94C22987FF08C080E090E0EC
:103B0000A0E8BFEB8C839D83AE83BF832BE734E1BA
:103B10004EE65FE3688179818A819B810E94152B43
:103B2000688379838A839B8368E0C8010E94EC18CC
:103B3000882361F08885882349F080E090E0A0E246
:103B4000B0EC8C839D83AE83BF8318862AE939E964
:103B500049E15EE36C817D818E819F810E945E29B7
:103B60006C837D838E839F832E89222379F09F77B8
:103B70002DEC3CEC4CE85FEB0E94152B6C837D83B5
:103B80008E839F8321E028871E8A0FC02D892223E0
:103B900019F19F772DEC3CEC4CE85FE30E94152B6C
:103BA0006C837D838E839F831D8A9F7720E030E026
:103BB00048E452E40E94152B20E030E048EC53E446
:103BC0000E945E290E94332A2AE030E040E050E063
:103BD000C80104960E94E51A8C898823A9F088817F
:103BE0009981AA81BB81BC01CD019F7720E030E0A3
:103BF00040EC5FEB0E94152B688379838A839B835B
:103C000021E028871C8A17C08B89882359F1888175
:103C10009981AA81BB81BC01CD019F7720E030E072
:103C200040EC5FE30E94152B688379838A839B8332
:103C300021E028871B8A9F7720E030E048E452E4A7
:103C40000E94152B20E030E048EC53E40E945E29EE
:103C50000E94332A2AE030E040E050E0C801049698
:103C60000E94E51A22E538EB4EE75FE36C817D8127
:103C70008E819F810E94152B4B015C016C837D839B
:103C80008E839F8328E431EE4AE75FE36881798180
:103C90008A819B810E94152B6B017C01688379834B
:103CA0008A839B832DEC3CEC4CE050E4C501B401CD
:103CB0000E94112B87FD08C08DEC9CECACE0B0E4B9
:103CC0008C839D83AE83BF8320E030E040E450E4EA
:103CD000C701B6010E94112B18162CF480E090E069
:103CE000A0E4B0E40EC020E030E040E450ECC701B6
:103CF000B6010E94C22987FF08C080E090E0A0E4DE
:103D0000B0EC88839983AA83BB832C813D814E814B
:103D10005F816D857E858F8598890E945E296D877C
:103D20007E878F87988B288139814A815B8169855D
:103D30007A858B859C850E945E2969877A878B8727
:103D40009C878989811107C08A8981508A8B81115A
:103D500002C081E0898BDF91CF911F910F91FF907D
:103D6000EF90DF90CF90BF90AF909F908F9008958D
:103D70000F931F93CF93DF93EC018A01882777FD80
:103D80008095982F0E94612A69877A878B879C8704
:103D9000B801882777FD8095982F0E94612A6D874A
:103DA0007E878F87988B1C821D821E821F821882BD
:103DB00019821A821B8218861B8A1C8A1D8A1E8AF7
:103DC0001A8A81E0898BDF91CF911F910F9108951D
:103DD0002FE0FC01228B118A08951F920F920FB6DB
:103DE0000F9211242F933F938F939F93AF93BF9381
:103DF0008091E6069091E706A091E806B091E90669
:103E00003091E50623E0230F2D3720F40196A11D04
:103E1000B11D05C026E8230F0296A11DB11D2093F8
:103E2000E5068093E6069093E706A093E806B09334
:103E3000E9068091EA069091EB06A091EC06B0911C
:103E4000ED060196A11DB11D8093EA069093EB0645
:103E5000A093EC06B093ED06BF91AF919F918F9127
:103E60003F912F910F900FBE0F901F9018952FB775
:103E7000F8946091E6067091E7068091E8069091CB
:103E8000E9062FBF08953FB7F8948091EA06909114
:103E9000EB06A091EC06B091ED0626B5A89B05C0F7
:103EA0002F3F19F00196A11DB11D3FBF6627782F46
:103EB000892F9A2F620F711D811D911D42E0660F9F
:103EC000771F881F991F4A95D1F708958F929F9267
:103ED000AF92BF92CF92DF92EF92FF926B017C0183
:103EE0000E94431F4B015C01C114D104E104F104A1
:103EF000F1F00E94B1270E94431F681979098A09CD
:103F00009B09683E73408105910570F321E0C21A58
:103F1000D108E108F10888EE880E83E0981EA11C04
:103F2000B11CC114D104E104F10429F7DDCFFF90E5
:103F3000EF90DF90CF90BF90AF909F908F900895BB
:103F4000789484B5826084BD84B5816084BD85B574
:103F5000826085BD85B5816085BDEEE6F0E080813B
:103F600081608083E1E8F0E010828081826080835C
:103F7000808181608083E0E8F0E0808181608083DF
:103F8000E1E9F0E0808182608083808181608083CC
:103F9000E0E9F0E0808181608083E1ECF0E0808105
:103FA000846080838081826080838081816080835F
:103FB000E3ECF0E0808181608083E0ECF0E08081E0
:103FC00082608083E2ECF0E0808181608083EAE7B8
:103FD000F0E0808184608083808182608083808142
:103FE0008160808380818068808308951F93CF9350
:103FF000DF93182FEB0161E00E94CA20209711F493
:1040000060E004C0CF3FD10539F461E0812FDF913A
:10401000CF911F910C940321E12FF0E0E55BF04F6D
:10402000449150E0FA013197EF30F10508F06CC08F
:10403000EA5AFF4F0C94E52B84B5806884BDC7BD58
:1040400068C084B5806284BDC8BD63C080918000B3
:10405000806880938000D0938900C093880059C005
:1040600080918000806280938000D0938B00C09309
:104070008A004FC080918000886080938000D09338
:104080008D00C0938C0045C0809190008068809323
:104090009000D0939900C09398003BC0809190000D
:1040A000806280939000D0939B00C0939A0031C0AF
:1040B00080919000886080939000D0939D00C09381
:1040C0009C0027C08091C00080688093C0008091D0
:1040D000C0008F7B8093C000C093CF001AC0809136
:1040E000C00080628093C000C093D00012C0809155
:1040F000C20088608093C2008091C2008B7F809351
:10410000C200C093D20005C0C038D1050CF07DCFED
:1041100077CFDF91CF911F91089590E0FC01319707
:10412000EF30F105B0F5EB59FF4F0C94E52B809182
:1041300080008F7703C0809180008F7D8093800006
:10414000089580918000877FF9CF84B58F7702C072
:1041500084B58F7D84BD0895809190008F7707C0CE
:10416000809190008F7D03C080919000877F809325
:10417000900008958091C0008F7703C08091C000A7
:104180008F7D8093C00008958091C200877F8093C7
:10419000C2000895CF93DF9390E0FC01E659F04F01
:1041A0002491FC01E757F04F8491882349F190E076
:1041B000880F991FFC01EA54F04FA591B4918855DE
:1041C000904FFC01C591D4919FB7611108C0F8943C
:1041D0008C91209582238C93888182230AC062303F
:1041E00051F4F8948C91322F309583238C938881ED
:1041F000822B888304C0F8948C91822B8C939FBF70
:10420000DF91CF9108950F931F93CF93DF931F9268
:10421000CDB7DEB7282F30E0F901E55BF04F849190
:10422000F901E659F04F1491F901E757F04F049165
:104230000023C9F0882321F069830E948D206981C1
:10424000E02FF0E0EE0FFF1FE855F04FA591B4917D
:104250009FB7F8948C91611103C01095812301C020
:10426000812B8C939FBF0F90DF91CF911F910F9166
:10427000089508950E94A01F0E9439218EEE96E0B5
:104280000E944C270E94D108C0E0D0E00E94E908BB
:104290002097E1F30E940000F9CFCF92DF92EF92D6
:1042A000FF920F931F93CF93DF937C016A01EB0181
:1042B00000E010E00C151D0571F06991D701ED913A
:1042C000FC910190F081E02DC7010995892B19F02F
:1042D0000F5F1F4FEFCFC801DF91CF911F910F915B
:1042E000FF90EF90DF90CF9008956115710581F0F8
:1042F000DB010D900020E9F7AD0141505109461B4B
:10430000570BDC01ED91FC910280F381E02D0994C3
:1043100080E090E008950C947521DC01ED91FC9112
:104320000190F081E02D09948F929F92AF92BF92FD
:10433000DF92EF92FF920F931F93CF93DF93CDB74E
:10434000DEB7A1970FB6F894DEBF0FBECDBF7C01DC
:10435000F42FD52ECB0119A2223008F42AE08E01C9
:104360000F5D1F4F822E912CA12CB12C6F2F7D2D14
:10437000A50194010E94A42BF22FD32ECA01015053
:1043800011096A3014F4E0E301C0E7E3E60FD80155
:10439000EC93232B242B252B49F7B801C7010E944E
:1043A0007521A1960FB6F894DEBF0FBECDBFDF9189
:1043B000CF911F910F91FF90EF90DF90BF90AF9042
:1043C0009F908F900895CF92DF92EF92FF920F937C
:1043D0001F93CF93DF93EC016A017B012115310517
:1043E00079F4E881F9810190F081E02D642FDF916B
:1043F000CF911F910F91FF90EF90DF90CF90099494
:104400002A303105E9F477FF1AC06DE20E948D2150
:104410008C0144275527BA014C195D096E097F09A3
:104420002AE0CE010E949421800F911FDF91CF914D
:104430001F910F91FF90EF90DF90CF9008952AE0A9
:10444000B701A601CE01DF91CF911F910F91FF908F
:10445000EF90DF90CF900C9494214F925F926F92E7
:104460007F928F929F92AF92BF92CF92DF92EF9204
:10447000FF920F931F93CF93DF93EC016A017B01AF
:10448000B22E9A01AB01C701B6010E94782B882396
:1044900019F063E371E027C026013701E89477F84B
:1044A0002FEF3FEF4FE75FE7C301B2010E94782B88
:1044B00081110DC02FEF3FEF4FE75FE7C301B2015E
:1044C0000E94C22918161CF467E371E00CC02FEF9C
:1044D0003FEF4FE75FE4C701B6010E94112B1816AA
:1044E000ACF46BE371E0CE01DF91CF911F910F919E
:1044F000FF90EF90DF90CF90BF90AF909F908F9004
:104500007F906F905F904F900C9475212FEF3FEF4D
:104510004FE75FECC701B6010E94C22987FDE1CFDA
:1045200020E030E0A901C701B6010E94C22987FF3F
:104530000AC06DE2CE010E948D218C01F7FAF09441
:10454000F7F8F09402C000E010E0A12C60E070E009
:1045500080E09FE3AB1441F020E030E040E251E422
:104560000E94C629A394F6CF9B01AC01C701B601F6
:104570000E945E296B017C010E94332A2B013C01C1
:104580000E945F2A9B01AC01C701B6010E945D2910
:104590006B017C012AE0B301A201CE010E949421AB
:1045A000080F191FBB2039F06FE371E0CE010E94A4
:1045B0007521080F191F7B2C772041F120E030E096
:1045C00040E251E4C701B6010E94152B6B017C014A
:1045D0000E942E2A4B01AA2497FCA094BA2C2AE010
:1045E00030E0B501A401CE010E94E321080F191F9C
:1045F000C501B4010E94612A9B01AC01C701B6014B
:104600000E945D296B017C017A94D6CFC801DF91AD
:10461000CF911F910F91FF90EF90DF90CF90BF90BF
:10462000AF909F908F907F906F905F904F90089584
:104630000C942D22615030F02091F100FC01208378
:104640000196F8CF289884E68093F7060895409164
:10465000F2065091F3062091F0063091F1064217D0
:104660005307B4F49091E8009570E1F39091E8005D
:1046700092FD19C08093F1008091F2069091F306AB
:1046800001968F739927892B19F48EEF8093E80098
:104690008091F2069091F30601969093F306809331
:1046A000F20681E0089580E00895CF92DF92EF92C4
:1046B000FF920F931F93CF93DF931F92CDB7DEB777
:1046C000082F162FF42E862F880F8E5F99830E9455
:1046D000272383E00E942723E02EC02E9981D92E24
:1046E0008C2D8E19811798F4F601F7FE02C0849183
:1046F00001C080810E942723082F80E00E94272389
:104700008023FFEFCF1ADF0A8111EACF01C081E0D9
:104710000F90DF91CF911F910F91FF90EF90DF905D
:10472000CF9008958091D70081608093D70080EA70
:104730008093D80089B5806189BD89B5826089BDC3
:1047400009B400FEFDCF61E070E080E090E00E94DF
:10475000661F8091D8008F7C80618093D800809103
:10476000E000807F8093E0000895CF93DF931F9255
:10477000CDB7DEB71982CE0101960E9411280E94A2
:104780004929BE016F5F7F4F0E94C22889810F9027
:10479000DF91CF9108952FB7FC012083F8946770C3
:1047A0006093E9000895CF93DF931F92CDB7DEB7F2
:1047B000682FCE0101960E94CB238091F20099814F
:1047C0009FBF0F90DF91CF910895FF920F931F939A
:1047D000CF93DF9300D0CDB7DEB7F62E8A0190914C
:1047E000F606992311F057FF03C08FEF9FEF2BC000
:1047F000682FCE0101967A830E94CB238091F2002C
:1048000090E0A8017A81801791070CF4AC01EF2D9C
:10481000F72FF40E84E6FE1639F028988093F706F9
:104820009091F1009193F7CF4115510521F08091BE
:10483000F200882321F089818FBFCA0104C08BE672
:104840008093E800F8CF0F900F90DF91CF911F91E8
:104850000F91FF900895CF93DF931F92CDB7DEB7EE
:1048600041E050E0BE016F5F7F4F0E94E52301975A
:1048700019F4898190E002C08FEF9FEF0F90DF91D4
:10488000CF910895CF93DF931F92CDB7DEB7682FF6
:10489000CE0101960E94CB239091E800892F80726F
:1048A00095FF04C09091F20080E4891B99819FBF1D
:1048B0000F90DF91CF9108956F927F928F929F9288
:1048C000AF92BF92CF92DF92EF92FF920F931F931E
:1048D000CF93DF931F92CDB7DEB7782E7B01C42E26
:1048E000B52E8091F606882369F0042F152F8AEFE4
:1048F000D82E872D8072982E9AE3A92E872D80744A
:10490000882E11C08FEF9FEF57C0872D0E94422441
:10491000682E81110CC0DA94A9F361E070E080E0A8
:1049200090E00E94661F0115110579F73BC0282F02
:1049300030E0021713070CF4602E672DCE010196AC
:104940000E94CB238091E80085FF29C0262D30E00E
:10495000021B130B992039F06A948FEF6816B1F09F
:104960001092F100F9CFF701862D77FE07C0815034
:1049700058F094919093F1003196F9CF815020F046
:1049800091919093F100FACFE20EF31E8091E8002E
:1049900085FF0FC00115110511F481100AC089812E
:1049A0008FBFC1CF5D9884E68093F8068C2D9B2D38
:1049B00003C0A092E800F3CF0F90DF91CF911F9139
:1049C0000F91FF90EF90DF90CF90BF90AF909F90AE
:1049D0008F907F906F9008951092E9001092F306E7
:1049E0001092F2069093F1068093F0060895CF920C
:1049F000DF92FF920F931F93CF93DF9300D0CDB739
:104A0000DEB7F82E8A016B0101151105B1F0F60130
:104A1000F7FE02C0849101C0808149835A830E94BD
:104A2000272301501109FFEFCF1ADF0A49815A816C
:104A30008111EACF8FEF9FEF01C0CA010F900F9055
:104A4000DF91CF911F910F91FF90DF90CF9008954C
:104A5000BF92CF92DF92EF92FF920F931F93CF936B
:104A6000DF936C018B01EB013BEFB32E2097C1F07C
:104A70007E01C134D1051CF020E4E22EF12C80919E
:104A8000E80082FFFCCFC8018C1B9D0B6E2D8C0DA6
:104A90009D1D0E941A23B092E800CE19DF09E6CFCF
:104AA000C801DF91CF911F910F91FF90EF90DF90A0
:104AB000CF90BF9008951F920F920FB60F921124BE
:104AC000DF92EF92FF920F931F932F933F934F9399
:104AD0005F936F937F938F939F93AF93BF93EF9366
:104AE000FF93CF93DF93CDB7DEB76C97DEBFCDBF1B
:104AF0001092E9008091E80083FF23C168E0CE01B5
:104B000045960E941A2382EF8093E8003D8937FF83
:104B100005C08091E80080FFFCCF03C08EEF80933A
:104B2000E800832F807609F0F0C02E894F89D88C59
:104B300021110CC0303829F48091F5068093F100E2
:104B400002C01092F1001092F100F4C0842F90E0A6
:104B50009D29213049F43111EDC0019709F0EAC0D7
:104B60008091F5068D7F0AC0233059F43111E2C0DF
:104B7000019709F0DFC08091F50682608093F50609
:104B8000D9C0253041F48091E80080FFFCCF406817
:104B90004093E300CFC0263009F08DC0EB8CFC8C35
:104BA00022E0D2122CC080E090E00E94EC240E940F
:104BB000B52399E08E010F5F1F4FF801292F119245
:104BC0002A95E9F79983DA8291E09E8390EA9887A3
:104BD0009AEF99872091F2063091F306275F3F4FB5
:104BE0003C832B838D83C7010E94EC2449E050E075
:104BF000B80180E00E94F7240E94B5239BC0C70142
:104C00000E94EC240E944929BE016B5E7F4F0E94E6
:104C1000EB28009719F00CF08DC090C081E0D812FD
:104C20000EC08B8D9C8D089719F481E08093EF0660
:104C30008091EF0681112FC066ED7FE031C0E3E087
:104C4000DE127CC08F89882349F1823029F440E844
:104C500067E084EF9FE01CC0813029F440E86BE0FE
:104C600088EE9FE015C0833009F068C00E94492992
:104C70008E010F5F1F4FB8010E940A29F8010190B1
:104C80000020E9F73197E01BF10B40E06E2FC801DF
:104C90000E9455234DC064EC7FE002C06CEF7FE0C2
:104CA0006115710509F44AC0FB01449150E080E8A8
:104CB0000E94F7243FC0273009F440C0283021F477
:104CC00081E08093F10036C02930A1F53370B1F551
:104CD000EFE0F1E081E021E036E39081992361F09B
:104CE0008093E9002093EB0091919093EC00309336
:104CF000ED008F5F873089F78EE78093EA0010928E
:104D0000EA008F898093F60615C08B8D9C8D0E94DA
:104D1000EC24898D811105C0CE0145960E941C2886
:104D200007C00E944929BE016B5E7F4F0E9429295E
:104D3000882321F08EEF8093E80003C081E2809306
:104D4000EB006C960FB6F894DEBF0FBECDBFDF91BF
:104D5000CF91FF91EF91BF91AF919F918F917F91F3
:104D60006F915F914F913F912F911F910F91FF9004
:104D7000EF90DF900F900FBE0F901F9018958093CB
:104D8000E9008091F200882319F08AE38093E8001B
:104D900008951F920F920FB60F9211242F933F93F5
:104DA0004F935F936F937F938F939F93AF93BF9333
:104DB000CF93EF93FF93C091E1008091E100837F57
:104DC0008093E1008093E100C3FF0FC01092E900DF
:104DD00081E08093EB001092EC0082E38093ED0081
:104DE0001092F60688E08093F000C2FF19C083E0BD
:104DF0000E94BF268091F806882339F08091F8063A
:104E000081508093F806882389F18091F7068823E2
:104E100039F08091F70681508093F706882341F19D
:104E2000C4FF10C08091E2008E7E81608093E2001A
:104E30008091E1008F7E8093E1008091F4068E7E68
:104E4000806111C0C0FF16C08091E2008E7E80613B
:104E50008093E2008091E1008E7E8093E10080915A
:104E6000F4068E7E81608093F40604C05D9ACDCFF7
:104E7000289AD6CFFF91EF91CF91BF91AF919F919B
:104E80008F917F916F915F914F913F912F910F90F3
:104E90000FBE0F901F9018951092F6061092F5060F
:104EA0001092F4060E9492238091E1008E7E8093FE
:104EB000E1008DE08093E200559A209AEEEFFFE743
:104EC000859194918B3F9C4D19F481E08093490723
:104ED0000895611571058105910511F00C94592C07
:104EE0000895CF93DF9300D000D0CDB7DEB79B01FC
:104EF000AC01611571058105910569F069833A83FB
:104F00004B835C830E94542C29813A814B815C81C4
:104F10000E94C62B03C060E070E0CB010F900F90A1
:104F20000F900F90DF91CF910895CF92DF92EF9283
:104F3000FF926B017C01621773078407950764F485
:104F4000CA01B9016C197D098E099F090E94712758
:104F50006C0D7D1D8E1D9F1DFF90EF90DF90CF90FB
:104F6000089508950E94622CCF93DF931F92CDB7CE
:104F7000DEB76983DC01ED91FC910280F381E02DC5
:104F800041E050E0BE016F5F7F4F09950F90DF91C8
:104F9000CF910895CF93DF93EC018C859D8597FF8A
:104FA00005C082E00E942B249D878C878C859D857F
:104FB000DF91CF91089583E00C94BF26FC01848596
:104FC000958597FD06C082E00E94D32390E001966C
:104FD000089582E00E94D32390E00895FC01848527
:104FE000958597FD05C02FEF3FEF358724870895FE
:104FF00082E00C942B24CF93DF93EC01809120016D
:10500000882331F083E00E945C241816190634F0DE
:1050100081E090E09B838A8380E090E0DF91CF91F4
:105020000895FC0120812E5F208342E450E060E07F
:1050300070E180E80C94F724FC0121818081813AA1
:1050400059F4213209F04BC047E050E069E171E0CA
:1050500080E00E94F7245EC0813209F040C0233214
:1050600089F4838190E0982F88273281832BA0E0F8
:10507000B0E08093150190931601A0931701B093AF
:1050800018010FC0203239F467E070E089E191E047
:105090000E94282509C0223221F4828180932001B8
:1050A00003C02D7F2032B1F580914907811103C0E3
:1050B000E0E0F8E002C0EEEFFAE080911901909193
:1050C0001A01A0911B01B0911C01803B9440A105E5
:1050D000B10511F58091200180FF03C01DC080E063
:1050E0000895EE3F2AE0F20731F08081918190939C
:1050F000FF0A8093FE0A87E797E7918380832BE07E
:1051000088E190E00FB6F894A895809360000FBEF8
:105110002093600081E0089588E10FB6F8948093B1
:105120006000109260000FBEA895EE3F8AE0F8077D
:1051300039F08091FE0A9091FF0A91838083EACF33
:105140001092FF0A1092FE0AE5CF1092FC06109210
:10515000FB0688EE93E0A0E0B0E08093FD0690931C
:10516000FE06A093FF06B09300078DE491E09093B4
:10517000FA068093F9068FEF9FEF909306078093CE
:1051800005070895EF92FF920F931F93CF93DF933C
:105190007B01FC01C281D38100E010E0209781F007
:1051A000E881F9810280F381E02DB701CE010995F4
:1051B00097FD08C0080F191F0884D985C02DEECFB0
:1051C000C80102C08FEF9FEFDF91CF911F910F9128
:1051D000FF90EF9008950F931F93CF93DF938B0170
:1051E000FC01C281D381209771F0E881F9810480AC
:1051F000F581E02DB801CE010995009731F40884BE
:10520000D985C02DF0CF80E090E0DF91CF911F9144
:105210000F9108950F931F93CF93DF938B01FC01A0
:10522000C281D381209771F0E881F9810680F781EE
:10523000E02DB801CE010995080F111D0884D9850C
:10524000C02DF0CFF8011082DF91CF911F910F9107
:1052500008950F931F93CF93DF938B01FC01C281BD
:10526000D381209771F0E881F9810190F081E02DE0
:10527000B801CE010995811106C00884D985C02DD9
:10528000F0CF80E001C081E0DF91CF911F910F91BD
:10529000089580914E0781110DC082E080934A07E6
:1052A00084E080934B0710924D0710924C0781E0E9
:1052B00080934E078AE497E008955058BB27AA27A9
:1052C0000ED075C166D130F06BD120F031F49F3F24
:1052D00011F41EF45BC10EF4E095E7FB51C1E92F18
:1052E00077D180F3BA17620773078407950718F020
:1052F00071F49EF58FC10EF4E0950B2EBA2FA02D00
:105300000B01B90190010C01CA01A0011124FF2772
:10531000591B99F0593F50F4503E68F11A16F0406D
:10532000A22F232F342F4427585FF3CF469537956C
:105330002795A795F0405395C9F77EF41F16BA0B31
:10534000620B730B840BBAF09150A1F0FF0FBB1FDF
:10535000661F771F881FC2F70EC0BA0F621F731F28
:10536000841F48F4879577956795B795F7959E3F85
:1053700008F0B3CF9395880F08F09927EE0F979513
:1053800087950895D9D008F481E008950CD00FC115
:1053900007D140F0FED030F021F45F3F19F0F0C0AB
:1053A000511139C1F3C014D198F39923C9F355238E
:1053B000B1F3951B550BBB27AA2762177307840708
:1053C00038F09F5F5F4F220F331F441FAA1FA9F3BE
:1053D00033D00E2E3AF0E0E830D091505040E695B0
:1053E000001CCAF729D0FE2F27D0660F771F881F11
:1053F000BB1F261737074807AB07B0E809F0BB0B00
:10540000802DBF01FF2793585F4F2AF09E3F510523
:1054100068F0B6C000C15F3FECF3983EDCF38695C0
:1054200077956795B795F7959F5FC9F7880F911D99
:105430009695879597F90895E1E0660F771F881F85
:10544000BB1F621773078407BA0720F0621B730B38
:10545000840BBA0BEE1F88F7E095089504D068948A
:10546000B111D9C00895BCD088F09F5790F0B92FE2
:105470009927B751A0F0D1F0660F771F881F991FA9
:105480001AF0BA95C9F712C0B13081F0C3D0B1E0BB
:105490000895C0C0672F782F8827B85F39F0B93FCB
:1054A000CCF3869577956795B395D9F73EF49095AB
:1054B0008095709561957F4F8F4F9F4F0895E89429
:1054C00009C097FB3EF490958095709561957F4F4C
:1054D0008F4F9F4F9923A9F0F92F96E9BB279395FA
:1054E000F695879577956795B795F111F8CFFAF40A
:1054F000BB0F11F460FF1BC06F5F7F4F8F4F9F4F3B
:1055000016C0882311F096E911C0772321F09EE898
:10551000872F762F05C0662371F096E8862F70E0FE
:1055200060E02AF09A95660F771F881FDAF7880FD8
:105530009695879597F90895990F0008550FAA0B2E
:10554000E0E8FEEF16161706E807F907C0F0121696
:105550001306E407F50798F0621B730B840B950B99
:1055600039F40A2661F0232B242B252B21F40895EE
:105570000A2609F4A140A6958FEF811D811D08958B
:1055800097F99F6780E870E060E008959FEF80ECF6
:10559000089500240A941616170618060906089599
:1055A00000240A9412161306140605060895092EFF
:1055B0000394000C11F4882352F0BB0F40F4BF2B6E
:1055C00011F460FF04C06F5F7F4F8F4F9F4F0895AE
:1055D00057FD9058440F551F59F05F3F71F04795A4
:1055E000880F97FB991F61F09F3F79F08795089589
:1055F000121613061406551FF2CF4695F1DF08C0A8
:10560000161617061806991FF1CF869571056105C4
:1056100008940895E894BB2766277727CB0197F96C
:1056200008958ADF08F48FEF08950BD0C0CFB1DF63
:1056300028F0B6DF18F0952309F0A2CFA7CF1124E8
:10564000EACFC6DFA0F3959FD1F3950F50E0551F29
:10565000629FF001729FBB27F00DB11D639FAA27C7
:10566000F00DB11DAA1F649F6627B00DA11D661F16
:10567000829F2227B00DA11D621F739FB00DA11D37
:10568000621F839FA00D611D221F749F3327A00DF1
:10569000611D231F849F600D211D822F762F6A2F8D
:1056A00011249F5750408AF0E1F088234AF0EE0F12
:1056B000FF1FBB1F661F771F881F91505040A9F71F
:1056C0009E3F510570F05CCFA6CF5F3FECF3983E54
:1056D000DCF3869577956795B795F795E7959F5F86
:1056E000C1F7FE2B880F911D9695879597F9089520
:1056F00023DF880B990B0895AA1BBB1B51E107C040
:10570000AA1FBB1FA617B70710F0A61BB70B881F51
:10571000991F5A95A9F780959095BC01CD010895E0
:1057200097FB072E16F4009407D077FD09D00E944E
:105730007C2B07FC05D03EF4909581959F4F0895F2
:10574000709561957F4F0895A1E21A2EAA1BBB1B8D
:10575000FD010DC0AA1FBB1FEE1FFF1FA217B3073D
:10576000E407F50720F0A21BB30BE40BF50B661F53
:10577000771F881F991F1A9469F760957095809517
:1057800090959B01AC01BD01CF010895052E97FBBB
:105790001EF400940E94DD2B57FD07D00E94A42B1D
:1057A00007FC03D04EF40C94DD2B509540953095BA
:1057B00021953F4F4F4F5F4F08959095809570957D
:1057C00061957F4F8F4F9F4F0895EE0FFF1F0590FC
:1057D000F491E02D0994A29FB001B39FC001A39F53
:1057E000700D811D1124911DB29F700D811D11241A
:1057F000911D08950E94EB2BA59F900DB49F900DD5
:10580000A49F800D911D112408958F929F92AF92B5
:10581000BF92CF92DF92EF92FF92CF93DF93EC0192
:10582000688179818A819B81611571058105910566
:1058300021F464E279ED8BE597E02DE133EF41E06F
:1058400050E00E94C62B49015A019B01AC01A7EA16
:10585000B1E40E94FA2B6B017C01ACEEB4EFA50120
:1058600094010E947B2CC60ED71EE81EF91EF7FE7F
:1058700006C081E0C81AD108E10880E8F80AC882A9
:10588000D982EA82FB82C701B6019F77DF91CF916F
:10589000FF90EF90DF90CF90BF90AF909F908F9050
:1058A00008950E94052C089580E091E00E94052C47
:1058B0000895609300017093010180930201909319
:1058C0000301089581E090E0F8940C94802CFB0192
:1058D000DC0102C005900D9241505040D8F7089568
:1058E000F999FECF92BD81BDF89A992780B50895A8
:1058F000B7FF0C94FA2B0E94FA2B821B930B08958E
:04590000F894FFCF49
:1059040001000000000070C120002000010100C15E
:105914008081000000FFFFFFFF00E10000000000A5
:1059240000583A0020593A00000000006B184D213D
:105934000D0A006E616E00696E66006F7666002E59
:105944000000000000B2274D2100000000B427FB36
:0A59540027DE27EE27CA27DB270015
:00000001FF
