:100000000C94C30A0C94EB0A0C94EB0A0C94EB0AC4
:100010000C94EB0A0C94EB0A0C94EB0A0C94EB0A8C
:100020000C94EB0A0C94EB0A0C948D290C941F2869
:100030000C94EB0A0C94EB0A0C94EB0A0C94EB0A6C
:100040000C94EB0A0C94631F0C94EB0A0C94EB0ACF
:100050000C94EB0A0C94EB0A0C94EB0A0C945623C8
:100060000C94EB0A0C94EB0A0C94EB0A0C94EB0A3C
:100070000C94EB0A0C94EB0A0C94EB0A0C94EB0A2C
:100080000C94D61F0C94EB0A0C94EB0A0C94EB0A1C
:100090000C94EB0A0C94EB0A0C94EB0A0C94EB0A0C
:1000A0000C94EB0A0C94EB0A0C94EB0AFF0A0E0B6F
:1000B0001D0B2C0B3B0B4A0B5A0B690B7A0B8A0B53
:1000C00085248A248F249924A324ED24ED24ED246F
:1000D000AD24B724C124CB24D824ED24E0240E255C
:1000E0001125002504250A2532253225322515251E
:1000F00019251D252325272532252D253000ECFF28
:100100000A1402280000001804000000E8FF400460
:100110000000004000FF04000000E8FF0458004019
:1001200000A0FF0480008000E4FF045C00FF0040AA
:10013000008F0400620020001E04007600150006F7
:100140000A0172002400060A0B440000001E04008D
:100150004700F5FF060A014B000400060A0B620087
:10016000E0FFBC04007800CCFF1414004800BCFF82
:100170001004067200E4FF060A0B4400C0FF1E04D0
:100180000040009CFF4404008000A0FF042C0000FD
:1001900001E4FF0448008400C8FF200400A400A874
:1001A000FF042400A800A8FF580400AA00ACFF0622
:1001B0000A0BB400ACFF060A0BCB00D5FF060A0100
:1001C000D500D5FF060A01EC00ACFF060A0BF600CD
:1001D000ACFF060A0B0001A8FF0420000401C4FFC5
:1001E0004004004401A6FF0462003B01C8FF060A68
:1001F0000B1501E4FF060A0B26010800460400283F
:10020000010C00060A0B64012C001414008C003C45
:100210000010040644012C000214036C01C4FF0406
:100220006800C0000800043800BF00FDFF060A0196
:10023000C40028001E0400A20028001E0400E200E2
:1002400008001E0400840008001E04008A01A6FFA6
:10025000049A004801A6FF42040052010400100461
:10026000085A00ACFF0214030000300028040028E4
:10027000001C000418002800180028040050000486
:1002800000041800500000002804005000F6FF0A87
:100290000A007800ECFF0418007800E8FF2804004A
:1002A0007A00DEFF060A01A000D4FF041800A000B7
:1002B000D0FF280400A00062FF045F00B400BCFF70
:1002C000021403C800BCFF041800C800B8FF2804CB
:1002D00000C6004AFF0B5500C8009FFF060A0BF03E
:1002E00000A4FF041800F000A0FF280400F0008C18
:1002F000FF14140018018CFF041800180188FF284F
:100300000400400174FF041800400170FF0A04005B
:1003100068015CFF041800680158FF2804007C0194
:1003200044FF021403900144FF041800900140FFB1
:100330002804009A0136FF060A01B00136FF060ABA
:1003400001B8012CFF041800B80128FF280400C2DE
:10035000011EFF060A01E00114FF041800E001106D
:10036000FF2804000802DAFE041E00F4010CFF104E
:1003700004060802FCFE0418000802F8FE28040027
:10038000F4010CFF1004063002E4FE0418003002F1
:10039000E0FE2804004402C7FE0A190200004000E3
:1003A000800400FCFF00000444000000000054042E
:1003B000007C00C0FF0480005400C0FF0480646221
:1003C000003C00100407780040FF04800058004003
:1003D000FF0480007400C0FE0480005C0098FE04EE
:1003E000A8007800C0FEA80400600098FE9E0400EB
:1003F000D000B1FE0F0F0020010CFE04B800FE007B
:100400000CFE049000020189FE1E1E000C01BCFEC1
:10041000100406240154FD04B800FA0054FD04B889
:1004200000C80054FD320400280154FD320400C805
:10043000001CFD04380056011CFD04380082001C1D
:10044000FD4604008200F4FC0428008200F0FC6EEB
:100450000400F000F0FC044600F40032FD3A040011
:100460002E01F0FC0446003201F0FC8204000C0175
:1004700036FD0C0C00CC0016FD242400400150FD7C
:10048000100406320116FD2424008C0018FD10040F
:1004900006500088FF0804008000CCFF08040078A4
:1004A0000006FF080400F60036FE0804002801DA02
:1004B000FD080400280176FD080400F200A8FD08EC
:1004C00004005A011CFD28040082011CFD04A80040
:1004D000B001F4FC04D0008601C4FD04A800AC0106
:1004E000C4FD04A8008A016CFE04A800A8016CFEEB
:1004F00004A8008E0114FF04A800A40114FF04A89E
:10050000009601A3FF0A1902CEFF4000690400EC27
:10051000FF1000043000F6FF3C001004063300100A
:100520000004300083FF0C00B40400CEFF4400043C
:10053000400001FF8400D1040065FF440004400036
:1005400083FF10000474646EFF80001004071FFF17
:100550000000044A00E3FE440004400001FF800064
:1005600010046AEDFE800010040702FE8400FF0400
:10057000005FFE6B000A196634FE680010046BAC65
:10058000FE500010046B0CFE740010046B5CFE5CEB
:100590000010046B84FE680010046B0CFE50001009
:1005A000046BACFE740010040702FE00000484001B
:1005B00000004000FF040000000000FF04000000F5
:1005C0000400043C0040000800060A0B4000310013
:1005D000060A013E0004000B04003E003C000B0430
:1005E0000080000C00060A0B80002D00060A017E28
:1005F0000004000B08007E0038000B0800C0000853
:1006000000060A0BC0002900060A01BE0004000B08
:100610000400BE0034000B0C00F0002C0002140398
:100620002201400014040040010800060A0B4001AA
:100630003100060A014A010800060A0B4A0131008E
:10064000060A015E012C001404007C01F4FF060A76
:100650000B7C011D00060A018601F4FF060A0B86C9
:10066000011D00060A019A01AF00820400F4019BFB
:1006700000021403FE018200A10400FE01BE00A1DD
:1006800004000002B4002E0A0F000286002E0A1099
:100690003202B4002E0A0F320286002E0A106402C3
:1006A000B4002E0A0F640286002E0A109602B400CF
:1006B000060A0196028600060A0B2D02A0001E04FF
:1006C000005802AF001E04007B029B001E04009431
:1006D00002AF00600400BC029B0002140307039BEE
:1006E00000060A0B050369000B32002003AF001E51
:1006F00004002F0396000A190200004000FF0400C6
:100700000000000004400040003600060A0180009E
:100710003600060A018A003600060A0194003600F7
:10072000060A01D4003600060A01DE003600060A79
:1007300001F7003600060A0101013600060A01FE33
:10074000004000C00400370136002E0A0F69013650
:1007500000060A014D012C000E040089012C000244
:100760001403BE014000040E00BE014E0040040010
:10077000FA014000040E00C2014400060A01CE0145
:100780004400060A01DA014400060A01E6014400B9
:10079000060A01F2014400060A01FE014000C804F5
:1007A00000080236002E0A0F75023600060A017D87
:1007B0000236000B0A007F022C00060A0187022C79
:1007C000000B0A00870236000B0A0089022200068D
:1007D0000A01910236000B0A0093022C00060A015E
:1007E0009D023600060A01B20227000A1902000023
:1007F0004000FF0400FCFFE0FF0464004000310003
:100800000F0F006000E0FF0F5100A0002C00141437
:1008100000C000E0FF0F5600FE002C00021403FF92
:10082000004000FF04002C013500060A014601E0EB
:10083000FF0B50006C0131000F0F008801260006ED
:100840000A0B8601E0FF0B4600AC013500060A01E9
:10085000C8012600060A0BC601E0FF0B4600EA01AC
:1008600027000A1902FE01E0FF04640000004000B6
:10087000E0040040002800200400600010001E0476
:10088000008000F4FF1C0400A000DCFFE00400E096
:1008900000C4FF1404000001ACFF12040020019406
:1008A000FF10040040017CFF800400600164FF141D
:1008B000040080014CFF120400600134FF100400AA
:1008C00080011CFF4004009A0103FF0A1902ACFFDB
:1008D000400094040040001C0004280000001C009C
:1008E000400400E0FF1C00200E00C0FF1C0020148C
:1008F00000A0FF1C0020180040FF80006C0400AC2A
:10090000FF440004400060FF5F002017007CFF3FB1
:100910000004200040FF400004400040FF3C004035
:1009200004006AFF46000A1902000040004004006B
:100930003C004400042000000010000430000000CF
:100940000C0056040056000C000420003C0064001B
:10095000AA040056002C0064040078005A000A0A19
:10096000009B0055000F0F00C80055000F0F00D767
:100970000055000F0F00DC004B000A0A00E6004B98
:10098000006404002C012D001E1E004A010F001EF1
:100990001E0068010F00460400BA00180004180089
:1009A000BA0014005004000A01E2FF0436000E01F0
:1009B000E2FFA00400AA01E6FF0429009601F6FF69
:1009C0000A190200000000003E5B4F5B3E3E6B4F89
:1009D0006B3E1C3E7C3E1C183C7E3C181C577D57D1
:1009E0001C1C5E7F5E1C00183C1800FFE7C3E7FF7D
:1009F0000018241800FFE7DBE7FF30483A060E2610
:100A000029792926407F050507407F05253F5A3C67
:100A1000E73C5A7F3E1C1C08081C1C3E7F14227FAA
:100A200022145F5F005F5F06097F017F0066899582
:100A30006A606060606094A2FFA29408047E04086B
:100A400010207E201008082A1C08081C2A08081EEE
:100A5000101010100C1E0C1E0C30383E3830060ED4
:100A60003E0E06000000000000005F0000000700CE
:100A70000700147F147F14242A7F2A12231308648A
:100A80006236495620500008070300001C2241002E
:100A90000041221C002A1C7F1C2A08083E0808006E
:100AA000807030000808080808000060600020100E
:100AB0000804023E5149453E00427F4000724949C8
:100AC00049462141494D331814127F1027454545A9
:100AD000393C4A49493141211109073649494936CA
:100AE000464949291E00001400000040340000005F
:100AF0000814224114141414140041221408020191
:100B00005909063E415D594E7C1211127C7F4949BC
:100B100049363E414141227F4141413E7F49494959
:100B2000417F090909013E414151737F0808087F4F
:100B300000417F41002040413F017F081422417F56
:100B4000404040407F021C027F7F0408107F3E41EE
:100B500041413E7F090909063E4151215E7F091945
:100B60002946264949493203017F01033F4040405D
:100B70003F1F2040201F3F4038403F63140814634C
:100B800003047804036159494D43007F4141410208
:100B900004081020004141417F040201020440404A
:100BA000404040000307080020545478407F284408
:100BB00044383844444428384444287F38545454F2
:100BC0001800087E090218A4A49C787F0804047801
:100BD00000447D40002040403D007F10284400003C
:100BE000417F40007C047804787C08040478384411
:100BF000444438FC1824241818242418FC7C0804C5
:100C00000408485454542404043F44243C404020E5
:100C10007C1C2040201C3C4030403C442810284490
:100C20004C9090907C4464544C4400083641000041
:100C300000770000004136080002010204023C2651
:100C400023263C1EA1A161123A4040207A38545418
:100C5000555921555579412154547841215554789D
:100C60004020545579400C1E527212395555555931
:100C7000395454545939555454580000457C410056
:100C800002457D420001457C40F0292429F0F028EE
:100C90002528F07C545545002054547C547C0A0986
:100CA0007F4932494949323248484832324A4848F5
:100CB000303A4141217A3A42402078009DA0A07DFF
:100CC00039444444393D4040403D3C24FF242448BD
:100CD0007E4943662B2FFC2F2BFF0929F620C08865
:100CE0007E090320545479410000447D4130484836
:100CF0004A32384040227A007A0A0A727D0D193150
:100D00007D2629292F28262929292630484D4020AB
:100D1000380808080808080808382F10C8ACBA2F87
:100D2000102834FA00007B000008142A1422221430
:100D30002A14089500220095AA005500AAAA55AACF
:100D400055AA000000FF00101010FF00141414FF3B
:100D5000001010FF00FF1010F010F0141414FC002D
:100D60001414F700FF0000FF00FF1414F404FC1437
:100D70001417101F10101F101F1414141F00101030
:100D800010F0000000001F101010101F10101010A5
:100D9000F010000000FF101010101010101010FFC5
:100DA00010000000FF140000FF00FF00001F1017DC
:100DB0000000FC04F414141710171414F404F400C5
:100DC00000FF00F714141414141414F700F714148B
:100DD00014171410101F101F141414F4141010F012
:100DE00010F000001F101F0000001F14000000FC86
:100DF000140000F010F01010FF10FF141414FF1472
:100E00001010101F00000000F010FFFFFFFFFFF0A8
:100E1000F0F0F0F0FFFFFF0000000000FFFF0F0FF9
:100E20000F0F0F38444438447C2A2A3E147E0202B5
:100E30000606027E027E0263554941633844443C03
:100E400004407E201E2006027E020299A5E7A59995
:100E50001C2A492A1C4C7201724C304A4D4D3030CC
:100E600048784830BC625A463D3E494949007E01B7
:100E700001017E2A2A2A2A2A44445F444440514AD6
:100E8000444040444A51400000FF0103E080FF001D
:100E90000008086B6B083612362436060F090F0659
:100EA000000018180000001010003040FF01010081
:100EB0001F01011E00191D1712003C3C3C3C0000A4
:100EC00000000006011501260137014A015D01728B
:100ED0000188019F01B801D201EE010B022A024BE9
:100EE000026E029302BA02E40210033F037003A4ED
:100EF00003DC03170455049704DD0427057505C8B2
:100F00000520067D06E0064907B8072D08A9082D2B
:100F100009B9094D0AEA0A900B400CFA0CC00D9170
:100F20000E6F0F5A1053115B1272139A14D41520BE
:100F3000178018F519801B231DDE1EB420A622B5CC
:100F400024E4263429A72B402E0031EA330037450C
:100F50003ABC3D68414C456B49C84D68524F57807B
:100F60005C006210111213151617181A1C1D1F2190
:100F7000232527292C2E3134373A3E4145494E52FC
:100F8000575C62686E757B838B939CA5AFB9C4D0A8
:100F9000DCE9F70301D5F08D14A1C881CFD9F1AFF9
:100FA00020001402130212021502070208020401B3
:100FB0000C01060100C0F0380C060603030303060B
:100FC000060C38F0C0030F1C306060C0C0C0C060A9
:100FD00060301C0F03080C0A0909090909090909ED
:100FE00009090A0C0880C0E030B0B030E0C0807859
:100FF000FCFE036B6B87FEFC78070F1F303D3D3016
:101000001F0F0700000103030303010000FFFFFFA0
:10101000FF01FDFDFDFDFF01FDFDFD01FF01FDFDEA
:10102000FD01FF01EDEDEDEDFFFFFFFF3F3F3F3F16
:101030003C3D3D3D3D3F3C3D3D3D3C3F3C3F3F3FDA
:101040003C3F3C3F3F3F3F3F3F3F3FFFFFFFFF01F4
:10105000EDEDEDE1FF01FFFFFFFFFF03DDDDDD0350
:10106000FFF1CF3FCFF1FFFFFFFF3F3F3F3F3C3F4F
:101070003F3F3F3F3C3D3D3D3D3F3C3F3F3F3C3F91
:101080003F3F3C3F3F3F3F3F3F0080C0E0F0707834
:10109000383C1C1C1E0E0E0E0E070707070707071D
:1010A00007070707070707070707070707070707D0
:1010B00007070707070707070707070707070707C0
:1010C00007070707070707070707070707070707B0
:1010D00007070707070707070707070707070707A0
:1010E0000707070707070707070707070707070790
:1010F0000707070707070707070E0E0E0E1E1C1C23
:101100003C387870F0E0C08000FEFFFF0300000074
:10111000000000000282BE828280BE888888BE8075
:10112000BEAA2A2A00000000000000000000000003
:10113000000000000000000000808080808000002F
:10114000000080808080800000000080808080809F
:10115000808080808080808080000000008080808F
:1011600080808080808080808080000000000080FF
:1011700080808080808080808080808080000000EF
:10118000000000000003FFFFFEFFFFFF0000000063
:1011900000000000FFFF0301F9F989898989F971CD
:1011A0000183FFFE000000000000000000000000BE
:1011B0000000000000000000FFFF030103FFFF002C
:1011C00000FFFF030103FFFF0000FFFF0301010118
:1011D0000101010101010103FFFF0000FFFF030105
:1011E000010181C1C1C1C1C1C1E37F3E0000FFFF58
:1011F000030101E1F1B1B1B1B1B1B13B3F1F000059
:10120000000000000000FFFFFFFFFFFF00000000E4
:1012100000000000FFFF0000F8F888888888F87058
:10122000070FFDF8000000000000000000000000B3
:101230000000000000000000FFFF0000003F7F6092
:10124000607F3F000000FFFF0000FFFF000000FE86
:10125000FF0303FFFE000000FFFF0000FFFF000090
:1012600000000F1F181818181838F0E00000FFFFD2
:10127000000000387D6D6D6D6D6D6FE7E0C00000A2
:10128000000000000000FFFFFFFFFFFF0000000064
:1012900000000000070F0C0C0C0C0C0C0C0C0C0CC0
:1012A0000C0E07030000000000000000000000001A
:1012B0000000000000000000070F0E0C0C0C0C0CCE
:1012C0000C0C0C0C0C0E0F070000070F0E0C0E0F71
:1012D000070000070F0E0C0E0F070000070F0E0C83
:1012E0000C0C0C0C0C0C0C0C0C0E07030000070F64
:1012F0000C0C0C0C0C0C0C0C0C0C0C0E0F07000046
:10130000000000000000FFFFFFFFFFFF00000000E3
:1013100000000000000000000000000000000000CD
:1013200000000000000000000000000000000000BD
:1013300000000000000000000000000000000000AD
:10134000000000000000000000000000000000009D
:10135000000000000000000000000000000000008D
:10136000000000000000000000000000000000007D
:10137000000000000000000000000000000000006D
:10138000000000000000FFFFFF7FFFFFC000000023
:10139000000000000000000000000000000000004D
:1013A000000000000000000000000000000000003D
:1013B000000000000000000000000000000000002D
:1013C000000000000000000000000000000000001D
:1013D000000000000000000000000000000000000D
:1013E00000000000000000000000000000000000FD
:1013F00000000000000000000000000000000000ED
:101400000000000000C0FFFF7F000103070F0E1E59
:101410001C3C38387870707070E0E0E0E0E0E0E0AC
:10142000E0E0E0E0E0E0E0E0E0E0E0E0E0E0E0E0BC
:10143000E0E0E0E0E0E0E0E0E0E0E0E0E0E0E0E0AC
:10144000E0E0E0E0E0E0E0E0E0E0E0E0E0E0E0E09C
:10145000E0E0E0E0E0E0E0E0E0E0E0E0E0E0E0E08C
:10146000E0E0E0E0E0E0E0E0E0E0E0E0E0E0E0E07C
:10147000E0E0E0E0E0E0E0E0E070707070783838E4
:101480003C1C1E0E0F070301000000000200090FA4
:101490000000030401000C00000000000000000038
:1014A000000000000000000004080201104080401D
:1014B000102040804080080204018040201002017A
:1014C000108010204040200404040404030405029A
:1014D00002020204030202020206060606060604CF
:1014E00004020202040400000000250028002B0072
:1014F0002E00310000000000240027002A002D00EB
:10150000300012010002EF02014041233680000149
:101510000102030112010002000000404123368055
:1015200000010102030141726475696E6F204C4C29
:10153000430041726475626F790004030904080B6B
:10154000000202020100090400000102020000057D
:1015500024001001052401010104240206052406CB
:1015600000010705810310004009040100020A0080
:10157000000007050202400000070583024000004A
:1015800044154923692B11241FBECFEFDAE0DEBFDB
:10159000CDBF11E0A0E0B1E0E0EDFDE502C00590B7
:1015A0000D92AE33B107D9F727E0AEE3B1E001C049
:1015B0001D92A138B207E1F715E1C6E8D5E104C0F4
:1015C0002297FE010E943F2EC038D107C9F70E9422
:1015D000A3250C94E62E0C9400001F93CF93DF9369
:1015E000182F482F50E0FA013197EA30F10508F042
:1015F000B0C0EA5AFF4FC0E0D0E00C943D2EBE01CF
:10160000675D764F47E050E0CE01825C9E4F0E94BE
:10161000BF2E2796CA39D10591F78CC0BE016253FF
:10162000774F47E050E0CE01825C9E4F0E94BF2E74
:101630002796CB35D10591F77FC0BE016459774F0E
:1016400047E050E0CE01825C9E4F0E94BF2E27965D
:10165000C236D10591F772C0BE016251784F47E0A2
:1016600050E0CE01825C9E4F0E94BF2E2796CE375F
:10167000D10591F765C0BE016750794F47E050E052
:10168000CE01825C9E4F0E94BF2E2796C53FD1059A
:1016900091F758C0BE0160557A4F47E050E0CE0147
:1016A000825C9E4F0E94BF2E2796C93481E0D807E6
:1016B00089F74AC0BE01685F7A4F47E050E0CE012B
:1016C000825C9E4F0E94BF2E2796C83AD10591F7A3
:1016D0003DC0BE0164567C4F47E050E0CE01825CC5
:1016E0009E4F0E94BF2E2796CC3681E0D80789F7FF
:1016F00094E32FC0BE0168597D4F47E050E0CE0112
:10170000825C9E4F0E94BF2E2796C43381E0D8078B
:1017100089F71EC0BE0164507F4F47E050E0CE0104
:10172000825C9E4F0E94BF2E2796CC3681E0D80760
:1017300089F7DECF96E10DC09DE00BC09EE009C0A9
:1017400092E107C093E205C09FE203C098E101C0A7
:101750009CE29093B6021093B70280E290E09093DF
:10176000B1028093B0029093AF028093AE028AE9F7
:1017700099E9A9E1BEE38093060790930707A09338
:101780000807B0930907DF91CF911F91089589EB66
:1017900092E00E94A8156EE189EB92E00E94C815C4
:1017A00089E00E94ED0A4091AE025091AF02609133
:1017B000B0027091B10285EF96E00C9414232F9241
:1017C0003F924F925F926F927F928F929F92AF92D1
:1017D000BF92CF92DF92EF92FF920F931F93CF931E
:1017E000DF93CDB7DEB72E970FB6F894DEBF0FBEEE
:1017F000CDBF89EB92E00E94DD15882311F40C9493
:101800002B1589EB92E00E94A71980910901813084
:1018100009F0ECC068E089EB92E00E94EA1C8823A2
:10182000F9F08091B802811137C0809108018823B6
:1018300041F082E08093090189EB92E00E94431617
:101840000BC00E940A1D882319F00E940D1D02C0C2
:101850000E94FC1C0E941A1D81E08093B8021CC0EB
:1018600060E289EB92E00E94EA1C811109C060E409
:1018700089EB92E00E94EA1C882311F40C94211554
:101880008091B802811108C08091080191E08927F8
:10189000809308019093B8022AE939E949E15EE3AF
:1018A0006091AA027091AB028091AC029091AD025E
:1018B0000E94222C4B015C016093AA027093AB0240
:1018C0008093AC029093AD02C0900401D0900501CA
:1018D000E0900601F090070120E030E040E052E4A3
:1018E000C701B6010E946D2D87FD11C0C501B4016D
:1018F0009F7727ED33EA40E75FEB0E94712D6093FD
:10190000AA027093AB028093AC029093AD02209137
:10191000AA023091AB024091AC025091AD02C701D6
:10192000B6010E94222C60930401709305018093FC
:10193000060190930701CC24C39490E4E92E00E8BB
:1019400029E830E140E050E060E070E089EB92E0AF
:101950000E94811A809108018823A1F00EE0E02EF8
:101960000FE12BE430E14FE250E06FE070E089EBF3
:1019700092E00E94811A8AE0E82E2DE030E141E3F6
:1019800050E015C0CC24C394BAE0EB2E0FE12BE459
:1019900030E141E350E06FE070E089EB92E00E94BB
:1019A000811A1EE0E12E2DE030E14FE250E062E5C9
:1019B00070E089EB92E00E94811A609104017091BD
:1019C000050180910601909107010E948A2CCC2488
:1019D000C394A0E1EA2E00E125EB3FE0AB016DE10D
:1019E00070E089EB92E00E94811A66C4823009F0AF
:1019F00007C460E889EB92E00E94EA1C882319F092
:101A000081E08093090169EB72E085EF96E00E9426
:101A10002621C0900207D0900307E0900407F090C1
:101A2000050720E030E046E953E4C701B6010E9413
:101A30006D2D1816FCF44091AE025091AF026091EA
:101A4000B0027091B10285EF96E00E94142324E465
:101A500031E03C832B838EE391E09A838983A3E476
:101A6000B1E0BE83AD83E2E4F1E0F887EF83212C9F
:101A7000312C47C020E030E04FEA53ECC701B601FB
:101A80000E94862C87FFE3CF8091B702883099F6B9
:101A9000DECFC090FE06D090FF06E0900007F090E9
:101AA0000107A981BA810D90BC91A02DBE87AD8799
:101AB000CD010597BC01882777FD8095982F0E945E
:101AC000BD2C9B01AC01C701B6010E946D2D87FFA3
:101AD0001FC0FFEF2F1A3F0A2B813C81295F3F4F28
:101AE0003C832B8389819A8107969A838983AD8170
:101AF000BE811796BE83AD83EF81F8853796F88750
:101B0000EF838091B60290E02816390614F217C3CD
:101B1000EF81F88580812D853E85280F311D3A871C
:101B20002987C9010596BC01882777FD8095982FE4
:101B30000E94BD2C9B01AC01C701B6010E94862CFE
:101B400018163CF28090020790900307A0900407BB
:101B5000B0900507A981BA8112960D911C91139737
:101B6000C8010597BC01882777FD8095982F0E94B2
:101B7000BD2C9B01AC01C501B4010E946D2D87FDF8
:101B8000A8CFED81FE8180819801280F311D3C870F
:101B90002B87C9010596BC01882777FD8095982F72
:101BA0000E94BD2C9B01AC01C501B4010E94862C92
:101BB00018160CF48ECFAD85BE85BD01882777FD44
:101BC0008095982F0E94BD2C2B013C019B01AC01FC
:101BD000C701B6010E946D2D87FD27C1E985FA85F1
:101BE000BF01882777FD8095982F0E94BD2C9B010F
:101BF000AC01C701B6010E94862C18160CF41DC159
:101C000020E030E040E850E4C501B4010E94222CFD
:101C10002B013C01B801882777FD8095982F0E9401
:101C2000BD2C9B01AC01C301B2010E946D2D87FD4B
:101C300004C12B853C85B901882777FD8095982FB5
:101C40000E94BD2C9B01AC01C301B2010E94862CF5
:101C500018160CF4F2C0AB81BC811C91153009F44C
:101C600085C038F41330F1F008F040C0123081F034
:101C70000BC0173009F4A1C008F47FC0183009F474
:101C8000BAC0143609F451C1B1E0B0930F074DC189
:101C9000E3E0E093090122E030E03093AF022093CB
:101CA000AE0243C18091B0029091B102AD85BE8574
:101CB0008A179B0709F439C124E630E040E050E080
:101CC00060EA7FE08DEB92E00E94E91EE981FA81F3
:101CD000808191819093B1028093B002828193813F
:101CE0000C979093AF028093AE021FC180910A07B8
:101CF0008823B9F1C1010196F7E0F89F8001F99FAF
:101D0000100D1124025C1E4FD80114962C911497CB
:101D100026958D919C91820F911DBC01882777FD9E
:101D20008095982F0E94BD2C6093FE067093FF064D
:101D30008093000790930107F80185818695628161
:101D40007381680F711D882777FD8095982F0E94F9
:101D5000BD2C609302077093030780930407909350
:101D6000050785EF96E00E944423DFC080910A07B3
:101D70008823B9F3C1010197BFCFF1E0F0930F07BA
:101D8000E3E6AB81BC81EC9324E630E040E050E038
:101D900060ED77E08DEB92E00E94E91EC1010197B2
:101DA00027E0289FF001299FF00D1124E25CFE4FEF
:101DB000DF011D922A95E9F7B8C0B1E0B0930F0793
:101DC00023E6EB81FC81208324E630E040E050E014
:101DD00060ED77E08DEB92E00E94E91EC101019772
:101DE000189FF001199FF00D1124E25CFE4F8681CF
:101DF000845686839AC031E030930F0780910A079A
:101E0000882309F4AECFC0900607D0900707E09072
:101E10000807F090090720E030E0A901C701B601EA
:101E20000E946D2D87FD9DCF69C0A3019201C7015E
:101E3000B6010E946D2D87FD78C0A985BA85BD01C8
:101E4000882777FD8095982F0E94BD2C9B01AC01BF
:101E5000C701B6010E94862C18160CF466C020E05B
:101E600030E040E450E4C501B4010E94212C6B0134
:101E70007C01B801882777FD8095982F0E94BD2CA2
:101E80009B01AC01C701B6010E946D2D87FD4DC0BD
:101E9000EB85FC85BF01882777FD8095982F0E94F0
:101EA000BD2C9B01AC01C701B6010E94862C1816FF
:101EB000E4F1AB81BC818C919EEF980F9430A8F136
:101EC000843699F1B1E0B0930E07883071F58091B6
:101ED0000A07882309F445CFC0900607D09007076A
:101EE000E0900807F090090720E030E0A901C70161
:101EF000B6010E94862C18160CF433CFF7FAF09432
:101F0000F7F8F094C0920607D0920707E09208070E
:101F1000F092090724E630E040E050E060ED77E021
:101F20008DEB92E00E94E91E1CCF4090FE0650907F
:101F3000FF06609000077090010720E030E040E469
:101F400050E4C301B2010E94222C6B017C01E981A3
:101F5000FA8100811181B801882777FD8095982F3B
:101F60000E94BD2C4B015C019B01AC01C701B60175
:101F70000E946D2D87FD59C0AF81B8858C91F80105
:101F8000E80FF11DBF01882777FD8095982F0E94EB
:101F9000BD2C9B01AC01C701B6010E94862C18160E
:101FA0000CF443C0C0900207D0900307E0900407F0
:101FB000F0900507A981BA8112960D90BC91A02DD1
:101FC000BA87A987BD01882777FD8095982F0E9441
:101FD000BD2C9B01AC01C701B6010E946D2D87FD90
:101FE00024C0ED81FE81808169857A85680F711D2D
:101FF000882777FD8095982F0E94BD2C9B01AC010E
:10200000C701B6010E94862C18167CF0AB81BC81FA
:102010008C919EEF980F943008F468C0843609F4D0
:1020200065C0B1E0B0930D0761C020E030E040E44E
:1020300050E4C301B2010E94212C6B017C01A50177
:1020400094010E946D2D87FD51C0EF81F88580813C
:10205000080F111DB801882777FD8095982F0E94E1
:10206000BD2C9B01AC01C701B6010E94862C18163D
:10207000ECF1C0900207D0900307E0900407F090C5
:102080000507A981BA8112960D911C911397B80189
:10209000882777FD8095982F0E94BD2C9B01AC016D
:1020A000C701B6010E946D2D87FD20C0ED81FE8124
:1020B0008081B801680F711D882777FD8095982F62
:1020C0000E94BD2C9B01AC01C701B6010E94862C69
:1020D000181664F0AB81BC818C919EEF980F943000
:1020E00028F0843619F0B1E0B0930C0780910E0708
:1020F00081110DC080910F07811109C080910C07DB
:10210000811105C080910D07882309F4E2CCEB8191
:10211000FC818081813031F08B3021F08F50823012
:1021200008F0D7CC4091AE025091AF026091B0025E
:102130007091B10285EF96E00E941423CACC6091A1
:10214000B4027091B502882777FD8095982F0E9480
:10215000BD2C6B017C0120E030E040E852E460914E
:10216000FE067091FF0680910007909101070E9482
:10217000212CA70196010E94212C29E23CE54FE881
:102180005DE30E94712D9B01AC01C701B6010E9465
:10219000222C0E948A2C7093B5026093B402609145
:1021A000B2027091B302882777FD8095982F0E9424
:1021B000BD2C6B017C0120E030E040E052E46091F6
:1021C00002077091030780910407909105070E9410
:1021D000212CA70196010E94212C29E23CE54FE821
:1021E0005DE30E94712D9B01AC01C701B6010E9405
:1021F000222C0E948A2C7093B3026093B2025CC0BE
:10220000833009F059C062E089EB92E00E94D11559
:102210008823F9F020E030E040E85FE360910207B6
:102220007091030780910407909105070E94212C6B
:102230006093020770930307809304079093050748
:102240008091AE029091AF0202969093AF0280937C
:10225000AE0265E089EB92E00E94D115882339F047
:102260008091B602882319F081508093B602809144
:10227000AE029091AF0281389105A4F082E0809384
:1022800009018091B7028F5F0E94ED0A4091AE0272
:102290005091AF026091B0027091B10285EF96E06B
:1022A0000E9414232AE030E040E050E068E873E147
:1022B0008DEB92E00E94E91E8091090182508230EC
:1022C00008F0A3C3512CF7E0BF2E8091B602581638
:1022D00008F0F4C2852C912CB89C3001B99C700C8C
:1022E00011249301225C3E4F3901D90116964C917D
:1022F000483009F4DDC0B0F4433009F499C070F4FB
:102300008091B4029091B5022091B2023091B30253
:102310004130A9F1423009F44CC015C0463008F0F4
:1023200005C211C0403109F496C138F44B3009F4AC
:1023300014C14F3009F446C106C0433609F4D8C170
:10234000443609F4F3C1B89CF001B99CF00D112496
:10235000E25CFE4F428153818091B2029091B302C0
:10236000481B590B608171818091B4029091B50234
:10237000681B790BEE24E3940581248194C0F3015A
:1023800060817181E481D30112960D911C911397A4
:1023900015964C91D801A40FB11DAD01421B530BF2
:1023A0007B01EE0EF11CE81AF90AB2E0EB0EF11C0B
:1023B000F5C0F30142815381421B530B608171814F
:1023C000681B790BEE24E3940581248189EB92E06C
:1023D0000E943919D30115961C9115971296ED900C
:1023E000FC9013978091B2029091B302E81AF90A17
:1023F0006D917C9111978091B4029091B502681B08
:10240000790B14968C919B01280F311D442737FDC1
:102410004095542F882777FD8095982F0E94592A40
:1024200001E0212FA70189EB92E00E940A187EC1EA
:10243000F901428153818091B2029091B302481B0D
:10244000590B608171818091B4029091B502681B33
:10245000790BEE24E3940581248189EB92E00E94BC
:1024600039196091B0027091B102D3018D919C91A4
:1024700011976817790709F059C112964D915C912F
:1024800013978091B2029091B302481B590B80912F
:10249000B4029091B502681B790B14968C91680F69
:1024A000711D05E028E089EB92E00E9439193EC1D8
:1024B00020E030E0A9016091060770910707809144
:1024C0000807909109070E946D2D2091B402309168
:1024D000B502E091B202F091B302D3016D917C910B
:1024E000119787FD09C012964D915C9113974E1B71
:1024F0005F0B4250510909C0D30112964D915C9176
:1025000013974E1B5F0B4D5F5F4F621B730B6C5F2E
:102510007F4FEE24E39403E028E089EB92E00E94F1
:102520003919B89CF001B99CF00D1124E25CFE4F02
:10253000428153818091B2029091B302481B590BA2
:10254000608171818091B4029091B502681B790B12
:10255000EE24E39404E020E1A6CFF90160817181CB
:10256000E4818091B4029091B502D90112960D9147
:102570001C9113972091B2023091B302A801421B23
:10258000530B7B01EE0EF11CE81AF90AB2E0EB0ED8
:10259000F11CD3011596FC910F0F111D021B130B9B
:1025A000E6959B012E0F311D281B390B681B790BFB
:1025B00062507109AA24A3946A0189EB92E00E94F7
:1025C000391AB4C01C821B821901B2E02B0E311CD7
:1025D000F9013596FA83E983D3016D917C9180915D
:1025E000B4029091B502F101008111812091B202F3
:1025F0003091B302A981BA814C91F801E40FF11D29
:10260000AF01421B530B7B01F8E0EF0EF11CE81AFF
:10261000F90AAB81BC81EA0EFB1E021B130B9B0166
:102620002D5F3F4F281B390B2A0F3B1F681B790B6F
:10263000625071096A0F7B1FAA24A3946A0189EB77
:1026400092E00E94391AEB81FC813A96FC83EB837D
:10265000F29711F66BC01C821B821901F2E02F0E5B
:10266000311C2B5F3F4F3A832983D3016D917C91BD
:102670008091B4029091B502F10100811181209105
:10268000B2023091B302A801421B530B7B01F8E068
:10269000EF0EF11CE81AF90AAB81BC81EA0EFB1EB1
:1026A000A981BA81EC910E0F111D021B130B9B0126
:1026B0002D5F3F4F281B390BEB81FC812E0F3F1FF5
:1026C000681B790B625071096E0F7F1FAA24A394B7
:1026D0006A0189EB92E00E94391A2B813C81265FC6
:1026E0003F4F3C832B832233310509F0BECF1EC000
:1026F000D90112964D915C9113978091B2029091FD
:10270000B302481B590B6D917C918091B40290915A
:10271000B502681B790BCC24C394E4E0EE2E00E1F3
:1027200025ED3FE089EB92E00E94811AB89CF00110
:10273000B99CF00D1124E25CFE4FFA83E983868197
:102740009CEF980F923008F077C03F01F5E06F0ED4
:10275000711C89809A8024E0820E911C29803A8025
:1027600032E0230E311CA981BA8112964D915C9101
:1027700013978091B2029091B302481B590B6D914F
:102780007C9111978091B4029091B502681B790BEE
:10279000CC24C39435E0E32E15960C91159714962E
:1027A0002C9189EB92E00E94AA1942E0F42EC98094
:1027B000DA80F10160817181D3018C919B01280F36
:1027C000311D21503109442737FD4095542F6E5F4C
:1027D0007F4F882777FD8095982F0E94592A209156
:1027E000B2023091B3028B01021B130BF601608120
:1027F0007181D4018C919B01280F311D2250310928
:10280000442737FD4095542F6E5F7F4F882777FD13
:102810008095982F0E94592A2091B4023091B502D8
:10282000621B730B21E0A80189EB92E00E948216E3
:10283000FA9409F0BECF40C086508230E8F5E981B5
:10284000FA81428153818091B2029091B302481B78
:10285000590B608171818091B4029091B502681B1F
:10286000790BCC24C39424E0E22E00E125ED3FE077
:1028700089EB92E00E94811AA981BA8112964D914A
:102880005C9113978091B2029091B302481B590B4F
:10289000425051096D917C918091B4029091B502A2
:1028A000681B790B6C5F7F4FEE24E39403E028E014
:1028B00089EB92E00E943919539407CD4091B702F9
:1028C0008091B4029091B5022091B2023091B3028E
:1028D0004130F1F445E350E0421B530B61E371E0FA
:1028E000681B790BCC24C3949EE0E92E04E125EE0D
:1028F0003FE089EB92E00E94811A47E350E080912B
:10290000B2029091B302481B590B6EE371E01FC0F5
:10291000423059F542E650E0421B530B65E67FEF2B
:10292000681B790BCC24C3948EE0E82E04E125EEDD
:102930003FE089EB92E00E94811A48E650E08091E6
:10294000B2029091B302481B590B68E67FEF809169
:10295000B4029091B502681B790BEE24E39406E073
:1029600024E089EB92E00E94701980910901A09007
:10297000B402B090B5020091B2021091B30282305D
:1029800009F5609102077091030780910407909107
:1029900005070E948A2C7B01E01AF10A6091FE066D
:1029A0007091FF0680910007909101070E948A2C88
:1029B0006A197B0901E021E0A70189EB92E00E94FE
:1029C000DE1823C06091020770910307809104070D
:1029D000909105070E948A2C6B01C01AD10A609160
:1029E000FE067091FF0680910007909101070E94FA
:1029F0008A2C6A197B09EE24E3940091AE0222E04E
:102A0000A60189EB92E00E94391989EB92E02E969B
:102A10000FB6F894DEBF0FBECDBFDF91CF911F91EF
:102A20000F91FF90EF90DF90CF90BF90AF909F906D
:102A30008F907F906F905F904F903F902F900C946D
:102A4000E71C8091B802882311F40C944C0C10926E
:102A5000B8020C944C0C2E960FB6F894DEBF0FBE45
:102A6000CDBFDF91CF911F910F91FF90EF90DF903D
:102A7000CF90BF90AF909F908F907F906F905F901E
:102A80004F903F902F90089589EB92E00C947E1523
:102A9000CF93CFB7F8948091D306811127C0E8ED8A
:102AA000F4E18491E9EBF4E19491E82FF0E0EE0F8A
:102AB000FF1FEC50FB4EA591B4918C91892321F41A
:102AC00061E081E10E946C2561E081E10E94332593
:102AD0008CB580618CBD8CB580648CBD61E08FE06D
:102AE0000E94332561E080E10E9433258091D30666
:102AF0008F5F8093D306CFBFCF910895CF93DF939D
:102B0000EC0189E291E0998388831B821A82CE01CD
:102B10000E94012081E291E0998388838CE38E8377
:102B200080E1898718861F821E861F86188A198A67
:102B30001A8AFE01EC5EFB4F1182108232961182DE
:102B40001082C85EDB4F81E08883DF91CF910895CA
:102B5000CF93DF93EC010E9434200E940B218078F8
:102B6000803849F40E94D9202FEF4FEF6FEFCE014C
:102B70000E94E520FFCF249665E0CE010E94CA1D89
:102B80006DE0CE010E94CA1DDF91CF910C94201DF3
:102B9000FC01668370E088EE93E00E94E82D618777
:102BA000089570E0FC01878190850E94D42D21E07A
:102BB000892B09F020E0822F08950F931F93CF9364
:102BC000DF93EC010E94A023E62F462F572FBC0174
:102BD0008A89882351F08A859E2F981B9B8B8F8131
:102BE0009885019698878F831A8A0E851F85288974
:102BF0003989401751076207730734F40E1B0230FE
:102C000008F10E94B7201EC089850A851B852C8586
:102C10003D85080F111D211D311D041715072607BD
:102C200037072CF00E871F87288B398B04C04E87FF
:102C30005F87688B798B4A875B876C877D8781E0AC
:102C40008A8B01C080E0DF91CF911F910F91089591
:102C500060937C00673C19F480E280937B0062E023
:102C600070E080E090E00E94CF2380917A00806441
:102C700080937A0080917A0086FDFCCF8091780065
:102C8000909179000895CF92DF92EF92FF92CF93C7
:102C9000DF937C01C4E6D0E088818E7F888367EC77
:102CA000C7010E9428166C016EE5C7010E94281614
:102CB0007C010E94AC239B01AC01E094F094C09491
:102CC000D094EC9CD001ED9CB00DFC9CB00D112477
:102CD00020953095409550950E94522E6B017C01B5
:102CE0000E94AC236C0D7D1D8E1D9F1D0E942D2A00
:102CF000888181608883DF91CF91FF90EF90DF9092
:102D0000CF9008956038710518F54034510500F5ED
:102D1000E42FE695E695E695F0E047705527F695A1
:102D2000FE2FEE27F795E795E60FF71FE80FF91F3F
:102D300081E090E0042E01C0880F0A94EAF7222374
:102D400019F09489982B03C0809594899823948BCB
:102D500008952F923F924F925F926F927F928F923F
:102D60009F92AF92BF92CF92DF92EF92FF920F931A
:102D70001F93CF93DF9300D000D01F92CDB7DEB763
:102D80005C014B013A01802F422F50E05D834C8360
:102D900044244394512C441A550A1A013194219425
:102DA0003108220C331CCC24C394D12C01E010E058
:102DB000382F34703983382F32703A83382F387077
:102DC0003B838170F82EC6010197EC81FD818E173F
:102DD0009F070CF07CC057FC0BC04C815D814150BB
:102DE00051095D834C8352E0250E311C420C531C6B
:102DF0000E5F1F4F400E511E39813323B1F02E2D2F
:102E00004C815D81460D571DB601680D791DC501C8
:102E10000E9482162E2DA601460D571D6C817D81C4
:102E2000680D791DC5010E9482163A813323B9F0DD
:102E30002E2DA3018C819D81481B590BB601680D75
:102E4000791DC5010E9482162E2DA3014C195D0922
:102E50006C817D81680D791DC5010E9482163B81C0
:102E60003323B9F02E2DA601460D571DB4018C81D8
:102E70009D81681B790BC5010E9482162E2D4C8105
:102E80005D81460D571DB4016C197D09C5010E9475
:102E90008216FF20C1F02E2DA3014C195D09B4014B
:102EA000EC81FD816E1B7F0BC5010E9482162E2DC9
:102EB000A3018C819D81481B590BB4016C197D09BC
:102EC000C5010E9482169FEFC91AD90A7CCF0F90C4
:102ED0000F900F900F900F90DF91CF911F910F9156
:102EE000FF90EF90DF90CF90BF90AF909F908F902A
:102EF0007F906F905F904F903F902F9008952F920A
:102F00003F924F925F926F927F928F929F92AF9279
:102F1000BF92CF92DF92EF92FF920F931F93CF93C6
:102F2000DF932C01EB016A0159019801241B350B39
:102F300037FF03C0319521953109C5018C1B9D0BCD
:102F400097FF03C0919581959109FF24F39482170F
:102F5000930714F0F12C0AC09A2D8B2D5801092FDC
:102F6000182F9C2F8D2FE601C92ED82EAC16BD062A
:102F700054F49C2D8D2D6801092F182F9C2F8D2F17
:102F8000E501A92EB82E15012C1A3D0A38016C183E
:102F90007D0877FE03C0719461947108410137FE8A
:102FA00003C08FEF881A980A95948794C016D106AB
:102FB00014F401E001C00FEF112707FD1095AC16C6
:102FC000BD06ACF02E2DFF2019F0AE01B60102C0F7
:102FD000A601BE01C2010E9482168618970897FEBC
:102FE00004C0C00ED11E820C931C2196E8CFDF9145
:102FF000CF911F910F91FF90EF90DF90CF90BF90F6
:10300000AF909F908F907F906F905F904F903F9088
:103010002F900895AF92BF92CF92DF92EF92FF92DE
:103020000F93CF93DF936C015B017A01E20EF11CE9
:10303000EA0157FF0DC0C0E0D0E00AC0C417D507B1
:103040007CF4202FAE01B501C6010E9482162196A4
:10305000A70181E4E816F1048CF340E450E0EECFE0
:10306000DF91CF910F91FF90EF90DF90CF90BF90C5
:10307000AF9008952F923F924F925F926F927F92FE
:103080008F929F92AF92BF92CF92DF92EF92FF9278
:103090000F931F93CF93DF9300D01F92CDB7DEB76E
:1030A0004C013B012A011E2D822F90E09B838A83D5
:1030B00022242394312C281A390A7C01F194E194BA
:1030C000F108EE0CFF1CAA24A394B12C302F317010
:1030D00039831F5F0270D02EC5010197EA81FB8101
:1030E0008E179F070CF054C037FC0AC08A819B8161
:1030F00001979B838A8392E0E90EF11C2E0C3F1C02
:10310000C501880F991F0196280E391E3981332376
:10311000E1F02A81220F210F0C2DA2018A819B81CF
:10312000481B590BB501660D771DC4010E940A1892
:103130002A2D220F210FA2014A195B096A817B8186
:10314000660D771DC4010E940A18DD20E9F02A816E
:10315000220F210F0C2DA201EA81FB814E1B5F0B78
:10316000B3016A197B09C4010E940A182A2D220F93
:10317000210FA2014A195B09B3018A819B81681B57
:10318000790BC4010E940A189FEFA91AB90AA4CFAB
:103190000F900F900F90DF91CF911F910F91FF90A3
:1031A000EF90DF90CF90BF90AF909F908F907F90E7
:1031B0006F905F904F903F902F9008958F929F92C5
:1031C000AF92BF92CF92EF92FF920F931F93CF9344
:1031D000DF93EC015B014A01122FC02E220F2F5FFB
:1031E000411B51090E940A18E12CF12C03E0212F08
:1031F000A401B501CE010E943A18DF91CF911F9131
:103200000F91FF90EF90CF90BF90AF909F908F90D5
:103210000895AF92BF92CF92DF92EF92FF920F93F9
:10322000CF93DF936C015A017B01E20EF11CEB019D
:1032300077FF0DC0C0E0D0E00AC0C617D7077CF406
:10324000202FA501BE01C6010E9482162196B7015A
:1032500081E8E816F1048CF360E870E0EECFDF91CE
:10326000CF910F91FF90EF90DF90CF90BF90AF90F4
:103270000895AF92BF92CF92DF92EF92FF920F9399
:103280001F93CF93DF93EC015B016A01F22E102FA5
:103290000E2D0E940919A601410F511D41505109DF
:1032A0002F2DB501CE010E940919212FA601B501CC
:1032B000CE010E940A18B5016F0D711D6150710990
:1032C000212FA601CE010E940A18DF91CF911F91F4
:1032D0000F91FF90EF90DF90CF90BF90AF90089547
:1032E0008F929F92AF92BF92CF92DF92EF920F9305
:1032F0001F93CF93DF936C015A01102FEB014B0109
:10330000820E911CC815D9054CF40E2D212FA50154
:10331000BE01C6010E940A182196F4CFDF91CF9119
:103320001F910F91EF90DF90CF90BF90AF909F9043
:103330008F9008954496B62FB111BFEFFC01002481
:10334000B193B193B193B1930394D1F7089560E031
:103350000C949A192F923F924F925F926F927F92A4
:103360008F929F92AF92BF92CF92DF92EF92FF9295
:103370000F931F93CF93DF9300D01F92CDB7DEB78B
:103380009B838A833B014A01D22EF02E1E2DE194AD
:10339000EE0C3E2D320F412E512C5B01A40CB51CBE
:1033A0000C2D232FB50139830E94091914012F0C0C
:1033B000311CA101415051093981232FB5018A8166
:1033C0009B810E940919FE0C840C951C2F2DA401D1
:1033D000B3018A819B810E940A186D0C711CB30194
:1033E000615071092F2DA4018A819B810E940A18C6
:1033F000EC2C01E0212FA401B5018A819B810E9460
:10340000A9166418750881E0681A710802E0212F76
:10341000A401B3018A819B810E94A9162418350852
:10342000E1E02E1A310804E0212FA101B3018A81C5
:103430009B810E94A91608E0212FA101B5018A8174
:103440009B810E94A9160F900F900F90DF91CF9152
:103450001F910F91FF90EF90DF90CF90BF90AF90B2
:103460009F908F907F906F905F904F903F902F90A4
:1034700008952F923F924F925F926F927F928F9218
:103480009F92AF92CF92DF92EF92FF920F931F9392
:10349000CF93DF9300D000D0CDB7DEB79C838B8372
:1034A0001B014A0139012801FA82E982EA2C0E94B3
:1034B0007F17860129813A81A201B3018B819C810A
:1034C0000E947F1784019101A60169817A818B8115
:1034D0009C810E947F170F900F900F900F90DF91AB
:1034E000CF911F910F91FF90EF90DF90CF90AF9011
:1034F0009F908F907F906F905F904F903F902F9014
:1035000008952F923F924F925F926F927F928F9287
:103510009F92AF92BF92CF92DF92EF92FF920F9362
:103520001F93CF93DF9300D000D01F92CDB7DEB7AB
:10353000C982202E312CFB01E20DF31DF7FD13C1D2
:10354000603871050CF00FC1FA01EE0DF11DF7FDA9
:103550000AC1403451050CF006C1DA0157FF04C01E
:10356000AA27BB27A41BB50BFD01E770FF27FB8330
:10357000EA83FA0157FD3796DF0113E0B595A79569
:103580001A95E1F7BD83AC8357FF0CC01197BD833B
:10359000AC8348E050E0DA01EA81FB81AE1BBF0B4F
:1035A000BB83AA834E2D469546954695C42ED12CB5
:1035B0004E2D477019F0FFEFCF1ADF0A49014C81F9
:1035C0005D815695542F442757954795480F591FAD
:1035D0002C813D81F8E06F2E712C8A819B81681AC5
:1035E000790AC901AC81BD818A1B9B0B8C159D0595
:1035F0000CF0B9C02830310509F4B5C02F3F9FEF5A
:1036000039070CF4A3C0CB0100E010E0DA01A058A8
:10361000BF4F2D01021513050CF098C0803891059D
:1036200009F494C097FD8EC02F3FBFEF3B0709F40C
:1036300094C0D801A80DB91D7A01E80EF91EE981E0
:10364000E13071F4FD01A491B0E00A8002C0AA0F3C
:10365000BB1F0A94E2F7F701B488AB29A48B28C0FA
:10366000F981F11114C0FD01A491EA2FF0E00A8064
:1036700002C0EE0FFF1F0A94E2F7E095F095D70124
:103680005496AC905497B12CEA21FB210FC0FD0158
:10369000A491EA2FF0E00A8002C0EE0FFF1F0A9407
:1036A000E2F7D7015496BC905497EB255496EC93CF
:1036B000AA81BB81AB2B09F445C02730310509F441
:1036C00041C0F801E80DF91DB981B13089F4E491E8
:1036D000F0E0062C02C0F595E7950A94E2F7720136
:1036E000E80EF91ED7015496BC905497EB2928C0D8
:1036F000B981B11115C0E491F0E0062C02C0F59536
:10370000E7950A94E2F7E095F0957201E80EF91E4C
:10371000D7015496AC905497B12CEA21FB2110C0EC
:10372000E491F0E0062C02C0F595E7950A94E2F7E3
:103730007201E80EF91ED7015496BC905497EB2500
:103740005496EC930F5F1F4F019664CF2F5F3F4F4E
:10375000820C931C40585F4F44CFAA81BB81AB2B96
:1037600009F0AFCFEFCF0F900F900F900F900F9009
:10377000DF91CF911F910F91FF90EF90DF90CF904D
:10378000BF90AF909F908F907F906F905F904F9081
:103790003F902F9008952F923F924F925F926F9299
:1037A0007F928F929F92AF92BF92CF92DF92EF92D1
:1037B000FF920F931F93CF93DF93CDB7DEB7289778
:1037C0000FB6F894DEBF0FBECDBF9E838D832A0156
:1037D000603871050CF06DC0403451050CF069C0C3
:1037E000CB01A5E0CA9E800D911D11241816190663
:1037F0000CF05FC0EC2DF0E0FC83EB83CA01F8E035
:10380000CF9E800D911D1124181619060CF051C081
:10381000A5E02A9FC00111245B0118861F828D53E9
:10382000964F9A838983BF81B53041F0E981FA814F
:103830008F819885E80FF91F149101C010E03201C3
:1038400028E0D22E10FF02C0F02E01C0FE2CF11095
:103850000BC0E01209C01695DA94AB81BC816A0EE8
:103860007B1ED110EFCF19C01501822D8A198C153E
:1038700090F74301882D86198C1558F42F2DA4013B
:10388000B1018D819E810E948216BFEF8B1A9B0A27
:10389000F1CFEFEF2E1A3E0AE8CF8F81988501967F
:1038A00098878F83AB81BC81AA0EBB1E069709F057
:1038B000BACF28960FB6F894DEBF0FBECDBFDF910A
:1038C000CF911F910F91FF90EF90DF90CF90BF901D
:1038D000AF909F908F907F906F905F904F903F90B0
:1038E0002F9008958F929F92AF92BF92CF92EF92B6
:1038F0000F93CF93DF93EC01262F6A3099F4FC01EC
:10390000E85EFB4F208132978081918138E0239FD0
:10391000800D911D112491838083CC5EDB4F198231
:1039200018824BC06D3009F448C0FC01EA5EFB4FC1
:10393000408151815C018CEEA81A8BEFB80AF50129
:10394000608171814E01F8EE8F1AFBEF9F0AF4013E
:10395000C080E12C01E0CE010E94CB1BF40120814C
:10396000422F50E0F50180819181F6E02F9F800D7C
:10397000911D1124F50191838083359620812223A6
:10398000E1F06AEF64039001659F300D1124205827
:103990003F4F281739078CF4E881F9810190F081B5
:1039A000E02D6AE0CE01DF91CF910F91EF90CF90A3
:1039B000BF90AF909F908F900994DF91CF910F911E
:1039C000EF90CF90BF90AF909F908F9008954496C6
:1039D0000C94C220CF93DF931F92CDB7DEB76983DB
:1039E0000E940B216981982F962381E0961380E035
:1039F0000F90DF91CF910895E4E6F0E08081877F1A
:103A00008083E5E6F0E08081877F808381E080939A
:103A1000D40608958091D40608951092D406E4E661
:103A2000F0E0808188608083E5E6F0E08081886056
:103A3000808308956091D40682E090E00C94D02EAB
:103A40001092E10682E090E00E94C82E81110C9451
:103A5000FC1C0895CF92DF92EF92FF921F93CF93B9
:103A6000DF939091E206891708F065C067FD63C097
:103A7000E82FF0E0ED56F04F1491E62FF0E06033C0
:103A800030F4ED59F04FE491CE2FD0E006C0EE0FA8
:103A9000FF1FED59F14FC591D4916E01E12CF12C2E
:103AA00060E074E284EF90E0A70196010E941E2E70
:103AB00021503109410951092115310581E048079B
:103AC000510570F060E970ED83E090E0A701960188
:103AD0000E941E2E215031094109510993E001C075
:103AE00091E01130C9F0133031F580919100887F59
:103AF000892B809391003093990020939800D09364
:103B0000E006C093DF0681E08093DE0680917100BD
:103B10008260809371000FC080918100887F892B23
:103B200080938100309389002093880080916F00FA
:103B3000826080936F00DF91CF911F91FF90EF9093
:103B4000DF90CF900895E82FF0E0ED56F04FE4912C
:103B5000E13019F0E33069F0089580916F008D7FB6
:103B600080936F002091EC06E091ED06F091EE0657
:103B700008C01092DE062091E506E091E606F0917D
:103B8000E706808190E030E02095309582239323F2
:103B900080830895CF93DF93C62F8091E206823011
:103BA00009F46BC0E82FF0E0ED56F04FD491A82F48
:103BB000B0E0AD51B94F6C938F5F8093E20661E046
:103BC0008C2F0E943325D13091F1D33009F055C0AC
:103BD00010929000109291008091910088608093E3
:103BE0009100809191008160809391006C2F70E032
:103BF000FB01E953FB4E249130E0220F331F2A5181
:103C00003B4EF901859194919093E7068093E606E7
:103C1000FB01E855FB4E64916093E5066CE380E0A0
:103C20000E942A1D80E0DF91CF910C94A31D109279
:103C300080001092810080918100886080938100D3
:103C4000809181008160809381006C2F70E0FB0186
:103C5000E953FB4E249130E0220F331F2A513B4E93
:103C6000F901859194919093EE068093ED06FB0106
:103C7000E855FB4E64916093EC06DF91CF91089577
:103C8000E091D506F091D606BF016F5F7F4F70932C
:103C9000D6066093D506A4919A2F907F8A2F8F70B5
:103CA000903819F40E94A31DEBCF903961F4AF0155
:103CB0004E5F5F4F5093D6064093D506FB0164914B
:103CC0000E942A1DDDCF903E49F48091D706909145
:103CD000D8069093D6068093D506D2CF903F19F49C
:103CE0001092E106089597FDCBCFAF014E5F5F4F75
:103CF0005093D6064093D506FB016491262F30E001
:103D00003A2BA091DF06B091E0060E94432E6C5042
:103D10007E4F8F4F9F4F28EE33E040E050E00E94EF
:103D2000FC2D2093D9063093DA064093DB0650939E
:103D3000DC068091D9069091DA06A091DB06B0915D
:103D4000DC06892B8A2B8B2B61F481E090E0A0E0CC
:103D5000B0E08093D9069093DA06A093DB06B09387
:103D6000DC0608958091DE06882349F09091E506EF
:103D7000E091E606F091E7068081892780838091B3
:103D8000E106882329F18091D9069091DA06A09165
:103D9000DB06B091DC06892B8A2B8B2BC9F0809136
:103DA000D9069091DA06A091DB06B091DC06019766
:103DB000A109B1098093D9069093DA06A093DB0696
:103DC000B093DC06892B8A2B8B2B11F40C94401EAC
:103DD00008954F925F926F927F928F929F92AF92CF
:103DE000BF92CF92DF92EF92FF92CF93DF93EB01DE
:103DF00049015A0181E08093DD062B01612C712C71
:103E000060E072E18AE790E0A30192010E941E2E19
:103E100069017A0181E0C81AD108E108F108C114EA
:103E2000D10481E0E806F10488F068E478EE81E0EE
:103E300090E0A30192010E941E2E69017A0181E0A7
:103E4000C81AD108E108F10893E001C091E080911F
:103E50008100887F892B8093810081149104A104C3
:103E6000B10471F0DE01AA0FBB1FA50194010E94ED
:103E7000522E28EE33E040E050E00E94FC2D03C0BB
:103E80002FEF3FEFA901D0928900C09288002093C4
:103E9000E8063093E9064093EA065093EB068091DA
:103EA0006F00826080936F00DF91CF91FF90EF9061
:103EB000DF90CF90BF90AF909F908F907F906F904A
:103EC0005F904F9008951F920F920FB60F9211249A
:103ED0002F933F938F939F93AF93BF93EF93FF9352
:103EE0008091DD06882309F44BC08091E80690910B
:103EF000E906A091EA06B091EB06892B8A2B8B2B61
:103F000051F19091EC06E091ED06F091EE06808182
:103F1000892780838091E8069091E906A091EA06BE
:103F2000B091EB06181619061A061B0694F5809137
:103F3000E8069091E906A091EA06B091EB06019798
:103F4000A109B1098093E8069093E906A093EA06D7
:103F5000B093EB061EC01092DD0680916F008D7F3E
:103F600080936F002091EC06E091ED06F091EE0653
:103F7000808190E030E0209530958223932308C023
:103F80009091EC06E091ED06F091EE068081892794
:103F90008083FF91EF91BF91AF919F918F913F915E
:103FA0002F910F900FBE0F901F9018951F920F9298
:103FB0000FB60F9211242F933F934F935F936F93FC
:103FC0007F938F939F93AF93BF93EF93FF930E9441
:103FD000B21EFF91EF91BF91AF919F918F917F9111
:103FE0006F915F914F913F912F910F900FBE0F9066
:103FF0001F9018958EBD00000DB407FEFDCF8EB545
:1040000008950895E091F106F091F2068081909173
:10401000EF06892B8083E091F306F091F4069081FE
:104020008091F0068095892380830895E091F306BE
:10403000F091F40680819091F006892B8083E091C5
:10404000F106F091F20690818091EF068095892328
:104050008083E091F306F091F40690818091F00660
:104060008095892380830895CF93DF930E9448151C
:10407000C2EADFE0BE01FE01849122966F5F7F4FAE
:10408000FB016491882319F00E943325F3CF61E08E
:1040900086E00E946C2561E070E080E090E00E9484
:1040A000CF2360E086E00E946C256AE070E080E04B
:1040B00090E00E94CF2361E086E00E946C25E3ED52
:1040C000F4E1E491F0E0EE0FFF1FEA51FB4E859121
:1040D00094919093F4068093F306E4EBF4E1E49179
:1040E000E093F006EBECF4E1E491F0E0EE0FFF1F5B
:1040F000EA51FB4E859194919093F2068093F106DC
:10410000ECEAF4E1E491E093EF068CB58C7F8CBD92
:104110008DB581608DBD0E941620C5E9DFE0FFE00E
:10412000C23ADF0731F0FE0184910E94FA1F219606
:10413000F6CF0E9402208091640081608093640029
:104140008091640082608093640080916400806844
:104150008093640080916400806480936400809107
:104160006500816080936500DF91CF91089583B7EA
:10417000817F83BF83B7816083BF889583B78E7F3C
:1041800083BF0895FC0120812EBD21E030E0FC01B9
:10419000E20FF31F40810DB407FEFDCF4EBD2F5F30
:1041A0003F4F2115F4E03F0791F70DB407FEFDCF17
:1041B0000895CF93DF93C0E0D4E080E00E94FA1F1F
:1041C0002197D9F7DF91CF9108950F931F93CF9344
:1041D000DF9300D0CDB7DEB70FEF10E0C801861B2C
:1041E0009109BC018AE02A8349830E945F244981A6
:1041F000B801641B71098BE00E945F242A81B80119
:10420000621B710989E00F900F90DF91CF911F9190
:104210000F910C945F248FB14CB123B150E04095C5
:1042200050954074552733E0559547953A95E1F7F9
:1042300030E02095309520713327359527953595B9
:104240002795242B8095807F822B08958F929F92B3
:10425000AF92BF92CF92DF92EF92FF920F931F9394
:10426000CF93DF93EC018B0160E4C8010E94EA1C4C
:104270008823B9F0C880D980EA80FB802AE939E92F
:1042800049E95FE3C701B6010E94862C87FF29C078
:104290002FE832EC45EF5CE3C701B6010E94222C07
:1042A0001CC060E2C8010E94EA1C8823D1F0C880CB
:1042B000D980EA80FB802AE939E949E95FEBC70147
:1042C000B6010E946D2D181664F42FE832EC45EF0C
:1042D0005CE3C701B6010E94212C688379838A833D
:1042E0009B8360E1C8010E94EA1C811106C064E062
:1042F000C8010E94EA1C882311F120E030E040E868
:104300005FEB6C817D818E819F810E94862C87FF6F
:1043100008C080E090E0A0E8BFEB8C839D83AE8373
:10432000BF832BE734E14EE65FE3688179818A81C0
:104330009B810E94712D688379838A839B8368E0C7
:10434000C8010E94EA1C8823E1F088858823C9F00F
:1043500020E030E0A90169897A898B899C890E94D3
:104360006D2D87FD05C080E090E0A0E2B0EC04C0B8
:1043700080E090E0A0E2B0E48C839D83AE83BF83B5
:104380001886C988DA88EB88FC882C813D814E81AB
:104390005F81C701B6010E94222C6C837D838E83CE
:1043A0009F832A8D2223D1F09F772DEC3CEC4CE8A3
:1043B0005FEB0E94712D4B015C016C837D838E83CA
:1043C0009F8320E030E0A901C701B6010E946D2D56
:1043D00087FD02C081E088871A8E1CC0298D2223A8
:1043E00091F19F772DEC3CEC4CE85FE30E94712D3E
:1043F0004B015C016C837D838E839F8320E030E0E2
:10440000A901C701B6010E94862C181614F081E09C
:104410008887198EC501B4019F7720E030E048E419
:1044200052E40E94712D20E030E048EC53E40E94F9
:10443000222C0E948F2C2AE030E040E050E0C8019E
:1044400004960E94E91E888D8823A9F088819981AD
:10445000AA81BB81BC01CD019F7720E030E040EC18
:104460005FEB0E94712D688379838A839B8321E0AF
:104470002887188E17C08F89882359F188819981E0
:10448000AA81BB81BC01CD019F7720E030E040ECE8
:104490005FE30E94712D688379838A839B8321E087
:1044A00028871F8A9F7720E030E048E452E40E948A
:1044B000712D20E030E048EC53E40E94222C0E9451
:1044C0008F2C2AE030E040E050E0C80104960E94C2
:1044D000E91E22E538EB4EE75FE36C817D818E813A
:1044E0009F810E94712D4B015C016C837D838E83C3
:1044F0009F8328E431EE4AE75FE3688179818A810E
:104500009B810E94712D6B017C01688379838A8372
:104510009B832DEC3CEC4CE050E4C501B4010E94BF
:104520006D2D87FD10C020E030E0A90169897A89EE
:104530008B899C890E946D2D87FD05C08DEC9CECBC
:10454000ACE0B0E419C02DEC3CEC4CE050ECC50103
:10455000B4010E94862C18169CF020E030E0A901DE
:1045600069897A898B899C890E94862C181644F067
:104570008DEC9CECACE0B0EC8C839D83AE83BF8370
:1045800020E030E040E850E4C701B6010E946D2D04
:1045900018162CF480E090E0A0E8B0E40EC020E013
:1045A00030E040E850ECC701B6010E94862C87FF3E
:1045B00008C080E090E0A0E8B0EC88839983AA83EB
:1045C000BB832C813D814E815F816D857E858F858A
:1045D00098890E94222C6D877E878F87988B2881EF
:1045E00039814A815B8169857A858B859C850E94AA
:1045F000222C69877A878B879C878D89811107C0D8
:104600008E8981508E8B811102C081E08D8BDF916C
:10461000CF911F910F91FF90EF90DF90CF90BF90BF
:10462000AF909F908F9008950F931F93CF93DF9338
:10463000EC018A01882777FD8095982F0E94BD2C78
:1046400069877A878B879C87B801882777FD809553
:10465000982F0E94BD2C6D877E878F87988B1C8238
:104660001D821E821F82188219821A821B8218865E
:104670001F8A188E198E1A8E1E8A81E08D8BDF910B
:10468000CF911F910F9108952FE0FC01268B158A81
:1046900008958AE999E9A9E1BEE38093060790931A
:1046A0000707A0930807B093090708951F920F9278
:1046B0000FB60F9211242F933F938F939F93AF9335
:1046C000BF938091110790911207A0911307B091A9
:1046D00014073091100723E0230F2D3720F40196A3
:1046E000A11DB11D05C026E8230F0296A11DB11D15
:1046F000209310078093110790931207A09313073C
:10470000B09314078091150790911607A091170791
:10471000B09118070196A11DB11D809315079093C4
:104720001607A0931707B0931807BF91AF919F91F9
:104730008F913F912F910F900FBE0F901F90189562
:104740002FB7F894609111077091120780911307A9
:10475000909114072FBF08953FB7F89480911507E3
:1047600090911607A0911707B091180726B5A89B3E
:1047700005C02F3F19F00196A11DB11D3FBF66274F
:10478000782F892F9A2F620F711D811D911D42E094
:10479000660F771F881F991F4A95D1F708958F924A
:1047A0009F92AF92BF92CF92DF92EF92FF926B01F6
:1047B0007C010E94AC234B015C01C114D104E104D3
:1047C000F104F1F00E94752A0E94AC23681979095E
:1047D0008A099B09683E73408105910570F321E0C9
:1047E000C21AD108E108F10888EE880E83E0981E0D
:1047F000A11CB11CC114D104E104F10429F7DDCFDF
:10480000FF90EF90DF90CF90BF90AF909F908F90F0
:104810000895789484B5826084BD84B5816084BD38
:1048200085B5826085BD85B5816085BDEEE6F0E029
:10483000808181608083E1E8F0E010828081826085
:104840008083808181608083E0E8F0E08081816006
:104850008083E1E9F0E080818260808380818160F3
:104860008083E0E9F0E0808181608083E1ECF0E02A
:104870008081846080838081826080838081816088
:104880008083E3ECF0E0808181608083E0ECF0E005
:10489000808182608083E2ECF0E0808181608083AF
:1048A000EAE7F0E080818460808380818260808399
:1048B00080818160808380818068808308951F93D8
:1048C000CF93DF93182FEB0161E00E9433252097EF
:1048D00011F460E004C0CF3FD10539F461E0812FCD
:1048E000DF91CF911F910C946C25E12FF0E0E757F9
:1048F000FB4E449150E0FA013197EF30F10508F09A
:104900006CC0E05AFF4F0C943D2E84B5806884BD86
:10491000C7BD68C084B5806284BDC8BD63C08091D6
:104920008000806880938000D0938900C0938800C5
:1049300059C080918000806280938000D0938B006A
:10494000C0938A004FC0809180008860809380006F
:10495000D0938D00C0938C0045C0809190008068FA
:1049600080939000D0939900C09398003BC08091B1
:104970009000806280939000D0939B00C0939A0037
:1049800031C080919000886080939000D0939D000A
:10499000C0939C0027C08091C00080688093C000B5
:1049A0008091C0008F7B8093C000C093CF001AC05D
:1049B0008091C00080628093C000C093D00012C07C
:1049C0008091C20088608093C2008091C2008B7F7A
:1049D0008093C200C093D20005C0C038D1050CF04E
:1049E0007DCF77CFDF91CF911F91089590E0FC01AB
:1049F0003197EF30F105B0F5E159FF4F0C943D2EA2
:104A0000809180008F7703C0809180008F7D80939C
:104A10008000089580918000877FF9CF84B58F77DB
:104A200002C084B58F7D84BD0895809190008F77FA
:104A300007C0809190008F7D03C080919000877F98
:104A40008093900008958091C0008F7703C080917B
:104A5000C0008F7D8093C00008958091C200877F41
:104A60008093C2000895CF93DF9390E0FC01E85556
:104A7000FB4E2491FC01E953FB4E8491882349F1BC
:104A800090E0880F991FFC01EC50FB4EA591B4916A
:104A90008A519B4EFC01C591D4919FB7611108C00A
:104AA000F8948C91209582238C93888182230AC06C
:104AB000623051F4F8948C91322F309583238C938B
:104AC0008881822B888304C0F8948C91822B8C93EC
:104AD0009FBFDF91CF9108950F931F93CF93DF93E3
:104AE0001F92CDB7DEB7282F30E0F901E757FB4E14
:104AF0008491F901E855FB4E1491F901E953FB4EFD
:104B000004910023C9F0882321F069830E94F624D0
:104B10006981E02FF0E0EE0FFF1FEA51FB4EA591F7
:104B2000B4919FB7F8948C91611103C010958123C3
:104B300001C0812B8C939FBF0F90DF91CF911F916C
:104B40000F91089508950E9409240E94A22589E1E9
:104B500097E00E94102A0E94C70BC0E0D0E00E949C
:104B6000DF0B2097E1F30E940000F9CFCF92DF9294
:104B7000EF92FF920F931F93CF93DF937C016A0113
:104B8000EB0100E010E00C151D0571F06991D701F3
:104B9000ED91FC910190F081E02DC7010995892BE1
:104BA00019F00F5F1F4FEFCFC801DF91CF911F9119
:104BB0000F91FF90EF90DF90CF900895615030F00B
:104BC0002091F100FC0120830196F8CF289884E61B
:104BD00080932207089540911D0750911E07209150
:104BE0001B0730911C0742175307B4F49091E8005B
:104BF0009570E1F39091E80092FD19C08093F10067
:104C000080911D0790911E0701968F739927892B1C
:104C100019F48EEF8093E80080911D0790911E0794
:104C2000019690931E0780931D0781E0089580E010
:104C30000895CF92DF92EF92FF920F931F93CF933D
:104C4000DF931F92CDB7DEB7082F162FF42E862FD5
:104C5000880F8E5F99830E94EB2583E00E94EB25ED
:104C6000E02EC02E9981D92E8C2D8E19811798F4A3
:104C7000F601F7FE02C0849101C080810E94EB25FD
:104C8000082F80E00E94EB258023FFEFCF1ADF0A78
:104C90008111EACF01C081E00F90DF91CF911F9188
:104CA0000F91FF90EF90DF90CF9008958091D70003
:104CB00081608093D70080EA8093D80089B58061B5
:104CC00089BD89B5826089BD09B400FEFDCF61E070
:104CD00070E080E090E00E94CF238091D8008F7C2C
:104CE00080618093D8008091E000807F8093E00015
:104CF0000895CF93DF931F92CDB7DEB71982CE010F
:104D000001960E94D52A0E940D2CBE016F5F7F4F35
:104D10000E94862B89810F90DF91CF9108952FB744
:104D2000FC012083F89467706093E9000895CF93A5
:104D3000DF931F92CDB7DEB7682FCE0101960E9498
:104D40008F268091F20099819FBF0F90DF91CF91C4
:104D50000895FF920F931F93CF93DF9300D0CDB7A9
:104D6000DEB7F62E8A0190912107992311F057FFA3
:104D700003C08FEF9FEF2BC0682FCE0101967A837F
:104D80000E948F268091F20090E0A8017A8180171E
:104D900091070CF4AC01EF2DF72FF40E84E6FE160C
:104DA00039F02898809322079091F1009193F7CFE2
:104DB0004115510521F08091F200882321F089816D
:104DC0008FBFCA0104C08BE68093E800F8CF0F9034
:104DD0000F90DF91CF911F910F91FF900895CF9386
:104DE000DF931F92CDB7DEB741E050E0BE016F5FA9
:104DF0007F4F0E94A926019719F4898190E002C093
:104E00008FEF9FEF0F90DF91CF910895CF93DF93B6
:104E10001F92CDB7DEB7682FCE0101960E948F2674
:104E20009091E800892F807295FF04C09091F20064
:104E300080E4891B99819FBF0F90DF91CF910895E6
:104E40006F927F928F929F92AF92BF92CF92DF929A
:104E5000EF92FF920F931F93CF93DF931F92CDB7E3
:104E6000DEB7782E7B01C42EB52E809121078823D2
:104E700069F0042F152F8AEFD82E872D8072982E77
:104E80009AE3A92E872D8074882E11C08FEF9FEF93
:104E900057C0872D0E940627682E81110CC0DA9416
:104EA000A9F361E070E080E090E00E94CF2301155B
:104EB000110579F73BC0282F30E0021713070CF4D7
:104EC000602E672DCE0101960E948F268091E8000A
:104ED00085FF29C0262D30E0021B130B992039F0E5
:104EE0006A948FEF6816B1F01092F100F9CFF701D4
:104EF000862D77FE07C0815058F094919093F10071
:104F00003196F9CF815020F091919093F100FACF32
:104F1000E20EF31E8091E80085FF0FC00115110518
:104F200011F481100AC089818FBFC1CF5D9884E6DA
:104F3000809323078C2D9B2D03C0A092E800F3CF14
:104F40000F90DF91CF911F910F91FF90EF90DF9025
:104F5000CF90BF90AF909F908F907F906F9008956B
:104F60001092E90010921E0710921D0790931C07E3
:104F700080931B070895CF92DF92FF920F931F93A8
:104F8000CF93DF9300D0CDB7DEB7F82E8A016B0147
:104F900001151105B1F0F601F7FE02C0849101C0C0
:104FA000808149835A830E94EB2501501109FFEF4C
:104FB000CF1ADF0A49815A818111EACF8FEF9FEF23
:104FC00001C0CA010F900F90DF91CF911F910F91F7
:104FD000FF90DF90CF900895BF92CF92DF92EF9233
:104FE000FF920F931F93CF93DF936C018B01EB0123
:104FF0003BEFB32E2097C1F07E01C134D1051CF0E8
:1050000020E4E22EF12C8091E80082FFFCCFC80161
:105010008C1B9D0B6E2D8C0D9D1D0E94DE25B0926C
:10502000E800CE19DF09E6CFC801DF91CF911F91CB
:105030000F91FF90EF90DF90CF90BF9008951F9257
:105040000F920FB60F921124DF92EF92FF920F93FF
:105050001F932F933F934F935F936F937F938F9300
:105060009F93AF93BF93EF93FF93CF93DF93CDB70E
:10507000DEB76C97DEBFCDBF1092E9008091E800EB
:1050800083FF23C168E0CE0145960E94DE2582EFB2
:105090008093E8003D8937FF05C08091E80080FFDC
:1050A000FCCF03C08EEF8093E800832F807609F059
:1050B000F0C02E894F89D88C21110CC0303829F4CA
:1050C000809120078093F10002C01092F1001092AD
:1050D000F100F4C0842F90E09D29213049F4311172
:1050E000EDC0019709F0EAC0809120078D7F0AC0CA
:1050F000233059F43111E2C0019709F0DFC08091EB
:105100002007826080932007D9C0253041F4809128
:10511000E80080FFFCCF40684093E300CFC026301A
:1051200009F08DC0EB8CFC8C22E0D2122CC080E008
:1051300090E00E94B0270E94792699E08E010F5FCF
:105140001F4FF801292F11922A95E9F79983DA82E6
:1051500091E09E8390EA98879AEF998720911D07A6
:1051600030911E07275F3F4F3C832B838D83C70100
:105170000E94B02749E050E0B80180E00E94BB27C0
:105180000E9479269BC0C7010E94B0270E940D2C67
:10519000BE016B5E7F4F0E94AF2B009719F00CF0A1
:1051A0008DC090C081E0D8120EC08B8D9C8D089769
:1051B00019F481E080931A0780911A0781112FC09A
:1051C00064E175E131C0E3E0DE127CC08F898823A1
:1051D00049F1823029F440E867E082E395E11CC0A0
:1051E000813029F440E86BE086E295E115C0833018
:1051F00009F068C00E940D2C8E010F5F1F4FB8018F
:105200000E94CE2BF80101900020E9F73197E01BB6
:10521000F10B40E06E2FC8010E9419264DC062E0DC
:1052200075E102C06AE375E16115710509F44AC0D0
:10523000FB01449150E080E80E94BB273FC027302B
:1052400009F440C0283021F481E08093F10036C099
:105250002930A1F53370B1F5EBE0F1E081E021E018
:1052600036E39081992361F08093E9002093EB006D
:1052700091919093EC003093ED008F5F873089F728
:105280008EE78093EA001092EA008F8980932107CD
:1052900015C08B8D9C8D0E94B027898D811105C012
:1052A000CE0145960E94E02A07C00E940D2CBE0147
:1052B0006B5E7F4F0E94ED2B882321F08EEF809351
:1052C000E80003C081E28093EB006C960FB6F8947F
:1052D000DEBF0FBECDBFDF91CF91FF91EF91BF91A8
:1052E000AF919F918F917F916F915F914F913F917E
:1052F0002F911F910F91FF90EF90DF900F900FBEB5
:105300000F901F9018958093E9008091F2008823F8
:1053100019F08AE38093E80008951F920F920FB668
:105320000F9211242F933F934F935F936F937F932B
:105330008F939F93AF93BF93CF93EF93FF93C091BE
:10534000E1008091E100837F8093E1008093E100A0
:10535000C3FF0FC01092E90081E08093EB00109230
:10536000EC0082E38093ED001092210788E08093A7
:10537000F000C2FF19C083E00E94832980912307B7
:10538000882339F080912307815080932307882355
:1053900089F180912207882339F08091220781507A
:1053A00080932207882341F1C4FF10C08091E2005E
:1053B0008E7E81608093E2008091E1008F7E8093F9
:1053C000E10080911F078E7E806111C0C0FF16C072
:1053D0008091E2008E7E80618093E2008091E10006
:1053E0008E7E8093E10080911F078E7E8160809386
:1053F0001F0704C05D9ACDCF289AD6CFFF91EF91B9
:10540000CF91BF91AF919F918F917F916F915F915C
:105410004F913F912F910F900FBE0F901F901895B5
:10542000109221071092200710921F070E94562603
:105430008091E1008E7E8093E1008DE08093E20018
:10544000559A209AEEEFFFE7859194918B3F9C4D02
:1054500019F481E080937407089561157105810541
:10546000910511F00C94B12E0895CF93DF9300D0E5
:1054700000D0CDB7DEB79B01AC0161157105810588
:10548000910569F069833A834B835C830E94AC2E5B
:1054900029813A814B815C810E941E2E03C060E00D
:1054A00070E0CB010F900F900F900F90DF91CF9194
:1054B0000895CF92DF92EF92FF926B017C01621709
:1054C00073078407950764F4CA01B9016C197D0953
:1054D0008E099F090E94352A6C0D7D1D8E1D9F1D12
:1054E000FF90EF90DF90CF90089508950E94BA2E1C
:1054F000CF93DF931F92CDB7DEB76983DC01ED91C7
:10550000FC910280F381E02D41E050E0BE016F5F2D
:105510007F4F09950F90DF91CF910895CF93DF933F
:10552000EC018C859D8597FF05C082E00E94EF26E7
:105530009D878C878C859D85DF91CF91089583E031
:105540000C948329FC018485958597FD06C082E033
:105550000E94972690E00196089582E00E94972687
:1055600090E00895FC018485958597FD05C02FEF97
:105570003FEF35872487089582E00C94EF26CF9380
:10558000DF93EC0180911C01882331F083E00E94BD
:1055900020271816190634F081E090E09B838A8357
:1055A00080E090E0DF91CF910895FC0120812E5F93
:1055B000208342E450E06EE375E180E80C94BB2761
:1055C000FC0121818081813A59F4213209F04BC0DC
:1055D00047E050E065E171E080E00E94BB275EC0DB
:1055E000813209F040C0233289F4838190E0982F02
:1055F00088273281832BA0E0B0E080931101909343
:105600001201A0931301B09314010FC0203239F49A
:1056100067E070E085E191E00E94EC2709C022324A
:1056200021F4828180931C0103C02D7F2032B1F5CB
:1056300080917407811103C0E0E0F8E002C0EEEF52
:10564000FAE08091150190911601A0911701B09197
:105650001801803B9440A105B10511F580911C0112
:1056600080FF03C01DC080E00895EE3F2AE0F207EE
:1056700031F0808191819093FF0A8093FE0A87E741
:1056800097E7918380832BE088E190E00FB6F89450
:10569000A895809360000FBE2093600081E008957C
:1056A00088E10FB6F89480936000109260000FBEFE
:1056B000A895EE3F8AE0F80739F08091FE0A9091B4
:1056C000FF0A91838083EACF1092FF0A1092FE0AAC
:1056D000E5CF109227071092260788EE93E0A0E00E
:1056E000B0E08093280790932907A0932A07B093EE
:1056F0002B0781E391E090932507809324078FEF98
:105700009FEF90933107809330070895EF92FF92B7
:105710000F931F93CF93DF937B01FC01C281D38151
:1057200000E010E0209781F0E881F9810280F381A8
:10573000E02DB701CE01099597FD08C0080F191F8C
:105740000884D985C02DEECFC80102C08FEF9FEF2E
:10575000DF91CF911F910F91FF90EF9008950F93DC
:105760001F93CF93DF938B01FC01C281D3812097DC
:1057700071F0E881F9810480F581E02DB801CE0156
:105780000995009731F40884D985C02DF0CF80E0C9
:1057900090E0DF91CF911F910F9108950F931F9388
:1057A000CF93DF938B01FC01C281D381209771F0ED
:1057B000E881F9810680F781E02DB801CE010995D5
:1057C000080F111D0884D985C02DF0CFF801108273
:1057D000DF91CF911F910F9108950F931F93CF9356
:1057E000DF938B01FC01C281D381209771F0E881A6
:1057F000F9810190F081E02DB801CE010995811168
:1058000006C00884D985C02DF0CF80E001C081E0BA
:10581000DF91CF911F910F910895809179078111A8
:105820000DC082E08093750784E080937607109224
:1058300078071092770781E08093790785E797E0F2
:1058400008955058BB27AA270ED00DC1FED030F0C6
:1058500003D120F031F49F3F11F41EF4F3C00EF495
:10586000E095E7FBE9C0E92F0FD180F3BA17620793
:1058700073078407950718F071F49EF527C10EF49D
:10588000E0950B2EBA2FA02D0B01B90190010C0150
:10589000CA01A0011124FF27591B99F0593F50F468
:1058A000503E68F11A16F040A22F232F342F4427C0
:1058B000585FF3CF469537952795A795F0405395B8
:1058C000C9F77EF41F16BA0B620B730B840BBAF088
:1058D0009150A1F0FF0FBB1F661F771F881FC2F7F3
:1058E0000EC0BA0F621F731F841F48F48795779507
:1058F0006795B795F7959E3F08F0B3CF9395880FBE
:1059000008F09927EE0F97958795089571D008F4C0
:1059100081E0089504D06894B111D9C00895BCD035
:1059200088F09F5790F0B92F9927B751A0F0D1F088
:10593000660F771F881F991F1AF0BA95C9F712C012
:10594000B13081F0C3D0B1E00895C0C0672F782F87
:105950008827B85F39F0B93FCCF38695779567957E
:10596000B395D9F73EF490958095709561957F4FEA
:105970008F4F9F4F0895E89409C097FB3EF4909590
:105980008095709561957F4F8F4F9F4F9923A9F018
:10599000F92F96E9BB279395F695879577956795A7
:1059A000B795F111F8CFFAF4BB0F11F460FF1BC0EB
:1059B0006F5F7F4F8F4F9F4F16C0882311F096E97E
:1059C00011C0772321F09EE8872F762F05C066232C
:1059D00071F096E8862F70E060E02AF09A95660FE5
:1059E000771F881FDAF7880F9695879597F908959E
:1059F000990F0008550FAA0BE0E8FEEF16161706E0
:105A0000E807F907C0F012161306E407F50798F047
:105A1000621B730B840B950B39F40A2661F0232B60
:105A2000242B252B21F408950A2609F4A140A695DC
:105A30008FEF811D811D089597F99F6780E870E0C1
:105A400060E008959FEF80EC089500240A941616F4
:105A5000170618060906089500240A94121613065C
:105A6000140605060895092E0394000C11F48823EA
:105A700052F0BB0F40F4BF2B11F460FF04C06F5F06
:105A80007F4F8F4F9F4F089557FD9058440F551FDC
:105A900059F05F3F71F04795880F97FB991F61F0B0
:105AA0009F3F79F087950895121613061406551F27
:105AB000F2CF4695F1DF08C0161617061806991F93
:105AC000F1CF86957105610508940895E894BB2788
:105AD00066277727CB0197F908958ADF08F48FEFBF
