:100000000C9415060C943D060C943D060C943D068C
:100010000C943D060C943D060C943D060C943D0654
:100020000C943D060C943D060C9486200C94181FED
:100030000C943D060C943D060C943D060C943D0634
:100040000C943D060C942E150C943D060C943D0624
:100050000C943D060C943D060C943D060C94AA1895
:100060000C943D060C943D060C943D060C943D0604
:100070000C943D060C943D060C943D060C943D06F4
:100080000C94A1150C943D060C943D060C943D0671
:100090000C943D060C943D060C943D060C943D06D4
:1000A0000C943D060C943D060C943D06D919DE19BE
:1000B000E319ED19F719411A411A411A011A0B1ADD
:1000C000151A1F1A2C1A411A341A621A651A541A70
:1000D000581A5E1A861A861A861A691A6D1A711AC1
:1000E000771A7B1A861A811AF0F89C8E8783878E7E
:1000F0009CF8F00000FEFF0303030303070EFCF867
:100100000000FEFF0303030303070EFCF80000FFDB
:10011000FF00000000000000FFFF0000FEFF8383DF
:10012000838383C7EE7C380000F8FC0E07030303CB
:10013000070EFCF800003F7FE0C08080C0E07F3FFA
:10014000FFFF01010101010101FFFF0000FFFF0CA2
:100150000C0C0C1C3E77E3C100007FFFC0C0C0C088
:10016000C0E0703F1F00001F3F70E0C0C0C0E070E3
:100170003F1F00007FFFC1C1C1C1C1E3773E1C002A
:10018000001F3F70E0C0C0C0E0703F1F00000000D3
:100190000001FFFF0100000000000000003E5B4F77
:1001A0005B3E3E6B4F6B3E1C3E7C3E1C183C7E3CD7
:1001B000181C577D571C1C5E7F5E1C00183C1800E5
:1001C000FFE7C3E7FF0018241800FFE7DBE7FF3075
:1001D000483A060E2629792926407F050507407FE3
:1001E00005253F5A3CE73C5A7F3E1C1C08081C1C56
:1001F0003E7F14227F22145F5F005F5F06097F014C
:100200007F006689956A606060606094A2FFA29436
:1002100008047E040810207E201008082A1C080804
:100220001C2A08081E101010100C1E0C1E0C303852
:100230003E3830060E3E0E06000000000000005F53
:1002400000000007000700147F147F14242A7F2A6F
:100250001223130864623649562050000807030031
:10026000001C2241000041221C002A1C7F1C2A087D
:10027000083E0808008070300008080808080000E0
:1002800060600020100804023E5149453E00427F54
:10029000400072494949462141494D331814127FA3
:1002A0001027454545393C4A494931412111090743
:1002B0003649494936464949291E000014000000C4
:1002C0004034000000081422411414141414004196
:1002D00022140802015909063E415D594E7C121153
:1002E000127C7F494949363E414141227F4141418B
:1002F0003E7F494949417F090909013E4141517306
:100300007F0808087F00417F41002040413F017F76
:10031000081422417F404040407F021C027F7F043E
:1003200008107F3E4141413E7F090909063E415187
:10033000215E7F09192946264949493203017F0177
:10034000033F4040403F1F2040201F3F4038403F78
:10035000631408146303047804036159494D43008E
:100360007F4141410204081020004141417F0402C5
:10037000010204404040404000030708002054545C
:1003800078407F284444383844444428384444283A
:100390007F385454541800087E090218A4A49C788D
:1003A0007F0804047800447D40002040403D007FE9
:1003B0001028440000417F40007C047804787C08C9
:1003C0000404783844444438FC182424181824249D
:1003D00018FC7C08040408485454542404043F4482
:1003E000243C4040207C1C2040201C3C4030403CB1
:1003F00044281028444C9090907C4464544C440011
:100400000836410000007700000041360800020174
:100410000204023C2623263C1EA1A161123A404060
:10042000207A3854545559215555794121545478DE
:1004300041215554784020545579400C1E52721277
:1004400039555555593954545459395554545800FF
:1004500000457C410002457D420001457C40F02979
:100460002429F0F0282528F07C54554500205454C8
:100470007C547C0A097F493249494932324848480C
:1004800032324A4848303A4141217A3A4240207853
:10049000009DA0A07D39444444393D4040403D3C4E
:1004A00024FF2424487E4943662B2FFC2F2BFF0971
:1004B00029F620C0887E0903205454794100004465
:1004C0007D413048484A32384040227A007A0A0A50
:1004D000727D0D19317D2629292F282629292926C3
:1004E00030484D4020380808080808080808382F08
:1004F00010C8ACBA2F102834FA00007B0000081492
:100500002A142222142A14089500220095AA0055C4
:1005100000AAAA55AA55AA000000FF00101010FF5B
:1005200000141414FF001010FF00FF1010F010F062
:10053000141414FC001414F700FF0000FF00FF1453
:1005400014F404FC141417101F10101F101F14149F
:10055000141F00101010F0000000001F10101010E9
:100560001F10101010F010000000FF1010101010DD
:1005700010101010FF10000000FF140000FF00FF1B
:1005800000001F10170000FC04F4141417101714B7
:1005900014F404F40000FF00F714141414141414D9
:1005A000F700F7141414171410101F101F1414144C
:1005B000F4141010F010F000001F101F0000001FB6
:1005C00014000000FC140000F010F01010FF10FFE9
:1005D000141414FF141010101F00000000F010FF7E
:1005E000FFFFFFFFF0F0F0F0F0FFFFFF0000000062
:1005F00000FFFF0F0F0F0F0F38444438447C2A2AA6
:100600003E147E02020606027E027E0263554941C6
:10061000633844443C04407E201E2006027E0202D1
:1006200099A5E7A5991C2A492A1C4C7201724C30E5
:100630004A4D4D303048784830BC625A463D3E49BC
:100640004949007E0101017E2A2A2A2A2A44445F60
:10065000444440514A444040444A51400000FF0154
:1006600003E080FF000008086B6B08361236243662
:10067000060F090F060000181800000010100030C7
:1006800040FF0101001F01011E00191D1712003C4F
:100690003C3C3C000000000006011501260137012A
:1006A0004A015D01720188019F01B801D201EE018A
:1006B0000B022A024B026E029302BA02E4021003FA
:1006C0003F037003A403DC03170455049704DD04FF
:1006D00027057505C80520067D06E0064907B80709
:1006E0002D08A9082D09B9094D0AEA0A900B400CFA
:1006F000FA0CC00D910E6F0F5A1053115B1272134A
:100700009A14D41520178018F519801B231DDE1E9E
:10071000B420A622B524E4263429A72B402E00318C
:10072000EA330037453ABC3D68414C456B49C84DFA
:1007300068524F57805C006210111213151617187B
:100740001A1C1D1F21232527292C2E3134373A3E10
:100750004145494E52575C62686E757B838B939C12
:10076000A5AFB9C4D0DCE9F70301D5F08D14A1C859
:1007700081CFD9F1AF200014021302120215020733
:1007800002080204010C0106010080C0E030B0B094
:1007900030E0C08078FCFE036B6B87FEFC78070FAF
:1007A0001F303D3D301F0F0700000103030303010D
:1007B0000000FFFFFFFF01FDFDFDFDFF01FDFDFD51
:1007C00001FF01FDFDFD01FF01EDEDEDEDFFFFFF7F
:1007D000FFFFFFFFFFFCFDFDFDFDFFFCFDFDFDFC40
:1007E000FFFCFFFFFFFCFFFCFFFFFFFFFFFFFFFF22
:1007F000FFFFFFFF01EDEDEDE1FF01FFFFFFFFFF59
:1008000003DDDDDD03FFF1CF3FCFF1FFFFFFFFFF92
:10081000FFFFFFFCFFFFFFFFFFFCFDFDFDFDFFFCF9
:10082000FFFFFFFCFFFFFFFCFFFFFFFFFFFF0000DC
:100830000404040404040408080808080808080854
:1008400008081818E80808080808080808088808A8
:1008500010101010101010101010000000000000F8
:100860000000000000000000000000000000000088
:1008700000E04040408080808000000000000000D8
:100880000000000000000000000000000000000068
:100890000000000000000000000000000000000058
:1008A0000000000000000000000000000000000048
:1008B0000000000000000000000000000000000038
:1008C00000000000009FE0000000000000001FE0AA
:1008D0000000000000000000000000000000000018
:1008E0000000000000000000000000000000000008
:1008F00000001FE0000000103051890A0A040000C7
:1009000000000000000000000000000000000000E7
:1009100000000000000000000000000000000000D7
:1009200000000000000000000000000000000000C7
:1009300000000000000000000000000000000000B7
:10094000000000C0300F000000000000000080FF29
:10095000202020202040C0000000000080402020F7
:100960002020202020408000000000000000000027
:1009700000000007F80000000000010638C0000079
:100980000080404040404080000000C00000000067
:1009900000000000C0000000000000000000008017
:1009A0004040408080000000000000000000000087
:1009B0000000000000000000000000000000000037
:1009C000E0180700000000000000000000FFE01F2A
:1009D00000000000000000FF000000FE09081010E9
:1009E0001010101010180D02000000000000000090
:1009F0000000000007F8000000008040300F0000F9
:100A00003EC1000080E01F0000003FC080804040E9
:100A1000300C0280F01F040202FE00003CC2010004
:100A20001E614188880909060000000000000000DE
:100A30000000000000000000000000000000007E38
:100A4000410000000000000000000000000F030053
:100A50000000000000000403000000000302040482
:100A60000000000000000000000000000000000086
:100A70000000000000010006060100000000000068
:100A80000000010101000000000000000000000063
:100A90000000000301000000000100000000010050
:100AA0000000000000010100000000000000000044
:100AB0000000000000000000000000000000000036
:100AC0000000000000000000000000000000000026
:100AD0000000000000000000000000000000000016
:100AE0000000000000000000000000000000000006
:100AF00000000000000000000000000000000000F6
:100B000000000000000000000000000000000000E5
:100B100000000000000000000000000000000000D5
:100B200000000000000000000000000000000000C5
:100B3000000200090F0000030401000C0000000087
:100B40000000000000000000000000000004080297
:100B50000110408040102040804080080204018045
:100B600040201002011080102040402004040404A2
:100B70000403040502020202040302020202060642
:100B80000606060604040202020404000000002512
:100B90000028002B002E0031000000000024002758
:100BA000002A002D00300012010002EF0201404136
:100BB000233680000101020301120100020000003F
:100BC00040412336800001010203014172647569CE
:100BD0006E6F204C4C430041726475626F79000463
:100BE000030904080B0002020201000904000001CD
:100BF0000202000005240010010524010101042463
:100C000002060524060001070581031000400904BF
:100C10000100020A0000000705020240000007056B
:100C20008302400000002A0C622211241FBECFEF75
:100C3000DAE0DEBFCDBF13E0A0E0B1E0ECE6FCE41B
:100C400002C005900D92A434B107D9F728E0A4E4BE
:100C5000B3E001C01D92AB30B207E1F71CE0CAE27D
:100C6000DCE004C02297FE010E94A425C632D10711
:100C7000C9F70E94F71A0C9434260C94000089E4FA
:100C800093E00E9480116EE189E493E00E948E0C53
:100C9000409106015091070160910801709109018E
:100CA00085E897E00C947D182F923F924F925F92C7
:100CB0006F927F928F929F92AF92BF92CF92DF926C
:100CC000EF92FF920F931F93CF93DF93CDB7DEB7D1
:100CD0002A970FB6F894DEBF0FBECDBF89E493E02C
:100CE0000E94A30C882309F49CC589E493E00E9428
:100CF000970F80910D01813009F568E089E493E058
:100D00000E94CB12882359F080910C01882339F07E
:100D100082E080930D0189E493E00E94090D60E276
:100D200089E493E00E94CB1281112AC560E489E432
:100D300093E00E94CB12811123C52FC5823009F0A8
:100D4000FAC260E889E493E00E94CB12882319F08C
:100D500081E080930D0169E473E085E897E00E94EB
:100D6000EA1620E030E046E953E460919207709182
:100D7000930780919407909195070E94CE241816AE
:100D800064F440910601509107016091080170914F
:100D9000090185E897E00E947D181A8219821C8259
:100DA0001B8280910A0190E0AB81BC81A817B90732
:100DB0000CF060C2C0908E07D0908F07E090900733
:100DC000F0909107209104013091050189819A8169
:100DD000280F391F3A872987D9010D911C91B80135
:100DE00065507109882777FD8095982F0E941E24F1
:100DF0009B01AC01C701B6010E94CE2487FD2EC223
:100E0000E985FA8584819801280F311D3E832D8361
:100E1000C9010596BC01882777FD8095982F0E940F
:100E20001E249B01AC01C701B6010E947F23181646
:100E30000CF414C28090920790909307A0909407AE
:100E4000B0909507A985BA8512962D903C9013977E
:100E5000C1010597BC01882777FD8095982F0E94D6
:100E60001E249B01AC01C501B4010E94CE2487FD64
:100E7000F5C1E985FA8585819101280F311D3887F3
:100E80002F83C9010596BC01882777FD8095982F8F
:100E90000E941E249B01AC01C501B4010E947F2366
:100EA00018160CF4DBC1B801882777FD8095982FC0
:100EB0000E941E242B013C019B01AC01C701B6011D
:100EC0000E94CE2487FD7BC0AD81BE81BD018827F5
:100ED00077FD8095982F0E941E249B01AC01C701CD
:100EE000B6010E947F2318160CF471C020E030E098
:100EF00040E850E4C501B4010E941B232B013C01D2
:100F0000B101882777FD8095982F0E941E249B01B0
:100F1000AC01C301B2010E94CE2487FD58C0EF810D
:100F2000F885BF01882777FD8095982F0E941E24A1
:100F30009B01AC01C301B2010E947F2318160CF47F
:100F400046C0A985BA8516968C91823031F08330DF
:100F500071F0B1E0B09399077FC0E3E0E0930D0139
:100F600022E030E0309307012093060175C08091A4
:100F70000801909109018017910709F46DC024E6DA
:100F800030E040E050E060EA7FE08DE493E00E94D2
:100F9000B414E0910401F091050189819A81E80F70
:100FA000F91F8081918190930901809308018281CA
:100FB00093810C9790930701809306014DC0A30184
:100FC0009201C701B6010E94CE2487FD45C0AD81C4
:100FD000BE81BD01882777FD8095982F0E941E2431
:100FE0009B01AC01C701B6010E947F231816A4F132
:100FF00020E030E040E450E4C501B4010E941A232F
:101000006B017C01B101882777FD8095982F0E94A4
:101010001E249B01AC01C701B6010E94CE2487FDAE
:101020001BC0EF81F885BF01882777FD8095982F39
:101030000E941E249B01AC01C701B6010E947F23C0
:10104000181654F0A985BA8516968C918250823074
:1010500018F0B1E0B093980780908E0790908F07BA
:10106000A0909007B090910720E030E040E450E479
:10107000C501B4010E941B232B013C01E091040136
:10108000F091050129813A81E20FF31FFE83ED8380
:1010900020803180B101882777FD8095982F0E94AC
:1010A0001E246B017C019B01AC01C301B2010E94B3
:1010B000CE2487FD53C0AD81BE8114968C91F10181
:1010C000E80FF11DBF01882777FD8095982F0E94BA
:1010D0001E249B01AC01C301B2010E947F2318169C
:1010E000ECF14090920750909307609094077090B5
:1010F0009507AD81BE8112960D911C911397B80191
:10110000882777FD8095982F0E941E249B01AC01B3
:10111000C301B2010E94CE2487FD20C0ED81FE8173
:101120008581080F111DB801882777FD8095982FBC
:101130000E941E249B01AC01C301B2010E947F23C7
:10114000181664F0AD81BE8116968C918250823063
:1011500008F463C0B1E0B09397075FC020E030E0CF
:1011600040E450E4C501B4010E941A234B015C0124
:10117000A70196010E94CE2487FD4FC0ED81FE811C
:101180008481B101680F711D882777FD8095982FA4
:101190000E941E249B01AC01C501B4010E947F2363
:1011A0001816DCF1C0909207D0909307E090940756
:1011B000F0909507AD81BE8112960D911C91139709
:1011C000B801882777FD8095982F0E941E249B01E7
:1011D000AC01C701B6010E94CE2487FD1EC0ED817F
:1011E000FE818581B801680F711D882777FD809584
:1011F000982F0E941E249B01AC01C701B6010E94DA
:101200007F23181654F0AD81BE8116968C918250C2
:10121000823018F0B1E0B093960780919807811161
:101220000CC080919907811108C0809196078111A7
:1012300004C080919707882389F0ED81FE81868123
:10124000813061F4409106015091070160910801DD
:101250007091090185E897E00E947D182B813C81FF
:101260002F5F3F4F3C832B8389819A8107969A8316
:10127000898397CD6091460370914703882777FD56
:101280008095982F0E941E246B017C0120E030E0A5
:1012900040E852E460918E0770918F07809190072B
:1012A000909191070E941A23A70196010E941A2388
:1012B00029E23CE54FE85DE30E94D2249B01AC01AA
:1012C000C701B6010E941B230E94EB2370934703C2
:1012D000609346036091440370914503882777FD2E
:1012E0008095982F0E941E246B017C0120E030E045
:1012F00040E052E4609192077091930780919407C7
:10130000909195070E941A23A70196010E941A2323
:1013100029E23CE54FE85DE30E94D2249B01AC0149
:10132000C701B6010E941B230E94EB237093450363
:10133000609344036DC0833009F06AC062E089E4C1
:1013400093E00E94970C8823F9F020E030E040E819
:101350005FE3609192077091930780919407909159
:1013600095070E941A2360939207709393078093C6
:10137000940790939507809106019091070102963A
:1013800090930701809306018091060190910701D7
:10139000813891059CF182E080930D0180E290E01C
:1013A000909307018093060120910B01223051F0A8
:1013B000233071F02130A9F48DE080930A0187EB8E
:1013C00092E00BC08EE080930A0185E592E005C0B3
:1013D0008BE280930A0188E291E09093050180936B
:1013E00004012F5F20930B016091080170910901A6
:1013F00040E250E085E897E00E947D182AE030E066
:1014000040E050E068E873E18DE493E00E94B4149A
:1014100080910D018250823008F096C140E050E08A
:1014200060E070E089E493E00E94BF1261E271E045
:1014300089E493E00E94481B40918E0750918F07EA
:10144000609190077091910722E030E089E493E089
:101450000E94D51C64E271E089E493E00E94481B7D
:10146000409192075091930760919407709195076E
:1014700022E030E089E493E00E94D51C612C712CBD
:10148000812C912C40910A0150E08091460390916B
:1014900047032091440330914503841695060CF0D0
:1014A000B4C0E0910401F0910501E60DF71D4681FD
:1014B0000281138160817181423099F1433009F4D6
:1014C0006AC0413051F0A801421B530B681B790BD5
:1014D000EE24E394058124818DC0A4814581F80127
:1014E000E40FF11DAF01421B530B7B01EA0EF11C0F
:1014F000E81AF90AF2E0EF0EF11C021B130BA69595
:101500009B012A0F311D281B390B681B790B625078
:101510007109AA24A3946A0189E493E00E949A0FB6
:101520006DC0A801421B530B681B790BEE24E3949A
:101530000581248189E493E00E94290FE091040150
:10154000F0910501E60DF71D1581E280F380809191
:10155000440390914503E81AF90A608171818091F2
:10156000460390914703681B790B84819B01280FE8
:10157000311D442737FD4095542F882777FD8095EE
:10158000982F0E94522101E0212FA70189E493E0C6
:101590000E94FA0D33C0A801421B530B681B790B44
:1015A000EE24E3940581248189E493E00E94290FCD
:1015B0006091080170910901E0910401F091050129
:1015C000E60DF71D8081918168177907B9F4428192
:1015D00053818091440390914503481B590B80919E
:1015E000460390914703681B790B8481680F711D36
:1015F00005E028E089E493E00E94290F2FEF821A8A
:10160000920A37E0630E711C3DCF40910B014130CF
:10161000F1F445E350E0421B530B61E371E0681BBA
:10162000790BCC24C3949EE0E92E04E12AE837E04C
:1016300089E493E00E94E20F47E350E08091440385
:1016400090914503481B590B6EE371E01FC0423077
:1016500059F542E650E0421B530B65E67FEF681BED
:10166000790BCC24C3948EE0E82E04E12AE837E01D
:1016700089E493E00E94E20F48E650E08091440341
:1016800090914503481B590B68E67FEF8091460314
:1016900090914703681B790BEE24E39406E024E065
:1016A00089E493E00E94600F80910D01A0904603B1
:1016B000B09047030091440310914503823009F52F
:1016C000609192077091930780919407909195078C
:1016D0000E94EB237B01E01AF10A60918E07709162
:1016E0008F0780919007909191070E94EB236A19D0
:1016F0007B0901E021E0A70189E493E00E94CE0E7E
:1017000023C0609192077091930780919407909104
:1017100095070E94EB236B01C01AD10A60918E07D6
:1017200070918F0780919007909191070E94EB2311
:101730006A197B09EE24E3940091060122E0A601D8
:1017400089E493E00E94290F89E493E02A960FB67A
:10175000F894DEBF0FBECDBFDF91CF911F910F91E7
:10176000FF90EF90DF90CF90BF90AF909F908F90C1
:101770007F906F905F904F903F902F900C94C81285
:101780008091480381110EC080910C0191E089275E
:1017900080930C019093480305C080914803811108
:1017A00010924803CC24C3944AE2E42E00E82EE2CF
:1017B00038E040E050E060E070E089E493E00E94AF
:1017C000E20F80910C01882391F030E1E32E0FE1CC
:1017D00020EF37E040E350E06CE070E089E493E014
:1017E0000E94E20F22EB37E044E350E013C0CC2428
:1017F000C39420E1E22E0FE120EF37E044E350E014
:101800006CE070E089E493E00E94E20F22EB37E0A5
:1018100040E350E065E570E089E493E00E94E20F68
:10182000F7CD2A960FB6F894DEBF0FBECDBFDF917D
:10183000CF911F910F91FF90EF90DF90CF90BF90CD
:10184000AF909F908F907F906F905F904F903F9060
:101850002F90089589E493E00C94640CCF93CFB754
:10186000F89480916307811127C0EDE7FBE0849134
:10187000EEE5FBE09491E82FF0E0EE0FFF1FE75656
:10188000F44FA591B4918C91892321F461E081E119
:101890000E94C01A61E081E10E94871A8CB58061C4
:1018A0008CBD8CB580648CBD61E08FE00E94871A8E
:1018B00061E080E10E94871A809163078F5F8093C7
:1018C0006307CFBFCF910895CF93DF93EC018FE2F1
:1018D00093E0998388831B821A82CE010E94CC15E3
:1018E00086E193E0998388838CE38E8380E1898706
:1018F00018861F821E861F86188A198A1A8AFE0178
:10190000EC5EFB4F11821082329611821082C85E0B
:10191000DB4F81E08883DF91CF910895FC016683DE
:1019200070E088EE93E00E944D256187089570E095
:10193000FC01878190850E94392521E0892B09F0DF
:1019400020E0822F08950F931F93CF93DF93EC0134
:101950000E94F418E62F462F572FBC018A8988234E
:1019600051F08A859E2F981B9B8B8F8198850196BD
:1019700098878F831A8A0E851F8528893989401791
:1019800051076207730734F40E1B023008F10E94FE
:1019900082161EC089850A851B852C853D85080F0A
:1019A000111D211D311D04171507260737072CF0BF
:1019B0000E871F87288B398B04C04E875F87688B03
:1019C000798B4A875B876C877D8781E08A8B01C032
:1019D00080E0DF91CF911F910F91089560937C007B
:1019E000673C19F480E280937B0062E070E080E065
:1019F00090E00E94231980917A00806480937A009D
:101A000080917A0086FDFCCF8091780090917900DA
:101A10000895CF92DF92EF92FF92CF93DF937C01F4
:101A2000C4E6D0E088818E7F888367ECC7010E947E
:101A3000EE0C6C016EE5C7010E94EE0C7C010E9469
:101A400000199B01AC01E094F094C094D094EC9CFC
:101A5000D001ED9CB00DFC9CB00D1124209530956B
:101A6000409550950E94B7256B017C010E9400199A
:101A70006C0D7D1D8E1D9F1D0E9426218881816019
:101A80008883DF91CF91FF90EF90DF90CF90089502
:101A90006038710518F54034510500F5E42FE695DE
:101AA000E695E695F0E047705527F695FE2FEE2770
:101AB000F795E795E60FF71FE80FF91F81E090E033
:101AC000042E01C0880F0A94EAF7222319F09489A2
:101AD000982B03C0809594899823948B08952F9216
:101AE0003F924F925F926F927F928F929F92AF92AE
:101AF000BF92CF92DF92EF92FF920F931F93CF93FB
:101B0000DF932C01EB016A0159019801241B350B6D
:101B100037FF03C0319521953109C5018C1B9D0B01
:101B200097FF03C0919581959109FF24F394821743
:101B3000930714F0F12C0AC09A2D8B2D5801092F10
:101B4000182F9C2F8D2FE601C92ED82EAC16BD065E
:101B500054F49C2D8D2D6801092F182F9C2F8D2F4B
:101B6000E501A92EB82E15012C1A3D0A38016C1872
:101B70007D0877FE03C0719461947108410137FEBE
:101B800003C08FEF881A980A95948794C016D106DF
:101B900014F401E001C00FEF112707FD1095AC16FA
:101BA000BD06ACF02E2DFF2019F0AE01B60102C02B
:101BB000A601BE01C2010E94480D8618970897FE33
:101BC00004C0C00ED11E820C931C2196E8CFDF9179
:101BD000CF911F910F91FF90EF90DF90CF90BF902A
:101BE000AF909F908F907F906F905F904F903F90BD
:101BF0002F900895AF92BF92CF92DF92EF92FF9213
:101C00000F93CF93DF936C015B017A01E20EF11C1D
:101C1000EA0157FF0DC0C0E0D0E00AC0C417D507E5
:101C20007CF4202FAE01B501C6010E94480D21961B
:101C3000A70181E4E816F1048CF340E450E0EECF14
:101C4000DF91CF910F91FF90EF90DF90CF90BF90F9
:101C5000AF9008952F923F924F925F926F927F9232
:101C60008F929F92AF92BF92CF92DF92EF92FF92AC
:101C70000F931F93CF93DF9300D01F92CDB7DEB7A2
:101C80004C013B012A011E2D822F90E09B838A8309
:101C900022242394312C281A390A7C01F194E194EE
:101CA000F108EE0CFF1CAA24A394B12C302F317044
:101CB00039831F5F0270D02EC5010197EA81FB8135
:101CC0008E179F070CF054C037FC0AC08A819B8195
:101CD00001979B838A8392E0E90EF11C2E0C3F1C36
:101CE000C501880F991F0196280E391E39813323AB
:101CF000E1F02A81220F210F0C2DA2018A819B8104
:101D0000481B590BB501660D771DC4010E94FA0DE1
:101D10002A2D220F210FA2014A195B096A817B81BA
:101D2000660D771DC4010E94FA0DDD20E9F02A81BD
:101D3000220F210F0C2DA201EA81FB814E1B5F0BAC
:101D4000B3016A197B09C4010E94FA0D2A2D220FE2
:101D5000210FA2014A195B09B3018A819B81681B8B
:101D6000790BC4010E94FA0D9FEFA91AB90AA4CFFA
:101D70000F900F900F90DF91CF911F910F91FF90D7
:101D8000EF90DF90CF90BF90AF909F908F907F901B
:101D90006F905F904F903F902F9008958F929F92F9
:101DA000AF92BF92CF92EF92FF920F931F93CF9378
:101DB000DF93EC015B014A01122FC02E220F2F5F2F
:101DC000411B51090E94FA0DE12CF12C03E0212F57
:101DD000A401B501CE010E942A0EDF91CF911F917F
:101DE0000F91FF90EF90CF90BF90AF909F908F900A
:101DF0000895AF92BF92CF92DF92EF92FF920F932E
:101E0000CF93DF936C015A017B01E20EF11CEB01D1
:101E100077FF0DC0C0E0D0E00AC0C617D7077CF43A
:101E2000202FA501BE01C6010E94480D2196B701D1
:101E300081E8E816F1048CF360E870E0EECFDF9102
:101E4000CF910F91FF90EF90DF90CF90BF90AF9028
:101E50000895AF92BF92CF92DF92EF92FF920F93CD
:101E60001F93CF93DF93EC015B016A01F22E102FD9
:101E70000E2D0E94F90EA601410F511D415051092E
:101E80002F2DB501CE010E94F90E212FA601B5011B
:101E9000CE010E94FA0DB5016F0D711D61507109DF
:101EA000212FA601CE010E94FA0DDF91CF911F9143
:101EB0000F91FF90EF90DF90CF90BF90AF9008957B
:101EC0008F929F92AF92BF92CF92DF92EF920F9339
:101ED0001F93CF93DF936C015A01102FEB014B013D
:101EE000820E911CC815D9054CF40E2D212FA50189
:101EF000BE01C6010E94FA0D2196F4CFDF91CF9169
:101F00001F910F91EF90DF90CF90BF90AF909F9077
:101F10008F9008954496B62FB111BFEFFC010024B5
:101F2000B193B193B193B1930394D1F7089560E065
:101F30000C948A0F2F923F924F925F926F927F92F2
:101F40008F929F92AF92CF92DF92EF92FF920F9378
:101F50001F93CF93DF9300D000D0CDB7DEB79C8323
:101F60008B831B014A0139012801FA82E982EA2C9C
:101F70000E946F0D860129813A81A201B3018B81F4
:101F80009C810E946F0D84019101A60169817A8173
:101F90008B819C810E946F0D0F900F900F900F907E
:101FA000DF91CF911F910F91FF90EF90DF90CF9035
:101FB000AF909F908F907F906F905F904F903F90E9
:101FC0002F9008952F923F924F925F926F927F923F
:101FD0008F929F92AF92BF92CF92DF92EF92FF9239
:101FE0000F931F93CF93DF9300D000D01F92CDB7F4
:101FF000DEB7C982202E312CFB01E20DF31DF7FD67
:1020000013C1603871050CF00FC1FA01EE0DF11D1E
:10201000F7FD0AC1403451050CF006C1DA0157FF43
:1020200004C0AA27BB27A41BB50BFD01E770FF273F
:10203000FB83EA83FA0157FD3796DF0113E0B5957C
:10204000A7951A95E1F7BD83AC8357FF0CC0119794
:10205000BD83AC8348E050E0DA01EA81FB81AE1B2E
:10206000BF0BBB83AA834E2D469546954695C42E3D
:10207000D12C4E2D477019F0FFEFCF1ADF0A49011E
:102080004C815D815695542F442757954795480FAD
:10209000591F2C813D81F8E06F2E712C8A819B8124
:1020A000681A790AC901AC81BD818A1B9B0B8C150A
:1020B0009D050CF0B9C02830310509F4B5C02F3F9B
:1020C0009FEF39070CF4A3C0CB0100E010E0DA0168
:1020D000A058BF4F2D01021513050CF098C0803891
:1020E000910509F494C097FD8EC02F3FBFEF3B07C9
:1020F00009F494C0D801A80DB91D7A01E80EF91EA3
:10210000E981E13071F4FD01A491B0E00A8002C0E0
:10211000AA0FBB1F0A94E2F7F701B488AB29A48B7E
:1021200028C0F981F11114C0FD01A491EA2FF0E05B
:102130000A8002C0EE0FFF1F0A94E2F7E095F095C7
:10214000D7015496AC905497B12CEA21FB210FC0D3
:10215000FD01A491EA2FF0E00A8002C0EE0FFF1FFC
:102160000A94E2F7D7015496BC905497EB25549605
:10217000EC93AA81BB81AB2B09F445C02730310514
:1021800009F441C0F801E80DF91DB981B13089F4B5
:10219000E491F0E0062C02C0F595E7950A94E2F789
:1021A0007201E80EF91ED7015496BC905497EB29A2
:1021B00028C0B981B11115C0E491F0E0062C02C02D
:1021C000F595E7950A94E2F7E095F0957201E80E2F
:1021D000F91ED7015496AC905497B12CEA21FB21FB
:1021E00010C0E491F0E0062C02C0F595E7950A9442
:1021F000E2F77201E80EF91ED7015496BC9054978D
:10220000EB255496EC930F5F1F4F019664CF2F5F21
:102210003F4F820C931C40585F4F44CFAA81BB8133
:10222000AB2B09F0AFCFEFCF0F900F900F900F9027
:102230000F90DF91CF911F910F91FF90EF90DF9062
:10224000CF90BF90AF909F908F907F906F905F9056
:102250004F903F902F9008958F929F92AF92BF9290
:10226000CF92EF920F931F93CF93DF935C01CEEE4B
:10227000DFEF18E14C0184E1880E911C20E040E082
:10228000612F6C1BC5010E94A916C5010E94970F02
:10229000CC24C39400E1E02E08E528EE30E0AE0146
:1022A00064E170E0C5010E94E20FC4010E948D1636
:1022B0006BE170E080E090E00E942319C03F31F4B0
:1022C0006AEF70E080E090E00E9423192196C93106
:1022D000D105A1F66EEE72E080E090E00E94231935
:1022E00020E040E060E0C501DF91CF911F910F91A8
:1022F000EF90CF90BF90AF909F908F900C94A916C5
:10230000CF93DF93EC010E94FF150E94CF168078D7
:10231000803849F40E949D162FEF4FEF6FEFCE01EA
:102320000E94A916FFCFCE010E942C11249665E0D1
:10233000CE010E9495136DE0CE010E949513DF91AE
:10234000CF910C94EB122F923F924F925F926F922B
:102350007F928F929F92AF92BF92CF92DF92EF9235
:10236000FF920F931F93CF93DF93CDB7DEB72897DC
:102370000FB6F894DEBF0FBECDBF9E838D832A01BA
:10238000603871050CF06DC0403451050CF069C027
:10239000CB01A5E0CA9E800D911D112418161906C7
:1023A0000CF05FC0EC2DF0E0FC83EB83CA01F8E099
:1023B000CF9E800D911D1124181619060CF051C0E6
:1023C000A5E02A9FC00111245B0118861F82885650
:1023D0009E4F9A838983BF81B53041F0E981FA81AC
:1023E0008F819885E80FF91F149101C010E0320128
:1023F00028E0D22E10FF02C0F02E01C0FE2CF110FA
:102400000BC0E01209C01695DA94AB81BC816A0E4C
:102410007B1ED110EFCF19C01501822D8A198C15A2
:1024200090F74301882D86198C1558F42F2DA4019F
:10243000B1018D819E810E94480DBFEF8B1A9B0ACE
:10244000F1CFEFEF2E1A3E0AE8CF8F8198850196E3
:1024500098878F83AB81BC81AA0EBB1E069709F0BB
:10246000BACF28960FB6F894DEBF0FBECDBFDF916E
:10247000CF911F910F91FF90EF90DF90CF90BF9081
:10248000AF909F908F907F906F905F904F903F9014
:102490002F9008958F929F92AF92BF92CF92EF921A
:1024A0000F93CF93DF93EC01262F6A3099F4FC0150
:1024B000E85EFB4F208132978081918138E0239F35
:1024C000800D911D112491838083CC5EDB4F198296
:1024D00018824BC06D3009F448C0FC01EA5EFB4F26
:1024E000408151815C018CEEA81A8BEFB80AF5018E
:1024F000608171814E01F8EE8F1AFBEF9F0AF401A3
:10250000C080E12C01E0CE010E94A311F4012081E2
:10251000422F50E0F50180819181F6E02F9F800DE0
:10252000911D1124F501918380833596208122230A
:10253000E1F06AEF64039001659F300D112420588B
:102540003F4F281739078CF4E881F9810190F08119
:10255000E02D6AE0CE01DF91CF910F91EF90CF9007
:10256000BF90AF909F908F900994DF91CF910F9182
:10257000EF90CF90BF90AF909F908F900895FC0107
:10258000EC5EFB4F718360833296518340830895E4
:1025900044960C948D16CF93DF931F92CDB7DEB780
:1025A00069830E94CF166981982F962381E0961344
:1025B00080E00F90DF91CF910895E4E6F0E0808114
:1025C000877F8083E5E6F0E08081877F808381E0FC
:1025D0008093640708951092710782E090E00E9452
:1025E000242681110C94DD120895CF92DF92EF9290
:1025F000FF921F93CF93DF9390917207891708F092
:1026000065C067FD63C0E82FF0E0E859F84F14910A
:10261000E62FF0E0603330F4E85CF84FE491CE2F21
:10262000D0E006C0EE0FFF1FE85CF94FC591D491D2
:102630006E01E12CF12C60E074E284EF90E0A701E0
:1026400096010E9483252150310941095109211524
:10265000310581E04807510570F060E970ED83E0D5
:1026600090E0A70196010E9483252150310941097C
:10267000510993E001C091E01130C9F0133031F5F8
:1026800080919100887F892B8093910030939900ED
:1026900020939800D0937007C0936F0781E08093D8
:1026A0006E07809171008260809371000FC08091ED
:1026B0008100887F892B809381003093890020934B
:1026C000880080916F00826080936F00DF91CF91CE
:1026D0001F91FF90EF90DF90CF900895E82FF0E0EA
:1026E000E859F84FE491E13019F0E33069F00895CA
:1026F00080916F008D7F80936F0020917C07E09127
:102700007D07F0917E0708C010926E072091750733
:10271000E0917607F0917707808190E030E0209596
:1027200030958223932380830895CF93DF93C62F20
:1027300080917207823009F46BC0E82FF0E0E8590D
:10274000F84FD491A82FB0E0AD58B84F6C938F5F7D
:102750008093720761E08C2F0E94871AD13091F12B
:10276000D33009F055C010929000109291008091E2
:1027700091008860809391008091910081608093A6
:1027800091006C2F70E0FB01E459F44F249130E08C
:10279000220F331F2557344FF9018591949190935F
:1027A000770780937607FB01E35BF44F64916093B6
:1027B00075076CE380E00E94F51280E0DF91CF9115
:1027C0000C946E1310928000109281008091810011
:1027D0008860809381008091810081608093810076
:1027E0006C2F70E0FB01E459F44F249130E0220F8C
:1027F000331F2557344FF9018591949190937E07AB
:1028000080937D07FB01E35BF44F649160937C0749
:10281000DF91CF910895E0916507F0916607BF01C0
:102820006F5F7F4F7093660760936507A4919A2F3F
:10283000907F8A2F8F70903819F40E946E13EBCF1F
:10284000903961F4AF014E5F5F4F5093660740933C
:102850006507FB0164910E94F512DDCF903E49F4BB
:10286000809167079091680790936607809365074A
:10287000D2CF903F19F410927107089597FDCBCFF6
:10288000AF014E5F5F4F5093660740936507FB01B2
:102890006491262F30E03A2BA0916F07B09170071A
:1028A0000E94A8256C507E4F8F4F9F4F28EE33E03B
:1028B00040E050E00E9461252093690730936A0749
:1028C00040936B0750936C078091690790916A075A
:1028D000A0916B07B0916C07892B8A2B8B2B61F42D
:1028E00081E090E0A0E0B0E08093690790936A07F0
:1028F000A0936B07B0936C07089580916E078823AF
:1029000049F090917507E0917607F0917707808103
:102910008927808380917107882329F18091690735
:1029200090916A07A0916B07B0916C07892B8A2B55
:102930008B2BC9F08091690790916A07A0916B0772
:10294000B0916C070197A109B10980936907909331
:102950006A07A0936B07B0936C07892B8A2B8B2B8C
:1029600011F40C940B1408954F925F926F927F9222
:102970008F929F92AF92BF92CF92DF92EF92FF928F
:10298000CF93DF93EB0149015A0181E080936D07FA
:102990002B01612C712C60E072E18AE790E0A301C9
:1029A00092010E94832569017A0181E0C81AD10849
:1029B000E108F108C114D10481E0E806F10488F0CF
:1029C00068E478EE81E090E0A30192010E94832503
:1029D00069017A0181E0C81AD108E108F10893E0A1
:1029E00001C091E080918100887F892B80938100D4
:1029F00081149104A104B10471F0DE01AA0FBB1F80
:102A0000A50194010E94B72528EE33E040E050E094
:102A10000E94612503C02FEF3FEFA901D0928900EA
:102A2000C0928800209378073093790740937A0703
:102A300050937B0780916F00826080936F00DF91DD
:102A4000CF91FF90EF90DF90CF90BF90AF909F908D
:102A50008F907F906F905F904F9008951F920F928C
:102A60000FB60F9211242F933F938F939F93AF93A1
:102A7000BF93EF93FF9380916D07882309F44BC0B8
:102A80008091780790917907A0917A07B0917B07A0
:102A9000892B8A2B8B2B51F190917C07E0917D073C
:102AA000F0917E07808189278083809178079091BB
:102AB0007907A0917A07B0917B07181619061A06B4
:102AC0001B0694F58091780790917907A0917A0779
:102AD000B0917B070197A109B10980937807909382
:102AE0007907A0937A07B0937B071EC010926D07F9
:102AF00080916F008D7F80936F0020917C07E09123
:102B00007D07F0917E07808190E030E02095309540
:102B10008223932308C090917C07E0917D07F09178
:102B20007E07808189278083FF91EF91BF91AF91CC
:102B30009F918F913F912F910F900FBE0F901F90FB
:102B400018951F920F920FB60F9211242F933F9357
:102B50004F935F936F937F938F939F93AF93BF93A5
:102B6000EF93FF930E947D14FF91EF91BF91AF917E
:102B70009F918F917F916F915F914F913F912F9195
:102B80000F900FBE0F901F9018958EBD00000DB4D2
:102B900007FEFDCF8EB508950895E0918107F0916D
:102BA0008207808190917F07892B8083E091830742
:102BB000F09184079081809180078095892380839C
:102BC0000895E0918307F0918407808190918007B8
:102BD000892B8083E0918107F09182079081809119
:102BE0007F07809589238083E0918307F091840794
:102BF0009081809180078095892380830895CF9369
:102C0000DF930E942E0CC7E7D7E0BE01FE0184913E
:102C100022966F5F7F4FFB016491882319F00E9419
:102C2000871AF3CF61E086E00E94C01A61E070E08D
:102C300080E090E00E94231960E086E00E94C01AC4
:102C40006AE070E080E090E00E94231961E086E095
:102C50000E94C01AE8E7FBE0E491F0E0EE0FFF1FEE
:102C6000E557F44F8591949190938407809383075F
:102C7000E9E5FBE0E491E0938007E0E7FBE0E49125
:102C8000F0E0EE0FFF1FE557F44F8591949190937C
:102C9000820780938107E1E5FBE0E491E0937F0701
:102CA0008CB58C7F8CBD8DB581608DBD0E94E1158A
:102CB000CAE6D7E0F7E0C737DF0731F0FE018491BD
:102CC0000E94C5152196F6CF0E94CD158091640013
:102CD00081608093640080916400826080936400CE
:102CE00080916400806880936400809164008064B7
:102CF0008093640080916500816080936500DF911E
:102D0000CF91089583B7817F83BF83B7816083BFED
:102D1000889583B78E7F83BF089520E030E0FC0163
:102D20004191CF014EBD119C119C119C2F5F3F4FD3
:102D30002115F4E03F0799F70895CF93DF93C0E0A2
:102D4000D4E080E00E94C5152197D9F7DF91CF919B
:102D500008950F931F93CF93DF9300D0CDB7DEB7C5
:102D60000FEF10E0C801861B9109BC018AE02A839D
:102D700049830E94B3194981B801641B71098BE032
:102D80000E94B3192A81B801621B710989E00F9072
:102D90000F90DF91CF911F910F910C94B3198FB1C8
:102DA0004CB123B150E0409550954074552733E025
:102DB000559547953A95E1F730E02095309520718B
:102DC00033273595279535952795242B8095807F3A
:102DD000822B08958F929F92AF92BF92CF92DF92F3
:102DE000EF92FF920F931F93CF93DF93EC018B0130
:102DF00060E4C8010E94CB128823B9F0C880D98052
:102E0000EA80FB802AE939E949E95FE3C701B601B5
:102E10000E947F2387FF29C02FE832EC45EF5CE357
:102E2000C701B6010E941B231CC060E2C8010E94BA
:102E3000CB128823D1F0C880D980EA80FB802AE9B0
:102E400039E949E95FEBC701B6010E94CE241816A3
:102E500064F42FE832EC45EF5CE3C701B6010E9451
:102E60001A23688379838A839B8360E1C8010E9467
:102E7000CB12811106C064E0C8010E94CB128823E6
:102E800011F120E030E040E85FEB6C817D818E81C4
:102E90009F810E947F2387FF08C080E090E0A0E828
:102EA000BFEB8C839D83AE83BF832FE135E84BE678
:102EB0005FE3688179818A819B810E94D224688343
:102EC00079838A839B8368E0C8010E94CB128823A0
:102ED00061F08885882349F080E090E0A0E2B0ECC2
:102EE0008C839D83AE83BF8318862AE939E949E143
:102EF0005EE36C817D818E819F810E941B236C83A8
:102F00007D838E839F832C89222379F09F772DECFC
:102F10003CEC4CE85FEB0E94D2246C837D838E8373
:102F20009F8321E028871C8A0FC02B89222319F157
:102F30009F772DEC3CEC4CE85FE30E94D2246C833D
:102F40007D838E839F831B8A9F7720E030E048E457
:102F500052E40E94D22420E030E048EC53E40E9486
:102F60001B230E94F0232AE030E040E050E0C8013B
:102F700004960E94B4148A898823A9F088819981D3
:102F8000AA81BB81BC01CD019F7720E030E040ECFD
:102F90005FEB0E94D224688379838A839B8321E03C
:102FA00028871A8A17C08989882359F188819981CD
:102FB000AA81BB81BC01CD019F7720E030E040ECCD
:102FC0005FE30E94D224688379838A839B8321E014
:102FD0002887198A9F7720E030E048E452E40E9475
:102FE000D22420E030E048EC53E40E941B230E94EE
:102FF000F0232AE030E040E050E0C80104960E944F
:10300000B41422E538EB4EE75FE36C817D818E815D
:103010009F810E94D2244B015C016C837D838E834F
:103020009F8328E431EE4AE75FE3688179818A81F2
:103030009B810E94D2246B017C01688379838A83FF
:103040009B832DEC3CEC4CE050E4C501B4010E94A4
:10305000CE2487FD08C08DEC9CECACE0B0E48C8302
:103060009D83AE83BF8320E030E040E450E4C7019D
:10307000B6010E94CE2418162CF480E090E0A0E463
:10308000B0E40EC020E030E040E450ECC701B601EF
:103090000E947F2387FF08C080E090E0A0E4B0ECAE
:1030A00088839983AA83BB832C813D814E815F8174
:1030B0006D857E858F8598890E941B236D877E870D
:1030C0008F87988B288139814A815B8169857A85D0
:1030D0008B859C850E941B2369877A878B879C87B9
:1030E000DF91CF911F910F91FF90EF90DF90CF90E4
:1030F000BF90AF909F908F9008950F931F93CF93A1
:10310000DF93EC018A01882777FD8095982F0E9434
:103110001E2469877A878B879C87B801882777FD6B
:103120008095982F0E941E246D877E878F87988BAD
:103130001C821D821E821F82188219821A821B82A3
:103140001886198A1A8A1B8A1C8ADF91CF911F91CF
:103150000F9108951F920F920FB60F9211242F9383
:103160003F938F939F93AF93BF9380919B079091D1
:103170009C07A0919D07B0919E0730919A0723E08C
:10318000230F2D3720F40196A11DB11D05C026E89F
:10319000230F0296A11DB11D20939A0780939B07D0
:1031A00090939C07A0939D07B0939E0780919F07E3
:1031B0009091A007A091A107B091A2070196A11D2F
:1031C000B11D80939F079093A007A093A107B09390
:1031D000A207BF91AF919F918F913F912F910F9037
:1031E0000FBE0F901F9018952FB7F89460919B0712
:1031F00070919C0780919D0790919E072FBF089525
:103200003FB7F89480919F079091A007A091A107E4
:10321000B091A20726B5A89B05C02F3F19F00196D3
:10322000A11DB11D3FBF6627782F892F9A2F620FEE
:10323000711D811D911D42E0660F771F881F991F28
:103240004A95D1F708958F929F92AF92BF92CF92F5
:10325000DF92EF92FF926B017C010E9400194B01FB
:103260005C01C114D104E104F104F1F00E946E216B
:103270000E940019681979098A099B09683E734000
:103280008105910570F321E0C21AD108E108F10827
:1032900088EE880E83E0981EA11CB11CC114D104D5
:1032A000E104F10429F7DDCFFF90EF90DF90CF909C
:1032B000BF90AF909F908F900895789484B582606E
:1032C00084BD84B5816084BD85B5826085BD85B5CA
:1032D000816085BDEEE6F0E0808181608083E1E879
:1032E000F0E01082808182608083808181608083B1
:1032F000E0E8F0E0808181608083E1E9F0E08081B6
:1033000082608083808181608083E0E9F0E0808159
:1033100081608083E1ECF0E0808184608083808143
:1033200082608083808181608083E3ECF0E0808133
:1033300081608083E0ECF0E0808182608083E2EC59
:10334000F0E0808181608083EAE7F0E08081846042
:10335000808380818260808380818160808380819E
:103360008068808308951F93CF93DF93182FEB011C
:1033700061E00E94871A209711F460E004C0CF3FFB
:10338000D10539F461E0812FDF91CF911F910C9429
:10339000C01AE12FF0E0E25DF44F449150E0FA01F1
:1033A0003197EF30F10508F06CC0EA5AFF4F0C94EA
:1033B000A22584B5806884BDC7BD68C084B580621D
:1033C00084BDC8BD63C08091800080688093800008
:1033D000D0938900C093880059C08091800080629A
:1033E00080938000D0938B00C0938A004FC080915F
:1033F0008000886080938000D0938D00C0938C0003
:1034000045C080919000806880939000D09399008F
:10341000C09398003BC080919000806280939000A0
:10342000D0939B00C0939A0031C080919000886037
:1034300080939000D0939D00C0939C0027C0809102
:10344000C00080688093C0008091C0008F7B809313
:10345000C000C093CF001AC08091C00080628093EA
:10346000C000C093D00012C08091C20088608093D9
:10347000C2008091C2008B7F8093C200C093D200B3
:1034800005C0C038D1050CF07DCF77CFDF91CF914B
:103490001F91089590E0FC013197EF30F105B0F5F0
:1034A000EB59FF4F0C94A225809180008F7703C0C9
:1034B000809180008F7D80938000089580918000AE
:1034C000877FF9CF84B58F7702C084B58F7D84BDA7
:1034D0000895809190008F7707C0809190008F7D34
:1034E00003C080919000877F809390000895809121
:1034F000C0008F7703C08091C0008F7D8093C00093
:1035000008958091C200877F8093C2000895CF9371
:10351000DF9390E0FC01E35BF44F2491FC01E4595C
:10352000F44F8491882349F190E0880F991FFC01A2
:10353000E756F44FA591B4918557944FFC01C5917E
:10354000D4919FB7611108C0F8948C912095822383
:103550008C93888182230AC0623051F4F8948C9154
:10356000322F309583238C938881822B888304C0EB
:10357000F8948C91822B8C939FBFDF91CF9108950B
:103580000F931F93CF93DF931F92CDB7DEB7282FF2
:1035900030E0F901E25DF44F8491F901E35BF44F0F
:1035A0001491F901E459F44F04910023C9F08823E0
:1035B00021F069830E944A1A6981E02FF0E0EE0F42
:1035C000FF1FE557F44FA591B4919FB7F8948C91E4
:1035D000611103C01095812301C0812B8C939FBF83
:1035E0000F90DF91CF911F910F91089508950E9440
:1035F0005D190E94F61A83EA97E00E9409210E9451
:103600003F06C0E0D0E00E9454062097E1F30E94FC
:103610000000F9CFCF92DF92EF92FF920F931F93AA
:10362000CF93DF937C016A01EB0100E010E00C1501
:103630001D0571F06991D701ED91FC910190F08128
:10364000E02DC7010995892B19F00F5F1F4FEFCFB0
:10365000C801DF91CF911F910F91FF90EF90DF9004
:10366000CF9008956115710581F0DB010D90002068
:10367000E9F7AD0141505109461B570BDC01ED91B3
:10368000FC910280F381E02D099480E090E00895A0
:103690000C94321BDC01ED91FC910190F081E02D46
:1036A00009948F929F92AF92BF92DF92EF92FF9216
:1036B0000F931F93CF93DF93CDB7DEB7A1970FB6CC
:1036C000F894DEBF0FBECDBF7C01F42FD52ECB0109
:1036D00019A2223008F42AE08E010F5D1F4F822EBE
:1036E000912CA12CB12C6F2F7D2DA50194010E944E
:1036F0006125F22FD32ECA01015011096A3014F44A
:10370000E0E301C0E7E3E60FD801EC93232B242B81
:10371000252B49F7B801C7010E94321BA1960FB6AD
:10372000F894DEBF0FBECDBFDF91CF911F910F91F7
:10373000FF90EF90DF90BF90AF909F908F90089593
:10374000CF92DF92EF92FF920F931F93CF93DF936D
:10375000EC016A017B012115310579F4E881F981D9
:103760000190F081E02D642FDF91CF911F910F9197
:10377000FF90EF90DF90CF9009942A303105E9F463
:1037800077FF1AC06DE20E944A1B8C01442755271F
:10379000BA014C195D096E097F092AE0CE010E9429
:1037A000511B800F911FDF91CF911F910F91FF90BF
:1037B000EF90DF90CF9008952AE0B701A601CE01E7
:1037C000DF91CF911F910F91FF90EF90DF90CF90FD
:1037D0000C94511B4F925F926F927F928F929F92A7
:1037E000AF92BF92CF92DF92EF92FF920F931F930F
:1037F000CF93DF93EC016A017B01B22E9A01AB01FA
:10380000C701B6010E943525882319F06DE173E0E8
:1038100027C026013701E89477F82FEF3FEF4FE7F5
:103820005FE7C301B2010E94352581110DC02FEF62
:103830003FEF4FE75FE7C301B2010E947F231816F5
:103840001CF461E273E00CC02FEF3FEF4FE75FE441
:10385000C701B6010E94CE241816ACF465E273E0ED
:10386000CE01DF91CF911F910F91FF90EF90DF90EC
:10387000CF90BF90AF909F908F907F906F905F9010
:103880004F900C94321B2FEF3FEF4FE75FECC701D7
:10389000B6010E947F2387FDE1CF20E030E0A9013F
:1038A000C701B6010E947F2387FF0AC06DE2CE01E7
:1038B0000E944A1B8C01F7FAF094F7F8F09402C0CA
:1038C00000E010E0A12C60E070E080E09FE3AB142A
:1038D00041F020E030E040E251E40E948323A394D1
:1038E000F6CF9B01AC01C701B6010E941B236B01FF
:1038F0007C010E94F0232B013C010E941C249B01AF
:10390000AC01C701B6010E941A236B017C012AE0B9
:10391000B301A201CE010E94511B080F191FBB2049
:1039200039F069E273E0CE010E94321B080F191FC3
:103930007B2C772041F120E030E040E251E4C701E8
:10394000B6010E94D2246B017C010E94EB234B0143
:10395000AA2497FCA094BA2C2AE030E0B501A40177
:10396000CE010E94A01B080F191FC501B4010E94BF
:103970001E249B01AC01C701B6010E941A236B01F2
:103980007C017A94D6CFC801DF91CF911F910F911E
:10399000FF90EF90DF90CF90BF90AF909F908F906F
:1039A0007F906F905F904F9008950C94EA1B615048
:1039B00030F02091F100FC0120830196F8CF289887
:1039C00084E68093AC0708954091A7075091A8071B
:1039D0002091A5073091A60742175307B4F49091A0
:1039E000E8009570E1F39091E80092FD19C0809392
:1039F000F1008091A7079091A80701968F739927EE
:103A0000892B19F48EEF8093E8008091A70790919D
:103A1000A80701969093A8078093A70781E00895CF
:103A200080E00895CF92DF92EF92FF920F931F9361
:103A3000CF93DF931F92CDB7DEB7082F162FF42E4A
:103A4000862F880F8E5F99830E94E41C83E00E947A
:103A5000E41CE02EC02E9981D92E8C2D8E19811751
:103A600098F4F601F7FE02C0849101C080810E94A3
:103A7000E41C082F80E00E94E41C8023FFEFCF1A93
:103A8000DF0A8111EACF01C081E00F90DF91CF9171
:103A90001F910F91FF90EF90DF90CF90089580914C
:103AA000D70081608093D70080EA8093D80089B5E1
:103AB000806189BD89B5826089BD09B400FEFDCFF2
:103AC00061E070E080E090E00E9423198091D800CE
:103AD0008F7C80618093D8008091E000807F80930C
:103AE000E0000895CF93DF931F92CDB7DEB7198220
:103AF000CE0101960E94CE210E940623BE016F5F77
:103B00007F4F0E947F2289810F90DF91CF9108958E
:103B10002FB7FC012083F89467706093E900089543
:103B2000CF93DF931F92CDB7DEB7682FCE010196FA
:103B30000E94881D8091F20099819FBF0F90DF91B4
:103B4000CF910895FF920F931F93CF93DF9300D0EF
:103B5000CDB7DEB7F62E8A019091AB07992311F00D
:103B600057FF03C08FEF9FEF2BC0682FCE01019648
:103B70007A830E94881D8091F20090E0A8017A81EA
:103B8000801791070CF4AC01EF2DF72FF40E84E6AB
:103B9000FE1639F028988093AC079091F10091932C
:103BA000F7CF4115510521F08091F200882321F0D3
:103BB00089818FBFCA0104C08BE68093E800F8CFEB
:103BC0000F900F90DF91CF911F910F91FF9008956B
:103BD000CF93DF931F92CDB7DEB741E050E0BE0137
:103BE0006F5F7F4F0E94A21D019719F4898190E0B9
:103BF00002C08FEF9FEF0F90DF91CF910895CF9389
:103C0000DF931F92CDB7DEB7682FCE0101960E94D9
:103C1000881D9091E800892F807295FF04C09091D3
:103C2000F20080E4891B99819FBF0F90DF91CF91B3
:103C300008956F927F928F929F92AF92BF92CF9290
:103C4000DF92EF92FF920F931F93CF93DF931F9218
:103C5000CDB7DEB7782E7B01C42EB52E8091AB0791
:103C6000882369F0042F152F8AEFD82E872D8072B4
:103C7000982E9AE3A92E872D8074882E11C08FEF7D
:103C80009FEF57C0872D0E94FF1D682E81110CC029
:103C9000DA94A9F361E070E080E090E00E942319DB
:103CA0000115110579F73BC0282F30E002171307E3
:103CB0000CF4602E672DCE0101960E94881D809124
:103CC000E80085FF29C0262D30E0021B130B992048
:103CD00039F06A948FEF6816B1F01092F100F9CFC5
:103CE000F701862D77FE07C0815058F0949190938C
:103CF000F1003196F9CF815020F091919093F1002D
:103D0000FACFE20EF31E8091E80085FF0FC0011587
:103D1000110511F481100AC089818FBFC1CF5D9850
:103D200084E68093AD078C2D9B2D03C0A092E80004
:103D3000F3CF0F90DF91CF911F910F91FF90EF90F4
:103D4000DF90CF90BF90AF909F908F907F906F90BB
:103D500008951092E9001092A8071092A707909377
:103D6000A6078093A5070895CF92DF92FF920F9345
:103D70001F93CF93DF9300D0CDB7DEB7F82E8A0123
:103D80006B0101151105B1F0F601F7FE02C0849137
:103D900001C0808149835A830E94E41C01501109AB
:103DA000FFEFCF1ADF0A49815A818111EACF8FEFE5
:103DB0009FEF01C0CA010F900F90DF91CF911F912B
:103DC0000F91FF90DF90CF900895BF92CF92DF9236
:103DD000EF92FF920F931F93CF93DF936C018B01B0
:103DE000EB013BEFB32E2097C1F07E01C134D1052A
:103DF0001CF020E4E22EF12C8091E80082FFFCCF41
:103E0000C8018C1B9D0B6E2D8C0D9D1D0E94D71C17
:103E1000B092E800CE19DF09E6CFC801DF91CF915B
:103E20001F910F91FF90EF90DF90CF90BF9008957A
:103E30001F920F920FB60F921124DF92EF92FF9212
:103E40000F931F932F933F934F935F936F937F93A2
:103E50008F939F93AF93BF93EF93FF93CF93DF9392
:103E6000CDB7DEB76C97DEBFCDBF1092E900809171
:103E7000E80083FF23C168E0CE0145960E94D71C6D
:103E800082EF8093E8003D8937FF05C08091E8000C
:103E900080FFFCCF03C08EEF8093E800832F8076F5
:103EA00009F0F0C02E894F89D88C21110CC0303810
:103EB00029F48091AA078093F10002C01092F100CA
:103EC0001092F100F4C0842F90E09D29213049F434
:103ED0003111EDC0019709F0EAC08091AA078D7FEA
:103EE0000AC0233059F43111E2C0019709F0DFC054
:103EF0008091AA0782608093AA07D9C0253041F437
:103F00008091E80080FFFCCF40684093E300CFC081
:103F1000263009F08DC0EB8CFC8C22E0D2122CC034
:103F200080E090E00E94A91E0E94721D99E08E011F
:103F30000F5F1F4FF801292F11922A95E9F79983F6
:103F4000DA8291E09E8390EA98879AEF9987209190
:103F5000A7073091A807275F3F4F3C832B838D83B2
:103F6000C7010E94A91E49E050E0B80180E00E940C
:103F7000B41E0E94721D9BC0C7010E94A91E0E9410
:103F80000623BE016B5E7F4F0E94A822009719F0A6
:103F90000CF08DC090C081E0D8120EC08B8D9C8D2E
:103FA000089719F481E08093A4078091A4078111F8
:103FB0002FC069EB7BE031C0E3E0DE127CC08F896B
:103FC000882349F1823029F440E867E087ED9BE0DF
:103FD0001CC0813029F440E86BE08BEC9BE015C0FD
:103FE000833009F068C00E9406238E010F5F1F4FC7
:103FF000B8010E94C722F80101900020E9F731972B
:10400000E01BF10B40E06E2FC8010E94121D4DC055
:1040100067EA7BE002C06FED7BE06115710509F492
:104020004AC0FB01449150E080E80E94B41E3FC0AA
:10403000273009F440C0283021F481E08093F1005A
:1040400036C02930A1F53370B1F5EFE0F1E081E041
:1040500021E036E39081992361F08093E900209379
:10406000EB0091919093EC003093ED008F5F8730DF
:1040700089F78EE78093EA001092EA008F89809397
:10408000AB0715C08B8D9C8D0E94A91E898D811157
:1040900005C0CE0145960E94D92107C00E94062383
:1040A000BE016B5E7F4F0E94E622882321F08EEFD7
:1040B0008093E80003C081E28093EB006C960FB61A
:1040C000F894DEBF0FBECDBFDF91CF91FF91EF918E
:1040D000BF91AF919F918F917F916F915F914F9120
:1040E0003F912F911F910F91FF90EF90DF900F90D4
:1040F0000FBE0F901F9018958093E9008091F200F9
:10410000882319F08AE38093E80008951F920F92A4
:104110000FB60F9211242F933F934F935F936F939A
:104120007F938F939F93AF93BF93CF93EF93FF931F
:10413000C091E1008091E100837F8093E100809352
:10414000E100C3FF0FC01092E90081E08093EB0013
:104150001092EC0082E38093ED001092AB0788E0B0
:104160008093F000C2FF19C083E00E947C20809100
:10417000AD07882339F08091AD0781508093AD075A
:10418000882389F18091AC07882339F08091AC07AE
:1041900081508093AC07882341F1C4FF10C0809107
:1041A000E2008E7E81608093E2008091E1008F7E4C
:1041B0008093E1008091A9078E7E806111C0C0FFCD
:1041C00016C08091E2008E7E80618093E200809133
:1041D000E1008E7E8093E1008091A9078E7E816050
:1041E0008093A90704C05D9ACDCF289AD6CFFF91BE
:1041F000EF91CF91BF91AF919F918F917F916F91EF
:104200005F914F913F912F910F900FBE0F901F9094
:1042100018951092AB071092AA071092A9070E9456
:104220004F1D8091E1008E7E8093E1008DE08093B0
:10423000E200559A209AEEEFFFE7859194918B3F2B
:104240009C4D19F481E08093FE0708956115710576
:104250008105910511F00C9416260895CF93DF93F4
:1042600000D000D0CDB7DEB79B01AC016115710560
:104270008105910569F069833A834B835C830E94D1
:10428000112629813A814B815C810E94832503C0DC
:1042900060E070E0CB010F900F900F900F90DF91D6
:1042A000CF910895CF92DF92EF92FF926B017C0144
:1042B000621773078407950764F4CA01B9016C1982
:1042C0007D098E099F090E942E216C0D7D1D8E1D7A
:1042D0009F1DFF90EF90DF90CF90089508950E946A
:1042E0001F26CF93DF931F92CDB7DEB76983DC0122
:1042F000ED91FC910280F381E02D41E050E0BE01A0
:104300006F5F7F4F09950F90DF91CF910895CF9305
:10431000DF93EC018C859D8597FF05C082E00E94AC
:10432000E81D9D878C878C859D85DF91CF910895B1
:1043300083E00C947C20FC018485958597FD06C064
:1043400082E00E94901D90E00196089582E00E9414
:10435000901D90E00895FC018485958597FD05C02A
:104360002FEF3FEF35872487089582E00C94E81DF6
:10437000CF93DF93EC0180912001882331F083E01B
:104380000E94191E1816190634F081E090E09B83F4
:104390008A8380E090E0DF91CF910895FC01208135
:1043A0002E5F208342E450E063EE7BE080E80C94D3
:1043B000B41EFC0121818081813A59F4213209F037
:1043C0004BC047E050E069E171E080E00E94B41E1C
:1043D0005EC0813209F040C0233289F4838190E0CD
:1043E000982F88273281832BA0E0B0E080931501BD
:1043F00090931601A0931701B09318010FC02032BB
:1044000039F467E070E089E191E00E94E51E09C09F
:10441000223221F482818093200103C02D7F20323B
:10442000B1F58091FE07811103C0E0E0F8E002C021
:10443000EEEFFAE08091190190911A01A0911B0111
:10444000B0911C01803B9440A105B10511F580910C
:10445000200180FF03C01DC080E00895EE3F2AE0E8
:10446000F20731F0808191819093FF0A8093FE0AD8
:1044700087E797E7918380832BE088E190E00FB690
:10448000F894A895809360000FBE2093600081E0AF
:10449000089588E10FB6F894809360001092600050
:1044A0000FBEA895EE3F8AE0F80739F08091FE0A2A
:1044B0009091FF0A91838083EACF1092FF0A1092B5
:1044C000FE0AE5CF1092B1071092B00788EE93E094
:1044D000A0E0B0E08093B2079093B307A093B40735
:1044E000B093B50787E393E09093AF078093AE074F
:1044F0008FEF9FEF9093BB078093BA070895EF92D9
:10450000FF920F931F93CF93DF937B01FC01C28136
:10451000D38100E010E0209781F0E881F9810280EA
:10452000F381E02DB701CE01099597FD08C0080F72
:10453000191F0884D985C02DEECFC80102C08FEFA6
:104540009FEFDF91CF911F910F91FF90EF90089512
:104550000F931F93CF93DF938B01FC01C281D38113
:10456000209771F0E881F9810480F581E02DB80190
:10457000CE010995009731F40884D985C02DF0CF7C
:1045800080E090E0DF91CF911F910F9108950F93FC
:104590001F93CF93DF938B01FC01C281D3812097BE
:1045A00071F0E881F9810680F781E02DB801CE0134
:1045B0000995080F111D0884D985C02DF0CFF80189
:1045C0001082DF91CF911F910F9108950F931F9348
:1045D000CF93DF938B01FC01C281D381209771F0CF
:1045E000E881F9810190F081E02DB801CE010995B3
:1045F000811106C00884D985C02DF0CF80E001C0AC
:1046000081E0DF91CF911F910F9108958091030870
:1046100081110DC082E08093FF0784E08093000841
:10462000109202081092010881E0809303088FEF36
:1046300097E008955058BB27AA270ED075C166D1C0
:1046400030F06BD120F031F49F3F11F41EF45BC1C8
:104650000EF4E095E7FB51C1E92F77D180F3BA174B
:10466000620773078407950718F071F49EF58FC1F0
:104670000EF4E0950B2EBA2FA02D0B01B90190017D
:104680000C01CA01A0011124FF27591B99F0593FC1
:1046900050F4503E68F11A16F040A22F232F342F09
:1046A0004427585FF3CF469537952795A795F04057
:1046B0005395C9F77EF41F16BA0B620B730B840B6C
:1046C000BAF09150A1F0FF0FBB1F661F771F881F24
:1046D000C2F70EC0BA0F621F731F841F48F487957C
:1046E00077956795B795F7959E3F08F0B3CF93956B
:1046F000880F08F09927EE0F979587950895D9D0E0
:1047000008F481E008950CD00FC107D140F0FED02D
:1047100030F021F45F3F19F0F0C0511139C1F3C0FE
:1047200014D198F39923C9F35523B1F3951B550B75
:10473000BB27AA2762177307840738F09F5F5F4F74
:10474000220F331F441FAA1FA9F333D00E2E3AF0B5
:10475000E0E830D091505040E695001CCAF729D0CF
:10476000FE2F27D0660F771F881FBB1F261737071E
:104770004807AB07B0E809F0BB0B802DBF01FF274E
:1047800093585F4F2AF09E3F510568F0B6C000C1B4
:104790005F3FECF3983EDCF3869577956795B79588
:1047A000F7959F5FC9F7880F911D9695879597F9A3
:1047B0000895E1E0660F771F881FBB1F621773071C
:1047C0008407BA0720F0621B730B840BBA0BEE1F31
:1047D00088F7E095089504D06894B111D9C0089580
:1047E000BCD088F09F5790F0B92F9927B751A0F00F
:1047F000D1F0660F771F881F991F1AF0BA95C9F775
:1048000012C0B13081F0C3D0B1E00895C0C0672FAD
:10481000782F8827B85F39F0B93FCCF38695779524
:104820006795B395D9F73EF490958095709561950D
:104830007F4F8F4F9F4F0895E89409C097FB3EF438
:1048400090958095709561957F4F8F4F9F4F9923DD
:10485000A9F0F92F96E9BB279395F695879577955B
:104860006795B795F111F8CFFAF4BB0F11F460FF1B
:104870001BC06F5F7F4F8F4F9F4F16C0882311F073
:1048800096E911C0772321F09EE8872F762F05C087
:10489000662371F096E8862F70E060E02AF09A9522
:1048A000660F771F881FDAF7880F9695879597F917
:1048B0000895990F0008550FAA0BE0E8FEEF1616B1
:1048C0001706E807F907C0F012161306E407F50704
:1048D00098F0621B730B840B950B39F40A2661F078
:1048E000232B242B252B21F408950A2609F4A1401B
:1048F000A6958FEF811D811D089597F99F6780E828
:1049000070E060E008959FEF80EC089500240A9421
:104910001616170618060906089500240A9412169A
:104920001306140605060895092E0394000C11F4CD
:10493000882352F0BB0F40F4BF2B11F460FF04C07A
:104940006F5F7F4F8F4F9F4F089557FD9058440FD3
:10495000551F59F05F3F71F04795880F97FB991FDE
:1049600061F09F3F79F0879508951216130614069B
:10497000551FF2CF4695F1DF08C016161706180628
:10498000991FF1CF86957105610508940895E89403
:10499000BB2766277727CB0197F908958ADF08F4AC
:1049A0008FEF08950BD0C0CFB1DF28F0B6DF18F03D
:1049B000952309F0A2CFA7CF1124EACFC6DFA0F339
:1049C000959FD1F3950F50E0551F629FF001729FA4
:1049D000BB27F00DB11D639FAA27F00DB11DAA1FC3
:1049E000649F6627B00DA11D661F829F2227B00D10
:1049F000A11D621F739FB00DA11D621F839FA00D9B
:104A0000611D221F749F3327A00D611D231F849FEA
:104A1000600D211D822F762F6A2F11249F57504041
:104A20008AF0E1F088234AF0EE0FFF1FBB1F661FDC
:104A3000771F881F91505040A9F79E3F510570F095
:104A40005CCFA6CF5F3FECF3983EDCF3869577957D
:104A50006795B795F795E7959F5FC1F7FE2B880F90
:104A6000911D9695879597F9089523DF880B990BEB
:104A70000895AA1BBB1B51E107C0AA1FBB1FA617A5
:104A8000B70710F0A61BB70B881F991F5A95A9F7F7
:104A900080959095BC01CD01089597FB072E16F4E3
:104AA000009407D077FD09D00E94392507FC05D076
:104AB0003EF4909581959F4F0895709561957F4F35
:104AC0000895A1E21A2EAA1BBB1BFD010DC0AA1F4F
:104AD000BB1FEE1FFF1FA217B307E407F50720F067
:104AE000A21BB30BE40BF50B661F771F881F991FE2
:104AF0001A9469F760957095809590959B01AC012B
:104B0000BD01CF010895052E97FB1EF400940E946D
:104B10009A2557FD07D00E94612507FC03D04EF46B
:104B20000C949A2550954095309521953F4F4F4FC5
:104B30005F4F089590958095709561957F4F8F4F49
:104B40009F4F0895EE0FFF1F0590F491E02D0994FB
:104B5000A29FB001B39FC001A39F700D811D1124BE
:104B6000911DB29F700D811D1124911D08950E9409
:104B7000A825A59F900DB49F900DA49F800D911D19
:104B8000112408958F929F92AF92BF92CF92DF929D
:104B9000EF92FF92CF93DF93EC01688179818A8154
:104BA0009B81611571058105910521F464E279ED20
:104BB0008BE597E02DE133EF41E050E00E94832543
:104BC00049015A019B01AC01A7EAB1E40E94B72553
:104BD0006B017C01ACEEB4EFA50194010E942F267D
:104BE000C60ED71EE81EF91EF7FE06C081E0C81AE1
:104BF000D108E10880E8F80AC882D982EA82FB82FB
:104C0000C701B6019F77DF91CF91FF90EF90DF90C2
:104C1000CF90BF90AF909F908F9008950E94C22533
:104C2000089580E091E00E94C225089560930001FC
:104C3000709301018093020190930301089581E034
:104C400090E0F8940C943426F999FECF92BD81BD82
:104C5000F89A992780B50895B7FF0C94B7250E945C
:0C4C6000B725821B930B0895F894FFCF3A
:104C6C00010000002801200020002B04010100C1DC
:104C7C008081000000FFFFFFFF00E100000000004A
:104C8C0000583A0020593A0000004000FF04000090
:104C9C0000000004400040003600060A0180003687
:104CAC0000060A018A003600060A01940036000646
:104CBC000A01D4003600060A01DE003600060A019D
:104CCC00F7003600060A0101013600060A01FE0053
:104CDC004000C0040037013600060A0141013600CD
:104CEC00060A014B013600060A0155013600060A78
:104CFC00015F013600060A0169013600060A014D02
:104D0C00012C000E040089012C00021403BE01408A
:104D1C0000040E00BE014E00400400FA01400004E5
:104D2C000E00C2014400060A01CE014400060A012D
:104D3C00DA014400060A01E6014400060A01F20108
:104D4C004400060A01FE014000C8040008023600B7
:104D5C00060A0112023600060A011C023600060A77
:104D6C000126023600060A0130023600060A0175D9
:104D7C00023600060A017D0236000B0A007F022C67
:104D8C0000060A0187022C000B0A00870236000B72
:104D9C000A0089022200060A01910236000B0A0061
:104DAC0093022C00060A019D023600060A01B2028B
:104DBC0027000A190200004000C00400400028002F
:104DCC00200400600010001E04008000F4FF1C048E
:104DDC0000A000DCFFC00400E000C4FF10040000D1
:104DEC0001ACFF0E0400200194FF0C040040017C78
:104DFC00FF600400600164FF10040080014CFF0E92
:104E0C000400600134FF0C040080011CFF4004000E
:104E1C009A0103FF0A1902ACFF4000940400400001
:104E2C001C0004280000001C00400400E0FF1C00D3
:104E3C00200E00C0FF1C00201400A0FF1C00201836
:104E4C000040FF80006C0400ACFF44000440006094
:104E5C00FF5F002017007CFF3F0004200040FF4054
:104E6C000004400040FF3C004004006AFF46000A7A
:104E7C001902000000004A120A1B0D0A006E616E36
:104E8C0000696E66006F7666002E00000000006FF1
:104E9C00210A1B000000007121B8219B21AB218746
:044EAC002198210028
:00000001FF
