:100000000C94670E0C948F0E0C948F0E0C948F0E24
:100010000C948F0E0C948F0E0C948F0E0C948F0EEC
:100020000C948F0E0C948F0E0C9419300C94AB2EF4
:100030000C948F0E0C948F0E0C948F0E0C948F0ECC
:100040000C948F0E0C943A250C948F0E0C948F0EFA
:100050000C948F0E0C948F0E0C948F0E0C944429DC
:100060000C948F0E0C948F0E0C948F0E0C948F0E9C
:100070000C948F0E0C948F0E0C948F0E0C948F0E8C
:100080000C94AD250C948F0E0C948F0E0C948F0E47
:100090000C948F0E0C948F0E0C948F0E0C948F0E6C
:1000A0000C948F0E0C948F0E0C948F0EA30EB20E28
:1000B000C10ED00EDF0EEE0EFE0E0D0F1D0F2D0F1A
:1000C0003D0F4E0F5E0F732A782A7D2A872A912AC8
:1000D000DB2ADB2ADB2A9B2AA52AAF2AB92AC62AD1
:1000E000DB2ACE2AFC2AFF2AEE2AF22AF82A202B23
:1000F000202B202B032B072B0B2B112B152B202B0D
:100100001B2B0A2020413D53656C65637420423DE2
:100110004261636B000A0A202055502F444F574E0E
:100120003D43686F6F7365002043686F6F73652090
:100130006C6576656C20746F20706C61790A0A00BA
:100140004C6576656C2053656C6563740A0A000A19
:100150002020413D53656C65637420423D426163DC
:100160006B000A0A202055502F444F574E3D4368DC
:100170006F6F7365000A0A202053617665206669F7
:100180006C652064656C6574656421000A202044F8
:10019000656C65746520736176652066696C6500C1
:1001A0000A20204C6576656C2053656C656374008D
:1001B0004F4646004F4E002020417564696F3A203B
:1001C000004F7074696F6E73204D656E750A0A007A
:1001D00000000000003E5B4F5B3E3E6B4F6B3E1CE1
:1001E0003E7C3E1C183C7E3C181C577D571C1C5EF8
:1001F0007F5E1C00183C1800FFE7C3E7FF001824CF
:100200001800FFE7DBE7FF30483A060E2629792978
:1002100026407F050507407F05253F5A3CE73C5AAD
:100220007F3E1C1C08081C1C3E7F14227F22145F8A
:100230005F005F5F06097F017F006689956A6060E5
:1002400060606094A2FFA29408047E040810207EDF
:10025000201008082A1C08081C2A08081E10101064
:10026000100C1E0C1E0C30383E3830060E3E0E06AA
:10027000000000000000005F0000000700070014FD
:100280007F147F14242A7F2A1223130864623649BC
:100290005620500008070300001C224100004122A4
:1002A0001C002A1C7F1C2A08083E080800807030A9
:1002B0000008080808080000606000201008040218
:1002C0003E5149453E00427F40007249494946211E
:1002D00041494D331814127F1027454545393C4A92
:1002E00049493141211109073649494936464949A9
:1002F000291E0000140000004034000000081422F1
:10030000411414141414004122140802015909065E
:100310003E415D594E7C1211127C7F494949363E5F
:10032000414141227F4141413E7F494949417F0945
:100330000909013E414151737F0808087F00417F50
:1003400041002040413F017F081422417F4040404E
:10035000407F021C027F7F0408107F3E4141413EE6
:100360007F090909063E4151215E7F091929462668
:100370004949493203017F01033F4040403F1F206C
:1003800040201F3F4038403F631408146303047843
:1003900004036159494D43007F4141410204081063
:1003A00020004141417F040201020440404040409E
:1003B000000307080020545478407F28444438380C
:1003C00044444428384444287F385454541800087E
:1003D0007E090218A4A49C787F0804047800447D58
:1003E00040002040403D007F1028440000417F40F5
:1003F000007C047804787C08040478384444443849
:10040000FC1824241818242418FC7C080404084828
:100410005454542404043F44243C4040207C1C2079
:1004200040201C3C4030403C44281028444C9090D4
:10043000907C4464544C440008364100000077002E
:1004400000004136080002010204023C2623263C3B
:100450001EA1A161123A4040207A385454555921C6
:1004600055557941215454784121555478402054B0
:100470005579400C1E5272123955555559395454FC
:10048000545939555454580000457C410002457D6B
:10049000420001457C40F0292429F0F0282528F06D
:1004A0007C545545002054547C547C0A097F4932C1
:1004B000494949323248484832324A4848303A413C
:1004C00041217A3A42402078009DA0A07D394444E1
:1004D00044393D4040403D3C24FF2424487E49436C
:1004E000662B2FFC2F2BFF0929F620C0887E0903DD
:1004F00020545479410000447D413048484A323804
:100500004040227A007A0A0A727D0D19317D26292F
:10051000292F28262929292630484D402038080827
:10052000080808080808382F10C8ACBA2F1028345B
:10053000FA00007B000008142A142222142A14084E
:100540009500220095AA005500AAAA55AA55AA000E
:100550000000FF00101010FF00141414FF00101012
:10056000FF00FF1010F010F0141414FC001414F726
:1005700000FF0000FF00FF1414F404FC1414171013
:100580001F10101F101F1414141F00101010F00063
:100590000000001F101010101F10101010F010009D
:1005A0000000FF101010101010101010FF100000AD
:1005B00000FF140000FF00FF00001F10170000FCE8
:1005C00004F414141710171414F404F40000FF00BA
:1005D000F714141414141414F700F7141414171443
:1005E00010101F101F141414F4141010F010F00049
:1005F000001F101F0000001F14000000FC1400006A
:10060000F010F01010FF10FF141414FF141010104D
:100610001F00000000F010FFFFFFFFFFF0F0F0F000
:10062000F0FFFFFF0000000000FFFF0F0F0F0F0F94
:1006300038444438447C2A2A3E147E0202060602CC
:100640007E027E0263554941633844443C04407E47
:10065000201E2006027E020299A5E7A5991C2A49C0
:100660002A1C4C7201724C304A4D4D30304878484B
:1006700030BC625A463D3E494949007E0101017E37
:100680002A2A2A2A2A44445F444440514A4440408A
:10069000444A51400000FF0103E080FF00000808C9
:1006A0006B6B083612362436060F090F0600001849
:1006B000180000001010003040FF0101001F010170
:1006C0001E00191D1712003C3C3C3C0000000000BD
:1006D00006011501260137014A015D0172018801F9
:1006E0009F01B801D201EE010B022A024B026E02F9
:1006F0009302BA02E40210033F037003A403DC0375
:10070000170455049704DD0427057505C805200660
:100710007D06E0064907B8072D08A9082D09B90983
:100720004D0AEA0A900B400CFA0CC00D910E6F0FA7
:100730005A1053115B1272139A14D4152017801893
:10074000F519801B231DDE1EB420A622B524E42645
:100750003429A72B402E0031EA330037453ABC3DFF
:1007600068414C456B49C84D68524F57805C0062E8
:1007700010111213151617181A1C1D1F21232527D7
:10078000292C2E3134373A3E4145494E52575C624E
:10079000686E757B838B939CA5AFB9C4D0DCE9F7F9
:1007A0000301D5F08D14A1C881CFD9F1AF20001479
:1007B000021302120215020702080204010C0106CC
:1007C0000100E0FF4000460400E4FF260020040092
:1007D000E0FFF4FF044C00E4FFF4FF6004001E009F
:1007E0000D004004000500F8FF1919047F0124FFE3
:1007F00019190526002C00220400260030000414DC
:10080000003A00F8FF0A150244006FFF049E004200
:100810000024000407013600110004070B2C00110E
:100820000004070B2200110004070B4400300004F1
:10083000200048004C004204006E00ECFF04400021
:100840005E002C003E040073004400040701950084
:10085000300004070BA5004C003F0400A800440032
:10086000040701BA0028002A0400E0002C0004203C
:1008700000C8004800100408BE00340005180357E3
:10088000000500040701BA00ECFF043C00BE00ECC8
:10089000FF280400E2009CFF0450009000ECFF04DD
:1008A00040007200ECFF1E040048006FFFF70400D8
:1008B000E6009CFF5904006E0073FF232300C8006C
:1008C000E8FF100406490073FF1004086E0096FF4D
:1008D0000428007200BAFF7004007600B2FF2C08F2
:1008E0000FA600B2FF2C080FD800B3FF0407017653
:1008F00000BDFF2C0810A600BDFF2C0810D800BEBC
:10090000FF04070B660124FF191900020198FF106C
:100910000406660124FF191900E60098FF1004067A
:10092000FA0073FF042900160173FF2929005901F9
:10093000FDFF1004063F01E7FF1A1A005901FDFFF1
:100940001004063B0124FF044B003B0120FF9604EA
:1009500000CD0124FF04FF00540156FF049100580C
:100960000156FF3C0400940156FF0451003B01A0D6
:10097000FF04FF0066013DFF460600B90156FF1463
:1009800004006901C5FF6404005801A3FF3C040092
:100990005801E3FF6404003F0101008E04006D0173
:1009A000BEFF0407017401BCFF1609009A01BEFFD7
:1009B000040701A401BEFF040701A4012BFF0512D7
:1009C000035B01DCFF0407017701C9FF04070B810A
:1009D00001C9FF04070B7401DDFF1606009001DC5E
:1009E000FF0407019F01C9FF04070BB001DCFF04EE
:1009F00007017001E7FF04070B7401FBFF160600F7
:100A00009001E7FF04070B9A01E7FF04070BAA0117
:100A1000FAFF040701B401FAFF0407010D002C00DE
:100A2000051403E0FF40006004004000E0FF0464A0
:100A300000A0FF200020040060FF00002004000050
:100A4000FFE0FF40040004FFD8FF04070118FFD8AF
:100A5000FF040701D0FEC0FF100400D4FEECFF2C01
:100A6000080FA3FEECFF2C080FB0FEA0FF1004003F
:100A7000D8FE80FF100400ACFE60FF100400A2FE50
:100A800060FF04070198FE5BFF0407018EFE56FF1E
:100A900004070184FE5BFF0407017AFE60FF040780
:100AA0000170FE6AFF04070166FE74FF0407015A25
:100AB000FE7EFF060400B6FE4CFF05140351FE7FC8
:100AC000FF04070146FE79FF0407013BFE72FF04A5
:100AD000070130FE79FF04070125FE80FF040701AE
:100AE0001AFE8CFF0407010FFE98FF040701F3FDB7
:100AF00067FF10040604FEA4FF040701F3FD67FF6F
:100B0000100406F6FDAEFF060400EBFDACFF040783
:100B100001E0FDA0FF040701D5FD94FF040701C219
:100B2000FD8BFF100400BAFD88FF040701BAFD77B2
:100B3000FF04070BB5FD38FF0D3E00E4FD6BFF2001
:100B40000400EEFD57FF05140300FE6FFF04C864A8
:100B5000F3FD67FF10040711FE38FF04FF64F3FD87
:100B600067FF10040780FD5000B3040094FD3300BC
:100B70006C0400E9FD370019190039FEACFF1004C0
:100B8000062FFE0F000410002FFEE7FF0410002FB9
:100B9000FEBFFF0410002FFEB0FF200400DFFD3772
:100BA00000040700D4FD4800040701C9FD37000414
:100BB000070BBEFD4800040701B3FD370004070B17
:100BC000A8FD480004070188FD3C0005140390FDC2
:100BD00038FF04FF0080FD51FF04FF004EFD56FF6B
:100BE0002C080F21FD6AFF2C080F17FD74FF040766
:100BF000010DFD7EFF040701FDFC60FF04FF000303
:100C0000FD99FF0407010DFDA8FF0407011DFD92DA
:100C1000FF04FF0017FDCEFF04070103FDDDFF0405
:100C200007010AFD00000A19020000400044040008
:100C300000000000044000400000000440000000EC
:100C400020FF04A000400020FF04A000000080FE60
:100C500004A000400080FE04A000000000FE04404C
:100C600000400000FE0440000000FCFD4404001DA4
:100C70000014FF0A1902190010FF1221005AFFE8A0
:100C8000FF100406190010FF1221004C011C001077
:100C90000406190010FF1221003BFF6CFE10040631
:100CA000190010FF122100EE006CFE1004061A005D
:100CB0003C001004081A0000FE1004084CFF00005D
:100CC000B404004CFFBCFFB40400E0FFF8FF0407CD
:100CD00001E0FFC1FF04070BC0FFE7FF0A1900C0D6
:100CE000FFC0FF0A1900A0FFC9FF0A2E0080FFF70E
:100CF000FF0B090080FFC0FF0B090084FFEFFF041A
:100D0000070184FFCAFF04070B4CFFC0FF0440002B
:100D10005AFFECFF10140044000000A0040044003F
:100D2000BCFF20040064009CFF8004006400A0FF5E
:100D3000042000E000A0FF042000AE00A0FF323C31
:100D400000C200FCFF100406E4002000800400E460
:100D50000000000420006001C0FF0460002E01E4D8
:100D6000FF323C004C01E0FF100406E400BCFF80B1
:100D70000400E0FF80FE200400E0FF3CFE200400B1
:100D8000DCFF80FE044000DCFF00FE04400018FF92
:100D9000C0FEC8040018FFFCFDC8040018FF00FED8
:100DA00004C000B6FF9DFE0F0400B6FF1FFE0F0437
:100DB000008DFF7FFE0F04008DFF3DFE0F040064D9
:100DC000FF5FFE0F04003BFF70FE1004003BFF4C72
:100DD000FE100400440080FE20040044003CFE207D
:100DE0000400640080FE044000640000FE04400033
:100DF0006400C0FE8004006400FCFD800400E0008C
:100E000000FE045000E00070FE045000E40070FE9C
:100E1000200400E4004CFE20040004014CFE0428E1
:100E200000CC000CFE04A800640060FE68040030E2
:100E300000ECFF0A1402280000001804000000E87B
:100E4000FF40040000004000FF04000000E8FF0431
:100E500058004000A0FF0480008000E4FF045C0014
:100E6000FF0040008F0400620020001E0400780094
:100E700018000407017400250004070B440000005B
:100E80001E04004900F8FF0407014D000500040797
:100E90000B6200E0FFBC04007800CCFF1414004893
:100EA00000BCFF1004067400E5FF04070B4400C0FB
:100EB000FF1E040040009CFF4404008000A0FF04CB
:100EC0002C000001E4FF0448008400C8FF20040057
:100ED000A400A8FF042400A800A8FF580400AC0048
:100EE000ADFF04070BB600ADFF04070BCD00D8FF24
:100EF000040701D700D8FF040701EE00ADFF040787
:100F00000BF800ADFF04070B0001A8FF042000044C
:100F100001C4FF4004004401A6FF0462003D01C972
:100F2000FF04070B1701E5FF04070B260108004625
:100F300004002A010D0004070B64012C00141400A6
:100F40008C003C0010040644012C000514036C01C5
:100F5000C4FF046800C0000800043800C10000009D
:100F6000040701C40028001E0400A20028001E047B
:100F700000E20008001E0400840008001E04008A2D
:100F800001A6FF049A004801A6FF42040052010492
:100F9000001004085A00ACFF0214030000300028BF
:100FA000040028001C000418002800180028040071
:100FB00050000400041800500000002804005000F5
:100FC000F6FF0A0A007800ECFF0418007800E8FF3A
:100FD0002804007C00E1FF040701A000D4FF0418EE
:100FE00000A000D0FF280400A00062FF045F00B44E
:100FF00000BCFF051403C800BCFF041800C800B8FB
:10100000FF280400C6004AFF0B5500CA009EFF04DB
:10101000070BF000A4FF041800F000A0FF28040054
:10102000F0008CFF14140018018CFF041800180144
:1010300088FF280400400174FF041800400170FF7D
:101040000A040068015CFF041800680158FF2804C6
:10105000007C0144FF051403900144FF0418009034
:101060000140FF2804009C0139FF040701B2013947
:10107000FF040701B8012CFF041800B80128FF285D
:101080000400C40121FF040701E00114FF0418005B
:10109000E00110FF2804000802DAFE041E00F4013B
:1010A0000CFF1004060802FCFE0418000802F8FEFB
:1010B000280400F4010CFF1004063002E4FE0418BA
:1010C000003002E0FE2804004402C7FE0A190200B4
:1010D000004000800400FCFF000004440000000009
:1010E000005404007C00C0FF0480005400C0FF04D2
:1010F000806462003C00100407780040FF04840014
:10110000580040FF0484007400C0FE0484005C00AA
:1011100098FE04AC007800C0FEA80400600098FEB1
:101120009E0400D000B1FE0F0F0020010CFE04B899
:1011300000FE000CFE049000020189FE1E1E000C41
:1011400001BCFE100406240154FD04BC00FA005446
:10115000FD04BC00C80054FD320400280154FD32D7
:101160000400C8001CFD04380056011CFD043800B2
:1011700082001CFD4604008200F4FC04280082006A
:10118000F0FC6E0400F000F0FC044600F40032FDB8
:101190003A04002E01F0FC0446003201F0FC820407
:1011A000000C0136FD0C0C00CC0016FD2424004080
:1011B0000150FD100406320116FD2424008C001895
:1011C000FD100406500088FF0804008000CCFF08D2
:1011D0000400780006FF080400F60036FE0804004C
:1011E0002801DAFD080400280176FD080400F20059
:1011F000A8FD0804005A011CFD28040082011CFD02
:1012000004AC00B001F4FC04D4008601C4FD04ACBD
:1012100000AC01C4FD04AC008A016CFE04AC00A863
:10122000016CFE04AC008E0114FF04AC00A4011498
:10123000FF04AC009601A3FF0A19029201BCFF1241
:101240000400CEFF4000690400ECFF1000043000F1
:10125000F6FF3C001004063300100004300083FF4A
:101260000C00B40400CEFF440004400001FF8400E1
:10127000D1040065FF440004400083FF10000474A3
:10128000646EFF80001004071FFF0000044A00E3A3
:10129000FE440004400001FF800010046AEDFE805F
:1012A0000010040702FE8400FF04005FFE6B000ACA
:1012B000196634FE680010046BACFE500010046B1D
:1012C0000CFE740010046B5CFE5C0010046B84FE6A
:1012D000680010046B0CFE500010046BACFE740030
:1012E00010040702FE000004840000004000FF0418
:1012F0000000000000FF040000000400043C004265
:1013000000090004070B420034000407013E0004FA
:10131000000B04003E003C000B040082000D0004A2
:10132000070B820030000407017E0004000B080058
:101330007E0038000B0800C200090004070BC20041
:101340002C00040701BE0004000B0400BE003400A2
:101350000B0C00F0002C00051403220140001404C3
:10136000004201090004070B420134000407014C4C
:1013700001090004070B4C0134000407015E012C35
:10138000001404007E01F5FF04070B7E0120000419
:1013900007018801F5FF04070B88012000040701FD
:1013A0009A01AF00820400F4019B00051403FE01C2
:1013B0008200A10400FE01BE00A104000202B600EA
:1013C0002C080F020286002C08103402B6002C08EC
:1013D0000F340286002C08106602B6002C080F6637
:1013E0000286002C08109802B700040701980287B3
:1013F0000004070B2D02A0001E04005802AF001EBF
:1014000004007B029B001E04009402AF00600400F5
:10141000BC029B0005140309039C0004070B050391
:1014200069000B32002003AF001E04002F0396005A
:101430000A190200004000FF040000000000044000
:101440000042003900040701820039000407018CC2
:1014500000390004070196003900040701D600395D
:1014600000040701E0003900040701F90039000415
:10147000070103013900040701FE004000C0040019
:10148000390138002C080F6B0139000407014D01A8
:101490002C000E040089012C00051403BE0140003D
:1014A000040E00BE014E00400400FA014000040E8C
:1014B00000C4014700040701D0014700040701DC14
:1014C000014700040701E8014700040701F4014750
:1014D00000040701FE014000C804000A0238002C85
:1014E000080F770239000407017D0236000B0A005D
:1014F00081022F0004070187022C000B0A008702DB
:1015000036000B0A008B0225000407019102360009
:101510000B0A0095022F000407019F0239000407FF
:1015200001B20227000A190200004000FF0400FC7B
:10153000FFE0FF046400400031000F0F006000E096
:10154000FF0F5100A0002C00141400C000E0FF0F9A
:101550005600FE002C00051403FF004000FF0400AD
:101560002E0138000407014601E0FF0B50006C011A
:1015700031000F0F008A01270004070B8601E0FFEE
:101580000B4600AE013800040701CA01270004071A
:101590000BC601E0FF0B4600EA0127000A1902FE14
:1015A00001E0FF04640000004000E0040040002867
:1015B00000200400600010001E04008000F4FF1CE6
:1015C0000400A000DCFFE00400E000C4FF140400FD
:1015D0000001ACFF120400200194FF100400400140
:1015E0007CFF800400600164FF14040080014CFF54
:1015F000120400600134FF10040080011CFF40044D
:10160000009A0103FF0A1902ACFF40009404004055
:10161000001C0004280000001C00400400E0FF1C27
:1016200000200E00C0FF1C00201400A0FF1C0020A2
:10163000180040FF80006C0400ACFF440004400030
:1016400060FF5F002017007CFF3F0004200040FF88
:10165000400004400040FF3C004004006AFF460098
:101660000A1902000040004004003C00440004202D
:10167000000000100004300000000C00560400566A
:10168000000C000420003C006400AA040056002C5A
:101690000064040078005A000A0A009B0055000FFD
:1016A0000F00C80055000F0F00D70055000F0F00A6
:1016B000DC004B000A0A00E6004B006404002C0129
:1016C0002D001E1E004A010F001E1E0068010F00A3
:1016D000460400BA001800041800BA0014005004B0
:1016E000000A01E2FF0436000E01E2FFA00400AA96
:1016F00001E6FF0429009601F6FF0A1902C0F0383E
:101700000C06060303030306060C38F0C0030F1C87
:10171000306060C0C0C0C06060301C0F03080C0A9D
:10172000090909090909090909090A0C0880C0E021
:1017300030B0B030E0C08078FCFE036B6B87FEFCFD
:1017400078070F1F303D3D301F0F070000010303D6
:101750000303010000FFFFFFFF01FDFDFDFDFF0191
:10176000FDFDFD01FF01FDFDFD01FF01EDEDEDEDD5
:10177000FFFFFFFF3F3F3F3F3C3D3D3D3D3F3C3D89
:101780003D3D3C3F3C3F3F3F3C3F3C3F3F3F3F3F79
:101790003F3F3FFFFFFFFF01EDEDEDE1FF01FFFFE9
:1017A000FFFFFF03DDDDDD03FFF1CF3FCFF1FFFFE3
:1017B000FFFF3F3F3F3F3C3F3F3F3F3F3C3D3D3DC5
:1017C0003D3F3C3F3F3F3C3F3F3F3C3F3F3F3F3F34
:1017D0003F0080C0E0F07078383C1C1C1E0E0E0EDE
:1017E0000E07070707070707070707070707070782
:1017F0000707070707070707070707070707070779
:101800000707070707070707070707070707070768
:101810000707070707070707070707070707070758
:101820000707070707070707070707070707070748
:101830000707070707070707070707070707070738
:10184000070E0E0E0E1E1C1C3C387870F0E0C08097
:1018500000FEFFFF03000000000000000282BE82C5
:101860008280BE888888BE80BEAA2A2A0000000026
:101870000000000000000000000000000000000068
:101880000080808080800000000080808080800058
:1018900000000080808080808080808080808080C8
:1018A0008000000000808080808080808080808038
:1018B00080800000000000808080808080808080A8
:1018C0008080808080000000000000000003FFFF97
:1018D000FEFFFFFF0000000000000000FFFF03010B
:1018E000F9F989898989F9710183FFFE00000000F7
:1018F00000000000000000000000000000000000E8
:10190000FFFF030103FFFF0000FFFF030103FFFFD1
:101910000000FFFF030101010101010101010103B9
:10192000FFFF0000FFFF0301010181C1C1C1C1C16F
:10193000C1E37F3E0000FFFF030101E1F1B1B1B15E
:10194000B1B1B13B3F1F0000000000000000FFFFED
:10195000FFFFFFFF0000000000000000FFFF00008D
:10196000F8F888888888F870070FFDF800000000F4
:101970000000000000000000000000000000000067
:10198000FFFF0000003F7F60607F3F000000FFFF1F
:101990000000FFFF000000FEFF0303FFFE00000049
:1019A000FFFF0000FFFF000000000F1F18181818AD
:1019B0001838F0E00000FFFF000000387D6D6D6D0D
:1019C0006D6D6FE7E0C00000000000000000FFFF49
:1019D000FFFFFFFF0000000000000000070F0C0CDD
:1019E0000C0C0C0C0C0C0C0C0C0E07030000000073
:1019F00000000000000000000000000000000000E7
:101A0000070F0E0C0C0C0C0C0C0C0C0C0C0E0F0716
:101A10000000070F0E0C0E0F070000070F0E0C0E34
:101A20000F070000070F0E0C0C0C0C0C0C0C0C0C10
:101A30000C0E07030000070F0C0C0C0C0C0C0C0C0C
:101A40000C0C0C0E0F070000000000000000FFFF50
:101A5000FFFFFFFF0000000000000000000000008A
:101A60000000000000000000000000000000000076
:101A70000000000000000000000000000000000066
:101A80000000000000000000000000000000000056
:101A90000000000000000000000000000000000046
:101AA0000000000000000000000000000000000036
:101AB0000000000000000000000000000000000026
:101AC0000000000000000000000000000000FFFF18
:101AD000FF7FFFFFC00000000000000000000000CA
:101AE00000000000000000000000000000000000F6
:101AF00000000000000000000000000000000000E6
:101B000000000000000000000000000000000000D5
:101B100000000000000000000000000000000000C5
:101B200000000000000000000000000000000000B5
:101B300000000000000000000000000000000000A5
:101B400000000000000000000000000000C0FFFFD7
:101B50007F000103070F0E1E1C3C38387870707030
:101B600070E0E0E0E0E0E0E0E0E0E0E0E0E0E0E0E5
:101B7000E0E0E0E0E0E0E0E0E0E0E0E0E0E0E0E065
:101B8000E0E0E0E0E0E0E0E0E0E0E0E0E0E0E0E055
:101B9000E0E0E0E0E0E0E0E0E0E0E0E0E0E0E0E045
:101BA000E0E0E0E0E0E0E0E0E0E0E0E0E0E0E0E035
:101BB000E0E0E0E0E0E0E0E0E0E0E0E0E0E0E0E025
:101BC000E0707070707838383C1C1E0E0F070301EF
:101BD000000000000200090F0000030401000C00D7
:101BE00000000000000000000000000000000000F5
:101BF000040802011040804010204080408008020C
:101C00000401804020100201108010204040200478
:101C10000404040403040502020202040302020293
:101C20000206060606060604040202020404000078
:101C30000000250028002B002E00310000000000CD
:101C4000240027002A002D00300012010002EF02BC
:101C5000014041233680000101020301120100020C
:101C6000000000404123368000010102030141725F
:101C70006475696E6F204C4C430041726475626FED
:101C8000790004030904080B0002020201000904A0
:101C900000000102020000052400100105240101DA
:101CA0000104240206052406000107058103100033
:101CB0004009040100020A0000000705020240007A
:101CC0000007058302400000FB1A3729F531112473
:101CD0001FBECFEFDAE0DEBFCDBF11E0A0E0B1E084
:101CE000E8EEFAE602C005900D92A834B107D9F7E4
:101CF00028E0A8E4B1E001C01D92A138B207E1F7E5
:101D00001CE1CEECDCE104C02297FE010E94CB3442
:101D1000C83CD107C9F70E94912B0C9472350C94E2
:101D200000001F93CF93DF93182F482F50E0FA0144
:101D30003197ED30F10508F0E6C0EA5AFF4FC0E0F8
:101D4000D0E00C94C934BE016D59794E47E050E0A3
:101D5000CE01875B9E4F0E944B352796CA39D1052D
:101D600091F7BCC0BE01685F794E47E050E0CE01FC
:101D7000875B9E4F0E944B352796CB35D10591F757
:101D8000AFC0BE016A557A4E47E050E0CE01875B96
:101D90009E4F0E944B352796C236D10591F7A2C0BF
:101DA000BE01685D7A4E47E050E0CE01875B9E4FF2
:101DB0000E944B352796CE37D10591F795C0BE01CD
:101DC0006D5C7B4E47E050E0CE01875B9E4F0E94EA
:101DD0004B352796C53FD10591F788C0BE016651A6
:101DE0007D4E47E050E0CE01875B9E4F0E944B3511
:101DF0002796C93481E0D80789F77AC0BE016E5BA7
:101E00007D4E47E050E0CE01875B9E4F0E944B35F0
:101E10002796C83AD10591F76DC0BE0161537F4E38
:101E200047E050E0CE01875B9E4F0E944B352796DE
:101E3000C33781E0D80789F75FC0BE016556704F90
:101E400047E050E0CE01875B9E4F0E944B352796BE
:101E5000C43381E0D80789F751C0BE01615D714F7D
:101E600047E050E0CE01875B9E4F0E944B3527969E
:101E7000CC3681E0D80789F743C0BE01675D734F58
:101E800047E050E0CE01875B9E4F0E944B3527967E
:101E9000C63082E0D80789F79AE435C0BE016D5D8F
:101EA000754F47E050E0CE01875B9E4F0E944B3557
:101EB0002796C63082E0D80789F7EECFBE016E5371
:101EC000784F47E050E0CE01875B9E4F0E944B3534
:101ED0002796C13682E0D80789F714C096E113C06F
:101EE0009DE011C09EE00FC092E10DC093E20BC0D7
:101EF0009FE209C098E107C095E305C09CE203C0DA
:101F000094E301C097E59093B6031093B70380E282
:101F100090E09093B1038093B0039093AF038093CC
:101F2000AE038AE999E9A9E1BEE38093060890939C
:101F30000708A0930808B093090840E250E060E267
:101F400070E085EF97E0DF91CF911F910C94E4282A
:101F500089EB93E00E945F1B6EE189EB93E00E94A6
:101F60007F1B82EC91E00E945435809348019FEFE3
:101F7000980F9C3018F08D3019F481E00C94910E7C
:101F800061E082EC91E00E945C3581E00E94910E5C
:101F900081E08093480108952F923F924F925F9283
:101FA0006F927F928F929F92AF92BF92CF92DF9269
:101FB000EF92FF920F931F93CF93DF93CDB7DEB7CE
:101FC0002E970FB6F894DEBF0FBECDBF89EB93E01E
:101FD0000E94941B882311F40C94E21A89EB93E07D
:101FE0000E94751F80910901813009F0E0C068E00E
:101FF00089EB93E00E94C122882391F08091B8037D
:1020000081112DC080910801813011F482E001C05E
:1020100084E08093090189EB93E00E94FA1B1CC0C5
:1020200060E289EB93E00E94C122811109C060E463
:1020300089EB93E00E94C122882311F40C94D51AF5
:102040008091B80381110BC080910801813011F09B
:102050000C94D01A1092080181E08093B8032AE909
:1020600039E949E15EE36091AA037091AB03809185
:10207000AC039091AD030E94AE324B015C016093C2
:10208000AA037093AB038093AC039093AD03C0900D
:102090000401D0900501E0900601F090070120E0D6
:1020A00030E040E052E4C701B6010E94F93387FDF9
:1020B00011C0C501B4019F7727ED33EA40E75FEB1C
:1020C0000E94FD336093AA037093AB038093AC032B
:1020D0009093AD032091AA033091AB034091AC03E0
:1020E0005091AD03C701B6010E94AE326093040166
:1020F0007093050180930601909307018091080178
:10210000CC24C3948130A1F49EE0E92E0FE123E9B1
:1021100037E14FE250E06FE070E089EB93E00E941E
:102120004F202AE0E22E25E537E141E350E013C0DD
:102130001AE0E12E0FE123E937E141E350E06FE0DF
:1021400070E089EB93E00E944F208EE0E82E25E5B9
:1021500037E14FE250E062E570E089EB93E00E94E6
:102160004F20CC24C394A0E4EA2E00E821ED37E10F
:1021700040E050E060E070E089EB93E00E944F2087
:102180006091040170910501809106019091070111
:102190000E941633B0E1EB2E00E12DEF36E1AB01EA
:1021A0006DE170E089EB93E00E944F2003C682301E
:1021B00009F044C460E889EB93E00E94C1228823BF
:1021C00019F081E08093090169EB73E085EF97E0F6
:1021D0000E94F626C0900208D0900308E090040800
:1021E000F090050820E030E046E953E4C701B6016D
:1021F0000E94F93318164CF524E630E040E050E038
:102200006CEB72E08DEB93E00E94C0244091AE0332
:102210005091AF036091B0037091B10385EF97E0E7
:102220000E94E4282FE431E03C832B8389E491E091
:102230009A838983AEE4B1E0BE83AD83EDE4F1E03F
:10224000F887EF83212C312C49C020E030E04FEAA1
:1022500053ECC701B6010E94123387FFE3CF809190
:10226000B7038830F9F28B3039F6DCCFC090FE0727
:10227000D090FF07E0900008F0900108A981BA8192
:102280000D90BC91A02DBE87AD87CD010597BC01F7
:10229000882777FD8095982F0E9449339B01AC01D8
:1022A000C701B6010E94F93387FF1FC0FFEF2F1A45
:1022B0003F0A2B813C81295F3F4F3C832B838981DF
:1022C0009A8107969A838983AD81BE811796BE83D2
:1022D000AD83EF81F8853796F887EF838091B60359
:1022E00090E02816390614F22CC3EF81F88580811E
:1022F0002D853E85280F311D3A872987C90105960E
:10230000BC01882777FD8095982F0E9449339B0157
:10231000AC01C701B6010E94123318163CF280903E
:10232000020890900308A0900408B0900508A981C5
:10233000BA8112960D911C911397C8010597BC01A3
:10234000882777FD8095982F0E9449339B01AC0127
:10235000C501B4010E94F93387FDA8CFED81FE814C
:1023600080819801280F311D3C872B87C901059674
:10237000BC01882777FD8095982F0E9449339B01E7
:10238000AC01C501B4010E94123318160CF48ECFB3
:10239000AD85BE85BD01882777FD8095982F0E9469
:1023A00049332B013C019B01AC01C701B6010E94DE
:1023B000F93387FD1DC1E985FA85BF01882777FDBF
:1023C0008095982F0E9449339B01AC01C701B6014B
:1023D0000E94123318160CF413C120E030E040E4E0
:1023E00050E4C501B4010E94AE322B013C01B8019A
:1023F000882777FD8095982F0E9449339B01AC0177
:10240000C301B2010E94F93387FDFAC02B853C85D8
:10241000B901882777FD8095982F0E9449339B0149
:10242000AC01C301B2010E94123318160CF4E8C0CB
:10243000AB81BC811C91153009F47BC038F413309A
:10244000A1F0B8F5123009F42AC10BC0173009F415
:1024500097C008F475C0183009F4B0C0143609F4F8
:1024600056C1B1E0B0930F0852C18091B003909172
:10247000B103AD85BE858A179B0709F448C124E6E0
:1024800030E040E050E060EA7FE08DEB93E00E94B6
:10249000C024E981FA81808191819093B103809376
:1024A000B0038281938108979093AF038093AE032A
:1024B0002EC180910A088823B9F1C1010196F7E085
:1024C000F89F8001F99F100D1124075B1E4FD80162
:1024D00014962C91149726958D919C91820F911DA5
:1024E000BC01882777FD8095982F0E94493360931F
:1024F000FE077093FF078093000890930108F8018E
:102500008581869562817381680F711D882777FDAB
:102510008095982F0E9449336093020870930308B6
:10252000809304089093050885EF97E00E94322974
:10253000EEC080910A088823B9F3C1010197BFCF8B
:10254000F1E0F0930F08E3E6AB81BC81EC9324E665
:1025500030E040E050E060ED77E08DEB93E00E94EA
:10256000C024C101019727E0289FF001299FF00DA9
:102570001124E75BFE4FDF011D922A95E9F7C7C0E2
:10258000B1E0B0930F0823E6EB81FC81208324E6C1
:1025900030E040E050E060ED77E08DEB93E00E94AA
:1025A000C024C1010197189FF001199FF00D11245B
:1025B000E75BFE4F868184568683A9C031E0309365
:1025C0000F0880910A08882309F4AECFC09006084E
:1025D000D0900708E0900808F090090820E030E06B
:1025E000A901C701B6010E94F93387FD9DCF78C0CC
:1025F000A3019201C701B6010E94F93387FD87C08C
:10260000A985BA85BD01882777FD8095982F0E94FE
:1026100049339B01AC01C701B6010E941233181661
:102620000CF475C020E030E040E450E4C501B40192
:102630000E94AD326B017C01B801882777FD80953F
:10264000982F0E9449339B01AC01C701B6010E943B
:10265000F93387FD5CC0EB85FC85BF01882777FDDA
:102660008095982F0E9449339B01AC01C701B601A8
:102670000E94123318160CF44AC0AB81BC818C91B5
:102680009EEF980F943048F0843609F440C0B1E0D2
:10269000B0930E088830D9F50CC08230C1F5E3E064
:1026A000E093090122E030E03093AF032093AE03C2
:1026B0002EC080910A08882309F436CFC0900608FE
:1026C000D0900708E0900808F090090820E030E07A
:1026D000A901C701B6010E94123318160CF424CFC9
:1026E000F7FAF094F7F8F094C0920608D092070831
:1026F000E0920808F092090824E630E040E050E05B
:1027000060ED77E08DEB93E00E94C0240DCF409008
:10271000FE075090FF07609000087090010820E0CD
:1027200030E040E450E4C301B2010E94AE326B01DC
:102730007C01A981BA810D911C91B801882777FD90
:102740008095982F0E9449334B015C019B01AC019D
:10275000C701B6010E94F93387FD59C0EF81F885A2
:1027600080819801280F311DB901882777FD809558
:10277000982F0E9449339B01AC01C701B6010E940A
:10278000123318160CF443C0C0900208D09003080E
:10279000E0900408F0900508A981BA8112960D9086
:1027A000BC91A02DBA87A987BD01882777FD8095A8
:1027B000982F0E9449339B01AC01C701B6010E94CA
:1027C000F93387FD24C0ED81FE81808169857A859A
:1027D000680F711D882777FD8095982F0E944933D7
:1027E0009B01AC01C701B6010E94123318167CF0A0
:1027F000AB81BC818C919EEF980F943008F468C037
:10280000843609F465C0B1E0B0930D0861C020E0E2
:1028100030E040E450E4C301B2010E94AD326B01EC
:102820007C01A50194010E94F93387FD51C0EF811D
:10283000F8858081080F111DB801882777FD8095E4
:10284000982F0E9449339B01AC01C701B6010E9439
:1028500012331816ECF1C0900208D0900308E090F3
:102860000408F0900508A981BA8112960D911C9177
:102870001397B801882777FD8095982F0E944933D8
:102880009B01AC01C701B6010E94F93387FD20C04E
:10289000ED81FE818081B801680F711D882777FD69
:1028A0008095982F0E9449339B01AC01C701B60166
:1028B0000E941233181664F0AB81BC818C919EEF9C
:1028C000980F943028F0843619F0B1E0B0930C08DA
:1028D00080910E0881110DC080910F08811109C0EF
:1028E00080910C08811105C080910D08882309F49E
:1028F000DDCCEB81FC818081813031F08B3021F0A7
:102900008F50823008F0D2CC24E630E040E050E036
:1029100068EE73E08DEB93E00E94C0244091AE031B
:102920005091AF036091B0037091B10385EF97E0D0
:102930000E94E42868EC70E080E090E00E94BD29ED
:10294000B5CC6091B4037091B503882777FD80956D
:10295000982F0E9449336B017C0120E030E040E871
:1029600052E46091FE077091FF07809100089091FA
:1029700001080E94AD32A70196010E94AD322AE003
:1029800037ED43EA5DE30E94FD339B01AC01C701D3
:10299000B6010E94AE320E9416337093B503609365
:1029A000B40320E030E0A9016091060870910708A7
:1029B00080910808909109080E94F9336091B20350
:1029C0007091B30318166CF4882777FD8095982FC3
:1029D0000E9449336B017C0120E030E040E052E48A
:1029E0000CC0882777FD8095982F0E9449336B0192
:1029F0007C0120E030E040E452E4609102087091F4
:102A0000030880910408909105080E94AD32A70147
:102A100096010E94AD322AE037ED43EA5DE30E9461
:102A2000FD339B01AC01C701B6010E94AE320E948A
:102A300016337093B3036093B203BCC1833009F0C3
:102A400059C062E089EB93E00E94881B8823F9F06B
:102A500020E030E040E85FE36091020870910308F5
:102A600080910408909105080E94AD32609302089D
:102A70007093030880930408909305088091AE0337
:102A80009091AF0302969093AF038093AE0365E0FD
:102A900089EB93E00E94881B882339F08091B6036C
:102AA000882319F081508093B6038091AE039091F2
:102AB000AF03813891059CF082E0809309018091F9
:102AC000B7038F5F0E94910E82EC91E00E94543513
:102AD0006091B703861718F46E3008F46AC52AE0CF
:102AE00030E040E050E068E873E18DEB93E00E9455
:102AF000C02460C1843009F0C8C040E050E060E00C
:102B000070E089EB93E00E94B52261EC71E089EB03
:102B100093E00E94E22B67EB71E089EB93E00E9467
:102B2000E22B0E94E122882319F064EB71E002C0DD
:102B300060EB71E089EB93E00E94E22B60EA71E0C8
:102B400089EB93E00E94E22B6CE871E089EB93E063
:102B50000E94E22B68E089EB93E00E94C122882367
:102B6000B9F18091B803811177C08091080181305B
:102B700041F1D8F0823051F561E082EC91E00E94A1
:102B80005C3581E08093480165E771E089EB93E073
:102B90000E94E22B89EB93E00E94BE2260ED77E079
:102BA00080E090E00E94BD2911C00E94E1228823AC
:102BB00019F00E94E42202C00E94D3220E94F12256
:102BC00005C0809109018F5F8093090181E00EC0EB
:102BD00064E089EB93E00E94C122882351F0809148
:102BE000B803811139C081E0809309018093B80353
:102BF00033C060E889EB93E00E94C122882389F00A
:102C00008091B803811128C0809108018150809380
:102C1000080191E09093B803883CF0F0109208010D
:102C20001BC060E189EB93E00E94C122882391F0F0
:102C30008091B803811110C0809108018F5F80934B
:102C4000080191E09093B803833030F082E08093E4
:102C5000080102C01092B80340910801F8E04F9FAC
:102C6000A00111244D5E5F4F01E028E060E070E0BC
:102C700089EB93E00E94C01E62E671E089EB93E06D
:102C80000E94E22B6FE471E091C0853009F092C0A0
:102C900040E050E060E070E089EB93E00E94B522F4
:102CA00060E471E089EB93E00E94E22B68E271E05E
:102CB00089EB93E00E94E22B60E889EB93E00E94AD
:102CC000C1228823A1F08091B803811159C080915D
:102CD00008018F5F8093080191E09093B803909171
:102CE0004801981708F04CC09093080149C060E172
:102CF00089EB93E00E94C122882391F08091B80370
:102D000081113EC08091080181508093080191E0BB
:102D10009093B803811134C081E08093080130C0E2
:102D200068E089EB93E00E94C122882389F08091BA
:102D3000B803811125C0809108010E94910E82E0A4
:102D40008093090181E08093B8031092080118C0B4
:102D500064E089EB93E00E94C122882379F080919E
:102D6000B80381110DC08091090181508093090140
:102D700081E0809308018093B80302C01092B803E9
:102D80006DE171E089EB93E00E94052C4AE050E090
:102D90006091080189EB93E00E94632C65E171E08A
:102DA00089EB93E00E94E22B62E071E089EB93E013
:102DB0000E94E22B809109018250823008F0D4C336
:102DC000512CF7E0BF2E8091B603581608F001C3CE
:102DD000852C912CB89C3001B99C700C1124930166
:102DE000275B3E4F3901D90116964C91483009F4C2
:102DF000DFC0B0F4433009F49DC070F48091B40397
:102E00009091B5032091B2033091B3034130A9F101
:102E1000423009F450C015C0463008F012C211C04B
:102E2000403109F4A1C138F44B3009F416C14F30D8
:102E300009F44EC106C0433609F4E5C1443609F42D
:102E400000C2B89CF001B99CF00D1124E75BFE4F65
:102E5000428153818091B2039091B303481B590B77
:102E6000608171818091B4039091B503681B790BE7
:102E7000EE24E3940581248196C0F3016081718181
:102E8000E481D30112960D911C91139715964C91E4
:102E9000D801A40FB11DAD01421B530B7B01EE0EF7
:102EA000F11CE81AF90AB2E0EB0EF11C021B130B3D
:102EB00003501109F9C0F30142815381421B530BA6
:102EC00060817181681B790BEE24E3940581248174
:102ED00089EB93E00E94071FD30115961C9115976B
:102EE0001296ED90FC9013978091B2039091B303EA
:102EF000E81AF90A6D917C9111978091B403909131
:102F0000B503681B790B14968C919B01280F311D1A
:102F1000442737FD4095542F882777FD8095982FBB
:102F20000E94E53001E0212FA70189EB93E00E9488
:102F3000C11D87C1F901428153818091B2039091F3
:102F4000B303481B590B608171818091B403909148
:102F5000B503681B790BEE24E394058122E089EB2D
:102F600093E00E94071F6091B0037091B103D301F9
:102F70008D919C9111976817790709F062C112969B
:102F80004D915C9113978091B2039091B303481BCC
:102F9000590B8091B4039091B503681B790B6E5F58
:102FA0007F4F05E028E089EB93E00E94071F49C1AD
:102FB00020E030E0A9016091060870910708809137
:102FC0000808909109080E94F9332091B4033091C8
:102FD000B503E091B203F091B303D3016D917C91FD
:102FE000119787FD09C012964D915C9113974E1B66
:102FF0005F0B4250510909C0D30112964D915C916B
:1030000013974E1B5F0B4D5F5F4F621B730B6C5F23
:103010007F4FEE24E39403E028E089EB93E00E94E5
:10302000071FB89CF001B99CF00D1124E75BFE4F1F
:10303000428153818091B2039091B303481B590B95
:10304000608171818091B4039091B503681B790B05
:10305000EE24E39404E020E1A6CFF90160817181C0
:10306000E4818091B4039091B503D90112960D913A
:103070001C9113972091B2033091B303A801421B16
:10308000530B415051097B01EE0EF11CE81AF90A6D
:10309000B2E0EB0EF11CD3011596FC910F0F111D40
:1030A000021B130B0E5F1F4FE6959B012E0F311D68
:1030B000281B390B21503109681B790B64507109A9
:1030C000AA24A3946A0189EB93E00E940720B9C067
:1030D0001C821B821901B2E02B0E311CF9013596BE
:1030E000FA83E983D3016D917C918091B40390912F
:1030F000B503F101008111812091B2033091B30336
:10310000A981BA814C91F801E40FF11DAF01421B76
:10311000530B7B01F6E0EF0EF11CE81AF90AAB81C4
:10312000BC81EA0EFB1E021B130B025011099B010E
:103130002F5F3F4F281B390B2A0F3B1F681B790B52
:10314000645071096A0F7B1FAA24A3946A0189EB5A
:1031500093E00E940720EB81FC813A96FC83EB838D
:10316000F29709F0BFCF6DC01C821B821901F2E0FB
:103170002F0E311C2B5F3F4F3A832983D3016D9172
:103180007C918091B4039091B503F101008111818C
:103190002091B2033091B303A801421B530B7B0172
:1031A000F7E0EF0EF11CE81AF90AAB81BC81EA0ED8
:1031B000FB1EA981BA81EC910E0F111D021B130B8E
:1031C0000E5F1F4F9B012E5F3F4F281B390BEB817A
:1031D000FC812E0F3F1F681B790B635071096E0F26
:1031E0007F1FAA24A3946A0189EB93E00E94072021
:1031F0002B813C81265F3F4F3C832B83223331055B
:1032000009F0BCCF1EC0D90112964D915C91139765
:103210008091B2039091B303481B590B6D917C913F
:103220008091B4039091B503681B790BCC24C394AF
:10323000E4E0EE2E00E12DE137E189EB93E00E941E
:103240004F20B89CF001B99CF00D1124E75BFE4FB4
:10325000FA83E98386819CEF980F923008F077C05B
:103260003F01F5E06F0E711C89809A8024E0820E88
:10327000911C29803A8032E0230E311CA981BA8149
:1032800012964D915C9113978091B2039091B30384
:10329000481B590B6D917C9111978091B4039091CB
:1032A000B503681B790BCC24C39435E0E32E159647
:1032B0000C91159714962C9189EB93E00E94781F3E
:1032C00042E0F42EC980DA80F10160817181D3017E
:1032D0008C919B01280F311D21503109442737FD66
:1032E0004095542F6E5F7F4F882777FD8095982FEC
:1032F0000E94E5302091B2033091B3038B01021B91
:10330000130BF60160817181D4018C919B01280F10
:10331000311D22503109442737FD4095542F6E5FEF
:103320007F4F882777FD8095982F0E94E530209168
:10333000B4033091B503621B730B21E0A80189EB44
:1033400093E00E94391CFA9409F0BECF40C0865029
:103350008230E8F5E981FA81428153818091B2039C
:103360009091B303481B590B608171818091B40324
:103370009091B503681B790BCC24C39424E0E22E12
:1033800000E12DE137E189EB93E00E944F20A98114
:10339000BA8112964D915C9113978091B2039091EE
:1033A000B303481B590B425051096D917C91809198
:1033B000B4039091B503681B790B6C5F7F4FEE24CB
:1033C000E39403E028E089EB93E00E94071F539405
:1033D000FACC4091B7038091B4039091B50320914A
:1033E000B2033091B3034130F1F445E350E0421BA6
:1033F000530B61E371E0681B790BCC24C3949EE00E
:10340000E92E04E12DE237E189EB93E00E944F20A1
:1034100047E350E08091B2039091B303481B590BEE
:103420006EE371E01FC0423059F542E650E0421BA6
:10343000530B65E67FEF681B790BCC24C3948EE0B9
:10344000E82E04E12DE237E189EB93E00E944F2062
:1034500048E650E08091B2039091B303481B590BAA
:1034600068E67FEF8091B4039091B503681B790BF8
:10347000EE24E39406E024E089EB93E00E943E1FF3
:10348000809109010091B4031091B5036091B203DA
:103490007091B303823099F5882777FD8095982F36
:1034A0000E9449339B01AC016091020870910308AE
:1034B00080910408909105080E94AD320E94163355
:1034C0006B017C01B801882777FD8095982F0E94B9
:1034D00049339B01AC016091FE077091FF07809119
:1034E0000008909101080E94AD320E94163301E05D
:1034F00021E0A60189EB93E00E94951E35C0882744
:1035000077FD8095982F0E9449339B01AC01609113
:1035100002087091030880910408909105080E94A8
:10352000AD320E9416334B015C01B801882777FD4C
:103530008095982F0E9449339B01AC016091FE0752
:103540007091FF0780910008909101080E94AD32B0
:103550000E941633EE24E3940091AE0322E0A4010E
:1035600089EB93E00E94071F89EB93E02E960FB63C
:10357000F894DEBF0FBECDBFDF91CF911F910F91A9
:10358000FF90EF90DF90CF90BF90AF909F908F9083
:103590007F906F905F904F903F902F900C94BE2241
:1035A00081E0809308010C942C101092B8030C94C5
:1035B0002F1082EC91E00E945C358091B7038093DC
:1035C00048018DCA2E960FB6F894DEBF0FBECDBF50
:1035D000DF91CF911F910F91FF90EF90DF90CF90EF
:1035E000BF90AF909F908F907F906F905F904F9023
:1035F0003F902F90089589EB93E00C94351BCF9367
:10360000CFB7F8948091D307811127C0E0E2FCE1A5
:103610008491E1E0FCE19491E82FF0E0EE0FFF1FD0
:10362000E45CF34EA591B4918C91892321F461E07F
:1036300081E10E945A2B61E081E10E94212B8CB52F
:1036400080618CBD8CB580648CBD61E08FE00E9490
:10365000212B61E080E10E94212B8091D3078F5FB5
:103660008093D307CFBFCF910895CF93DF93EC0121
:1036700083E391E0998388831B821A82CE010E94A2
:10368000D8258BE291E0998388838CE38E8380E157
:10369000898718861F821E861F86188A198A1A8AA9
:1036A000FE01EC5EFB4F1182108232961182108275
:1036B000C85EDB4F81E08883DF91CF910895CF937F
:1036C000DF93EC010E940B260E94DB268078803875
:1036D00049F40E94A9262FEF4FEF6FEFCE010E9411
:1036E000B526FFCF249665E0CE010E94A1236DE0B0
:1036F000CE010E94A123DF91CF910C94F722FC010F
:10370000668370E088EE93E00E94743461870895C8
:1037100070E0FC01878190850E94603421E0892B54
:1037200009F020E0822F08950F931F93CF93DF932A
:10373000EC010E948E29E62F462F572FBC018A8963
:10374000882351F08A859E2F981B9B8B8F819885AB
:10375000019698878F831A8A0E851F852889398953
:10376000401751076207730734F40E1B023008F14B
:103770000E948E261EC089850A851B852C853D8565
:10378000080F111D211D311D0417150726073707C6
:103790002CF00E871F87288B398B04C04E875F87DC
:1037A000688B798B4A875B876C877D8781E08A8B02
:1037B00001C080E0DF91CF911F910F910895609338
:1037C0007C00673C19F480E280937B0062E070E04B
:1037D00080E090E00E94BD2980917A00806480930F
:1037E0007A0080917A0086FDFCCF809178009091DC
:1037F00079000895CF92DF92EF92FF92CF93DF93FB
:103800007C01C4E6D0E088818E7F888367ECC701A5
:103810000E94DF1B6C016EE5C7010E94DF1B7C016B
:103820000E949A299B01AC01E094F094C094D0943A
:10383000EC9CD001ED9CB00DFC9CB00D11242095AA
:103840003095409550950E94DE346B017C010E94BA
:103850009A296C0D7D1D8E1D9F1D0E94B930888197
:1038600081608883DF91CF91FF90EF90DF90CF90C0
:1038700008956038710518F54034510500F5E42FBE
:10388000E695E695E695F0E047705527F695FE2F0C
:10389000EE27F795E795E60FF71FE80FF91F81E090
:1038A00090E0042E01C0880F0A94EAF7222319F051
:1038B0009489982B03C0809594899823948B0895BC
:1038C0002F923F924F925F926F927F928F929F9230
:1038D000AF92BF92CF92DF92EF92FF920F931F931E
:1038E000CF93DF9300D000D01F92CDB7DEB75C013D
:1038F0004B013A01802F422F50E05D834C834424DA
:103900004394512C441A550A1A01319421943108D8
:10391000220C331CCC24C394D12C01E010E0382FAE
:1039200034703983382F32703A83382F38703B83A4
:103930008170F82EC6010197EC81FD818E179F07DB
:103940000CF07CC057FC0BC04C815D81415051098B
:103950005D834C8352E0250E311C420C531C0E5FDC
:103960001F4F400E511E39813323B1F02E2D4C8153
:103970005D81460D571DB601680D791DC5010E9478
:10398000391C2E2DA601460D571D6C817D81680DB9
:10399000791DC5010E94391C3A813323B9F02E2DBF
:1039A000A3018C819D81481B590BB601680D791DBF
:1039B000C5010E94391C2E2DA3014C195D096C8193
:1039C0007D81680D791DC5010E94391C3B8133231F
:1039D000B9F02E2DA601460D571DB4018C819D8195
:1039E000681B790BC5010E94391C2E2D4C815D810D
:1039F000460D571DB4016C197D09C5010E94391C83
:103A0000FF20C1F02E2DA3014C195D09B401EC81FA
:103A1000FD816E1B7F0BC5010E94391C2E2DA30159
:103A20008C819D81481B590BB4016C197D09C5011E
:103A30000E94391C9FEFC91AD90A7CCF0F900F90B2
:103A40000F900F900F90DF91CF911F910F91FF90EA
:103A5000EF90DF90CF90BF90AF909F908F907F902E
:103A60006F905F904F903F902F9008952F923F92CC
:103A70004F925F926F927F928F929F92AF92BF927E
:103A8000CF92DF92EF92FF920F931F93CF93DF932A
:103A90002C01EB016A0159019801241B350B37FFFA
:103AA00003C0319521953109C5018C1B9D0B97FFF2
:103AB00003C0919581959109FF24F3948217930790
:103AC00014F0F12C0AC09A2D8B2D5801092F182FB4
:103AD0009C2F8D2FE601C92ED82EAC16BD0654F4AE
:103AE0009C2D8D2D6801092F182F9C2F8D2FE501FE
:103AF000A92EB82E15012C1A3D0A38016C187D0824
:103B000077FE03C0719461947108410137FE03C0D0
:103B10008FEF881A980A95948794C016D10614F4EA
:103B200001E001C00FEF112707FD1095AC16BD068F
:103B3000ACF02E2DFF2019F0AE01B60102C0A60197
:103B4000BE01C2010E94391C8618970897FE04C066
:103B5000C00ED11E820C931C2196E8CFDF91CF912D
:103B60001F910F91FF90EF90DF90CF90BF90AF909B
:103B70009F908F907F906F905F904F903F902F908D
:103B80000895AF92BF92CF92DF92EF92FF920F9380
:103B9000CF93DF936C015B017A01E20EF11CEA0125
:103BA00057FF0DC0C0E0D0E00AC0C417D5077CF4B1
:103BB000202FAE01B501C6010E94391C2196A70134
:103BC00081E4E816F1048CF340E450E0EECFDF919D
:103BD000CF910F91FF90EF90DF90CF90BF90AF907B
:103BE00008952F923F924F925F926F927F928F92A1
:103BF0009F92AF92BF92CF92DF92EF92FF920F937C
:103C00001F93CF93DF9300D01F92CDB7DEB74C0147
:103C10003B012A011E2D822F90E09B838A83222460
:103C20002394312C281A390A7C01F194E194F1088B
:103C3000EE0CFF1CAA24A394B12C302F31703983D1
:103C40001F5F0270D02EC5010197EA81FB818E179C
:103C50009F070CF054C037FC0AC08A819B810197F2
:103C60009B838A8392E0E90EF11C2E0C3F1CC50158
:103C7000880F991F0196280E391E39813323E1F0F0
:103C80002A81220F210F0C2DA2018A819B81481BC2
:103C9000590BB501660D771DC4010E94C11D2A2D67
:103CA000220F210FA2014A195B096A817B81660DEF
:103CB000771DC4010E94C11DDD20E9F02A81220F79
:103CC000210F0C2DA201EA81FB814E1B5F0BB3017A
:103CD0006A197B09C4010E94C11D2A2D220F210FE0
:103CE000A2014A195B09B3018A819B81681B790B88
:103CF000C4010E94C11D9FEFA91AB90AA4CF0F9059
:103D00000F900F90DF91CF911F910F91FF90EF9047
:103D1000DF90CF90BF90AF909F908F907F906F90EB
:103D20005F904F903F902F9008958F929F92AF9207
:103D3000BF92CF92EF92FF920F931F93CF93DF9397
:103D4000EC015B014A01122FC02E220F2F5F411B95
:103D500051090E94C11DE12CF12C03E0212FA40187
:103D6000B501CE010E94F11DDF91CF911F910F91FE
:103D7000FF90EF90CF90BF90AF909F908F9008955D
:103D80000F934034510508F040C030E077FF04C085
:103D9000260F371F60E070E0FB01E20FF31FE138F0
:103DA000F10524F020E830E0261B370B121613062D
:103DB00064F5FA01A3E0F595E795AA95E1F7F69584
:103DC000FE2FEE27F795E795E60FF71F7496E80F9D
:103DD000F91F4770552781E090E001C0880F4A9590
:103DE000EAF7482F002349F0013079F42E0F2E17FF
:103DF00061F08081842B8193FACF80952E0F2E174E
:103E000021F0908198239193FACF0F910895AF926A
:103E1000BF92CF92DF92EF92FF920F931F93CF93B7
:103E2000DF93EC015B016A01F22E102F0E2D0E9430
:103E3000C01EA601410F511D415051092F2DB50142
:103E4000CE010E94C01E212FA601B501CE010E9405
:103E5000C11DB5016F0D711D61507109212FA601A2
:103E6000CE010E94C11DDF91CF911F910F91FF9054
:103E7000EF90DF90CF90BF90AF9008958F929F9278
:103E8000AF92BF92CF92DF92EF920F931F93CF9397
:103E9000DF936C015A01102FEB014B01820E911C34
:103EA000C815D9054CF40E2D212FA501BE01C60160
:103EB0000E94C11D2196F4CFDF91CF911F910F91E8
:103EC000EF90DF90CF90BF90AF909F908F9008952C
:103ED0004496B62FB111BFEFFC010024B193B1930A
:103EE000B193B1930394D1F7089560E00C94681FE7
:103EF0002F923F924F925F926F927F928F929F92FA
:103F0000AF92BF92CF92DF92EF92FF920F931F93E7
:103F1000CF93DF9300D01F92CDB7DEB79B838A8308
:103F20003B014A01D22EF02E1E2DE194EE0C3E2DC7
:103F3000320F412E512C5B01A40CB51C0C2D232FEC
:103F4000B50139830E94C01E14012F0C311CA10140
:103F5000415051093981232FB5018A819B810E94EB
:103F6000C01EFE0C840C951C2F2DA401B3018A8168
:103F70009B810E94C11D6D0C711CB30161507109C0
:103F80002F2DA4018A819B810E94C11DEC2C01E090
:103F9000212FA401B5018A819B810E94601C6418B5
:103FA000750881E0681A710802E0212FA401B301AD
:103FB0008A819B810E94601C24183508E1E02E1A3A
:103FC000310804E0212FA101B3018A819B810E9465
:103FD000601C08E0212FA101B5018A819B810E940C
:103FE000601C0F900F900F90DF91CF911F910F9158
:103FF000FF90EF90DF90CF90BF90AF909F908F9009
:104000007F906F905F904F903F902F9008952F92E8
:104010003F924F925F926F927F928F929F92AF9258
:10402000CF92DF92EF92FF920F931F93CF93DF9384
:1040300000D000D0CDB7DEB79C838B831B014A0133
:1040400039012801FA82E982EA2C0E94361D860194
:1040500029813A81A201B3018B819C810E94361D86
:1040600084019101A60169817A818B819C810E94E2
:10407000361D0F900F900F900F90DF91CF911F91F1
:104080000F91FF90EF90DF90CF90AF909F908F9027
:104090007F906F905F904F903F902F9008952F9258
:1040A0003F924F925F926F927F928F929F92AF92C8
:1040B000BF92CF92DF92EF92FF920F931F93CF9315
:1040C000DF9300D000D01F92CDB7DEB7C982202E7B
:1040D000312CFB01E20DF31DF7FD13C160387105B2
:1040E0000CF00FC1FA01EE0DF11DF7FD0AC14034CD
:1040F00051050CF006C1DA0157FF04C0AA27BB27FF
:10410000A41BB50BFD01E770FF27FB83EA83FA01CF
:1041100057FD3796DF01F3E0B595A795FA95E1F7DE
:10412000BD83AC8357FF0CC01197BD83AC8348E0BF
:1041300050E0DA01EA81FB81AE1BBF0BBB83AA838F
:104140004E2D469546954695C42ED12C4E2D477042
:1041500019F0FFEFCF1ADF0A49014C815D815695B6
:10416000542F442757954795480F591F2C813D815F
:10417000E8E06E2E712C8A819B81681A790AC90148
:10418000AC81BD818A1B9B0B8C159D050CF0B9C0C1
:104190002830310509F4B5C02F3F9FEF39070CF4E3
:1041A000A3C0CB0100E010E0DA01A058BF4F2D0101
:1041B000021513050CF098C08038910509F494C0DD
:1041C00097FD8EC02F3FBFEF3B0709F494C0D80185
:1041D000A80DB91D7A01E80EF91EE981E13071F4EC
:1041E000FD01A491B0E00A8002C0AA0FBB1F0A948F
:1041F000E2F7F701B488AB29A48B28C0F981F1114B
:1042000014C0FD01A491EA2FF0E00A8002C0EE0F75
:10421000FF1F0A94E2F7E095F095D7015496AC9011
:104220005497B12CEA21FB210FC0FD01A491EA2F84
:10423000F0E00A8002C0EE0FFF1F0A94E2F7D701F8
:104240005496BC905497EB255496EC93AA81BB816D
:10425000AB2B09F445C02730310509F441C0F80102
:10426000E80DF91DB981B13089F4E491F0E0062C34
:1042700002C0F595E7950A94E2F77201E80EF91E7F
:10428000D7015496BC905497EB2928C0B981B1113D
:1042900015C0E491F0E0062C02C0F595E7950A946C
:1042A000E2F7E095F0957201E80EF91ED7015496F9
:1042B000AC905497B12CEA21FB2110C0E491F0E0BE
:1042C000062C02C0F595E7950A94E2F77201E80E14
:1042D000F91ED7015496BC905497EB255496EC9355
:1042E0000F5F1F4F019664CF2F5F3F4F820C931CCF
:1042F00040585F4F44CFAA81BB81AB2B09F0AFCFB1
:10430000EFCF0F900F900F900F900F90DF91CF9104
:104310001F910F91FF90EF90DF90CF90BF90AF90E3
:104320009F908F907F906F905F904F903F902F90D5
:1043300008952F923F924F925F926F927F928F9249
:104340009F92AF92BF92CF92DF92EF92FF920F9324
:104350001F93CF93DF93CDB7DEB728970FB6F894AE
:10436000DEBF0FBECDBF9E838D832A0160387105ED
:104370000CF06DC0403451050CF069C0CB01A5E0D4
:10438000CA9E800D911D1124181619060CF05FC0ED
:10439000EC2DF0E0FC83EB83CA01F8E0CF9E800DAA
:1043A000911D1124181619060CF051C0A5E02A9F82
:1043B000C00111245B0118861F8280539E4F9A838F
:1043C0008983BF81B53041F0E981FA818F81988579
:1043D000E80FF91F149101C010E0320188E0D82ED7
:1043E00010FF02C0F02E01C0FE2CF1100BC0E01235
:1043F00009C01695DA94AB81BC816A0E7B1ED11080
:10440000EFCF19C01501822D8A198C1590F7430141
:10441000882D86198C1558F42F2DA401B1018D819A
:104420009E810E94391CBFEF8B1A9B0AF1CFEFEFE0
:104430002E1A3E0AE8CF8F819885019698878F8340
:10444000AB81BC81AA0EBB1E069709F0BACF289695
:104450000FB6F894DEBF0FBECDBFDF91CF911F9195
:104460000F91FF90EF90DF90CF90BF90AF909F9013
:104470008F907F906F905F904F903F902F90089516
:104480008F929F92AF92BF92CF92EF920F93CF9362
:10449000DF93EC01262F6A3099F4FC01E85EFB4FB4
:1044A000208132978081918138E0239F800D911D7A
:1044B000112491838083CC5EDB4F198218824BC01C
:1044C0006D3009F448C0FC01EA5EFB4F4081518128
:1044D0005C018CEEA81A8BEFB80AF501608171813E
:1044E0004E01F8EE8F1AFBEF9F0AF401C080E12C19
:1044F00001E0CE010E949921F4012081422F50E079
:10450000F50180819181F6E02F9F800D911D11248E
:10451000F50191838083359620812223E1F06AEFB3
:1045200064039001659F300D112420583F4F2817D8
:1045300039078CF4E881F9810190F081E02D6AE07F
:10454000CE01DF91CF910F91EF90CF90BF90AF90C0
:104550009F908F900994DF91CF910F91EF90CF9022
:10456000BF90AF909F908F900895FC01EC5EFB4F41
:1045700071836083329651834083089544960C94EE
:104580009926CF93DF931F92CDB7DEB769830E9440
:10459000DB266981982F962381E0961380E00F90A7
:1045A000DF91CF910895E4E6F0E08081877F8083FA
:1045B000E5E6F0E08081877F808381E08093D40707
:1045C00008958091D40708951092D407E4E6F0E0AE
:1045D000808188608083E5E6F0E080818860808368
:1045E00008956091D40782E090E00C945C351092BD
:1045F000E10782E090E00E94543581110C94D322AF
:104600000895CF92DF92EF92FF921F93CF93DF93A3
:104610009091E207891708F065C067FD63C0E82F35
:10462000F0E0E056F84F1491E62FF0E0603330F4FC
:10463000E059F84FE491CE2FD0E006C0EE0FFF1FF7
:10464000E059F94FC591D4916E01E12CF12C60E055
:1046500074E284EF90E0A70196010E94AA342150F1
:104660003109410951092115310581E048075105FA
:1046700070F060E970ED83E090E0A70196010E9480
:10468000AA34215031094109510993E001C091E058
:104690001130C9F0133031F580919100887F892B5A
:1046A000809391003093990020939800D093E00775
:1046B000C093DF0781E08093DE0780917100826004
:1046C000809371000FC080918100887F892B809337
:1046D0008100309389002093880080916F00826070
:1046E00080936F00DF91CF911F91FF90EF90DF904B
:1046F000CF900895E82FF0E0E056F84FE491E130D4
:1047000019F0E33069F0089580916F008D7F8093F8
:104710006F002091EC07E091ED07F091EE0708C0E3
:104720001092DE072091E507E091E607F091E70798
:10473000808190E030E02095309582239323808320
:104740000895CF93DF93C62F8091E207823009F45A
:104750006BC0E82FF0E0E056F84FD491A82FB0E0FE
:10476000AD51B84F6C938F5F8093E20761E08C2F5F
:104770000E94212BD13091F1D33009F055C0109215
:104780009000109291008091910088608093910038
:10479000809191008160809391006C2F70E0FB010B
:1047A000E15FF34E249130E0220F331F225D334E40
:1047B000F901859194919093E7078093E607FB01B7
:1047C000E051F44E64916093E5076CE380E00E9451
:1047D000012380E0DF91CF910C947A231092800026
:1047E0001092810080918100886080938100809187
:1047F00081008160809381006C2F70E0FB01E15F9C
:10480000F34E249130E0220F331F225D334EF90125
:10481000859194919093EE078093ED07FB01E05111
:10482000F44E64916093EC07DF91CF910895E0918D
:10483000D507F091D607BF016F5F7F4F7093D60702
:104840006093D507A4919A2F907F8A2F8F7090380C
:1048500019F40E947A23EBCF903961F4AF014E5FD7
:104860005F4F5093D6074093D507FB0164910E9498
:104870000123DDCF903E49F48091D7079091D8076E
:104880009093D6078093D507D2CF903F19F410921A
:10489000E107089597FDCBCFAF014E5F5F4F509377
:1048A000D6074093D507FB016491262F30E03A2BC1
:1048B000A091DF07B091E0070E94CF346C507E4F8B
:1048C0008F4F9F4F28EE33E040E050E00E94883445
:1048D0002093D9073093DA074093DB075093DC0726
:1048E0008091D9079091DA07A091DB07B091DC079E
:1048F000892B8A2B8B2B61F481E090E0A0E0B0E063
:104900008093D9079093DA07A093DB07B093DC0775
:1049100008958091DE07882349F09091E507E091A2
:10492000E607F091E7078081892780838091E1077E
:10493000882329F18091D9079091DA07A091DB07AC
:10494000B091DC07892B8A2B8B2BC9F08091D9077A
:104950009091DA07A091DB07B091DC070197A109DC
:10496000B1098093D9079093DA07A093DB07B0933E
:10497000DC07892B8A2B8B2B11F40C9417240895B8
:104980004F925F926F927F928F929F92AF92BF925F
:10499000CF92DF92EF92FF92CF93DF93EB01490129
:1049A0005A0181E08093DD072B01612C712C60E0BE
:1049B00072E18AE790E0A30192010E94AA346901A2
:1049C0007A0181E0C81AD108E108F108C114D104C4
:1049D00081E0E806F10488F068E478EE81E090E098
:1049E000A30192010E94AA3469017A0181E0C81AE8
:1049F000D108E108F10893E001C091E080918100C5
:104A0000887F892B8093810081149104A104B104D3
:104A100071F0DE01AA0FBB1FA50194010E94DE34D4
:104A200028EE33E040E050E00E94883403C02FEFCE
:104A30003FEFA901D0928900C09288002093E80737
:104A40003093E9074093EA075093EB0780916F009A
:104A5000826080936F00DF91CF91FF90EF90DF90A5
:104A6000CF90BF90AF909F908F907F906F905F900E
:104A70004F9008951F920F920FB60F9211242F930B
:104A80003F938F939F93AF93BF93EF93FF93809147
:104A9000DD07882309F44BC08091E8079091E9076E
:104AA000A091EA07B091EB07892B8A2B8B2B51F150
:104AB0009091EC07E091ED07F091EE078081892756
:104AC00080838091E8079091E907A091EA07B0916F
:104AD000EB07181619061A061B0694F58091E807CD
:104AE0009091E907A091EA07B091EB070197A1091E
:104AF000B1098093E8079093E907A093EA07B09380
:104B0000EB071EC01092DD0780916F008D7F8093B0
:104B10006F002091EC07E091ED07F091EE078081A6
:104B200090E030E0209530958223932308C0909147
:104B3000EC07E091ED07F091EE07808189278083F3
:104B4000FF91EF91BF91AF919F918F913F912F91E5
:104B50000F900FBE0F901F9018951F920F920FB6D7
:104B60000F9211242F933F934F935F936F937F93F3
:104B70008F939F93AF93BF93EF93FF930E948924EA
:104B8000FF91EF91BF91AF919F918F917F916F9125
:104B90005F914F913F912F910F900FBE0F901F90FB
:104BA00018958EBD00000DB407FEFDCF8EB508959B
:104BB0000895E091F107F091F20780819091EF075D
:104BC000892B8083E091F307F091F4079081809125
:104BD000F0078095892380830895E091F307F09191
:104BE000F40780819091F007892B8083E091F10791
:104BF000F091F20790818091EF078095892380835F
:104C0000E091F307F091F40790818091F00780958F
:104C1000892380830895CF93DF930E94FF1ACFEA00
:104C2000D7E0BE01FE01849122966F5F7F4FFB01AA
:104C30006491882319F00E94212BF3CF61E086E074
:104C40000E945A2B61E070E080E090E00E94BD2954
:104C500060E086E00E945A2B6AE070E080E090E01D
:104C60000E94BD2961E086E00E945A2BEBE1FCE145
:104C7000E491F0E0EE0FFF1FE25DF34E8591949119
:104C80009093F4078093F307ECEFFBE1E491E0935A
:104C9000F007E3E1FCE1E491F0E0EE0FFF1FE25DDD
:104CA000F34E859194919093F2078093F107E4EF8E
:104CB000FBE1E491E093EF078CB58C7F8CBD8DB563
:104CC00081608DBD0E94ED25C2EAD7E0F7E0CF3AC2
:104CD000DF0731F0FE0184910E94D1252196F6CFA5
:104CE0000E94D92580916400816080936400809146
:104CF0006400826080936400809164008068809387
:104D000064008091640080648093640080916500F9
:104D1000816080936500DF91CF91089583B7817F93
:104D200083BF83B7816083BF889583B78E7F83BF3E
:104D3000089520E030E0FC014191CF014EBD119C6F
:104D4000119C119C2F5F3F4F2115F4E03F0799F70D
:104D50000895CF93DF93C0E0D4E080E00E94D12596
:104D60002197D9F7DF91CF9108950F931F93CF9398
:104D7000DF9300D0CDB7DEB70FEF10E0C801861B80
:104D80009109BC018AE02A8349830E944D2A498106
:104D9000B801641B71098BE00E944D2A2A81B80179
:104DA000621B710989E00F900F90DF91CF911F91E5
:104DB0000F910C944D2A8FB14CB123B150E0409526
:104DC00050954074552733E0559547953A95E1F74E
:104DD00030E020953095207133273595279535950E
:104DE0002795242B8095807F822B08958F929F9208
:104DF000AF92BF92CF92DF92EF92FF920F931F93E9
:104E0000CF93DF93EC018B0160E4C8010E94C122C3
:104E10008823B9F0C880D980EA80FB802AE939E983
:104E200049E95FE3C701B6010E94123387FF29C039
:104E30002FE832EC45EF5CE3C701B6010E94AE32C9
:104E40001CC060E2C8010E94C1228823D1F0C88042
:104E5000D980EA80FB802AE939E949E95FEBC7019B
:104E6000B6010E94F933181664F42FE832EC45EFCE
:104E70005CE3C701B6010E94AD32688379838A83FF
:104E80009B8360E1C8010E94C122811106C064E0D9
:104E9000C8010E94C122882311F120E030E040E8DF
:104EA0005FEB6C817D818E819F810E94123387FF31
:104EB00008C080E090E0A0E8BFEB8C839D83AE83C8
:104EC000BF832BE734E14EE65FE3688179818A8115
:104ED0009B810E94FD33688379838A839B8368E08A
:104EE000C8010E94C1228823E1F088858823C9F087
:104EF00020E030E0A90169897A898B899C890E9428
:104F0000F93387FD05C080E090E0A0E2B0EC04C07A
:104F100080E090E0A0E2B0E48C839D83AE83BF8309
:104F20001886C988DA88EB88FC882C813D814E81FF
:104F30005F81C701B6010E94AE326C837D838E8390
:104F40009F832A8D2223D1F09F772DEC3CEC4CE8F7
:104F50005FEB0E94FD334B015C016C837D838E838C
:104F60009F8320E030E0A901C701B6010E94F93318
:104F700087FD02C081E088871A8E1CC0298D2223FC
:104F800091F19F772DEC3CEC4CE85FE30E94FD3300
:104F90004B015C016C837D838E839F8320E030E036
:104FA000A901C701B6010E941233181614F081E05E
:104FB0008887198EC501B4019F7720E030E048E46E
:104FC00052E40E94FD3320E030E048EC53E40E94BC
:104FD000AE320E941B332AE030E040E050E0C801CE
:104FE00004960E94C024888D8823A9F08881998125
:104FF000AA81BB81BC01CD019F7720E030E040EC6D
:105000005FEB0E94FD33688379838A839B8321E071
:105010002887188E17C08F89882359F18881998134
:10502000AA81BB81BC01CD019F7720E030E040EC3C
:105030005FE30E94FD33688379838A839B8321E049
:1050400028871F8A9F7720E030E048E452E40E94DE
:10505000FD3320E030E048EC53E40E94AE320E9481
:105060001B332AE030E040E050E0C80104960E9483
:10507000C02422E538EB4EE75FE36C817D818E81B1
:105080009F810E94FD334B015C016C837D838E8385
:105090009F8328E431EE4AE75FE3688179818A8162
:1050A0009B810E94FD336B017C01688379838A8335
:1050B0009B832DEC3CEC4CE050E4C501B4010E9414
:1050C000F93387FD10C020E030E0A90169897A89B1
:1050D0008B899C890E94F93387FD05C08DEC9CEC7F
:1050E000ACE0B0E419C02DEC3CEC4CE050ECC50158
:1050F000B4010E94123318169CF020E030E0A901A0
:1051000069897A898B899C890E941233181644F028
:105110008DEC9CECACE0B0EC8C839D83AE83BF83C4
:1051200020E030E040E850E4C701B6010E94F933C6
:1051300018162CF480E090E0A0E8B0E40EC020E067
:1051400030E040E850ECC701B6010E94123387FFFF
:1051500008C080E090E0A0E8B0EC88839983AA833F
:10516000BB832C813D814E815F816D857E858F85DE
:1051700098890E94AE326D877E878F87988B2881B1
:1051800039814A815B8169857A858B859C850E94FE
:10519000AE3269877A878B879C878D89811107C09A
:1051A0008E8981508E8B811102C081E08D8BDF91C1
:1051B000CF911F910F91FF90EF90DF90CF90BF9014
:1051C000AF909F908F900895CF92DF92EF92FF92D1
:1051D000CF93DF93EC017A01882777FD8095982F94
:1051E0000E94493369877A878B879C87B701882714
:1051F00077FD8095982F0E9449336B017C016D8764
:105200007E878F87988B2AE939E949E15EE36989CE
:105210007A898B899C890E941233882361F020E06F
:1052200030E040E051E4C701B6010E94AE326D8724
:105230007E878F87988B1C821D821E821F82188218
:1052400019821A821B8218861F8A188E198E1A8E4E
:105250001E8A81E08D8BDF91CF91FF90EF90DF90E0
:10526000CF9008952FE0FC01268B158A08958AE9D6
:1052700099E9A9E1BEE38093060890930708A093FB
:105280000808B093090808951F920F920FB60F9265
:1052900011242F933F938F939F93AF93BF9380914C
:1052A000110890911208A0911308B0911408309140
:1052B000100823E0230F2D3720F40196A11DB11D06
:1052C00005C026E8230F0296A11DB11D20931008EA
:1052D0008093110890931208A0931308B0931408B8
:1052E0008091150890911608A0911708B0911808A0
:1052F0000196A11DB11D8093150890931608A093E7
:105300001708B0931808BF91AF919F918F913F916B
:105310002F910F900FBE0F901F9018952FB7F894F4
:1053200060911108709112088091130890911408EF
:105330002FBF08953FB7F8948091150890911608F3
:10534000A0911708B091180826B5A89B05C02F3F5B
:1053500019F00196A11DB11D3FBF6627782F892F37
:105360009A2F620F711D811D911D42E0660F771FFC
:10537000881F991F4A95D1F708958F929F92AF92F7
:10538000BF92CF92DF92EF92FF926B017C010E945D
:105390009A294B015C01C114D104E104F104F1F03C
:1053A0000E9401310E949A29681979098A099B098A
:1053B000683E73408105910570F321E0C21AD1085F
:1053C000E108F10888EE880E83E0981EA11CB11C4C
:1053D000C114D104E104F10429F7DDCFFF90EF906F
:1053E000DF90CF90BF90AF909F908F90089578946A
:1053F00084B5826084BD84B5816084BD85B58260DA
:1054000085BD85B5816085BDEEE6F0E08081816077
:105410008083E1E8F0E01082808182608083808177
:1054200081608083E0E8F0E0808181608083E1E951
:10543000F0E0808182608083808181608083E0E908
:10544000F0E0808181608083E1ECF0E08081846025
:105450008083808182608083808181608083E3ECAF
:10546000F0E0808181608083E0ECF0E08081826008
:105470008083E2ECF0E0808181608083EAE7F0E005
:10548000808184608083808182608083808181606C
:10549000808380818068808308951F93CF93DF93FA
:1054A000182FEB0161E00E94212B209711F460E09E
:1054B00004C0CF3FD10539F461E0812FDF91CF9156
:1054C0001F910C945A2BE12FF0E0EF52F44E4491CF
:1054D00050E0FA013197EF30F10508F06CC0ED595A
:1054E000FF4F0C94C93484B5806884BDC7BD68C0C3
:1054F00084B5806284BDC8BD63C08091800080682F
:1055000080938000D0938900C093880059C0809117
:105510008000806280938000D0938B00C0938A00CB
:105520004FC080918000886080938000D0938D0070
:10553000C0938C0045C0809190008068809390005B
:10554000D0939900C09398003BC0809190008062F6
:1055500080939000D0939B00C0939A0031C08091BB
:105560009000886080939000D0939D00C0939C0031
:1055700027C08091C00080688093C0008091C000E7
:105580008F7B8093C000C093CF001AC08091C00071
:1055900080628093C000C093D00012C08091C2008E
:1055A00088608093C2008091C2008B7F8093C2008C
:1055B000C093D20005C0C038D1050CF07DCF77CFA5
:1055C000DF91CF911F91089590E0FC013197EF306A
:1055D000F105B0F5EE58FF4F0C94C934809180006E
:1055E0008F7703C0809180008F7D80938000089525
:1055F00080918000877FF9CF84B58F7702C084B512
:105600008F7D84BD0895809190008F7707C0809131
:1056100090008F7D03C080919000877F80939000E1
:1056200008958091C0008F7703C08091C0008F7D66
:105630008093C00008958091C200877F8093C2004C
:105640000895CF93DF9390E0FC01E051F44E249154
:10565000FC01E15FF34E8491882349F190E0880FCB
:10566000991FFC01E45CF34EA591B491825D934EC9
:10567000FC01C591D4919FB7611108C0F8948C9139
:10568000209582238C93888182230AC0623051F452
:10569000F8948C91322F309583238C938881822BC0
:1056A000888304C0F8948C91822B8C939FBFDF91E8
:1056B000CF9108950F931F93CF93DF931F92CDB790
:1056C000DEB7282F30E0F901EF52F44E8491F90152
:1056D000E051F44E1491F901E15FF34E049100237F
:1056E000C9F0882321F069830E94E42A6981E02FB0
:1056F000F0E0EE0FFF1FE25DF34EA591B4919FB76E
:10570000F8948C91611103C01095812301C0812B05
:105710008C939FBF0F90DF91CF911F910F910895B0
:1057200008950E94F7290E94902B89E198E00E9439
:105730009C300E94A80FC0E0D0E00E94CC0F2097C0
:10574000E1F30E940000F9CFCF92DF92EF92FF9237
:105750000F931F93CF93DF937C016A01EB0100E06D
:1057600010E00C151D0571F06991D701ED91FC91C8
:105770000190F081E02DC7010995892B19F00F5F89
:105780001F4FEFCFC801DF91CF911F910F91FF9075
:10579000EF90DF90CF9008956115710581F0DB01E6
:1057A0000D900020E9F7AD0141505109461B570B00
:1057B000DC01ED91FC910280F381E02D099480E001
:1057C00090E00895EF92FF920F931F93CF93DF9392
:1057D0008C017B01C0E0D0E0F701EC0FFD1F64916C
:1057E000662359F0F801A081B181ED91FC91C801C7
:1057F0000995892B11F02196EFCFCE01DF91CF9142
:105800001F910F91FF90EF9008950C94CC2B8F92E5
:105810009F92AF92BF92DF92EF92FF920F931F93EE
:10582000CF93DF93CDB7DEB7A1970FB6F894DEBF65
:105830000FBECDBF7C01F42FD52ECB0119A2223093
:1058400008F42AE08E010F5D1F4F822E912CA12CAF
:10585000B12C6F2F7D2DA50194010E948834F22F69
:10586000D32ECA01015011096A3014F4E0E301C0DB
:10587000E7E3E60FD801EC93232B242B252B49F7E4
:10588000B801C7010E94CC2BA1960FB6F894DEBFD9
:105890000FBECDBFDF91CF911F910F91FF90EF9081
:1058A000DF90BF90AF909F908F90089521153105A4
:1058B00041F4DC01ED91FC910190F081E02D642F29
:1058C00009940C94072C9A01462F50E060E070E098
:1058D0000C94562C615030F02091F100FC01208393
:1058E0000196F8CF289884E6809322080895409185
:1058F0001D0850911E0820911B0830911C0842176A
:105900005307B4F49091E8009570E1F39091E800AA
:1059100092FD19C08093F10080911D0890911E089E
:1059200001968F739927892B19F48EEF8093E800E5
:1059300080911D0890911E08019690931E088093F7
:105940001D0881E0089580E00895CF92DF92EF92E4
:10595000FF920F931F93CF93DF931F92CDB7DEB7C4
:10596000082F162FF42E862F880F8E5F99830E94A2
:10597000772C83E00E94772CE02EC02E9981D92EBF
:105980008C2D8E19811798F4F601F7FE02C08491D0
:1059900001C080810E94772C082F80E00E94772C24
:1059A0008023FFEFCF1ADF0A8111EACF01C081E027
:1059B0000F90DF91CF911F910F91FF90EF90DF90AB
:1059C000CF9008958091D70081608093D70080EABE
:1059D0008093D80089B5806189BD89B5826089BD11
:1059E00009B400FEFDCF61E070E080E090E00E942D
:1059F000BD298091D8008F7C80618093D8008091F0
:105A0000E000807F8093E0000895CF93DF931F92A2
:105A1000CDB7DEB71982CE0101960E9461310E9496
:105A20009932BE016F5F7F4F0E94123289810F90C1
:105A3000DF91CF9108952FB7FC012083F894677010
:105A40006093E9000895CF93DF931F92CDB7DEB73F
:105A5000682FCE0101960E941B2D8091F200998142
:105A60009FBF0F90DF91CF910895FF920F931F93E7
:105A7000CF93DF9300D0CDB7DEB7F62E8A01909199
:105A80002108992311F057FF03C08FEF9FEF2BC020
:105A9000682FCE0101967A830E941B2D8091F2001F
:105AA00090E0A8017A81801791070CF4AC01EF2DEA
:105AB000F72FF40E84E6FE1639F02898809322081A
:105AC0009091F1009193F7CF4115510521F080910C
:105AD000F200882321F089818FBFCA0104C08BE6C0
